{
  "address": "0x14deC4C8a22798C84dC79544cD55CB2da3D4370f",
  "abi": [
    {
      "inputs": [
        {
          "internalType": "address",
          "name": "_b",
          "type": "address"
        },
        {
          "internalType": "address",
          "name": "_blo",
          "type": "address"
        },
        {
          "internalType": "uint256",
          "name": "_duration",
          "type": "uint256"
        },
        {
          "internalType": "uint256",
          "name": "_initreward",
          "type": "uint256"
        },
        {
          "internalType": "uint256",
          "name": "_starttime",
          "type": "uint256"
        }
      ],
      "stateMutability": "nonpayable",
      "type": "constructor"
    },
    {
      "anonymous": false,
      "inputs": [
        {
          "indexed": true,
          "internalType": "address",
          "name": "previousOwner",
          "type": "address"
        },
        {
          "indexed": true,
          "internalType": "address",
          "name": "newOwner",
          "type": "address"
        }
      ],
      "name": "OwnershipTransferred",
      "type": "event"
    },
    {
      "anonymous": false,
      "inputs": [
        {
          "indexed": false,
          "internalType": "uint256",
          "name": "reward",
          "type": "uint256"
        }
      ],
      "name": "RewardAdded",
      "type": "event"
    },
    {
      "anonymous": false,
      "inputs": [
        {
          "indexed": true,
          "internalType": "address",
          "name": "user",
          "type": "address"
        },
        {
          "indexed": false,
          "internalType": "uint256",
          "name": "reward",
          "type": "uint256"
        }
      ],
      "name": "RewardPaid",
      "type": "event"
    },
    {
      "anonymous": false,
      "inputs": [
        {
          "indexed": true,
          "internalType": "address",
          "name": "user",
          "type": "address"
        },
        {
          "indexed": false,
          "internalType": "uint256",
          "name": "amount",
          "type": "uint256"
        }
      ],
      "name": "Staked",
      "type": "event"
    },
    {
      "anonymous": false,
      "inputs": [
        {
          "indexed": true,
          "internalType": "address",
          "name": "user",
          "type": "address"
        },
        {
          "indexed": false,
          "internalType": "uint256",
          "name": "amount",
          "type": "uint256"
        }
      ],
      "name": "Withdrawn",
      "type": "event"
    },
    {
      "inputs": [],
      "name": "b",
      "outputs": [
        {
          "internalType": "contract IERC20Detailed",
          "name": "",
          "type": "address"
        }
      ],
      "stateMutability": "view",
      "type": "function"
    },
    {
      "inputs": [
        {
          "internalType": "address",
          "name": "account",
          "type": "address"
        }
      ],
      "name": "balanceOf",
      "outputs": [
        {
          "internalType": "uint256",
          "name": "",
          "type": "uint256"
        }
      ],
      "stateMutability": "view",
      "type": "function"
    },
    {
      "inputs": [],
      "name": "blo",
      "outputs": [
        {
          "internalType": "contract IERC20Detailed",
          "name": "",
          "type": "address"
        }
      ],
      "stateMutability": "view",
      "type": "function"
    },
    {
      "inputs": [],
      "name": "duration",
      "outputs": [
        {
          "internalType": "uint256",
          "name": "",
          "type": "uint256"
        }
      ],
      "stateMutability": "view",
      "type": "function"
    },
    {
      "inputs": [
        {
          "internalType": "address",
          "name": "account",
          "type": "address"
        }
      ],
      "name": "earned",
      "outputs": [
        {
          "internalType": "uint256",
          "name": "",
          "type": "uint256"
        }
      ],
      "stateMutability": "view",
      "type": "function"
    },
    {
      "inputs": [],
      "name": "exit",
      "outputs": [],
      "stateMutability": "nonpayable",
      "type": "function"
    },
    {
      "inputs": [],
      "name": "getReward",
      "outputs": [],
      "stateMutability": "nonpayable",
      "type": "function"
    },
    {
      "inputs": [],
      "name": "initreward",
      "outputs": [
        {
          "internalType": "uint256",
          "name": "",
          "type": "uint256"
        }
      ],
      "stateMutability": "view",
      "type": "function"
    },
    {
      "inputs": [],
      "name": "lastTimeRewardApplicable",
      "outputs": [
        {
          "internalType": "uint256",
          "name": "",
          "type": "uint256"
        }
      ],
      "stateMutability": "view",
      "type": "function"
    },
    {
      "inputs": [],
      "name": "lastUpdateTime",
      "outputs": [
        {
          "internalType": "uint256",
          "name": "",
          "type": "uint256"
        }
      ],
      "stateMutability": "view",
      "type": "function"
    },
    {
      "inputs": [],
      "name": "owner",
      "outputs": [
        {
          "internalType": "address",
          "name": "",
          "type": "address"
        }
      ],
      "stateMutability": "view",
      "type": "function"
    },
    {
      "inputs": [],
      "name": "periodFinish",
      "outputs": [
        {
          "internalType": "uint256",
          "name": "",
          "type": "uint256"
        }
      ],
      "stateMutability": "view",
      "type": "function"
    },
    {
      "inputs": [],
      "name": "renounceOwnership",
      "outputs": [],
      "stateMutability": "nonpayable",
      "type": "function"
    },
    {
      "inputs": [],
      "name": "rewardPerToken",
      "outputs": [
        {
          "internalType": "uint256",
          "name": "",
          "type": "uint256"
        }
      ],
      "stateMutability": "view",
      "type": "function"
    },
    {
      "inputs": [],
      "name": "rewardPerTokenStored",
      "outputs": [
        {
          "internalType": "uint256",
          "name": "",
          "type": "uint256"
        }
      ],
      "stateMutability": "view",
      "type": "function"
    },
    {
      "inputs": [],
      "name": "rewardRate",
      "outputs": [
        {
          "internalType": "uint256",
          "name": "",
          "type": "uint256"
        }
      ],
      "stateMutability": "view",
      "type": "function"
    },
    {
      "inputs": [
        {
          "internalType": "address",
          "name": "",
          "type": "address"
        }
      ],
      "name": "rewards",
      "outputs": [
        {
          "internalType": "uint256",
          "name": "",
          "type": "uint256"
        }
      ],
      "stateMutability": "view",
      "type": "function"
    },
    {
      "inputs": [
        {
          "internalType": "address",
          "name": "_rewardDistribution",
          "type": "address"
        }
      ],
      "name": "setRewardDistribution",
      "outputs": [],
      "stateMutability": "nonpayable",
      "type": "function"
    },
    {
      "inputs": [
        {
          "internalType": "uint256",
          "name": "amount",
          "type": "uint256"
        }
      ],
      "name": "stake",
      "outputs": [],
      "stateMutability": "nonpayable",
      "type": "function"
    },
    {
      "inputs": [],
      "name": "starttime",
      "outputs": [
        {
          "internalType": "uint256",
          "name": "",
          "type": "uint256"
        }
      ],
      "stateMutability": "view",
      "type": "function"
    },
    {
      "inputs": [],
      "name": "totalRewards",
      "outputs": [
        {
          "internalType": "uint256",
          "name": "",
          "type": "uint256"
        }
      ],
      "stateMutability": "view",
      "type": "function"
    },
    {
      "inputs": [],
      "name": "totalSupply",
      "outputs": [
        {
          "internalType": "uint256",
          "name": "",
          "type": "uint256"
        }
      ],
      "stateMutability": "view",
      "type": "function"
    },
    {
      "inputs": [
        {
          "internalType": "address",
          "name": "newOwner",
          "type": "address"
        }
      ],
      "name": "transferOwnership",
      "outputs": [],
      "stateMutability": "nonpayable",
      "type": "function"
    },
    {
      "inputs": [
        {
          "internalType": "address",
          "name": "",
          "type": "address"
        }
      ],
      "name": "userRewardPerTokenPaid",
      "outputs": [
        {
          "internalType": "uint256",
          "name": "",
          "type": "uint256"
        }
      ],
      "stateMutability": "view",
      "type": "function"
    },
    {
      "inputs": [
        {
          "internalType": "uint256",
          "name": "amount",
          "type": "uint256"
        }
      ],
      "name": "withdraw",
      "outputs": [],
      "stateMutability": "nonpayable",
      "type": "function"
    }
  ],
  "transactionHash": "0x0ee952fe8c784a67c6f26efaf6818e9669356e4783d6271d32f9b1d4455e9db2",
  "args": [
    "0xeb8f08a975Ab53E34D8a0330E0D34de942C95926",
    "0x238D82A35E69D7C10FE69A649134171c63e57522",
    120,
    "12000000000000000000000000",
    1618617600
  ],
  "solcInputHash": "547acb36577b1f453fa6bbee1d0b3e22",
  "bytecode": "0x608060405260006009556000600a556000600d553480156200002057600080fd5b506040516200162838038062001628833981810160405260a08110156200004657600080fd5b508051602082015160408301516060840151608090940151600080546001600160a01b0319166001600160a01b038616178155939492939192916200008a62000113565b600380546001600160a01b0319166001600160a01b038316908117909155604051919250906000907f8be0079c531659141344cd1fd0a4f28419497f9722a3daafe3b4186f6b6457e0908290a350600580546001600160a01b0319166001600160a01b03861617905560068390556008819055620001088262000118565b505050505062000513565b335b90565b600062000124620001fc565b600c5562000131620002ac565b600b556001600160a01b038116156200017b576200014f81620002e1565b6001600160a01b0382166000908152600f6020908152604080832093909355600c54600e909152919020555b62000197600654836200035360201b62000a4c1790919060201c565b600a556007829055600854600b819055600654620001c29190620003bc602090811b62000ab317901c565b6009556040805183815290517fde88a922e0d3b88b24e9623efeb464919c6bf9f66857a65e2bfcf2ce87a9433d9181900360200190a15050565b6000620002086200041e565b620002175750600c5462000115565b620002a762000290620002296200041e565b6200027c670de0b6b3a764000062000268600a5462000268600b5462000254620002ac60201b60201c565b6200042460201b62000b141790919060201c565b6200048260201b62000b711790919060201c565b6200035360201b62000a4c1790919060201c565b600c54620003bc60201b62000ab31790919060201c565b905090565b6000600854421115620002da57620002d242600954620004e060201b62000bca1760201c565b905062000115565b5060085490565b6001600160a01b0381166000908152600f6020908152604080832054600e9092528220546200034d91906200033990670de0b6b3a7640000906200027c906200032e9062000254620001fc565b6200026888620004f8565b620003bc60201b62000ab31790919060201c565b92915050565b6000808211620003aa576040805162461bcd60e51b815260206004820152601a60248201527f536166654d6174683a206469766973696f6e206279207a65726f000000000000604482015290519081900360640190fd5b818381620003b457fe5b049392505050565b60008282018381101562000417576040805162461bcd60e51b815260206004820152601b60248201527f536166654d6174683a206164646974696f6e206f766572666c6f770000000000604482015290519081900360640190fd5b9392505050565b60015490565b6000828211156200047c576040805162461bcd60e51b815260206004820152601e60248201527f536166654d6174683a207375627472616374696f6e206f766572666c6f770000604482015290519081900360640190fd5b50900390565b60008262000493575060006200034d565b82820282848281620004a157fe5b0414620004175760405162461bcd60e51b8152600401808060200182810382526021815260200180620016076021913960400191505060405180910390fd5b6000818310620004f1578162000417565b5090919050565b6001600160a01b031660009081526002602052604090205490565b6110e480620005236000396000f3fe608060405234801561001057600080fd5b50600436106101725760003560e01c806380faa57d116100de578063a694fc3a11610097578063df136d6511610071578063df136d651461030f578063e9fad8ee14610317578063ebe2b12b1461031f578063f2fde38b1461032757610172565b8063a694fc3a146102e2578063c8f33c91146102ff578063cd3daf9d1461030757610172565b806380faa57d146102945780638b8763471461029c5780638da58897146102c25780638da5cb5b146102ca578063918b6e74146102d25780639c907b58146102da57610172565b80632e1a7d4d116101305780632e1a7d4d146102155780633d18b912146102325780634df7e3d01461023a57806370a082311461025e578063715018a6146102845780637b0a47ee1461028c57610172565b80628cc262146101775780630700037d146101af5780630d68b761146101d55780630e15561a146101fd5780630fb5a6b41461020557806318160ddd1461020d575b600080fd5b61019d6004803603602081101561018d57600080fd5b50356001600160a01b031661034d565b60408051918252519081900360200190f35b61019d600480360360208110156101c557600080fd5b50356001600160a01b03166103bb565b6101fb600480360360208110156101eb57600080fd5b50356001600160a01b03166103cd565b005b61019d610463565b61019d610469565b61019d61046f565b6101fb6004803603602081101561022b57600080fd5b5035610476565b6101fb61055d565b610242610683565b604080516001600160a01b039092168252519081900360200190f35b61019d6004803603602081101561027457600080fd5b50356001600160a01b0316610692565b6101fb6106ad565b61019d61076b565b61019d610771565b61019d600480360360208110156102b257600080fd5b50356001600160a01b0316610797565b61019d6107a9565b6102426107af565b6102426107be565b61019d6107cd565b6101fb600480360360208110156102f857600080fd5b50356107d3565b61019d6108b7565b61019d6108bd565b61019d610910565b6101fb610916565b61019d610931565b6101fb6004803603602081101561033d57600080fd5b50356001600160a01b0316610937565b6001600160a01b0381166000908152600f6020908152604080832054600e9092528220546103b591906103af90670de0b6b3a7640000906103a99061039a906103946108bd565b90610b14565b6103a388610692565b90610b71565b90610a4c565b90610ab3565b92915050565b600f6020526000908152604090205481565b6103d5610be0565b6001600160a01b03166103e66107af565b6001600160a01b031614610441576040805162461bcd60e51b815260206004820181905260248201527f4f776e61626c653a2063616c6c6572206973206e6f7420746865206f776e6572604482015290519081900360640190fd5b600480546001600160a01b0319166001600160a01b0392909216919091179055565b600d5481565b60065481565b6001545b90565b3361047f6108bd565b600c5561048a610771565b600b556001600160a01b038116156104d1576104a58161034d565b6001600160a01b0382166000908152600f6020908152604080832093909355600c54600e909152919020555b6000821161051a576040805162461bcd60e51b8152602060048201526011602482015270043616e6e6f74207769746864726177203607c1b604482015290519081900360640190fd5b61052382610be4565b60408051838152905133917f7084f5476618d8e60b11ef0d7d3f06914655adb8793e28ff7f018d4c76d505d5919081900360200190a25050565b336105666108bd565b600c55610571610771565b600b556001600160a01b038116156105b85761058c8161034d565b6001600160a01b0382166000908152600f6020908152604080832093909355600c54600e909152919020555b60085442116105fc576040805162461bcd60e51b815260206004820152600b60248201526a139bdd081cdd185c9d195960aa1b604482015290519081900360640190fd5b60006106073361034d565b9050801561067f57336000818152600f6020526040812055600554610638916001600160a01b039091169083610c3c565b60408051828152905133917fe2403640ba68fed3a2f88b7557551d1993f84b99bb10ff833f0cf8db0c5e0486919081900360200190a2600d5461067b9082610ab3565b600d555b5050565b6000546001600160a01b031681565b6001600160a01b031660009081526002602052604090205490565b6106b5610be0565b6001600160a01b03166106c66107af565b6001600160a01b031614610721576040805162461bcd60e51b815260206004820181905260248201527f4f776e61626c653a2063616c6c6572206973206e6f7420746865206f776e6572604482015290519081900360640190fd5b6003546040516000916001600160a01b0316907f8be0079c531659141344cd1fd0a4f28419497f9722a3daafe3b4186f6b6457e0908390a3600380546001600160a01b0319169055565b600a5481565b60006008544211156107905761078942600954610bca565b9050610473565b5060085490565b600e6020526000908152604090205481565b60085481565b6003546001600160a01b031690565b6005546001600160a01b031681565b60075481565b336107dc6108bd565b600c556107e7610771565b600b556001600160a01b0381161561082e576108028161034d565b6001600160a01b0382166000908152600f6020908152604080832093909355600c54600e909152919020555b60008211610874576040805162461bcd60e51b815260206004820152600e60248201526d043616e6e6f74207374616b6520360941b604482015290519081900360640190fd5b61087d82610c93565b60408051838152905133917f9e71bc8eea02a63969f509818f2dafb9254532904319f9dbda79b67bd34a5f3d919081900360200190a25050565b600b5481565b60006108c761046f565b6108d45750600c54610473565b61090b6109026108e261046f565b6103a9670de0b6b3a76400006103a3600a546103a3600b54610394610771565b600c5490610ab3565b905090565b600c5481565b61092761092233610692565b610476565b61092f61055d565b565b60095481565b61093f610be0565b6001600160a01b03166109506107af565b6001600160a01b0316146109ab576040805162461bcd60e51b815260206004820181905260248201527f4f776e61626c653a2063616c6c6572206973206e6f7420746865206f776e6572604482015290519081900360640190fd5b6001600160a01b0381166109f05760405162461bcd60e51b81526004018080602001828103825260268152602001806110186026913960400191505060405180910390fd5b6003546040516001600160a01b038084169216907f8be0079c531659141344cd1fd0a4f28419497f9722a3daafe3b4186f6b6457e090600090a3600380546001600160a01b0319166001600160a01b0392909216919091179055565b6000808211610aa2576040805162461bcd60e51b815260206004820152601a60248201527f536166654d6174683a206469766973696f6e206279207a65726f000000000000604482015290519081900360640190fd5b818381610aab57fe5b049392505050565b600082820183811015610b0d576040805162461bcd60e51b815260206004820152601b60248201527f536166654d6174683a206164646974696f6e206f766572666c6f770000000000604482015290519081900360640190fd5b9392505050565b600082821115610b6b576040805162461bcd60e51b815260206004820152601e60248201527f536166654d6174683a207375627472616374696f6e206f766572666c6f770000604482015290519081900360640190fd5b50900390565b600082610b80575060006103b5565b82820282848281610b8d57fe5b0414610b0d5760405162461bcd60e51b81526004018080602001828103825260218152602001806110646021913960400191505060405180910390fd5b6000818310610bd95781610b0d565b5090919050565b3390565b600154610bf19082610b14565b60015533600090815260026020526040902054610c0e9082610b14565b336000818152600260205260408120929092559054610c39916001600160a01b039091169083610c3c565b50565b604080516001600160a01b038416602482015260448082018490528251808303909101815260649091019091526020810180516001600160e01b031663a9059cbb60e01b179052610c8e908490610ce9565b505050565b600154610ca09082610ab3565b60015533600090815260026020526040902054610cbd9082610ab3565b336000818152600260205260408120929092559054610c39916001600160a01b03909116903084610d9a565b6060610d3e826040518060400160405280602081526020017f5361666545524332303a206c6f772d6c6576656c2063616c6c206661696c6564815250856001600160a01b0316610dfa9092919063ffffffff16565b805190915015610c8e57808060200190516020811015610d5d57600080fd5b5051610c8e5760405162461bcd60e51b815260040180806020018281038252602a815260200180611085602a913960400191505060405180910390fd5b604080516001600160a01b0380861660248301528416604482015260648082018490528251808303909101815260849091019091526020810180516001600160e01b03166323b872dd60e01b179052610df4908590610ce9565b50505050565b6060610e098484600085610e11565b949350505050565b606082471015610e525760405162461bcd60e51b815260040180806020018281038252602681526020018061103e6026913960400191505060405180910390fd5b610e5b85610f6d565b610eac576040805162461bcd60e51b815260206004820152601d60248201527f416464726573733a2063616c6c20746f206e6f6e2d636f6e7472616374000000604482015290519081900360640190fd5b60006060866001600160a01b031685876040518082805190602001908083835b60208310610eeb5780518252601f199092019160209182019101610ecc565b6001836020036101000a03801982511681845116808217855250505050505090500191505060006040518083038185875af1925050503d8060008114610f4d576040519150601f19603f3d011682016040523d82523d6000602084013e610f52565b606091505b5091509150610f62828286610f73565b979650505050505050565b3b151590565b60608315610f82575081610b0d565b825115610f925782518084602001fd5b8160405162461bcd60e51b81526004018080602001828103825283818151815260200191508051906020019080838360005b83811015610fdc578181015183820152602001610fc4565b50505050905090810190601f1680156110095780820380516001836020036101000a031916815260200191505b509250505060405180910390fdfe4f776e61626c653a206e6577206f776e657220697320746865207a65726f2061646472657373416464726573733a20696e73756666696369656e742062616c616e636520666f722063616c6c536166654d6174683a206d756c7469706c69636174696f6e206f766572666c6f775361666545524332303a204552433230206f7065726174696f6e20646964206e6f742073756363656564a2646970667358221220f678b278965af6fb1bc7b881fc2a99733a6437a5a60fe7f5b59a8b1f8ff0b43064736f6c634300060c0033536166654d6174683a206d756c7469706c69636174696f6e206f766572666c6f77",
  "devdoc": {
    "kind": "dev",
    "methods": {
      "owner()": {
        "details": "Returns the address of the current owner."
      },
      "renounceOwnership()": {
        "details": "Leaves the contract without owner. It will not be possible to call `onlyOwner` functions anymore. Can only be called by the current owner. NOTE: Renouncing ownership will leave the contract without an owner, thereby removing any functionality that is only available to the owner."
      },
      "transferOwnership(address)": {
        "details": "Transfers ownership of the contract to a new account (`newOwner`). Can only be called by the current owner."
      }
    },
    "version": 1
  },
  "userdoc": {
    "kind": "user",
    "methods": {},
    "version": 1
  },
  "storageLayout": {
    "storage": [
      {
        "astId": 467,
        "contract": "contracts/TokenDistribution/BasedRewards.sol:BasedRewards",
        "label": "b",
        "offset": 0,
        "slot": "0",
        "type": "t_contract(IERC20Detailed)417"
      },
      {
        "astId": 469,
        "contract": "contracts/TokenDistribution/BasedRewards.sol:BasedRewards",
        "label": "_totalSupply",
        "offset": 0,
        "slot": "1",
        "type": "t_uint256"
      },
      {
        "astId": 473,
        "contract": "contracts/TokenDistribution/BasedRewards.sol:BasedRewards",
        "label": "_balances",
        "offset": 0,
        "slot": "2",
        "type": "t_mapping(t_address,t_uint256)"
      },
      {
        "astId": 1853,
        "contract": "contracts/TokenDistribution/BasedRewards.sol:BasedRewards",
        "label": "_owner",
        "offset": 0,
        "slot": "3",
        "type": "t_address"
      },
      {
        "astId": 424,
        "contract": "contracts/TokenDistribution/BasedRewards.sol:BasedRewards",
        "label": "rewardDistribution",
        "offset": 0,
        "slot": "4",
        "type": "t_address"
      },
      {
        "astId": 11,
        "contract": "contracts/TokenDistribution/BasedRewards.sol:BasedRewards",
        "label": "blo",
        "offset": 0,
        "slot": "5",
        "type": "t_contract(IERC20Detailed)417"
      },
      {
        "astId": 13,
        "contract": "contracts/TokenDistribution/BasedRewards.sol:BasedRewards",
        "label": "duration",
        "offset": 0,
        "slot": "6",
        "type": "t_uint256"
      },
      {
        "astId": 15,
        "contract": "contracts/TokenDistribution/BasedRewards.sol:BasedRewards",
        "label": "initreward",
        "offset": 0,
        "slot": "7",
        "type": "t_uint256"
      },
      {
        "astId": 17,
        "contract": "contracts/TokenDistribution/BasedRewards.sol:BasedRewards",
        "label": "starttime",
        "offset": 0,
        "slot": "8",
        "type": "t_uint256"
      },
      {
        "astId": 20,
        "contract": "contracts/TokenDistribution/BasedRewards.sol:BasedRewards",
        "label": "periodFinish",
        "offset": 0,
        "slot": "9",
        "type": "t_uint256"
      },
      {
        "astId": 23,
        "contract": "contracts/TokenDistribution/BasedRewards.sol:BasedRewards",
        "label": "rewardRate",
        "offset": 0,
        "slot": "10",
        "type": "t_uint256"
      },
      {
        "astId": 25,
        "contract": "contracts/TokenDistribution/BasedRewards.sol:BasedRewards",
        "label": "lastUpdateTime",
        "offset": 0,
        "slot": "11",
        "type": "t_uint256"
      },
      {
        "astId": 27,
        "contract": "contracts/TokenDistribution/BasedRewards.sol:BasedRewards",
        "label": "rewardPerTokenStored",
        "offset": 0,
        "slot": "12",
        "type": "t_uint256"
      },
      {
        "astId": 30,
        "contract": "contracts/TokenDistribution/BasedRewards.sol:BasedRewards",
        "label": "totalRewards",
        "offset": 0,
        "slot": "13",
        "type": "t_uint256"
      },
      {
        "astId": 34,
        "contract": "contracts/TokenDistribution/BasedRewards.sol:BasedRewards",
        "label": "userRewardPerTokenPaid",
        "offset": 0,
        "slot": "14",
        "type": "t_mapping(t_address,t_uint256)"
      },
      {
        "astId": 38,
        "contract": "contracts/TokenDistribution/BasedRewards.sol:BasedRewards",
        "label": "rewards",
        "offset": 0,
        "slot": "15",
        "type": "t_mapping(t_address,t_uint256)"
      }
    ],
    "types": {
      "t_address": {
        "encoding": "inplace",
        "label": "address",
        "numberOfBytes": "20"
      },
      "t_contract(IERC20Detailed)417": {
        "encoding": "inplace",
        "label": "contract IERC20Detailed",
        "numberOfBytes": "20"
      },
      "t_mapping(t_address,t_uint256)": {
        "encoding": "mapping",
        "key": "t_address",
        "label": "mapping(address => uint256)",
        "numberOfBytes": "32",
        "value": "t_uint256"
      },
      "t_uint256": {
        "encoding": "inplace",
        "label": "uint256",
        "numberOfBytes": "32"
      }
    }
  }
}