{
  "address": "0x4b0562a8Cf161e0600be7119b3a121BcC2342Db5",
  "abi": [
    {
      "inputs": [
        {
          "internalType": "contract ComptrollerInterface",
          "name": "comptroller_",
          "type": "address"
        },
        {
          "internalType": "contract InterestRateModel",
          "name": "interestRateModel_",
          "type": "address"
        },
        {
          "internalType": "uint256",
          "name": "initialExchangeRateMantissa_",
          "type": "uint256"
        },
        {
          "internalType": "string",
          "name": "name_",
          "type": "string"
        },
        {
          "internalType": "string",
          "name": "symbol_",
          "type": "string"
        },
        {
          "internalType": "uint8",
          "name": "decimals_",
          "type": "uint8"
        },
        {
          "internalType": "address payable",
          "name": "admin_",
          "type": "address"
        }
      ],
      "stateMutability": "nonpayable",
      "type": "constructor"
    },
    {
      "anonymous": false,
      "inputs": [
        {
          "indexed": false,
          "internalType": "uint256",
          "name": "cashPrior",
          "type": "uint256"
        },
        {
          "indexed": false,
          "internalType": "uint256",
          "name": "interestAccumulated",
          "type": "uint256"
        },
        {
          "indexed": false,
          "internalType": "uint256",
          "name": "borrowIndex",
          "type": "uint256"
        },
        {
          "indexed": false,
          "internalType": "uint256",
          "name": "totalBorrows",
          "type": "uint256"
        }
      ],
      "name": "AccrueInterest",
      "type": "event"
    },
    {
      "anonymous": false,
      "inputs": [
        {
          "indexed": true,
          "internalType": "address",
          "name": "owner",
          "type": "address"
        },
        {
          "indexed": true,
          "internalType": "address",
          "name": "spender",
          "type": "address"
        },
        {
          "indexed": false,
          "internalType": "uint256",
          "name": "amount",
          "type": "uint256"
        }
      ],
      "name": "Approval",
      "type": "event"
    },
    {
      "anonymous": false,
      "inputs": [
        {
          "indexed": false,
          "internalType": "address",
          "name": "borrower",
          "type": "address"
        },
        {
          "indexed": false,
          "internalType": "uint256",
          "name": "borrowAmount",
          "type": "uint256"
        },
        {
          "indexed": false,
          "internalType": "uint256",
          "name": "accountBorrows",
          "type": "uint256"
        },
        {
          "indexed": false,
          "internalType": "uint256",
          "name": "totalBorrows",
          "type": "uint256"
        }
      ],
      "name": "Borrow",
      "type": "event"
    },
    {
      "anonymous": false,
      "inputs": [
        {
          "indexed": false,
          "internalType": "uint256",
          "name": "error",
          "type": "uint256"
        },
        {
          "indexed": false,
          "internalType": "uint256",
          "name": "info",
          "type": "uint256"
        },
        {
          "indexed": false,
          "internalType": "uint256",
          "name": "detail",
          "type": "uint256"
        }
      ],
      "name": "Failure",
      "type": "event"
    },
    {
      "anonymous": false,
      "inputs": [
        {
          "indexed": false,
          "internalType": "address",
          "name": "liquidator",
          "type": "address"
        },
        {
          "indexed": false,
          "internalType": "address",
          "name": "borrower",
          "type": "address"
        },
        {
          "indexed": false,
          "internalType": "uint256",
          "name": "repayAmount",
          "type": "uint256"
        },
        {
          "indexed": false,
          "internalType": "address",
          "name": "cTokenCollateral",
          "type": "address"
        },
        {
          "indexed": false,
          "internalType": "uint256",
          "name": "seizeTokens",
          "type": "uint256"
        }
      ],
      "name": "LiquidateBorrow",
      "type": "event"
    },
    {
      "anonymous": false,
      "inputs": [
        {
          "indexed": false,
          "internalType": "address",
          "name": "minter",
          "type": "address"
        },
        {
          "indexed": false,
          "internalType": "uint256",
          "name": "mintAmount",
          "type": "uint256"
        },
        {
          "indexed": false,
          "internalType": "uint256",
          "name": "mintTokens",
          "type": "uint256"
        }
      ],
      "name": "Mint",
      "type": "event"
    },
    {
      "anonymous": false,
      "inputs": [
        {
          "indexed": false,
          "internalType": "address",
          "name": "oldAdmin",
          "type": "address"
        },
        {
          "indexed": false,
          "internalType": "address",
          "name": "newAdmin",
          "type": "address"
        }
      ],
      "name": "NewAdmin",
      "type": "event"
    },
    {
      "anonymous": false,
      "inputs": [
        {
          "indexed": false,
          "internalType": "contract ComptrollerInterface",
          "name": "oldComptroller",
          "type": "address"
        },
        {
          "indexed": false,
          "internalType": "contract ComptrollerInterface",
          "name": "newComptroller",
          "type": "address"
        }
      ],
      "name": "NewComptroller",
      "type": "event"
    },
    {
      "anonymous": false,
      "inputs": [
        {
          "indexed": false,
          "internalType": "contract InterestRateModel",
          "name": "oldInterestRateModel",
          "type": "address"
        },
        {
          "indexed": false,
          "internalType": "contract InterestRateModel",
          "name": "newInterestRateModel",
          "type": "address"
        }
      ],
      "name": "NewMarketInterestRateModel",
      "type": "event"
    },
    {
      "anonymous": false,
      "inputs": [
        {
          "indexed": false,
          "internalType": "address",
          "name": "oldPendingAdmin",
          "type": "address"
        },
        {
          "indexed": false,
          "internalType": "address",
          "name": "newPendingAdmin",
          "type": "address"
        }
      ],
      "name": "NewPendingAdmin",
      "type": "event"
    },
    {
      "anonymous": false,
      "inputs": [
        {
          "indexed": false,
          "internalType": "uint256",
          "name": "oldReserveFactorMantissa",
          "type": "uint256"
        },
        {
          "indexed": false,
          "internalType": "uint256",
          "name": "newReserveFactorMantissa",
          "type": "uint256"
        }
      ],
      "name": "NewReserveFactor",
      "type": "event"
    },
    {
      "anonymous": false,
      "inputs": [
        {
          "indexed": false,
          "internalType": "address",
          "name": "redeemer",
          "type": "address"
        },
        {
          "indexed": false,
          "internalType": "uint256",
          "name": "redeemAmount",
          "type": "uint256"
        },
        {
          "indexed": false,
          "internalType": "uint256",
          "name": "redeemTokens",
          "type": "uint256"
        }
      ],
      "name": "Redeem",
      "type": "event"
    },
    {
      "anonymous": false,
      "inputs": [
        {
          "indexed": false,
          "internalType": "address",
          "name": "payer",
          "type": "address"
        },
        {
          "indexed": false,
          "internalType": "address",
          "name": "borrower",
          "type": "address"
        },
        {
          "indexed": false,
          "internalType": "uint256",
          "name": "repayAmount",
          "type": "uint256"
        },
        {
          "indexed": false,
          "internalType": "uint256",
          "name": "accountBorrows",
          "type": "uint256"
        },
        {
          "indexed": false,
          "internalType": "uint256",
          "name": "totalBorrows",
          "type": "uint256"
        }
      ],
      "name": "RepayBorrow",
      "type": "event"
    },
    {
      "anonymous": false,
      "inputs": [
        {
          "indexed": false,
          "internalType": "address",
          "name": "benefactor",
          "type": "address"
        },
        {
          "indexed": false,
          "internalType": "uint256",
          "name": "addAmount",
          "type": "uint256"
        },
        {
          "indexed": false,
          "internalType": "uint256",
          "name": "newTotalReserves",
          "type": "uint256"
        }
      ],
      "name": "ReservesAdded",
      "type": "event"
    },
    {
      "anonymous": false,
      "inputs": [
        {
          "indexed": false,
          "internalType": "address",
          "name": "admin",
          "type": "address"
        },
        {
          "indexed": false,
          "internalType": "uint256",
          "name": "reduceAmount",
          "type": "uint256"
        },
        {
          "indexed": false,
          "internalType": "uint256",
          "name": "newTotalReserves",
          "type": "uint256"
        }
      ],
      "name": "ReservesReduced",
      "type": "event"
    },
    {
      "anonymous": false,
      "inputs": [
        {
          "indexed": true,
          "internalType": "address",
          "name": "from",
          "type": "address"
        },
        {
          "indexed": true,
          "internalType": "address",
          "name": "to",
          "type": "address"
        },
        {
          "indexed": false,
          "internalType": "uint256",
          "name": "amount",
          "type": "uint256"
        }
      ],
      "name": "Transfer",
      "type": "event"
    },
    {
      "inputs": [],
      "name": "_acceptAdmin",
      "outputs": [
        {
          "internalType": "uint256",
          "name": "",
          "type": "uint256"
        }
      ],
      "stateMutability": "nonpayable",
      "type": "function"
    },
    {
      "inputs": [
        {
          "internalType": "uint256",
          "name": "reduceAmount",
          "type": "uint256"
        }
      ],
      "name": "_reduceReserves",
      "outputs": [
        {
          "internalType": "uint256",
          "name": "",
          "type": "uint256"
        }
      ],
      "stateMutability": "nonpayable",
      "type": "function"
    },
    {
      "inputs": [
        {
          "internalType": "contract ComptrollerInterface",
          "name": "newComptroller",
          "type": "address"
        }
      ],
      "name": "_setComptroller",
      "outputs": [
        {
          "internalType": "uint256",
          "name": "",
          "type": "uint256"
        }
      ],
      "stateMutability": "nonpayable",
      "type": "function"
    },
    {
      "inputs": [
        {
          "internalType": "contract InterestRateModel",
          "name": "newInterestRateModel",
          "type": "address"
        }
      ],
      "name": "_setInterestRateModel",
      "outputs": [
        {
          "internalType": "uint256",
          "name": "",
          "type": "uint256"
        }
      ],
      "stateMutability": "nonpayable",
      "type": "function"
    },
    {
      "inputs": [
        {
          "internalType": "address payable",
          "name": "newPendingAdmin",
          "type": "address"
        }
      ],
      "name": "_setPendingAdmin",
      "outputs": [
        {
          "internalType": "uint256",
          "name": "",
          "type": "uint256"
        }
      ],
      "stateMutability": "nonpayable",
      "type": "function"
    },
    {
      "inputs": [
        {
          "internalType": "uint256",
          "name": "newReserveFactorMantissa",
          "type": "uint256"
        }
      ],
      "name": "_setReserveFactor",
      "outputs": [
        {
          "internalType": "uint256",
          "name": "",
          "type": "uint256"
        }
      ],
      "stateMutability": "nonpayable",
      "type": "function"
    },
    {
      "inputs": [],
      "name": "accrualBlockNumber",
      "outputs": [
        {
          "internalType": "uint256",
          "name": "",
          "type": "uint256"
        }
      ],
      "stateMutability": "view",
      "type": "function"
    },
    {
      "inputs": [],
      "name": "accrueInterest",
      "outputs": [
        {
          "internalType": "uint256",
          "name": "",
          "type": "uint256"
        }
      ],
      "stateMutability": "nonpayable",
      "type": "function"
    },
    {
      "inputs": [],
      "name": "admin",
      "outputs": [
        {
          "internalType": "address payable",
          "name": "",
          "type": "address"
        }
      ],
      "stateMutability": "view",
      "type": "function"
    },
    {
      "inputs": [
        {
          "internalType": "address",
          "name": "owner",
          "type": "address"
        },
        {
          "internalType": "address",
          "name": "spender",
          "type": "address"
        }
      ],
      "name": "allowance",
      "outputs": [
        {
          "internalType": "uint256",
          "name": "",
          "type": "uint256"
        }
      ],
      "stateMutability": "view",
      "type": "function"
    },
    {
      "inputs": [
        {
          "internalType": "address",
          "name": "spender",
          "type": "address"
        },
        {
          "internalType": "uint256",
          "name": "amount",
          "type": "uint256"
        }
      ],
      "name": "approve",
      "outputs": [
        {
          "internalType": "bool",
          "name": "",
          "type": "bool"
        }
      ],
      "stateMutability": "nonpayable",
      "type": "function"
    },
    {
      "inputs": [
        {
          "internalType": "address",
          "name": "owner",
          "type": "address"
        }
      ],
      "name": "balanceOf",
      "outputs": [
        {
          "internalType": "uint256",
          "name": "",
          "type": "uint256"
        }
      ],
      "stateMutability": "view",
      "type": "function"
    },
    {
      "inputs": [
        {
          "internalType": "address",
          "name": "owner",
          "type": "address"
        }
      ],
      "name": "balanceOfUnderlying",
      "outputs": [
        {
          "internalType": "uint256",
          "name": "",
          "type": "uint256"
        }
      ],
      "stateMutability": "nonpayable",
      "type": "function"
    },
    {
      "inputs": [
        {
          "internalType": "uint256",
          "name": "borrowAmount",
          "type": "uint256"
        }
      ],
      "name": "borrow",
      "outputs": [
        {
          "internalType": "uint256",
          "name": "",
          "type": "uint256"
        }
      ],
      "stateMutability": "nonpayable",
      "type": "function"
    },
    {
      "inputs": [
        {
          "internalType": "address",
          "name": "account",
          "type": "address"
        }
      ],
      "name": "borrowBalanceCurrent",
      "outputs": [
        {
          "internalType": "uint256",
          "name": "",
          "type": "uint256"
        }
      ],
      "stateMutability": "nonpayable",
      "type": "function"
    },
    {
      "inputs": [
        {
          "internalType": "address",
          "name": "account",
          "type": "address"
        }
      ],
      "name": "borrowBalanceStored",
      "outputs": [
        {
          "internalType": "uint256",
          "name": "",
          "type": "uint256"
        }
      ],
      "stateMutability": "view",
      "type": "function"
    },
    {
      "inputs": [],
      "name": "borrowIndex",
      "outputs": [
        {
          "internalType": "uint256",
          "name": "",
          "type": "uint256"
        }
      ],
      "stateMutability": "view",
      "type": "function"
    },
    {
      "inputs": [],
      "name": "borrowRatePerBlock",
      "outputs": [
        {
          "internalType": "uint256",
          "name": "",
          "type": "uint256"
        }
      ],
      "stateMutability": "view",
      "type": "function"
    },
    {
      "inputs": [],
      "name": "comptroller",
      "outputs": [
        {
          "internalType": "contract ComptrollerInterface",
          "name": "",
          "type": "address"
        }
      ],
      "stateMutability": "view",
      "type": "function"
    },
    {
      "inputs": [],
      "name": "decimals",
      "outputs": [
        {
          "internalType": "uint8",
          "name": "",
          "type": "uint8"
        }
      ],
      "stateMutability": "view",
      "type": "function"
    },
    {
      "inputs": [],
      "name": "exchangeRateCurrent",
      "outputs": [
        {
          "internalType": "uint256",
          "name": "",
          "type": "uint256"
        }
      ],
      "stateMutability": "nonpayable",
      "type": "function"
    },
    {
      "inputs": [],
      "name": "exchangeRateStored",
      "outputs": [
        {
          "internalType": "uint256",
          "name": "",
          "type": "uint256"
        }
      ],
      "stateMutability": "view",
      "type": "function"
    },
    {
      "inputs": [
        {
          "internalType": "address",
          "name": "account",
          "type": "address"
        }
      ],
      "name": "getAccountSnapshot",
      "outputs": [
        {
          "internalType": "uint256",
          "name": "",
          "type": "uint256"
        },
        {
          "internalType": "uint256",
          "name": "",
          "type": "uint256"
        },
        {
          "internalType": "uint256",
          "name": "",
          "type": "uint256"
        },
        {
          "internalType": "uint256",
          "name": "",
          "type": "uint256"
        }
      ],
      "stateMutability": "view",
      "type": "function"
    },
    {
      "inputs": [],
      "name": "getCash",
      "outputs": [
        {
          "internalType": "uint256",
          "name": "",
          "type": "uint256"
        }
      ],
      "stateMutability": "view",
      "type": "function"
    },
    {
      "inputs": [
        {
          "internalType": "contract ComptrollerInterface",
          "name": "comptroller_",
          "type": "address"
        },
        {
          "internalType": "contract InterestRateModel",
          "name": "interestRateModel_",
          "type": "address"
        },
        {
          "internalType": "uint256",
          "name": "initialExchangeRateMantissa_",
          "type": "uint256"
        },
        {
          "internalType": "string",
          "name": "name_",
          "type": "string"
        },
        {
          "internalType": "string",
          "name": "symbol_",
          "type": "string"
        },
        {
          "internalType": "uint8",
          "name": "decimals_",
          "type": "uint8"
        }
      ],
      "name": "initialize",
      "outputs": [],
      "stateMutability": "nonpayable",
      "type": "function"
    },
    {
      "inputs": [],
      "name": "interestRateModel",
      "outputs": [
        {
          "internalType": "contract InterestRateModel",
          "name": "",
          "type": "address"
        }
      ],
      "stateMutability": "view",
      "type": "function"
    },
    {
      "inputs": [],
      "name": "isCToken",
      "outputs": [
        {
          "internalType": "bool",
          "name": "",
          "type": "bool"
        }
      ],
      "stateMutability": "view",
      "type": "function"
    },
    {
      "inputs": [
        {
          "internalType": "address",
          "name": "borrower",
          "type": "address"
        },
        {
          "internalType": "contract CToken",
          "name": "cTokenCollateral",
          "type": "address"
        }
      ],
      "name": "liquidateBorrow",
      "outputs": [],
      "stateMutability": "payable",
      "type": "function"
    },
    {
      "inputs": [],
      "name": "mint",
      "outputs": [],
      "stateMutability": "payable",
      "type": "function"
    },
    {
      "inputs": [],
      "name": "name",
      "outputs": [
        {
          "internalType": "string",
          "name": "",
          "type": "string"
        }
      ],
      "stateMutability": "view",
      "type": "function"
    },
    {
      "inputs": [],
      "name": "pendingAdmin",
      "outputs": [
        {
          "internalType": "address payable",
          "name": "",
          "type": "address"
        }
      ],
      "stateMutability": "view",
      "type": "function"
    },
    {
      "inputs": [
        {
          "internalType": "uint256",
          "name": "redeemTokens",
          "type": "uint256"
        }
      ],
      "name": "redeem",
      "outputs": [
        {
          "internalType": "uint256",
          "name": "",
          "type": "uint256"
        }
      ],
      "stateMutability": "nonpayable",
      "type": "function"
    },
    {
      "inputs": [
        {
          "internalType": "uint256",
          "name": "redeemAmount",
          "type": "uint256"
        }
      ],
      "name": "redeemUnderlying",
      "outputs": [
        {
          "internalType": "uint256",
          "name": "",
          "type": "uint256"
        }
      ],
      "stateMutability": "nonpayable",
      "type": "function"
    },
    {
      "inputs": [],
      "name": "repayBorrow",
      "outputs": [],
      "stateMutability": "payable",
      "type": "function"
    },
    {
      "inputs": [
        {
          "internalType": "address",
          "name": "borrower",
          "type": "address"
        }
      ],
      "name": "repayBorrowBehalf",
      "outputs": [],
      "stateMutability": "payable",
      "type": "function"
    },
    {
      "inputs": [],
      "name": "reserveFactorMantissa",
      "outputs": [
        {
          "internalType": "uint256",
          "name": "",
          "type": "uint256"
        }
      ],
      "stateMutability": "view",
      "type": "function"
    },
    {
      "inputs": [
        {
          "internalType": "address",
          "name": "liquidator",
          "type": "address"
        },
        {
          "internalType": "address",
          "name": "borrower",
          "type": "address"
        },
        {
          "internalType": "uint256",
          "name": "seizeTokens",
          "type": "uint256"
        }
      ],
      "name": "seize",
      "outputs": [
        {
          "internalType": "uint256",
          "name": "",
          "type": "uint256"
        }
      ],
      "stateMutability": "nonpayable",
      "type": "function"
    },
    {
      "inputs": [],
      "name": "supplyRatePerBlock",
      "outputs": [
        {
          "internalType": "uint256",
          "name": "",
          "type": "uint256"
        }
      ],
      "stateMutability": "view",
      "type": "function"
    },
    {
      "inputs": [],
      "name": "symbol",
      "outputs": [
        {
          "internalType": "string",
          "name": "",
          "type": "string"
        }
      ],
      "stateMutability": "view",
      "type": "function"
    },
    {
      "inputs": [],
      "name": "totalBorrows",
      "outputs": [
        {
          "internalType": "uint256",
          "name": "",
          "type": "uint256"
        }
      ],
      "stateMutability": "view",
      "type": "function"
    },
    {
      "inputs": [],
      "name": "totalBorrowsCurrent",
      "outputs": [
        {
          "internalType": "uint256",
          "name": "",
          "type": "uint256"
        }
      ],
      "stateMutability": "nonpayable",
      "type": "function"
    },
    {
      "inputs": [],
      "name": "totalReserves",
      "outputs": [
        {
          "internalType": "uint256",
          "name": "",
          "type": "uint256"
        }
      ],
      "stateMutability": "view",
      "type": "function"
    },
    {
      "inputs": [],
      "name": "totalSupply",
      "outputs": [
        {
          "internalType": "uint256",
          "name": "",
          "type": "uint256"
        }
      ],
      "stateMutability": "view",
      "type": "function"
    },
    {
      "inputs": [
        {
          "internalType": "address",
          "name": "dst",
          "type": "address"
        },
        {
          "internalType": "uint256",
          "name": "amount",
          "type": "uint256"
        }
      ],
      "name": "transfer",
      "outputs": [
        {
          "internalType": "bool",
          "name": "",
          "type": "bool"
        }
      ],
      "stateMutability": "nonpayable",
      "type": "function"
    },
    {
      "inputs": [
        {
          "internalType": "address",
          "name": "src",
          "type": "address"
        },
        {
          "internalType": "address",
          "name": "dst",
          "type": "address"
        },
        {
          "internalType": "uint256",
          "name": "amount",
          "type": "uint256"
        }
      ],
      "name": "transferFrom",
      "outputs": [
        {
          "internalType": "bool",
          "name": "",
          "type": "bool"
        }
      ],
      "stateMutability": "nonpayable",
      "type": "function"
    },
    {
      "stateMutability": "payable",
      "type": "receive"
    }
  ],
  "transactionHash": "0x60d49def78b79530dc754c77468af566845bcf16c996e958ffe8a160f2d24483",
  "args": [
    "0x3c1b9C502F8ae4B1cF90248dE582d0C6c1E3c702",
    "0xbA2DA89893Aa052D99c19019729712d30Da50809",
    "200000000000000000000000000",
    "Based Loans ETH",
    "bETH",
    "8",
    "0x966da064E49F63D84d636D5a694038D831c75051"
  ],
  "solcInputHash": "1b52c687025f43a15fb2792e40e4f626",
  "bytecode": "0x60806040523480156200001157600080fd5b50604051620053f5380380620053f5833981810160405260e08110156200003757600080fd5b8151602083015160408085015160608601805192519496939591949391820192846401000000008211156200006b57600080fd5b9083019060208201858111156200008157600080fd5b82516401000000008111828201881017156200009c57600080fd5b82525081516020918201929091019080838360005b83811015620000cb578181015183820152602001620000b1565b50505050905090810190601f168015620000f95780820380516001836020036101000a031916815260200191505b50604052602001805160405193929190846401000000008211156200011d57600080fd5b9083019060208201858111156200013357600080fd5b82516401000000008111828201881017156200014e57600080fd5b82525081516020918201929091019080838360005b838110156200017d57818101518382015260200162000163565b50505050905090810190601f168015620001ab5780820380516001836020036101000a031916815260200191505b506040908152602082015191015160038054610100600160a81b03191633610100021790559092509050620001e587878787878762000218565b600380546001600160a01b0390921661010002610100600160a81b0319909216919091179055506200080d945050505050565b60035461010090046001600160a01b03163314620002685760405162461bcd60e51b81526004018080602001828103825260248152602001806200535c6024913960400191505060405180910390fd5b600954158015620002795750600a54155b620002b65760405162461bcd60e51b8152600401808060200182810382526023815260200180620053806023913960400191505060405180910390fd5b600784905583620002f95760405162461bcd60e51b8152600401808060200182810382526030815260200180620053a36030913960400191505060405180910390fd5b6000620003068762000413565b905080156200035c576040805162461bcd60e51b815260206004820152601a60248201527f73657474696e6720636f6d7074726f6c6c6572206661696c6564000000000000604482015290519081900360640190fd5b6200036662000572565b600955670de0b6b3a7640000600a55620003808662000576565b90508015620003c15760405162461bcd60e51b8152600401808060200182810382526022815260200180620053d36022913960400191505060405180910390fd5b8351620003d690600190602087019062000771565b508251620003ec90600290602086019062000771565b50506003805460ff90921660ff199283161790556000805490911660011790555050505050565b60035460009061010090046001600160a01b0316331462000444576200043c6001603f62000701565b90506200056d565b60055460408051623f1ee960e11b815290516001600160a01b0392831692851691627e3dd2916004808301926020929190829003018186803b1580156200048a57600080fd5b505afa1580156200049f573d6000803e3d6000fd5b505050506040513d6020811015620004b657600080fd5b50516200050a576040805162461bcd60e51b815260206004820152601c60248201527f6d61726b6572206d6574686f642072657475726e65642066616c736500000000604482015290519081900360640190fd5b600580546001600160a01b0319166001600160a01b03858116918217909255604080519284168352602083019190915280517f7ac369dbd14fa5ea3f473ed67cc9d598964a77501540ba6751eb0b3decf5870d9281900390910190a160005b9150505b919050565b4390565b600354600090819061010090046001600160a01b03163314620005aa57620005a16001604262000701565b9150506200056d565b620005b462000572565b60095414620005cb57620005a1600a604162000701565b600660009054906101000a90046001600160a01b03169050826001600160a01b0316632191f92a6040518163ffffffff1660e01b815260040160206040518083038186803b1580156200061d57600080fd5b505afa15801562000632573d6000803e3d6000fd5b505050506040513d60208110156200064957600080fd5b50516200069d576040805162461bcd60e51b815260206004820152601c60248201527f6d61726b6572206d6574686f642072657475726e65642066616c736500000000604482015290519081900360640190fd5b600680546001600160a01b0319166001600160a01b03858116918217909255604080519284168352602083019190915280517fedffc32e068c7c95dfd4bdfd5c4d939a084d6b11c4199eac8436ed234d72f9269281900390910190a1600062000569565b60007f45b96fe442630264581b197e84bbada861235052c5a1aadfff9ea4e40a969aa08360108111156200073157fe5b8360508111156200073e57fe5b604080519283526020830191909152600082820152519081900360600190a18260108111156200076a57fe5b9392505050565b828054600181600116156101000203166002900490600052602060002090601f016020900481019282601f10620007b457805160ff1916838001178555620007e4565b82800160010185558215620007e4579182015b82811115620007e4578251825591602001919060010190620007c7565b50620007f2929150620007f6565b5090565b5b80821115620007f25760008155600101620007f7565b614b3f806200081d6000396000f3fe6080604052600436106102765760003560e01c806395d89b411161014f578063c37f68e2116100c1578063f2b3abbd1161007a578063f2b3abbd14610a30578063f3fdb15a14610a63578063f851a44014610a78578063f8f9da2814610a8d578063fca7820b14610aa2578063fe9c44ae14610acc576102b9565b8063c37f68e21461090d578063c5ebeaec14610966578063db006a7514610990578063dd62ed3e146109ba578063e5974619146109f5578063e9c714f214610a1b576102b9565b8063aa5af0fd11610113578063aa5af0fd1461082a578063aae40a2a1461083f578063ae9d70b01461086d578063b2a02ff114610882578063b71d1a0c146108c5578063bd6d894d146108f8576102b9565b806395d89b411461063557806395dd91931461064a57806399d8c1b41461067d578063a6afed95146107dc578063a9059cbb146107f1576102b9565b80633b1d21a2116101e8578063601a0bf1116101ac578063601a0bf11461056f5780636c540baf1461059957806370a08231146105ae57806373acee98146105e1578063852a12e3146105f65780638f840ddd14610620576102b9565b80633b1d21a2146104f55780634576b5db1461050a57806347bd37181461053d5780634e4d9fea146105525780635fe3b5671461055a576102b9565b806318160ddd1161023a57806318160ddd146103f9578063182df0f51461040e57806323b872dd146104235780632678224714610466578063313ce567146104975780633af9e669146104c2576102b9565b806306fdde03146102be578063095ea7b3146103485780631249c58b14610395578063173b99041461039f57806317bfdfbc146103c6576102b9565b366102b957600061028634610ae1565b5090506102b6816040518060400160405280600b81526020016a1b5a5b9d0819985a5b195960aa1b815250610b88565b50005b600080fd5b3480156102ca57600080fd5b506102d3610d9f565b6040805160208082528351818301528351919283929083019185019080838360005b8381101561030d5781810151838201526020016102f5565b50505050905090810190601f16801561033a5780820380516001836020036101000a031916815260200191505b509250505060405180910390f35b34801561035457600080fd5b506103816004803603604081101561036b57600080fd5b506001600160a01b038135169060200135610e2c565b604080519115158252519081900360200190f35b61039d610e99565b005b3480156103ab57600080fd5b506103b4610ed7565b60408051918252519081900360200190f35b3480156103d257600080fd5b506103b4600480360360208110156103e957600080fd5b50356001600160a01b0316610edd565b34801561040557600080fd5b506103b4610f9d565b34801561041a57600080fd5b506103b4610fa3565b34801561042f57600080fd5b506103816004803603606081101561044657600080fd5b506001600160a01b03813581169160208101359091169060400135611006565b34801561047257600080fd5b5061047b611078565b604080516001600160a01b039092168252519081900360200190f35b3480156104a357600080fd5b506104ac611087565b6040805160ff9092168252519081900360200190f35b3480156104ce57600080fd5b506103b4600480360360208110156104e557600080fd5b50356001600160a01b0316611090565b34801561050157600080fd5b506103b4611148565b34801561051657600080fd5b506103b46004803603602081101561052d57600080fd5b50356001600160a01b0316611157565b34801561054957600080fd5b506103b46112ac565b61039d6112b2565b34801561056657600080fd5b5061047b6112f4565b34801561057b57600080fd5b506103b46004803603602081101561059257600080fd5b5035611303565b3480156105a557600080fd5b506103b461139e565b3480156105ba57600080fd5b506103b4600480360360208110156105d157600080fd5b50356001600160a01b03166113a4565b3480156105ed57600080fd5b506103b46113bf565b34801561060257600080fd5b506103b46004803603602081101561061957600080fd5b5035611475565b34801561062c57600080fd5b506103b4611480565b34801561064157600080fd5b506102d3611486565b34801561065657600080fd5b506103b46004803603602081101561066d57600080fd5b50356001600160a01b03166114de565b34801561068957600080fd5b5061039d600480360360c08110156106a057600080fd5b6001600160a01b038235811692602081013590911691604082013591908101906080810160608201356401000000008111156106db57600080fd5b8201836020820111156106ed57600080fd5b8035906020019184600183028401116401000000008311171561070f57600080fd5b91908080601f016020809104026020016040519081016040528093929190818152602001838380828437600092019190915250929594936020810193503591505064010000000081111561076257600080fd5b82018360208201111561077457600080fd5b8035906020019184600183028401116401000000008311171561079657600080fd5b91908080601f0160208091040260200160405190810160405280939291908181526020018383808284376000920191909152509295505050903560ff16915061153b9050565b3480156107e857600080fd5b506103b4611722565b3480156107fd57600080fd5b506103816004803603604081101561081457600080fd5b506001600160a01b038135169060200135611a7a565b34801561083657600080fd5b506103b4611aeb565b61039d6004803603604081101561085557600080fd5b506001600160a01b0381358116916020013516611af1565b34801561087957600080fd5b506103b4611b3e565b34801561088e57600080fd5b506103b4600480360360608110156108a557600080fd5b506001600160a01b03813581169160208101359091169060400135611bdd565b3480156108d157600080fd5b506103b4600480360360208110156108e857600080fd5b50356001600160a01b0316611c4e565b34801561090457600080fd5b506103b4611cda565b34801561091957600080fd5b506109406004803603602081101561093057600080fd5b50356001600160a01b0316611d96565b604080519485526020850193909352838301919091526060830152519081900360800190f35b34801561097257600080fd5b506103b46004803603602081101561098957600080fd5b5035611e2b565b34801561099c57600080fd5b506103b4600480360360208110156109b357600080fd5b5035611e36565b3480156109c657600080fd5b506103b4600480360360408110156109dd57600080fd5b506001600160a01b0381358116916020013516611e41565b61039d60048036036020811015610a0b57600080fd5b50356001600160a01b0316611e6c565b348015610a2757600080fd5b506103b4611eba565b348015610a3c57600080fd5b506103b460048036036020811015610a5357600080fd5b50356001600160a01b0316611fbd565b348015610a6f57600080fd5b5061047b611ff7565b348015610a8457600080fd5b5061047b612006565b348015610a9957600080fd5b506103b461201a565b348015610aae57600080fd5b506103b460048036036020811015610ac557600080fd5b503561207e565b348015610ad857600080fd5b506103816120fc565b60008054819060ff16610b28576040805162461bcd60e51b815260206004820152600a6024820152691c994b595b9d195c995960b21b604482015290519081900360640190fd5b6000805460ff19168155610b3a611722565b90508015610b6457610b58816010811115610b5157fe5b601e612101565b60009250925050610b74565b610b6e3385612167565b92509250505b6000805460ff191660011790559092909150565b81610b9257610d9b565b6060815160050167ffffffffffffffff81118015610baf57600080fd5b506040519080825280601f01601f191660200182016040528015610bda576020820181803683370190505b50905060005b8251811015610c2b57828181518110610bf557fe5b602001015160f81c60f81b828281518110610c0c57fe5b60200101906001600160f81b031916908160001a905350600101610be0565b8151600160fd1b90839083908110610c3f57fe5b60200101906001600160f81b031916908160001a905350602860f81b828260010181518110610c6a57fe5b60200101906001600160f81b031916908160001a905350600a840460300160f81b828260020181518110610c9a57fe5b60200101906001600160f81b031916908160001a905350600a840660300160f81b828260030181518110610cca57fe5b60200101906001600160f81b031916908160001a905350602960f81b828260040181518110610cf557fe5b60200101906001600160f81b031916908160001a905350818415610d975760405162461bcd60e51b81526004018080602001828103825283818151815260200191508051906020019080838360005b83811015610d5c578181015183820152602001610d44565b50505050905090810190601f168015610d895780820380516001836020036101000a031916815260200191505b509250505060405180910390fd5b5050505b5050565b60018054604080516020600284861615610100026000190190941693909304601f81018490048402820184019092528181529291830182828015610e245780601f10610df957610100808354040283529160200191610e24565b820191906000526020600020905b815481529060010190602001808311610e0757829003601f168201915b505050505081565b336000818152600f602090815260408083206001600160a01b03871680855290835281842086905581518681529151939493909284927f8c5be1e5ebec7d5bd14f71427d1e84f3dd0314c0f7b2291e5b200ac8c7c3b925929081900390910190a360019150505b92915050565b6000610ea434610ae1565b509050610ed4816040518060400160405280600b81526020016a1b5a5b9d0819985a5b195960aa1b815250610b88565b50565b60085481565b6000805460ff16610f22576040805162461bcd60e51b815260206004820152600a6024820152691c994b595b9d195c995960b21b604482015290519081900360640190fd5b6000805460ff19168155610f34611722565b14610f7f576040805162461bcd60e51b81526020600482015260166024820152751858d8dc9d59481a5b9d195c995cdd0819985a5b195960521b604482015290519081900360640190fd5b610f88826114de565b90505b6000805460ff19166001179055919050565b600d5481565b6000806000610fb0612537565b90925090506000826003811115610fc357fe5b14610fff5760405162461bcd60e51b8152600401808060200182810382526035815260200180614a556035913960400191505060405180910390fd5b9150505b90565b6000805460ff1661104b576040805162461bcd60e51b815260206004820152600a6024820152691c994b595b9d195c995960b21b604482015290519081900360640190fd5b6000805460ff19168155611061338686866125e6565b1490506000805460ff191660011790559392505050565b6004546001600160a01b031681565b60035460ff1681565b600061109a614748565b60405180602001604052806110ad611cda565b90526001600160a01b0384166000908152600e60205260408120549192509081906110d990849061287a565b909250905060008260038111156110ec57fe5b1461113e576040805162461bcd60e51b815260206004820152601f60248201527f62616c616e636520636f756c64206e6f742062652063616c63756c6174656400604482015290519081900360640190fd5b925050505b919050565b60006111526128cd565b905090565b60035460009061010090046001600160a01b031633146111845761117d6001603f612101565b9050611143565b60055460408051623f1ee960e11b815290516001600160a01b0392831692851691627e3dd2916004808301926020929190829003018186803b1580156111c957600080fd5b505afa1580156111dd573d6000803e3d6000fd5b505050506040513d60208110156111f357600080fd5b5051611246576040805162461bcd60e51b815260206004820152601c60248201527f6d61726b6572206d6574686f642072657475726e65642066616c736500000000604482015290519081900360640190fd5b600580546001600160a01b0319166001600160a01b03858116918217909255604080519284168352602083019190915280517f7ac369dbd14fa5ea3f473ed67cc9d598964a77501540ba6751eb0b3decf5870d9281900390910190a160005b9392505050565b600b5481565b60006112bd346128f9565b509050610ed481604051806040016040528060128152602001711c995c185e509bdc9c9bddc819985a5b195960721b815250610b88565b6005546001600160a01b031681565b6000805460ff16611348576040805162461bcd60e51b815260206004820152600a6024820152691c994b595b9d195c995960b21b604482015290519081900360640190fd5b6000805460ff1916815561135a611722565b905080156113805761137881601081111561137157fe5b6030612101565b915050610f8b565b6113898361297b565b9150506000805460ff19166001179055919050565b60095481565b6001600160a01b03166000908152600e602052604090205490565b6000805460ff16611404576040805162461bcd60e51b815260206004820152600a6024820152691c994b595b9d195c995960b21b604482015290519081900360640190fd5b6000805460ff19168155611416611722565b14611461576040805162461bcd60e51b81526020600482015260166024820152751858d8dc9d59481a5b9d195c995cdd0819985a5b195960521b604482015290519081900360640190fd5b50600b546000805460ff1916600117905590565b6000610e9382612aae565b600c5481565b6002805460408051602060018416156101000260001901909316849004601f81018490048402820184019092528181529291830182828015610e245780601f10610df957610100808354040283529160200191610e24565b60008060006114ec84612b2f565b909250905060008260038111156114ff57fe5b146112a55760405162461bcd60e51b81526004018080602001828103825260378152602001806149606037913960400191505060405180910390fd5b60035461010090046001600160a01b031633146115895760405162461bcd60e51b815260040180806020018281038252602481526020018061489c6024913960400191505060405180910390fd5b6009541580156115995750600a54155b6115d45760405162461bcd60e51b81526004018080602001828103825260238152602001806148c06023913960400191505060405180910390fd5b6007849055836116155760405162461bcd60e51b81526004018080602001828103825260308152602001806148e36030913960400191505060405180910390fd5b600061162087611157565b90508015611675576040805162461bcd60e51b815260206004820152601a60248201527f73657474696e6720636f6d7074726f6c6c6572206661696c6564000000000000604482015290519081900360640190fd5b61167d612be2565b600955670de0b6b3a7640000600a5561169586612be6565b905080156116d45760405162461bcd60e51b81526004018080602001828103825260228152602001806149136022913960400191505060405180910390fd5b83516116e790600190602087019061475b565b5082516116fb90600290602086019061475b565b50506003805460ff90921660ff199283161790556000805490911660011790555050505050565b60008061172d612be2565b6009549091508082141561174657600092505050611003565b60006117506128cd565b600b54600c54600a54600654604080516315f2405360e01b815260048101879052602481018690526044810185905290519596509394929391926000926001600160a01b03909216916315f24053916064808301926020929190829003018186803b1580156117be57600080fd5b505afa1580156117d2573d6000803e3d6000fd5b505050506040513d60208110156117e857600080fd5b5051905065048c27395000811115611847576040805162461bcd60e51b815260206004820152601c60248201527f626f72726f772072617465206973206162737572646c79206869676800000000604482015290519081900360640190fd5b6000806118548989612d5b565b9092509050600082600381111561186757fe5b146118b9576040805162461bcd60e51b815260206004820152601f60248201527f636f756c64206e6f742063616c63756c61746520626c6f636b2064656c746100604482015290519081900360640190fd5b6118c1614748565b6000806000806118df60405180602001604052808a81525087612d7e565b909750945060008760038111156118f257fe5b146119245761190f6009600689600381111561190a57fe5b612de6565b9e505050505050505050505050505050611003565b61192e858c61287a565b9097509350600087600381111561194157fe5b146119595761190f6009600189600381111561190a57fe5b611963848c612e4c565b9097509250600087600381111561197657fe5b1461198e5761190f6009600489600381111561190a57fe5b6119a96040518060200160405280600854815250858c612e72565b909750915060008760038111156119bc57fe5b146119d45761190f6009600589600381111561190a57fe5b6119df858a8b612e72565b909750905060008760038111156119f257fe5b14611a0a5761190f6009600389600381111561190a57fe5b60098e9055600a819055600b839055600c829055604080518d8152602081018690528082018390526060810185905290517f4dec04e750ca11537cabcd8a9eab06494de08da3735bc8871cd41250e190bc049181900360800190a160009e50505050505050505050505050505090565b6000805460ff16611abf576040805162461bcd60e51b815260206004820152600a6024820152691c994b595b9d195c995960b21b604482015290519081900360640190fd5b6000805460ff19168155611ad5333386866125e6565b1490506000805460ff1916600117905592915050565b600a5481565b6000611afe833484612ece565b509050611b3981604051806040016040528060168152602001751b1a5c5d5a59185d19509bdc9c9bddc819985a5b195960521b815250610b88565b505050565b6006546000906001600160a01b031663b8168816611b5a6128cd565b600b54600c546008546040518563ffffffff1660e01b81526004018085815260200184815260200183815260200182815260200194505050505060206040518083038186803b158015611bac57600080fd5b505afa158015611bc0573d6000803e3d6000fd5b505050506040513d6020811015611bd657600080fd5b5051905090565b6000805460ff16611c22576040805162461bcd60e51b815260206004820152600a6024820152691c994b595b9d195c995960b21b604482015290519081900360640190fd5b6000805460ff19169055611c3833858585612fff565b90506000805460ff191660011790559392505050565b60035460009061010090046001600160a01b03163314611c745761117d60016045612101565b600480546001600160a01b038481166001600160a01b0319831681179093556040805191909216808252602082019390935281517fca4f2f25d0898edd99413412fb94012f9e54ec8142f9b093e7720646a95b16a9929181900390910190a160006112a5565b6000805460ff16611d1f576040805162461bcd60e51b815260206004820152600a6024820152691c994b595b9d195c995960b21b604482015290519081900360640190fd5b6000805460ff19168155611d31611722565b14611d7c576040805162461bcd60e51b81526020600482015260166024820152751858d8dc9d59481a5b9d195c995cdd0819985a5b195960521b604482015290519081900360640190fd5b611d84610fa3565b90506000805460ff1916600117905590565b6001600160a01b0381166000908152600e6020526040812054819081908190818080611dc189612b2f565b935090506000816003811115611dd357fe5b14611df15760095b6000806000975097509750975050505050611e24565b611df9612537565b925090506000816003811115611e0b57fe5b14611e17576009611ddb565b5060009650919450925090505b9193509193565b6000610e93826131db565b6000610e938261325a565b6001600160a01b039182166000908152600f6020908152604080832093909416825291909152205490565b6000611e7882346132d4565b509050610d9b816040518060400160405280601881526020017f7265706179426f72726f77426568616c66206661696c65640000000000000000815250610b88565b6004546000906001600160a01b031633141580611ed5575033155b15611eed57611ee660016000612101565b9050611003565b60038054600480546001600160a01b03818116610100818102610100600160a81b0319871617968790556001600160a01b031990931690935560408051948390048216808652929095041660208401528351909391927ff9ffabca9c8276e99321725bcb43fb076a6c66a54b7f21c4e8146d8519b417dc92908290030190a1600454604080516001600160a01b038085168252909216602083015280517fca4f2f25d0898edd99413412fb94012f9e54ec8142f9b093e7720646a95b16a99281900390910190a160009250505090565b600080611fc8611722565b90508015611fee57611fe6816010811115611fdf57fe5b6040612101565b915050611143565b6112a583612be6565b6006546001600160a01b031681565b60035461010090046001600160a01b031681565b6006546000906001600160a01b03166315f240536120366128cd565b600b54600c546040518463ffffffff1660e01b815260040180848152602001838152602001828152602001935050505060206040518083038186803b158015611bac57600080fd5b6000805460ff166120c3576040805162461bcd60e51b815260206004820152600a6024820152691c994b595b9d195c995960b21b604482015290519081900360640190fd5b6000805460ff191681556120d5611722565b905080156120f3576113788160108111156120ec57fe5b6046612101565b6113898361337e565b600181565b60007f45b96fe442630264581b197e84bbada861235052c5a1aadfff9ea4e40a969aa083601081111561213057fe5b83605081111561213c57fe5b604080519283526020830191909152600082820152519081900360600190a18260108111156112a557fe5b60055460408051634ef4c3e160e01b81523060048201526001600160a01b03858116602483015260448201859052915160009384938493911691634ef4c3e19160648082019260209290919082900301818787803b1580156121c857600080fd5b505af11580156121dc573d6000803e3d6000fd5b505050506040513d60208110156121f257600080fd5b505190508015612215576122096003601f83612de6565b60009250925050612530565b61221d612be2565b6009541461223157612209600a6022612101565b6122396147d9565b612241612537565b604083018190526020830182600381111561225857fe5b600381111561226357fe5b905250600090508160200151600381111561227a57fe5b146122a357612296600960218360200151600381111561190a57fe5b6000935093505050612530565b6122ad8686613426565b60c08201819052604080516020810182529083015181526122ce91906134c2565b60608301819052602083018260038111156122e557fe5b60038111156122f057fe5b905250600090508160200151600381111561230757fe5b14612359576040805162461bcd60e51b815260206004820181905260248201527f4d494e545f45584348414e47455f43414c43554c4154494f4e5f4641494c4544604482015290519081900360640190fd5b612369600d548260600151612e4c565b608083018190526020830182600381111561238057fe5b600381111561238b57fe5b90525060009050816020015160038111156123a257fe5b146123de5760405162461bcd60e51b8152600401808060200182810382526028815260200180614a8a6028913960400191505060405180910390fd5b6001600160a01b0386166000908152600e602052604090205460608201516124069190612e4c565b60a083018190526020830182600381111561241d57fe5b600381111561242857fe5b905250600090508160200151600381111561243f57fe5b1461247b5760405162461bcd60e51b815260040180806020018281038252602b815260200180614935602b913960400191505060405180910390fd5b6080810151600d5560a08101516001600160a01b0387166000818152600e60209081526040918290209390935560c084015160608086015183519485529484019190915282820193909352517f4c209b5fc8ad50758f13e2e1088ba56a560dff690a1c6fef26394f4c03821c4f929181900390910190a1606081015160408051918252516001600160a01b0388169130916000805160206149d18339815191529181900360200190a360c00151600093509150505b9250929050565b600d54600090819080612552575050600754600091506125e2565b600061255c6128cd565b90506000612568614748565b600061257984600b54600c546134d9565b93509050600081600381111561258b57fe5b146125a0579550600094506125e29350505050565b6125aa8386613517565b9250905060008160038111156125bc57fe5b146125d1579550600094506125e29350505050565b50516000955093506125e292505050565b9091565b600554604080516317b9b84b60e31b81523060048201526001600160a01b03868116602483015285811660448301526064820185905291516000938493169163bdcdc25891608480830192602092919082900301818787803b15801561264b57600080fd5b505af115801561265f573d6000803e3d6000fd5b505050506040513d602081101561267557600080fd5b5051905080156126945761268c6003604a83612de6565b915050612872565b836001600160a01b0316856001600160a01b031614156126ba5761268c6002604b612101565b6000856001600160a01b0316876001600160a01b031614156126df5750600019612707565b506001600160a01b038086166000908152600f60209081526040808320938a16835292905220545b6000806000806127178589612d5b565b9094509250600084600381111561272a57fe5b146127485761273b6009604b612101565b9650505050505050612872565b6001600160a01b038a166000908152600e602052604090205461276b9089612d5b565b9094509150600084600381111561277e57fe5b1461278f5761273b6009604c612101565b6001600160a01b0389166000908152600e60205260409020546127b29089612e4c565b909450905060008460038111156127c557fe5b146127d65761273b6009604d612101565b6001600160a01b03808b166000908152600e6020526040808220859055918b16815220819055600019851461282e576001600160a01b03808b166000908152600f60209081526040808320938f168352929052208390555b886001600160a01b03168a6001600160a01b03166000805160206149d18339815191528a6040518082815260200191505060405180910390a3600096505050505050505b949350505050565b6000806000612887614748565b6128918686612d7e565b909250905060008260038111156128a457fe5b146128b55750915060009050612530565b60006128c0826135c8565b9350935050509250929050565b60008060006128dc4734612d5b565b909250905060008260038111156128ef57fe5b14610fff57600080fd5b60008054819060ff16612940576040805162461bcd60e51b815260206004820152600a6024820152691c994b595b9d195c995960b21b604482015290519081900360640190fd5b6000805460ff19168155612952611722565b9050801561297057610b5881601081111561296957fe5b6036612101565b610b6e3333866135d7565b600354600090819061010090046001600160a01b031633146129a357611fe660016031612101565b6129ab612be2565b600954146129bf57611fe6600a6033612101565b826129c86128cd565b10156129da57611fe6600e6032612101565b600c548311156129f057611fe660026034612101565b50600c5482810390811115612a365760405162461bcd60e51b8152600401808060200182810382526024815260200180614ae66024913960400191505060405180910390fd5b600c819055600354612a569061010090046001600160a01b031684613923565b600354604080516101009092046001600160a01b0316825260208201859052818101839052517f3bad0c59cf2f06e7314077049f48a93578cd16f5ef92329f1dab1420a99c177e916060908290030190a160006112a5565b6000805460ff16612af3576040805162461bcd60e51b815260206004820152600a6024820152691c994b595b9d195c995960b21b604482015290519081900360640190fd5b6000805460ff19168155612b05611722565b90508015612b2357611378816010811115612b1c57fe5b6027612101565b61138933600085613a1b565b6001600160a01b038116600090815260106020526040812080548291829182918291612b65576000809550955050505050612bdd565b612b758160000154600a54613eee565b90945092506000846003811115612b8857fe5b14612b9d578360009550955050505050612bdd565b612bab838260010154613f2d565b90945091506000846003811115612bbe57fe5b14612bd3578360009550955050505050612bdd565b5060009450925050505b915091565b4390565b600354600090819061010090046001600160a01b03163314612c0e57611fe660016042612101565b612c16612be2565b60095414612c2a57611fe6600a6041612101565b600660009054906101000a90046001600160a01b03169050826001600160a01b0316632191f92a6040518163ffffffff1660e01b815260040160206040518083038186803b158015612c7b57600080fd5b505afa158015612c8f573d6000803e3d6000fd5b505050506040513d6020811015612ca557600080fd5b5051612cf8576040805162461bcd60e51b815260206004820152601c60248201527f6d61726b6572206d6574686f642072657475726e65642066616c736500000000604482015290519081900360640190fd5b600680546001600160a01b0319166001600160a01b03858116918217909255604080519284168352602083019190915280517fedffc32e068c7c95dfd4bdfd5c4d939a084d6b11c4199eac8436ed234d72f9269281900390910190a160006112a5565b600080838311612d72575060009050818303612530565b50600390506000612530565b6000612d88614748565b600080612d99866000015186613eee565b90925090506000826003811115612dac57fe5b14612dcb57506040805160208101909152600081529092509050612530565b60408051602081019091529081526000969095509350505050565b60007f45b96fe442630264581b197e84bbada861235052c5a1aadfff9ea4e40a969aa0846010811115612e1557fe5b846050811115612e2157fe5b604080519283526020830191909152818101859052519081900360600190a183601081111561287257fe5b600080838301848110612e6457600092509050612530565b600260009250925050612530565b6000806000612e7f614748565b612e898787612d7e565b90925090506000826003811115612e9c57fe5b14612ead5750915060009050612ec6565b612ebf612eb9826135c8565b86612e4c565b9350935050505b935093915050565b60008054819060ff16612f15576040805162461bcd60e51b815260206004820152600a6024820152691c994b595b9d195c995960b21b604482015290519081900360640190fd5b6000805460ff19168155612f27611722565b90508015612f5157612f45816010811115612f3e57fe5b600f612101565b60009250925050612fe8565b836001600160a01b031663a6afed956040518163ffffffff1660e01b8152600401602060405180830381600087803b158015612f8c57600080fd5b505af1158015612fa0573d6000803e3d6000fd5b505050506040513d6020811015612fb657600080fd5b505190508015612fd657612f45816010811115612fcf57fe5b6010612101565b612fe233878787613f58565b92509250505b6000805460ff191660011790559094909350915050565b6005546040805163d02f735160e01b81523060048201526001600160a01b038781166024830152868116604483015285811660648301526084820185905291516000938493169163d02f73519160a480830192602092919082900301818787803b15801561306c57600080fd5b505af1158015613080573d6000803e3d6000fd5b505050506040513d602081101561309657600080fd5b5051905080156130ad5761268c6003601b83612de6565b846001600160a01b0316846001600160a01b031614156130d35761268c6006601c612101565b6001600160a01b0384166000908152600e6020526040812054819081906130fa9087612d5b565b9093509150600083600381111561310d57fe5b14613130576131256009601a85600381111561190a57fe5b945050505050612872565b6001600160a01b0388166000908152600e60205260409020546131539087612e4c565b9093509050600083600381111561316657fe5b1461317e576131256009601985600381111561190a57fe5b6001600160a01b038088166000818152600e60209081526040808320879055938c168083529184902085905583518a8152935191936000805160206149d1833981519152929081900390910190a360009998505050505050505050565b6000805460ff16613220576040805162461bcd60e51b815260206004820152600a6024820152691c994b595b9d195c995960b21b604482015290519081900360640190fd5b6000805460ff19168155613232611722565b905080156132505761137881601081111561324957fe5b6008612101565b611389338461444d565b6000805460ff1661329f576040805162461bcd60e51b815260206004820152600a6024820152691c994b595b9d195c995960b21b604482015290519081900360640190fd5b6000805460ff191681556132b1611722565b905080156132c857611378816010811115612b1c57fe5b61138933846000613a1b565b60008054819060ff1661331b576040805162461bcd60e51b815260206004820152600a6024820152691c994b595b9d195c995960b21b604482015290519081900360640190fd5b6000805460ff1916815561332d611722565b905080156133575761334b81601081111561334457fe5b6035612101565b60009250925050613368565b6133623386866135d7565b92509250505b6000805460ff1916600117905590939092509050565b60035460009061010090046001600160a01b031633146133a45761117d60016047612101565b6133ac612be2565b600954146133c05761117d600a6048612101565b670de0b6b3a76400008211156133dc5761117d60026049612101565b6008805490839055604080518281526020810185905281517faaa68312e2ea9d50e16af5068410ab56e1a1fd06037b1a35664812c30f821460929181900390910190a160006112a5565b6000336001600160a01b03841614613477576040805162461bcd60e51b815260206004820152600f60248201526e0e6cadcc8cae440dad2e6dac2e8c6d608b1b604482015290519081900360640190fd5b8134146134bc576040805162461bcd60e51b815260206004820152600e60248201526d0ecc2d8eaca40dad2e6dac2e8c6d60931b604482015290519081900360640190fd5b50919050565b60008060006134cf614748565b61289186866146e9565b6000806000806134e98787612e4c565b909250905060008260038111156134fc57fe5b1461350d5750915060009050612ec6565b612ebf8186612d5b565b6000613521614748565b60008061353686670de0b6b3a7640000613eee565b9092509050600082600381111561354957fe5b1461356857506040805160208101909152600081529092509050612530565b6000806135758388613f2d565b9092509050600082600381111561358857fe5b146135ab5781604051806020016040528060008152509550955050505050612530565b604080516020810190915290815260009890975095505050505050565b51670de0b6b3a7640000900490565b60055460408051631200453160e11b81523060048201526001600160a01b0386811660248301528581166044830152606482018590529151600093849384939116916324008a629160848082019260209290919082900301818787803b15801561364057600080fd5b505af1158015613654573d6000803e3d6000fd5b505050506040513d602081101561366a57600080fd5b50519050801561368d576136816003603883612de6565b60009250925050612ec6565b613695612be2565b600954146136a957613681600a6039612101565b6136b1614817565b6001600160a01b03861660009081526010602052604090206001015460608201526136db86612b2f565b60808301819052602083018260038111156136f257fe5b60038111156136fd57fe5b905250600090508160200151600381111561371457fe5b1461373d57613730600960378360200151600381111561190a57fe5b6000935093505050612ec6565b600019851415613756576080810151604082015261375e565b604081018590525b61376c878260400151613426565b60e08201819052608082015161378191612d5b565b60a083018190526020830182600381111561379857fe5b60038111156137a357fe5b90525060009050816020015160038111156137ba57fe5b146137f65760405162461bcd60e51b815260040180806020018281038252603a815260200180614997603a913960400191505060405180910390fd5b613806600b548260e00151612d5b565b60c083018190526020830182600381111561381d57fe5b600381111561382857fe5b905250600090508160200151600381111561383f57fe5b1461387b5760405162461bcd60e51b81526004018080602001828103825260318152602001806149f16031913960400191505060405180910390fd5b60a080820180516001600160a01b03808a16600081815260106020908152604091829020948555600a5460019095019490945560c0870151600b81905560e088015195518251948f16855294840192909252828101949094526060820192909252608081019190915290517f1a2a22cb034d26d1854bdc6666a5b91fe25efbbb5dcad3b0355478d6f5c362a1929181900390910190a160e00151600097909650945050505050565b6001600160a01b03821661397e576040805162461bcd60e51b815260206004820152601b60248201527f63616e6e6f742073656e6420746f207a65726f20616464726573730000000000604482015290519081900360640190fd5b6040516000906001600160a01b0384169083908381818185875af1925050503d80600081146139c9576040519150601f19603f3d011682016040523d82523d6000602084013e6139ce565b606091505b5050905080611b39576040805162461bcd60e51b8152602060048201526014602482015273191bd51c985b9cd9995c93dd5d0819985a5b195960621b604482015290519081900360640190fd5b6000821580613a28575081155b613a635760405162461bcd60e51b8152600401808060200182810382526034815260200180614ab26034913960400191505060405180910390fd5b613a6b6147d9565b613a73612537565b6040830181905260208301826003811115613a8a57fe5b6003811115613a9557fe5b9052506000905081602001516003811115613aac57fe5b14613ad057613ac86009602b8360200151600381111561190a57fe5b9150506112a5565b8315613b51576060810184905260408051602081018252908201518152613af7908561287a565b6080830181905260208301826003811115613b0e57fe5b6003811115613b1957fe5b9052506000905081602001516003811115613b3057fe5b14613b4c57613ac8600960298360200151600381111561190a57fe5b613bca565b613b6d83604051806020016040528084604001518152506134c2565b6060830181905260208301826003811115613b8457fe5b6003811115613b8f57fe5b9052506000905081602001516003811115613ba657fe5b14613bc257613ac86009602a8360200151600381111561190a57fe5b608081018390525b60055460608201516040805163eabe7d9160e01b81523060048201526001600160a01b03898116602483015260448201939093529051600093929092169163eabe7d919160648082019260209290919082900301818787803b158015613c2f57600080fd5b505af1158015613c43573d6000803e3d6000fd5b505050506040513d6020811015613c5957600080fd5b505190508015613c7957613c706003602883612de6565b925050506112a5565b613c81612be2565b60095414613c9557613c70600a602c612101565b613ca5600d548360600151612d5b565b60a0840181905260208401826003811115613cbc57fe5b6003811115613cc757fe5b9052506000905082602001516003811115613cde57fe5b14613cfa57613c706009602e8460200151600381111561190a57fe5b6001600160a01b0386166000908152600e60205260409020546060830151613d229190612d5b565b60c0840181905260208401826003811115613d3957fe5b6003811115613d4457fe5b9052506000905082602001516003811115613d5b57fe5b14613d7757613c706009602d8460200151600381111561190a57fe5b8160800151613d846128cd565b1015613d9657613c70600e602f612101565b60a0820151600d5560c08201516001600160a01b0387166000908152600e60205260409020556080820151613dcc908790613923565b6060820151604080519182525130916001600160a01b038916916000805160206149d18339815191529181900360200190a37fe5b754fb1abb7f01b499791d0b820ae3b6af3424ac1c59768edb53f4ec31a929868360800151846060015160405180846001600160a01b03168152602001838152602001828152602001935050505060405180910390a160055460808301516060840151604080516351dff98960e01b81523060048201526001600160a01b038b81166024830152604482019490945260648101929092525191909216916351dff98991608480830192600092919082900301818387803b158015613ec357600080fd5b505af1158015613ed7573d6000803e3d6000fd5b5060009250613ee4915050565b9695505050505050565b60008083613f0157506000905080612530565b83830283858281613f0e57fe5b0414613f2257600260009250925050612530565b600092509050612530565b60008082613f415750600190506000612530565b6000838581613f4c57fe5b04915091509250929050565b60055460408051632fe3f38f60e11b81523060048201526001600160a01b0384811660248301528781166044830152868116606483015260848201869052915160009384938493911691635fc7e71e9160a48082019260209290919082900301818787803b158015613fc957600080fd5b505af1158015613fdd573d6000803e3d6000fd5b505050506040513d6020811015613ff357600080fd5b5051905080156140165761400a6003601283612de6565b60009250925050614444565b61401e612be2565b600954146140325761400a600a6016612101565b61403a612be2565b846001600160a01b0316636c540baf6040518163ffffffff1660e01b815260040160206040518083038186803b15801561407357600080fd5b505afa158015614087573d6000803e3d6000fd5b505050506040513d602081101561409d57600080fd5b5051146140b05761400a600a6011612101565b866001600160a01b0316866001600160a01b031614156140d65761400a60066017612101565b846140e75761400a60076015612101565b6000198514156140fd5761400a60076014612101565b60008061410b8989896135d7565b9092509050811561413a5761412c82601081111561412557fe5b6018612101565b600094509450505050614444565b6005546040805163c488847b60e01b81523060048201526001600160a01b038981166024830152604482018590528251600094859492169263c488847b92606480830193919282900301818787803b15801561419557600080fd5b505af11580156141a9573d6000803e3d6000fd5b505050506040513d60408110156141bf57600080fd5b5080516020909101519092509050811561420a5760405162461bcd60e51b8152600401808060200182810382526033815260200180614a226033913960400191505060405180910390fd5b80886001600160a01b03166370a082318c6040518263ffffffff1660e01b815260040180826001600160a01b0316815260200191505060206040518083038186803b15801561425857600080fd5b505afa15801561426c573d6000803e3d6000fd5b505050506040513d602081101561428257600080fd5b505110156142d7576040805162461bcd60e51b815260206004820152601860248201527f4c49515549444154455f5345495a455f544f4f5f4d5543480000000000000000604482015290519081900360640190fd5b60006001600160a01b0389163014156142fd576142f6308d8d85612fff565b9050614394565b886001600160a01b031663b2a02ff18d8d856040518463ffffffff1660e01b815260040180846001600160a01b03168152602001836001600160a01b031681526020018281526020019350505050602060405180830381600087803b15801561436557600080fd5b505af1158015614379573d6000803e3d6000fd5b505050506040513d602081101561438f57600080fd5b505190505b80156143de576040805162461bcd60e51b81526020600482015260146024820152731d1bdad95b881cd95a5e9d5c994819985a5b195960621b604482015290519081900360640190fd5b604080516001600160a01b03808f168252808e1660208301528183018790528b1660608201526080810184905290517f298637f684da70674f26509b10f07ec2fbc77a335ab1e7d6215a4b2484d8bb529181900360a00190a16000975092955050505050505b94509492505050565b6005546040805163368f515360e21b81523060048201526001600160a01b0385811660248301526044820185905291516000938493169163da3d454c91606480830192602092919082900301818787803b1580156144aa57600080fd5b505af11580156144be573d6000803e3d6000fd5b505050506040513d60208110156144d457600080fd5b5051905080156144f3576144eb6003600e83612de6565b915050610e93565b6144fb612be2565b6009541461450e576144eb600a80612101565b826145176128cd565b1015614529576144eb600e6009612101565b61453161485d565b61453a85612b2f565b602083018190528282600381111561454e57fe5b600381111561455957fe5b905250600090508151600381111561456d57fe5b1461459257614589600960078360000151600381111561190a57fe5b92505050610e93565b6145a0816020015185612e4c565b60408301819052828260038111156145b457fe5b60038111156145bf57fe5b90525060009050815160038111156145d357fe5b146145ef576145896009600c8360000151600381111561190a57fe5b6145fb600b5485612e4c565b606083018190528282600381111561460f57fe5b600381111561461a57fe5b905250600090508151600381111561462e57fe5b1461464a576145896009600b8360000151600381111561190a57fe5b6040808201516001600160a01b0387166000908152601060205291909120908155600a546001909101556060810151600b556146868585613923565b60408082015160608084015183516001600160a01b038a16815260208101899052808501939093529082015290517f13ed6866d4e1ee6da46f845c46d7e54120883d75c5ea9a2dacc1c4ca8984ab809181900360800190a1600095945050505050565b60006146f3614748565b600080614708670de0b6b3a764000087613eee565b9092509050600082600381111561471b57fe5b1461473a57506040805160208101909152600081529092509050612530565b6128c0818660000151613517565b6040518060200160405280600081525090565b828054600181600116156101000203166002900490600052602060002090601f016020900481019282601f1061479c57805160ff19168380011785556147c9565b828001600101855582156147c9579182015b828111156147c95782518255916020019190600101906147ae565b506147d5929150614886565b5090565b6040805160e0810190915280600081526020016000815260200160008152602001600081526020016000815260200160008152602001600081525090565b6040805161010081019091528060008152602001600081526020016000815260200160008152602001600081526020016000815260200160008152602001600081525090565b604080516080810190915280600081526020016000815260200160008152602001600081525090565b5b808211156147d5576000815560010161488756fe6f6e6c792061646d696e206d617920696e697469616c697a6520746865206d61726b65746d61726b6574206d6179206f6e6c7920626520696e697469616c697a6564206f6e6365696e697469616c2065786368616e67652072617465206d7573742062652067726561746572207468616e207a65726f2e73657474696e6720696e7465726573742072617465206d6f64656c206661696c65644d494e545f4e45575f4143434f554e545f42414c414e43455f43414c43554c4154494f4e5f4641494c4544626f72726f7742616c616e636553746f7265643a20626f72726f7742616c616e636553746f726564496e7465726e616c206661696c656452455041595f424f52524f575f4e45575f4143434f554e545f424f52524f575f42414c414e43455f43414c43554c4154494f4e5f4641494c4544ddf252ad1be2c89b69c2b068fc378daa952ba7f163c4a11628f55a4df523b3ef52455041595f424f52524f575f4e45575f544f54414c5f42414c414e43455f43414c43554c4154494f4e5f4641494c45444c49515549444154455f434f4d5054524f4c4c45525f43414c43554c4154455f414d4f554e545f5345495a455f4641494c454465786368616e67655261746553746f7265643a2065786368616e67655261746553746f726564496e7465726e616c206661696c65644d494e545f4e45575f544f54414c5f535550504c595f43414c43554c4154494f4e5f4641494c45446f6e65206f662072656465656d546f6b656e73496e206f722072656465656d416d6f756e74496e206d757374206265207a65726f72656475636520726573657276657320756e657870656374656420756e646572666c6f77a2646970667358221220ab728e69cc99e46d4574cc1cb1bc686ac4687363aa26dd05f91c2b8419fa1e7a64736f6c634300060c00336f6e6c792061646d696e206d617920696e697469616c697a6520746865206d61726b65746d61726b6574206d6179206f6e6c7920626520696e697469616c697a6564206f6e6365696e697469616c2065786368616e67652072617465206d7573742062652067726561746572207468616e207a65726f2e73657474696e6720696e7465726573742072617465206d6f64656c206661696c6564",
  "devdoc": {
    "author": "Compound",
    "kind": "dev",
    "methods": {
      "_acceptAdmin()": {
        "details": "Admin function for pending admin to accept role and update admin",
        "returns": {
          "_0": "uint 0=success, otherwise a failure (see ErrorReporter.sol for details)"
        }
      },
      "_reduceReserves(uint256)": {
        "params": {
          "reduceAmount": "Amount of reduction to reserves"
        },
        "returns": {
          "_0": "uint 0=success, otherwise a failure (see ErrorReporter.sol for details)"
        }
      },
      "_setComptroller(address)": {
        "details": "Admin function to set a new comptroller",
        "returns": {
          "_0": "uint 0=success, otherwise a failure (see ErrorReporter.sol for details)"
        }
      },
      "_setInterestRateModel(address)": {
        "details": "Admin function to accrue interest and update the interest rate model",
        "params": {
          "newInterestRateModel": "the new interest rate model to use"
        },
        "returns": {
          "_0": "uint 0=success, otherwise a failure (see ErrorReporter.sol for details)"
        }
      },
      "_setPendingAdmin(address)": {
        "details": "Admin function to begin change of admin. The newPendingAdmin must call `_acceptAdmin` to finalize the transfer.",
        "params": {
          "newPendingAdmin": "New pending admin."
        },
        "returns": {
          "_0": "uint 0=success, otherwise a failure (see ErrorReporter.sol for details)"
        }
      },
      "_setReserveFactor(uint256)": {
        "details": "Admin function to accrue interest and set a new reserve factor",
        "returns": {
          "_0": "uint 0=success, otherwise a failure (see ErrorReporter.sol for details)"
        }
      },
      "accrueInterest()": {
        "details": "This calculates interest accrued from the last checkpointed block   up to the current block and writes new checkpoint to storage."
      },
      "allowance(address,address)": {
        "params": {
          "owner": "The address of the account which owns the tokens to be spent",
          "spender": "The address of the account which may transfer tokens"
        },
        "returns": {
          "_0": "The number of tokens allowed to be spent (-1 means infinite)"
        }
      },
      "approve(address,uint256)": {
        "details": "This will overwrite the approval amount for `spender`  and is subject to issues noted [here](https://eips.ethereum.org/EIPS/eip-20#approve)",
        "params": {
          "amount": "The number of tokens that are approved (-1 means infinite)",
          "spender": "The address of the account which may transfer tokens"
        },
        "returns": {
          "_0": "Whether or not the approval succeeded"
        }
      },
      "balanceOf(address)": {
        "params": {
          "owner": "The address of the account to query"
        },
        "returns": {
          "_0": "The number of tokens owned by `owner`"
        }
      },
      "balanceOfUnderlying(address)": {
        "details": "This also accrues interest in a transaction",
        "params": {
          "owner": "The address of the account to query"
        },
        "returns": {
          "_0": "The amount of underlying owned by `owner`"
        }
      },
      "borrow(uint256)": {
        "params": {
          "borrowAmount": "The amount of the underlying asset to borrow"
        },
        "returns": {
          "_0": "uint 0=success, otherwise a failure (see ErrorReporter.sol for details)"
        }
      },
      "borrowBalanceCurrent(address)": {
        "params": {
          "account": "The address whose balance should be calculated after updating borrowIndex"
        },
        "returns": {
          "_0": "The calculated balance"
        }
      },
      "borrowBalanceStored(address)": {
        "params": {
          "account": "The address whose balance should be calculated"
        },
        "returns": {
          "_0": "The calculated balance"
        }
      },
      "borrowRatePerBlock()": {
        "returns": {
          "_0": "The borrow interest rate per block, scaled by 1e18"
        }
      },
      "constructor": {
        "params": {
          "admin_": "Address of the administrator of this token",
          "comptroller_": "The address of the Comptroller",
          "decimals_": "ERC-20 decimal precision of this token",
          "initialExchangeRateMantissa_": "The initial exchange rate, scaled by 1e18",
          "interestRateModel_": "The address of the interest rate model",
          "name_": "ERC-20 name of this token",
          "symbol_": "ERC-20 symbol of this token"
        }
      },
      "exchangeRateCurrent()": {
        "returns": {
          "_0": "Calculated exchange rate scaled by 1e18"
        }
      },
      "exchangeRateStored()": {
        "details": "This function does not accrue interest before calculating the exchange rate",
        "returns": {
          "_0": "Calculated exchange rate scaled by 1e18"
        }
      },
      "getAccountSnapshot(address)": {
        "details": "This is used by comptroller to more efficiently perform liquidity checks.",
        "params": {
          "account": "Address of the account to snapshot"
        },
        "returns": {
          "_0": "(possible error, token balance, borrow balance, exchange rate mantissa)"
        }
      },
      "getCash()": {
        "returns": {
          "_0": "The quantity of underlying asset owned by this contract"
        }
      },
      "initialize(address,address,uint256,string,string,uint8)": {
        "params": {
          "comptroller_": "The address of the Comptroller",
          "decimals_": "EIP-20 decimal precision of this token",
          "initialExchangeRateMantissa_": "The initial exchange rate, scaled by 1e18",
          "interestRateModel_": "The address of the interest rate model",
          "name_": "EIP-20 name of this token",
          "symbol_": "EIP-20 symbol of this token"
        }
      },
      "liquidateBorrow(address,address)": {
        "details": "Reverts upon any failure",
        "params": {
          "borrower": "The borrower of this cToken to be liquidated",
          "cTokenCollateral": "The market in which to seize collateral from the borrower"
        }
      },
      "mint()": {
        "details": "Reverts upon any failure"
      },
      "redeem(uint256)": {
        "details": "Accrues interest whether or not the operation succeeds, unless reverted",
        "params": {
          "redeemTokens": "The number of cTokens to redeem into underlying"
        },
        "returns": {
          "_0": "uint 0=success, otherwise a failure (see ErrorReporter.sol for details)"
        }
      },
      "redeemUnderlying(uint256)": {
        "details": "Accrues interest whether or not the operation succeeds, unless reverted",
        "params": {
          "redeemAmount": "The amount of underlying to redeem"
        },
        "returns": {
          "_0": "uint 0=success, otherwise a failure (see ErrorReporter.sol for details)"
        }
      },
      "repayBorrow()": {
        "details": "Reverts upon any failure"
      },
      "repayBorrowBehalf(address)": {
        "details": "Reverts upon any failure",
        "params": {
          "borrower": "the account with the debt being payed off"
        }
      },
      "seize(address,address,uint256)": {
        "details": "Will fail unless called by another cToken during the process of liquidation.  Its absolutely critical to use msg.sender as the borrowed cToken and not a parameter.",
        "params": {
          "borrower": "The account having collateral seized",
          "liquidator": "The account receiving seized collateral",
          "seizeTokens": "The number of cTokens to seize"
        },
        "returns": {
          "_0": "uint 0=success, otherwise a failure (see ErrorReporter.sol for details)"
        }
      },
      "supplyRatePerBlock()": {
        "returns": {
          "_0": "The supply interest rate per block, scaled by 1e18"
        }
      },
      "totalBorrowsCurrent()": {
        "returns": {
          "_0": "The total borrows with interest"
        }
      },
      "transfer(address,uint256)": {
        "params": {
          "amount": "The number of tokens to transfer",
          "dst": "The address of the destination account"
        },
        "returns": {
          "_0": "Whether or not the transfer succeeded"
        }
      },
      "transferFrom(address,address,uint256)": {
        "params": {
          "amount": "The number of tokens to transfer",
          "dst": "The address of the destination account",
          "src": "The address of the source account"
        },
        "returns": {
          "_0": "Whether or not the transfer succeeded"
        }
      }
    },
    "title": "Compound's CEther Contract",
    "version": 1
  },
  "userdoc": {
    "events": {
      "AccrueInterest(uint256,uint256,uint256,uint256)": {
        "notice": "Event emitted when interest is accrued"
      },
      "Approval(address,address,uint256)": {
        "notice": "EIP20 Approval event"
      },
      "Borrow(address,uint256,uint256,uint256)": {
        "notice": "Event emitted when underlying is borrowed"
      },
      "LiquidateBorrow(address,address,uint256,address,uint256)": {
        "notice": "Event emitted when a borrow is liquidated"
      },
      "Mint(address,uint256,uint256)": {
        "notice": "Event emitted when tokens are minted"
      },
      "NewAdmin(address,address)": {
        "notice": "Event emitted when pendingAdmin is accepted, which means admin is updated"
      },
      "NewComptroller(address,address)": {
        "notice": "Event emitted when comptroller is changed"
      },
      "NewMarketInterestRateModel(address,address)": {
        "notice": "Event emitted when interestRateModel is changed"
      },
      "NewPendingAdmin(address,address)": {
        "notice": "Event emitted when pendingAdmin is changed"
      },
      "NewReserveFactor(uint256,uint256)": {
        "notice": "Event emitted when the reserve factor is changed"
      },
      "Redeem(address,uint256,uint256)": {
        "notice": "Event emitted when tokens are redeemed"
      },
      "RepayBorrow(address,address,uint256,uint256,uint256)": {
        "notice": "Event emitted when a borrow is repaid"
      },
      "ReservesAdded(address,uint256,uint256)": {
        "notice": "Event emitted when the reserves are added"
      },
      "ReservesReduced(address,uint256,uint256)": {
        "notice": "Event emitted when the reserves are reduced"
      },
      "Transfer(address,address,uint256)": {
        "notice": "EIP20 Transfer event"
      }
    },
    "kind": "user",
    "methods": {
      "_acceptAdmin()": {
        "notice": "Accepts transfer of admin rights. msg.sender must be pendingAdmin"
      },
      "_reduceReserves(uint256)": {
        "notice": "Accrues interest and reduces reserves by transferring to admin"
      },
      "_setComptroller(address)": {
        "notice": "Sets a new comptroller for the market"
      },
      "_setInterestRateModel(address)": {
        "notice": "accrues interest and updates the interest rate model using _setInterestRateModelFresh"
      },
      "_setPendingAdmin(address)": {
        "notice": "Begins transfer of admin rights. The newPendingAdmin must call `_acceptAdmin` to finalize the transfer."
      },
      "_setReserveFactor(uint256)": {
        "notice": "accrues interest and sets a new reserve factor for the protocol using _setReserveFactorFresh"
      },
      "accrualBlockNumber()": {
        "notice": "Block number that interest was last accrued at"
      },
      "accrueInterest()": {
        "notice": "Applies accrued interest to total borrows and reserves"
      },
      "admin()": {
        "notice": "Administrator for this contract"
      },
      "allowance(address,address)": {
        "notice": "Get the current allowance from `owner` for `spender`"
      },
      "approve(address,uint256)": {
        "notice": "Approve `spender` to transfer up to `amount` from `src`"
      },
      "balanceOf(address)": {
        "notice": "Get the token balance of the `owner`"
      },
      "balanceOfUnderlying(address)": {
        "notice": "Get the underlying balance of the `owner`"
      },
      "borrow(uint256)": {
        "notice": "Sender borrows assets from the protocol to their own address"
      },
      "borrowBalanceCurrent(address)": {
        "notice": "Accrue interest to updated borrowIndex and then calculate account's borrow balance using the updated borrowIndex"
      },
      "borrowBalanceStored(address)": {
        "notice": "Return the borrow balance of account based on stored data"
      },
      "borrowIndex()": {
        "notice": "Accumulator of the total earned interest rate since the opening of the market"
      },
      "borrowRatePerBlock()": {
        "notice": "Returns the current per-block borrow interest rate for this cToken"
      },
      "comptroller()": {
        "notice": "Contract which oversees inter-cToken operations"
      },
      "constructor": "Construct a new CEther money market",
      "decimals()": {
        "notice": "EIP-20 token decimals for this token"
      },
      "exchangeRateCurrent()": {
        "notice": "Accrue interest then return the up-to-date exchange rate"
      },
      "exchangeRateStored()": {
        "notice": "Calculates the exchange rate from the underlying to the CToken"
      },
      "getAccountSnapshot(address)": {
        "notice": "Get a snapshot of the account's balances, and the cached exchange rate"
      },
      "getCash()": {
        "notice": "Get cash balance of this cToken in the underlying asset"
      },
      "initialize(address,address,uint256,string,string,uint8)": {
        "notice": "Initialize the money market"
      },
      "interestRateModel()": {
        "notice": "Model which tells what the current interest rate should be"
      },
      "isCToken()": {
        "notice": "Indicator that this is a CToken contract (for inspection)"
      },
      "liquidateBorrow(address,address)": {
        "notice": "The sender liquidates the borrowers collateral.  The collateral seized is transferred to the liquidator."
      },
      "mint()": {
        "notice": "Sender supplies assets into the market and receives cTokens in exchange"
      },
      "name()": {
        "notice": "EIP-20 token name for this token"
      },
      "pendingAdmin()": {
        "notice": "Pending administrator for this contract"
      },
      "redeem(uint256)": {
        "notice": "Sender redeems cTokens in exchange for the underlying asset"
      },
      "redeemUnderlying(uint256)": {
        "notice": "Sender redeems cTokens in exchange for a specified amount of underlying asset"
      },
      "repayBorrow()": {
        "notice": "Sender repays their own borrow"
      },
      "repayBorrowBehalf(address)": {
        "notice": "Sender repays a borrow belonging to borrower"
      },
      "reserveFactorMantissa()": {
        "notice": "Fraction of interest currently set aside for reserves"
      },
      "seize(address,address,uint256)": {
        "notice": "Transfers collateral tokens (this market) to the liquidator."
      },
      "supplyRatePerBlock()": {
        "notice": "Returns the current per-block supply interest rate for this cToken"
      },
      "symbol()": {
        "notice": "EIP-20 token symbol for this token"
      },
      "totalBorrows()": {
        "notice": "Total amount of outstanding borrows of the underlying in this market"
      },
      "totalBorrowsCurrent()": {
        "notice": "Returns the current total borrows plus accrued interest"
      },
      "totalReserves()": {
        "notice": "Total amount of reserves of the underlying held in this market"
      },
      "totalSupply()": {
        "notice": "Total number of tokens in circulation"
      },
      "transfer(address,uint256)": {
        "notice": "Transfer `amount` tokens from `msg.sender` to `dst`"
      },
      "transferFrom(address,address,uint256)": {
        "notice": "Transfer `amount` tokens from `src` to `dst`"
      }
    },
    "notice": "CToken which wraps Ether",
    "version": 1
  },
  "storageLayout": {
    "storage": [
      {
        "astId": 4723,
        "contract": "contracts/CEther.sol:CEther",
        "label": "_notEntered",
        "offset": 0,
        "slot": "0",
        "type": "t_bool"
      },
      {
        "astId": 4726,
        "contract": "contracts/CEther.sol:CEther",
        "label": "name",
        "offset": 0,
        "slot": "1",
        "type": "t_string_storage"
      },
      {
        "astId": 4729,
        "contract": "contracts/CEther.sol:CEther",
        "label": "symbol",
        "offset": 0,
        "slot": "2",
        "type": "t_string_storage"
      },
      {
        "astId": 4732,
        "contract": "contracts/CEther.sol:CEther",
        "label": "decimals",
        "offset": 0,
        "slot": "3",
        "type": "t_uint8"
      },
      {
        "astId": 4743,
        "contract": "contracts/CEther.sol:CEther",
        "label": "admin",
        "offset": 1,
        "slot": "3",
        "type": "t_address_payable"
      },
      {
        "astId": 4746,
        "contract": "contracts/CEther.sol:CEther",
        "label": "pendingAdmin",
        "offset": 0,
        "slot": "4",
        "type": "t_address_payable"
      },
      {
        "astId": 4749,
        "contract": "contracts/CEther.sol:CEther",
        "label": "comptroller",
        "offset": 0,
        "slot": "5",
        "type": "t_contract(ComptrollerInterface)9717"
      },
      {
        "astId": 4752,
        "contract": "contracts/CEther.sol:CEther",
        "label": "interestRateModel",
        "offset": 0,
        "slot": "6",
        "type": "t_contract(InterestRateModel)14119"
      },
      {
        "astId": 4755,
        "contract": "contracts/CEther.sol:CEther",
        "label": "initialExchangeRateMantissa",
        "offset": 0,
        "slot": "7",
        "type": "t_uint256"
      },
      {
        "astId": 4758,
        "contract": "contracts/CEther.sol:CEther",
        "label": "reserveFactorMantissa",
        "offset": 0,
        "slot": "8",
        "type": "t_uint256"
      },
      {
        "astId": 4761,
        "contract": "contracts/CEther.sol:CEther",
        "label": "accrualBlockNumber",
        "offset": 0,
        "slot": "9",
        "type": "t_uint256"
      },
      {
        "astId": 4764,
        "contract": "contracts/CEther.sol:CEther",
        "label": "borrowIndex",
        "offset": 0,
        "slot": "10",
        "type": "t_uint256"
      },
      {
        "astId": 4767,
        "contract": "contracts/CEther.sol:CEther",
        "label": "totalBorrows",
        "offset": 0,
        "slot": "11",
        "type": "t_uint256"
      },
      {
        "astId": 4770,
        "contract": "contracts/CEther.sol:CEther",
        "label": "totalReserves",
        "offset": 0,
        "slot": "12",
        "type": "t_uint256"
      },
      {
        "astId": 4773,
        "contract": "contracts/CEther.sol:CEther",
        "label": "totalSupply",
        "offset": 0,
        "slot": "13",
        "type": "t_uint256"
      },
      {
        "astId": 4778,
        "contract": "contracts/CEther.sol:CEther",
        "label": "accountTokens",
        "offset": 0,
        "slot": "14",
        "type": "t_mapping(t_address,t_uint256)"
      },
      {
        "astId": 4785,
        "contract": "contracts/CEther.sol:CEther",
        "label": "transferAllowances",
        "offset": 0,
        "slot": "15",
        "type": "t_mapping(t_address,t_mapping(t_address,t_uint256))"
      },
      {
        "astId": 4795,
        "contract": "contracts/CEther.sol:CEther",
        "label": "accountBorrows",
        "offset": 0,
        "slot": "16",
        "type": "t_mapping(t_address,t_struct(BorrowSnapshot)4790_storage)"
      }
    ],
    "types": {
      "t_address": {
        "encoding": "inplace",
        "label": "address",
        "numberOfBytes": "20"
      },
      "t_address_payable": {
        "encoding": "inplace",
        "label": "address payable",
        "numberOfBytes": "20"
      },
      "t_bool": {
        "encoding": "inplace",
        "label": "bool",
        "numberOfBytes": "1"
      },
      "t_contract(ComptrollerInterface)9717": {
        "encoding": "inplace",
        "label": "contract ComptrollerInterface",
        "numberOfBytes": "20"
      },
      "t_contract(InterestRateModel)14119": {
        "encoding": "inplace",
        "label": "contract InterestRateModel",
        "numberOfBytes": "20"
      },
      "t_mapping(t_address,t_mapping(t_address,t_uint256))": {
        "encoding": "mapping",
        "key": "t_address",
        "label": "mapping(address => mapping(address => uint256))",
        "numberOfBytes": "32",
        "value": "t_mapping(t_address,t_uint256)"
      },
      "t_mapping(t_address,t_struct(BorrowSnapshot)4790_storage)": {
        "encoding": "mapping",
        "key": "t_address",
        "label": "mapping(address => struct CTokenStorage.BorrowSnapshot)",
        "numberOfBytes": "32",
        "value": "t_struct(BorrowSnapshot)4790_storage"
      },
      "t_mapping(t_address,t_uint256)": {
        "encoding": "mapping",
        "key": "t_address",
        "label": "mapping(address => uint256)",
        "numberOfBytes": "32",
        "value": "t_uint256"
      },
      "t_string_storage": {
        "encoding": "bytes",
        "label": "string",
        "numberOfBytes": "32"
      },
      "t_struct(BorrowSnapshot)4790_storage": {
        "encoding": "inplace",
        "label": "struct CTokenStorage.BorrowSnapshot",
        "members": [
          {
            "astId": 4787,
            "contract": "contracts/CEther.sol:CEther",
            "label": "principal",
            "offset": 0,
            "slot": "0",
            "type": "t_uint256"
          },
          {
            "astId": 4789,
            "contract": "contracts/CEther.sol:CEther",
            "label": "interestIndex",
            "offset": 0,
            "slot": "1",
            "type": "t_uint256"
          }
        ],
        "numberOfBytes": "64"
      },
      "t_uint256": {
        "encoding": "inplace",
        "label": "uint256",
        "numberOfBytes": "32"
      },
      "t_uint8": {
        "encoding": "inplace",
        "label": "uint8",
        "numberOfBytes": "1"
      }
    }
  }
}