{
  "address": "0xef8DC239a8977cc273990aa7A0046B7292d131f6",
  "abi": [
    {
      "constant": false,
      "inputs": [
        {
          "internalType": "contract CToken",
          "name": "cToken",
          "type": "address"
        },
        {
          "internalType": "address payable",
          "name": "account",
          "type": "address"
        }
      ],
      "name": "cTokenBalances",
      "outputs": [
        {
          "components": [
            {
              "internalType": "address",
              "name": "cToken",
              "type": "address"
            },
            {
              "internalType": "uint256",
              "name": "balanceOf",
              "type": "uint256"
            },
            {
              "internalType": "uint256",
              "name": "borrowBalanceCurrent",
              "type": "uint256"
            },
            {
              "internalType": "uint256",
              "name": "balanceOfUnderlying",
              "type": "uint256"
            },
            {
              "internalType": "uint256",
              "name": "tokenBalance",
              "type": "uint256"
            },
            {
              "internalType": "uint256",
              "name": "tokenAllowance",
              "type": "uint256"
            }
          ],
          "internalType": "struct CompoundLens.CTokenBalances",
          "name": "",
          "type": "tuple"
        }
      ],
      "payable": false,
      "stateMutability": "nonpayable",
      "type": "function"
    },
    {
      "constant": false,
      "inputs": [
        {
          "internalType": "contract CToken[]",
          "name": "cTokens",
          "type": "address[]"
        },
        {
          "internalType": "address payable",
          "name": "account",
          "type": "address"
        }
      ],
      "name": "cTokenBalancesAll",
      "outputs": [
        {
          "components": [
            {
              "internalType": "address",
              "name": "cToken",
              "type": "address"
            },
            {
              "internalType": "uint256",
              "name": "balanceOf",
              "type": "uint256"
            },
            {
              "internalType": "uint256",
              "name": "borrowBalanceCurrent",
              "type": "uint256"
            },
            {
              "internalType": "uint256",
              "name": "balanceOfUnderlying",
              "type": "uint256"
            },
            {
              "internalType": "uint256",
              "name": "tokenBalance",
              "type": "uint256"
            },
            {
              "internalType": "uint256",
              "name": "tokenAllowance",
              "type": "uint256"
            }
          ],
          "internalType": "struct CompoundLens.CTokenBalances[]",
          "name": "",
          "type": "tuple[]"
        }
      ],
      "payable": false,
      "stateMutability": "nonpayable",
      "type": "function"
    },
    {
      "constant": false,
      "inputs": [
        {
          "internalType": "contract CToken",
          "name": "cToken",
          "type": "address"
        }
      ],
      "name": "cTokenMetadata",
      "outputs": [
        {
          "components": [
            {
              "internalType": "address",
              "name": "cToken",
              "type": "address"
            },
            {
              "internalType": "uint256",
              "name": "exchangeRateCurrent",
              "type": "uint256"
            },
            {
              "internalType": "uint256",
              "name": "supplyRatePerBlock",
              "type": "uint256"
            },
            {
              "internalType": "uint256",
              "name": "borrowRatePerBlock",
              "type": "uint256"
            },
            {
              "internalType": "uint256",
              "name": "reserveFactorMantissa",
              "type": "uint256"
            },
            {
              "internalType": "uint256",
              "name": "totalBorrows",
              "type": "uint256"
            },
            {
              "internalType": "uint256",
              "name": "totalReserves",
              "type": "uint256"
            },
            {
              "internalType": "uint256",
              "name": "totalSupply",
              "type": "uint256"
            },
            {
              "internalType": "uint256",
              "name": "totalCash",
              "type": "uint256"
            },
            {
              "internalType": "bool",
              "name": "isListed",
              "type": "bool"
            },
            {
              "internalType": "uint256",
              "name": "collateralFactorMantissa",
              "type": "uint256"
            },
            {
              "internalType": "address",
              "name": "underlyingAssetAddress",
              "type": "address"
            },
            {
              "internalType": "uint256",
              "name": "cTokenDecimals",
              "type": "uint256"
            },
            {
              "internalType": "uint256",
              "name": "underlyingDecimals",
              "type": "uint256"
            }
          ],
          "internalType": "struct CompoundLens.CTokenMetadata",
          "name": "",
          "type": "tuple"
        }
      ],
      "payable": false,
      "stateMutability": "nonpayable",
      "type": "function"
    },
    {
      "constant": false,
      "inputs": [
        {
          "internalType": "contract CToken[]",
          "name": "cTokens",
          "type": "address[]"
        }
      ],
      "name": "cTokenMetadataAll",
      "outputs": [
        {
          "components": [
            {
              "internalType": "address",
              "name": "cToken",
              "type": "address"
            },
            {
              "internalType": "uint256",
              "name": "exchangeRateCurrent",
              "type": "uint256"
            },
            {
              "internalType": "uint256",
              "name": "supplyRatePerBlock",
              "type": "uint256"
            },
            {
              "internalType": "uint256",
              "name": "borrowRatePerBlock",
              "type": "uint256"
            },
            {
              "internalType": "uint256",
              "name": "reserveFactorMantissa",
              "type": "uint256"
            },
            {
              "internalType": "uint256",
              "name": "totalBorrows",
              "type": "uint256"
            },
            {
              "internalType": "uint256",
              "name": "totalReserves",
              "type": "uint256"
            },
            {
              "internalType": "uint256",
              "name": "totalSupply",
              "type": "uint256"
            },
            {
              "internalType": "uint256",
              "name": "totalCash",
              "type": "uint256"
            },
            {
              "internalType": "bool",
              "name": "isListed",
              "type": "bool"
            },
            {
              "internalType": "uint256",
              "name": "collateralFactorMantissa",
              "type": "uint256"
            },
            {
              "internalType": "address",
              "name": "underlyingAssetAddress",
              "type": "address"
            },
            {
              "internalType": "uint256",
              "name": "cTokenDecimals",
              "type": "uint256"
            },
            {
              "internalType": "uint256",
              "name": "underlyingDecimals",
              "type": "uint256"
            }
          ],
          "internalType": "struct CompoundLens.CTokenMetadata[]",
          "name": "",
          "type": "tuple[]"
        }
      ],
      "payable": false,
      "stateMutability": "nonpayable",
      "type": "function"
    },
    {
      "constant": false,
      "inputs": [
        {
          "internalType": "contract CToken",
          "name": "cToken",
          "type": "address"
        }
      ],
      "name": "cTokenUnderlyingPrice",
      "outputs": [
        {
          "components": [
            {
              "internalType": "address",
              "name": "cToken",
              "type": "address"
            },
            {
              "internalType": "uint256",
              "name": "underlyingPrice",
              "type": "uint256"
            }
          ],
          "internalType": "struct CompoundLens.CTokenUnderlyingPrice",
          "name": "",
          "type": "tuple"
        }
      ],
      "payable": false,
      "stateMutability": "nonpayable",
      "type": "function"
    },
    {
      "constant": false,
      "inputs": [
        {
          "internalType": "contract CToken[]",
          "name": "cTokens",
          "type": "address[]"
        }
      ],
      "name": "cTokenUnderlyingPriceAll",
      "outputs": [
        {
          "components": [
            {
              "internalType": "address",
              "name": "cToken",
              "type": "address"
            },
            {
              "internalType": "uint256",
              "name": "underlyingPrice",
              "type": "uint256"
            }
          ],
          "internalType": "struct CompoundLens.CTokenUnderlyingPrice[]",
          "name": "",
          "type": "tuple[]"
        }
      ],
      "payable": false,
      "stateMutability": "nonpayable",
      "type": "function"
    },
    {
      "constant": false,
      "inputs": [
        {
          "internalType": "contract ComptrollerLensInterface",
          "name": "comptroller",
          "type": "address"
        },
        {
          "internalType": "address",
          "name": "account",
          "type": "address"
        }
      ],
      "name": "getAccountLimits",
      "outputs": [
        {
          "components": [
            {
              "internalType": "contract CToken[]",
              "name": "markets",
              "type": "address[]"
            },
            {
              "internalType": "uint256",
              "name": "liquidity",
              "type": "uint256"
            },
            {
              "internalType": "uint256",
              "name": "shortfall",
              "type": "uint256"
            }
          ],
          "internalType": "struct CompoundLens.AccountLimits",
          "name": "",
          "type": "tuple"
        }
      ],
      "payable": false,
      "stateMutability": "nonpayable",
      "type": "function"
    },
    {
      "constant": true,
      "inputs": [
        {
          "internalType": "contract Comp",
          "name": "comp",
          "type": "address"
        },
        {
          "internalType": "address",
          "name": "account",
          "type": "address"
        }
      ],
      "name": "getCompBalanceMetadata",
      "outputs": [
        {
          "components": [
            {
              "internalType": "uint256",
              "name": "balance",
              "type": "uint256"
            },
            {
              "internalType": "uint256",
              "name": "votes",
              "type": "uint256"
            },
            {
              "internalType": "address",
              "name": "delegate",
              "type": "address"
            }
          ],
          "internalType": "struct CompoundLens.CompBalanceMetadata",
          "name": "",
          "type": "tuple"
        }
      ],
      "payable": false,
      "stateMutability": "view",
      "type": "function"
    },
    {
      "constant": false,
      "inputs": [
        {
          "internalType": "contract Comp",
          "name": "comp",
          "type": "address"
        },
        {
          "internalType": "contract ComptrollerLensInterface",
          "name": "comptroller",
          "type": "address"
        },
        {
          "internalType": "address",
          "name": "account",
          "type": "address"
        }
      ],
      "name": "getCompBalanceMetadataExt",
      "outputs": [
        {
          "components": [
            {
              "internalType": "uint256",
              "name": "balance",
              "type": "uint256"
            },
            {
              "internalType": "uint256",
              "name": "votes",
              "type": "uint256"
            },
            {
              "internalType": "address",
              "name": "delegate",
              "type": "address"
            },
            {
              "internalType": "uint256",
              "name": "allocated",
              "type": "uint256"
            }
          ],
          "internalType": "struct CompoundLens.CompBalanceMetadataExt",
          "name": "",
          "type": "tuple"
        }
      ],
      "payable": false,
      "stateMutability": "nonpayable",
      "type": "function"
    },
    {
      "constant": true,
      "inputs": [
        {
          "internalType": "contract Comp",
          "name": "comp",
          "type": "address"
        },
        {
          "internalType": "address",
          "name": "account",
          "type": "address"
        },
        {
          "internalType": "uint32[]",
          "name": "blockNumbers",
          "type": "uint32[]"
        }
      ],
      "name": "getCompVotes",
      "outputs": [
        {
          "components": [
            {
              "internalType": "uint256",
              "name": "blockNumber",
              "type": "uint256"
            },
            {
              "internalType": "uint256",
              "name": "votes",
              "type": "uint256"
            }
          ],
          "internalType": "struct CompoundLens.CompVotes[]",
          "name": "",
          "type": "tuple[]"
        }
      ],
      "payable": false,
      "stateMutability": "view",
      "type": "function"
    },
    {
      "constant": true,
      "inputs": [
        {
          "internalType": "contract GovernorAlpha",
          "name": "governor",
          "type": "address"
        },
        {
          "internalType": "uint256[]",
          "name": "proposalIds",
          "type": "uint256[]"
        }
      ],
      "name": "getGovProposals",
      "outputs": [
        {
          "components": [
            {
              "internalType": "uint256",
              "name": "proposalId",
              "type": "uint256"
            },
            {
              "internalType": "address",
              "name": "proposer",
              "type": "address"
            },
            {
              "internalType": "uint256",
              "name": "eta",
              "type": "uint256"
            },
            {
              "internalType": "address[]",
              "name": "targets",
              "type": "address[]"
            },
            {
              "internalType": "uint256[]",
              "name": "values",
              "type": "uint256[]"
            },
            {
              "internalType": "string[]",
              "name": "signatures",
              "type": "string[]"
            },
            {
              "internalType": "bytes[]",
              "name": "calldatas",
              "type": "bytes[]"
            },
            {
              "internalType": "uint256",
              "name": "startBlock",
              "type": "uint256"
            },
            {
              "internalType": "uint256",
              "name": "endBlock",
              "type": "uint256"
            },
            {
              "internalType": "uint256",
              "name": "forVotes",
              "type": "uint256"
            },
            {
              "internalType": "uint256",
              "name": "againstVotes",
              "type": "uint256"
            },
            {
              "internalType": "bool",
              "name": "canceled",
              "type": "bool"
            },
            {
              "internalType": "bool",
              "name": "executed",
              "type": "bool"
            }
          ],
          "internalType": "struct CompoundLens.GovProposal[]",
          "name": "",
          "type": "tuple[]"
        }
      ],
      "payable": false,
      "stateMutability": "view",
      "type": "function"
    },
    {
      "constant": true,
      "inputs": [
        {
          "internalType": "contract GovernorAlpha",
          "name": "governor",
          "type": "address"
        },
        {
          "internalType": "address",
          "name": "voter",
          "type": "address"
        },
        {
          "internalType": "uint256[]",
          "name": "proposalIds",
          "type": "uint256[]"
        }
      ],
      "name": "getGovReceipts",
      "outputs": [
        {
          "components": [
            {
              "internalType": "uint256",
              "name": "proposalId",
              "type": "uint256"
            },
            {
              "internalType": "bool",
              "name": "hasVoted",
              "type": "bool"
            },
            {
              "internalType": "bool",
              "name": "support",
              "type": "bool"
            },
            {
              "internalType": "uint96",
              "name": "votes",
              "type": "uint96"
            }
          ],
          "internalType": "struct CompoundLens.GovReceipt[]",
          "name": "",
          "type": "tuple[]"
        }
      ],
      "payable": false,
      "stateMutability": "view",
      "type": "function"
    }
  ],
  "transactionHash": "0x2ab5112fa643781e8b063b41bfd84df9bbcdb72735d52fb9fdf3d1684b491c13",
  "args": [],
  "solcInputHash": "251f15328f1c87691ade7a81df7774b1",
  "bytecode": "0x608060405234801561001057600080fd5b506134f5806100206000396000f3fe608060405234801561001057600080fd5b50600436106100b45760003560e01c8063595642191161007157806359564219146101825780637dd8f6d9146101a257806396994869146101c2578063995ed99f146101e2578063bdf950c914610202578063c5ae593414610222576100b4565b80630972bf8b146100b9578063158eca8b146100e25780631ea63741146101025780632b2d5ed614610122578063416405d7146101425780634b70d84b14610162575b600080fd5b6100cc6100c73660046124b6565b610242565b6040516100d99190613256565b60405180910390f35b6100f56100f0366004612578565b6102e5565b6040516100d991906132fa565b61011561011036600461262d565b610a69565b6040516100d99190613317565b610135610130366004612475565b610df0565b6040516100d99190613278565b610155610150366004612596565b610e8c565b6040516100d99190613325565b610175610170366004612475565b611035565b6040516100d99190613267565b6101956101903660046125c6565b6110c6565b6040516100d99190613289565b6101b56101b0366004612596565b61121e565b6040516100d991906132db565b6101d56101d03660046126e8565b61135a565b6040516100d9919061329a565b6101f56101f036600461268e565b611516565b6040516100d991906132ab565b610215610210366004612596565b611670565b6040516100d991906132ec565b610235610230366004612578565b611a10565b6040516100d99190613309565b6040805183815260208085028201019091526060908390829082801561028257816020015b61026f611d7f565b8152602001906001900390816102675790505b50905060005b828110156102d9576102ba87878381811061029f57fe5b90506020020160206102b49190810190612578565b86611670565b8282815181106102c657fe5b6020908102919091010152600101610288565b509150505b9392505050565b6102ed611dbe565b6000826001600160a01b031663bd6d894d6040518163ffffffff1660e01b8152600401602060405180830381600087803b15801561032a57600080fd5b505af115801561033e573d6000803e3d6000fd5b505050506040513d601f19601f82011682018060405250610362919081019061278f565b90506000836001600160a01b0316635fe3b5676040518163ffffffff1660e01b815260040160206040518083038186803b15801561039f57600080fd5b505afa1580156103b3573d6000803e3d6000fd5b505050506040513d601f19601f820116820180604052506103d79190810190612670565b9050600080826001600160a01b0316638e8f294b876040518263ffffffff1660e01b81526004016104089190613204565b604080518083038186803b15801561041f57600080fd5b505afa158015610433573d6000803e3d6000fd5b505050506040513d601f19601f82011682018060405250610457919081019061253e565b915091506000806104f8886001600160a01b03166395d89b416040518163ffffffff1660e01b815260040160006040518083038186803b15801561049a57600080fd5b505afa1580156104ae573d6000803e3d6000fd5b505050506040513d6000823e601f3d908101601f191682016040526104d6919081019061273d565b604051806040016040528060048152602001630c48aa8960e31b815250611ba4565b156105095750600090506012610669565b6000889050806001600160a01b0316636f307dc36040518163ffffffff1660e01b815260040160206040518083038186803b15801561054757600080fd5b505afa15801561055b573d6000803e3d6000fd5b505050506040513d601f19601f8201168201806040525061057f9190810190612393565b9250806001600160a01b0316636f307dc36040518163ffffffff1660e01b815260040160206040518083038186803b1580156105ba57600080fd5b505afa1580156105ce573d6000803e3d6000fd5b505050506040513d601f19601f820116820180604052506105f29190810190612393565b6001600160a01b031663313ce5676040518163ffffffff1660e01b815260040160206040518083038186803b15801561062a57600080fd5b505afa15801561063e573d6000803e3d6000fd5b505050506040513d601f19601f8201168201806040525061066291908101906128d2565b60ff169150505b604051806101c00160405280896001600160a01b03168152602001878152602001896001600160a01b031663ae9d70b06040518163ffffffff1660e01b815260040160206040518083038186803b1580156106c357600080fd5b505afa1580156106d7573d6000803e3d6000fd5b505050506040513d601f19601f820116820180604052506106fb919081019061278f565b8152602001896001600160a01b031663f8f9da286040518163ffffffff1660e01b815260040160206040518083038186803b15801561073957600080fd5b505afa15801561074d573d6000803e3d6000fd5b505050506040513d601f19601f82011682018060405250610771919081019061278f565b8152602001896001600160a01b031663173b99046040518163ffffffff1660e01b815260040160206040518083038186803b1580156107af57600080fd5b505afa1580156107c3573d6000803e3d6000fd5b505050506040513d601f19601f820116820180604052506107e7919081019061278f565b8152602001896001600160a01b03166347bd37186040518163ffffffff1660e01b815260040160206040518083038186803b15801561082557600080fd5b505afa158015610839573d6000803e3d6000fd5b505050506040513d601f19601f8201168201806040525061085d919081019061278f565b8152602001896001600160a01b0316638f840ddd6040518163ffffffff1660e01b815260040160206040518083038186803b15801561089b57600080fd5b505afa1580156108af573d6000803e3d6000fd5b505050506040513d601f19601f820116820180604052506108d3919081019061278f565b8152602001896001600160a01b03166318160ddd6040518163ffffffff1660e01b815260040160206040518083038186803b15801561091157600080fd5b505afa158015610925573d6000803e3d6000fd5b505050506040513d601f19601f82011682018060405250610949919081019061278f565b8152602001896001600160a01b0316633b1d21a26040518163ffffffff1660e01b815260040160206040518083038186803b15801561098757600080fd5b505afa15801561099b573d6000803e3d6000fd5b505050506040513d601f19601f820116820180604052506109bf919081019061278f565b81526020018515158152602001848152602001836001600160a01b03168152602001896001600160a01b031663313ce5676040518163ffffffff1660e01b815260040160206040518083038186803b158015610a1a57600080fd5b505afa158015610a2e573d6000803e3d6000fd5b505050506040513d601f19601f82011682018060405250610a5291908101906128d2565b60ff16815260200191909152979650505050505050565b610a71611e41565b6040516370a0823160e01b81526000906001600160a01b038616906370a0823190610aa0908690600401613204565b60206040518083038186803b158015610ab857600080fd5b505afa158015610acc573d6000803e3d6000fd5b505050506040513d601f19601f82011682018060405250610af0919081019061278f565b6040516374d7814960e11b81529091506001600160a01b0385169063e9af029290610b1f908690600401613204565b600060405180830381600087803b158015610b3957600080fd5b505af1158015610b4d573d6000803e3d6000fd5b50506040516370a0823160e01b8152600092506001600160a01b03881691506370a0823190610b80908790600401613204565b60206040518083038186803b158015610b9857600080fd5b505afa158015610bac573d6000803e3d6000fd5b505050506040513d601f19601f82011682018060405250610bd0919081019061278f565b90506000856001600160a01b031663cc7ebdc4866040518263ffffffff1660e01b8152600401610c009190613204565b60206040518083038186803b158015610c1857600080fd5b505afa158015610c2c573d6000803e3d6000fd5b505050506040513d601f19601f82011682018060405250610c50919081019061278f565b90506000610c8582846040518060400160405280600e81526020016d1cdd5b4818dbdb5c081d1bdd185b60921b815250611bfd565b90506000610cb982866040518060400160405280600d81526020016c1cdd5888185b1b1bd8d85d1959609a1b815250611c2d565b905060405180608001604052808681526020018a6001600160a01b031663b4b5ea578a6040518263ffffffff1660e01b8152600401610cf89190613204565b60206040518083038186803b158015610d1057600080fd5b505afa158015610d24573d6000803e3d6000fd5b505050506040513d601f19601f82011682018060405250610d4891908101906128f0565b6001600160601b031681526020018a6001600160a01b031663587cde1e8a6040518263ffffffff1660e01b8152600401610d829190613204565b60206040518083038186803b158015610d9a57600080fd5b505afa158015610dae573d6000803e3d6000fd5b505050506040513d601f19601f82011682018060405250610dd29190810190612393565b6001600160a01b031681526020019190915298975050505050505050565b60408051828152602080840282010190915260609082908290828015610e3057816020015b610e1d611e72565b815260200190600190039081610e155790505b50905060005b82811015610e8157610e62868683818110610e4d57fe5b90506020020160206102309190810190612578565b828281518110610e6e57fe5b6020908102919091010152600101610e36565b509150505b92915050565b610e94611e89565b6040805160608101918290526370a0823160e01b909152806001600160a01b0385166370a08231610ec88660648501613204565b60206040518083038186803b158015610ee057600080fd5b505afa158015610ef4573d6000803e3d6000fd5b505050506040513d601f19601f82011682018060405250610f18919081019061278f565b8152602001846001600160a01b031663b4b5ea57856040518263ffffffff1660e01b8152600401610f499190613204565b60206040518083038186803b158015610f6157600080fd5b505afa158015610f75573d6000803e3d6000fd5b505050506040513d601f19601f82011682018060405250610f9991908101906128f0565b6001600160601b03168152602001846001600160a01b031663587cde1e856040518263ffffffff1660e01b8152600401610fd39190613204565b60206040518083038186803b158015610feb57600080fd5b505afa158015610fff573d6000803e3d6000fd5b505050506040513d601f19601f820116820180604052506110239190810190612393565b6001600160a01b031690529392505050565b6040805182815260208084028201019091526060908290829082801561107557816020015b611062611dbe565b81526020019060019003908161105a5790505b50905060005b82811015610e81576110a786868381811061109257fe5b90506020020160206100f09190810190612578565b8282815181106110b357fe5b602090810291909101015260010161107b565b6060808383905060405190808252806020026020018201604052801561110657816020015b6110f3611eb3565b8152602001906001900390816110eb5790505b50905060005b8381101561121457604051806040016040528086868481811061112b57fe5b905060200201602061114091908101906128b4565b63ffffffff168152602001886001600160a01b031663782d6fe18989898781811061116757fe5b905060200201602061117c91908101906128b4565b6040518363ffffffff1660e01b815260040161119992919061323b565b60206040518083038186803b1580156111b157600080fd5b505afa1580156111c5573d6000803e3d6000fd5b505050506040513d601f19601f820116820180604052506111e991908101906128f0565b6001600160601b031681525082828151811061120157fe5b602090810291909101015260010161110c565b5095945050505050565b611226611ecd565b6000806000856001600160a01b0316635ec88c79866040518263ffffffff1660e01b81526004016112579190613204565b60606040518083038186803b15801561126f57600080fd5b505afa158015611283573d6000803e3d6000fd5b505050506040513d601f19601f820116820180604052506112a79190810190612871565b925092509250826000146112ba57600080fd5b604080516060810191829052632aff3bff60e21b909152806001600160a01b03881663abfceffc6112ee8960648501613204565b60006040518083038186803b15801561130657600080fd5b505afa15801561131a573d6000803e3d6000fd5b505050506040513d6000823e601f3d908101601f19168201604052611342919081019061250a565b81526020810193909352604090920152949350505050565b6060808383905060405190808252806020026020018201604052801561139a57816020015b611387611eee565b81526020019060019003908161137f5790505b50905060005b8381101561150d57606080606080896001600160a01b031663328dd9828a8a888181106113c957fe5b905060200201356040518263ffffffff1660e01b81526004016113ec9190613333565b60006040518083038186803b15801561140457600080fd5b505afa158015611418573d6000803e3d6000fd5b505050506040513d6000823e601f3d908101601f1916820160405261144091908101906123b9565b9350935093509350604051806101a001604052806000815260200160006001600160a01b031681526020016000815260200185815260200184815260200183815260200182815260200160008152602001600081526020016000815260200160008152602001600015158152602001600015158152508686815181106114c257fe5b60200260200101819052506114fd8686815181106114dc57fe5b60200260200101518b8b8b898181106114f157fe5b90506020020135611c59565b5050600190920191506113a09050565b50949350505050565b606060008251905060608160405190808252806020026020018201604052801561155a57816020015b611547611f63565b81526020019060019003908161153f5790505b50905060005b828110156102d957611570611f8a565b876001600160a01b031663e23a9a5287848151811061158b57fe5b6020026020010151896040518363ffffffff1660e01b81526004016115b1929190613341565b60606040518083038186803b1580156115c957600080fd5b505afa1580156115dd573d6000803e3d6000fd5b505050506040513d601f19601f820116820180604052506116019190810190612771565b9050604051806080016040528087848151811061161a57fe5b6020026020010151815260200182600001511515815260200182602001511515815260200182604001516001600160601b031681525083838151811061165c57fe5b602090810291909101015250600101611560565b611678611d7f565b6040516370a0823160e01b81526000906001600160a01b038516906370a08231906116a7908690600401613212565b60206040518083038186803b1580156116bf57600080fd5b505afa1580156116d3573d6000803e3d6000fd5b505050506040513d601f19601f820116820180604052506116f7919081019061278f565b90506000846001600160a01b03166317bfdfbc856040518263ffffffff1660e01b81526004016117279190613212565b602060405180830381600087803b15801561174157600080fd5b505af1158015611755573d6000803e3d6000fd5b505050506040513d601f19601f82011682018060405250611779919081019061278f565b90506000856001600160a01b0316633af9e669866040518263ffffffff1660e01b81526004016117a99190613212565b602060405180830381600087803b1580156117c357600080fd5b505af11580156117d7573d6000803e3d6000fd5b505050506040513d601f19601f820116820180604052506117fb919081019061278f565b905060008061183c886001600160a01b03166395d89b416040518163ffffffff1660e01b815260040160006040518083038186803b15801561049a57600080fd5b156118565750506001600160a01b038516803190316119d3565b60008890506000816001600160a01b0316636f307dc36040518163ffffffff1660e01b815260040160206040518083038186803b15801561189657600080fd5b505afa1580156118aa573d6000803e3d6000fd5b505050506040513d601f19601f820116820180604052506118ce9190810190612393565b6040516370a0823160e01b81529091506001600160a01b038216906370a08231906118fd908c90600401613212565b60206040518083038186803b15801561191557600080fd5b505afa158015611929573d6000803e3d6000fd5b505050506040513d601f19601f8201168201806040525061194d919081019061278f565b604051636eb1769f60e11b81529094506001600160a01b0382169063dd62ed3e9061197e908c908e90600401613220565b60206040518083038186803b15801561199657600080fd5b505afa1580156119aa573d6000803e3d6000fd5b505050506040513d601f19601f820116820180604052506119ce919081019061278f565b925050505b6040805160c0810182526001600160a01b039990991689526020890195909552938701929092526060860152608085015260a08401525090919050565b611a18611e72565b6000826001600160a01b0316635fe3b5676040518163ffffffff1660e01b815260040160206040518083038186803b158015611a5357600080fd5b505afa158015611a67573d6000803e3d6000fd5b505050506040513d601f19601f82011682018060405250611a8b9190810190612670565b90506000816001600160a01b0316637dc0d1d06040518163ffffffff1660e01b815260040160206040518083038186803b158015611ac857600080fd5b505afa158015611adc573d6000803e3d6000fd5b505050506040513d601f19601f82011682018060405250611b009190810190612670565b90506040518060400160405280856001600160a01b03168152602001826001600160a01b031663fc57d4df876040518263ffffffff1660e01b8152600401611b4891906132bc565b602060405180830381600087803b158015611b6257600080fd5b505af1158015611b76573d6000803e3d6000fd5b505050506040513d601f19601f82011682018060405250611b9a919081019061278f565b9052949350505050565b600081604051602001611bb791906131f8565b6040516020818303038152906040528051906020012083604051602001611bde91906131f8565b6040516020818303038152906040528051906020012014905092915050565b6000838301828582101561150d5760405162461bcd60e51b8152600401611c2491906132ca565b60405180910390fd5b60008184841115611c515760405162461bcd60e51b8152600401611c2491906132ca565b505050900390565b600080600080600080600080896001600160a01b031663013cf08b8a6040518263ffffffff1660e01b8152600401611c919190613333565b6101206040518083038186803b158015611caa57600080fd5b505afa158015611cbe573d6000803e3d6000fd5b505050506040513d601f19601f82011682018060405250611ce291908101906127ad565b9850985098509850985098509850985050888b6000018181525050878b602001906001600160a01b031690816001600160a01b031681525050868b6040018181525050858b60e0018181525050848b610100018181525050838b610120018181525050828b610140018181525050818b610160019015159081151581525050808b6101800190151590811515815250505050505050505050505050565b6040518060c0016040528060006001600160a01b0316815260200160008152602001600081526020016000815260200160008152602001600081525090565b604051806101c0016040528060006001600160a01b0316815260200160008152602001600081526020016000815260200160008152602001600081526020016000815260200160008152602001600081526020016000151581526020016000815260200160006001600160a01b0316815260200160008152602001600081525090565b6040518060800160405280600081526020016000815260200160006001600160a01b03168152602001600081525090565b604080518082019091526000808252602082015290565b6040518060600160405280600081526020016000815260200160006001600160a01b031681525090565b604051806040016040528060008152602001600081525090565b60405180606001604052806060815260200160008152602001600081525090565b604051806101a001604052806000815260200160006001600160a01b031681526020016000815260200160608152602001606081526020016060815260200160608152602001600081526020016000815260200160008152602001600081526020016000151581526020016000151581525090565b60408051608081018252600080825260208201819052918101829052606081019190915290565b604080516060810182526000808252602082018190529181019190915290565b8035610e8681613465565b8051610e8681613465565b600082601f830112611fd157600080fd5b8151611fe4611fdf82613375565b61334f565b9150818183526020840193506020810190508385602084028201111561200957600080fd5b60005b83811015612035578161201f8882611fb5565b845250602092830192919091019060010161200c565b5050505092915050565b600082601f83011261205057600080fd5b815161205e611fdf82613375565b81815260209384019390925082018360005b838110156120355781518601612086888261229c565b8452506020928301929190910190600101612070565b60008083601f8401126120ae57600080fd5b5081356001600160401b038111156120c557600080fd5b6020830191508360208202830111156120dd57600080fd5b9250929050565b600082601f8301126120f557600080fd5b8151612103611fdf82613375565b9150818183526020840193506020810190508385602084028201111561212857600080fd5b60005b83811015612035578161213e88826122f6565b845250602092830192919091019060010161212b565b600082601f83011261216557600080fd5b8151612173611fdf82613375565b81815260209384019390925082018360005b83811015612035578151860161219b888261229c565b8452506020928301929190910190600101612185565b600082601f8301126121c257600080fd5b81356121d0611fdf82613375565b915081818352602084019350602081019050838560208402820111156121f557600080fd5b60005b83811015612035578161220b888261235c565b84525060209283019291909101906001016121f8565b600082601f83011261223257600080fd5b8151612240611fdf82613375565b9150818183526020840193506020810190508385602084028201111561226557600080fd5b60005b83811015612035578161227b8882612367565b8452506020928301929190910190600101612268565b8051610e868161347c565b600082601f8301126122ad57600080fd5b81516122bb611fdf82613395565b915080825260208301602083018583830111156122d757600080fd5b6122e283828461342f565b50505092915050565b8035610e8681613485565b8051610e8681613485565b60006060828403121561231357600080fd5b61231d606061334f565b9050600061232b8484612291565b825250602061233c84848301612291565b602083015250604061235084828501612388565b60408301525092915050565b8035610e868161348e565b8051610e868161348e565b8035610e8681613497565b8051610e86816134a0565b8051610e86816134a9565b6000602082840312156123a557600080fd5b60006123b18484611fb5565b949350505050565b600080600080608085870312156123cf57600080fd5b84516001600160401b038111156123e557600080fd5b6123f187828801611fc0565b94505060208501516001600160401b0381111561240d57600080fd5b61241987828801612221565b93505060408501516001600160401b0381111561243557600080fd5b61244187828801612154565b92505060608501516001600160401b0381111561245d57600080fd5b6124698782880161203f565b91505092959194509250565b6000806020838503121561248857600080fd5b82356001600160401b0381111561249e57600080fd5b6124aa8582860161209c565b92509250509250929050565b6000806000604084860312156124cb57600080fd5b83356001600160401b038111156124e157600080fd5b6124ed8682870161209c565b9350935050602061250086828701611faa565b9150509250925092565b60006020828403121561251c57600080fd5b81516001600160401b0381111561253257600080fd5b6123b1848285016120e4565b6000806040838503121561255157600080fd5b600061255d8585612291565b925050602061256e85828601612367565b9150509250929050565b60006020828403121561258a57600080fd5b60006123b184846122eb565b600080604083850312156125a957600080fd5b60006125b585856122eb565b925050602061256e85828601611faa565b600080600080606085870312156125dc57600080fd5b60006125e887876122eb565b94505060206125f987828801611faa565b93505060408501356001600160401b0381111561261557600080fd5b6126218782880161209c565b95989497509550505050565b60008060006060848603121561264257600080fd5b600061264e86866122eb565b935050602061265f868287016122eb565b925050604061250086828701611faa565b60006020828403121561268257600080fd5b60006123b184846122f6565b6000806000606084860312156126a357600080fd5b60006126af86866122eb565b93505060206126c086828701611faa565b92505060408401356001600160401b038111156126dc57600080fd5b612500868287016121b1565b6000806000604084860312156126fd57600080fd5b600061270986866122eb565b93505060208401356001600160401b0381111561272557600080fd5b6127318682870161209c565b92509250509250925092565b60006020828403121561274f57600080fd5b81516001600160401b0381111561276557600080fd5b6123b18482850161229c565b60006060828403121561278357600080fd5b60006123b18484612301565b6000602082840312156127a157600080fd5b60006123b18484612367565b60008060008060008060008060006101208a8c0312156127cc57600080fd5b60006127d88c8c612367565b99505060206127e98c828d01611fb5565b98505060406127fa8c828d01612367565b975050606061280b8c828d01612367565b965050608061281c8c828d01612367565b95505060a061282d8c828d01612367565b94505060c061283e8c828d01612367565b93505060e061284f8c828d01612291565b9250506101006128618c828d01612291565b9150509295985092959850929598565b60008060006060848603121561288657600080fd5b60006128928686612367565b93505060206128a386828701612367565b925050604061250086828701612367565b6000602082840312156128c657600080fd5b60006123b18484612372565b6000602082840312156128e457600080fd5b60006123b1848461237d565b60006020828403121561290257600080fd5b60006123b18484612388565b600061291a83836129be565b505060200190565b60006102de8383612d7b565b600061291a8383612db3565b60006129468383612e33565b505060c00190565b600061295a8383612ea9565b50506101c00190565b600061296f8383612fbe565b505060400190565b600061296f8383613063565b60006102de8383613074565b600061299b8383613193565b505060800190565b600061291a83836131dd565b6129b881613419565b82525050565b6129b8816133d4565b60006129d2826133c2565b6129dc81856133c6565b93506129e7836133bc565b8060005b83811015612a155781516129ff888261290e565b9750612a0a836133bc565b9250506001016129eb565b509495945050505050565b6000612a2b826133c2565b612a3581856133c6565b935083602082028501612a47856133bc565b8060005b85811015612a815784840389528151612a648582612922565b9450612a6f836133bc565b60209a909a0199925050600101612a4b565b5091979650505050505050565b6000612a99826133c2565b612aa381856133c6565b9350612aae836133bc565b8060005b83811015612a15578151612ac6888261292e565b9750612ad1836133bc565b925050600101612ab2565b6000612ae7826133c2565b612af181856133c6565b935083602082028501612b03856133bc565b8060005b85811015612a815784840389528151612b208582612922565b9450612b2b836133bc565b60209a909a0199925050600101612b07565b6000612b48826133c2565b612b5281856133c6565b9350612b5d836133bc565b8060005b83811015612a15578151612b75888261293a565b9750612b80836133bc565b925050600101612b61565b6000612b96826133c2565b612ba081856133c6565b9350612bab836133bc565b8060005b83811015612a15578151612bc3888261294e565b9750612bce836133bc565b925050600101612baf565b6000612be4826133c2565b612bee81856133c6565b9350612bf9836133bc565b8060005b83811015612a15578151612c118882612963565b9750612c1c836133bc565b925050600101612bfd565b6000612c32826133c2565b612c3c81856133c6565b9350612c47836133bc565b8060005b83811015612a15578151612c5f8882612977565b9750612c6a836133bc565b925050600101612c4b565b6000612c80826133c2565b612c8a81856133c6565b935083602082028501612c9c856133bc565b8060005b85811015612a815784840389528151612cb98582612983565b9450612cc4836133bc565b60209a909a0199925050600101612ca0565b6000612ce1826133c2565b612ceb81856133c6565b9350612cf6836133bc565b8060005b83811015612a15578151612d0e888261298f565b9750612d19836133bc565b925050600101612cfa565b6000612d2f826133c2565b612d3981856133c6565b9350612d44836133bc565b8060005b83811015612a15578151612d5c88826129a3565b9750612d67836133bc565b925050600101612d48565b6129b8816133df565b6000612d86826133c2565b612d9081856133c6565b9350612da081856020860161342f565b612da98161345b565b9093019392505050565b6129b8816133e4565b6000612dc7826133c2565b612dd181856133cf565b9350612de181856020860161342f565b9290920192915050565b8051606080845260009190840190612e038282612a8e565b9150506020830151612e1860208601826131dd565b506040830151612e2b60408601826131dd565b509392505050565b805160c0830190612e4484826129be565b506020820151612e5760208501826131dd565b506040820151612e6a60408501826131dd565b506060820151612e7d60608501826131dd565b506080820151612e9060808501826131dd565b5060a0820151612ea360a08501826131dd565b50505050565b80516101c0830190612ebb84826129be565b506020820151612ece60208501826131dd565b506040820151612ee160408501826131dd565b506060820151612ef460608501826131dd565b506080820151612f0760808501826131dd565b5060a0820151612f1a60a08501826131dd565b5060c0820151612f2d60c08501826131dd565b5060e0820151612f4060e08501826131dd565b50610100820151612f556101008501826131dd565b50610120820151612f6a610120850182612d72565b50610140820151612f7f6101408501826131dd565b50610160820151612f946101608501826129be565b50610180820151612fa96101808501826131dd565b506101a0820151612ea36101a08501826131dd565b80516040830190612fcf84826129be565b506020820151612ea360208501826131dd565b80516080830190612ff384826131dd565b50602082015161300660208501826131dd565b50604082015161301960408501826129be565b506060820151612ea360608501826131dd565b8051606083019061303d84826131dd565b50602082015161305060208501826131dd565b506040820151612ea360408501826129be565b80516040830190612fcf84826131dd565b80516000906101a084019061308985826131dd565b50602083015161309c60208601826129be565b5060408301516130af60408601826131dd565b50606083015184820360608601526130c782826129c7565b915050608083015184820360808601526130e18282612d24565b91505060a083015184820360a08601526130fb8282612adc565b91505060c083015184820360c08601526131158282612a20565b91505060e083015161312a60e08601826131dd565b5061010083015161313f6101008601826131dd565b506101208301516131546101208601826131dd565b506101408301516131696101408601826131dd565b5061016083015161317e610160860182612d72565b50610180830151612e2b610180860182612d72565b805160808301906131a484826131dd565b5060208201516131b76020850182612d72565b5060408201516131ca6040850182612d72565b506060820151612ea360608501826131ef565b6129b8816133fb565b6129b881613424565b6129b88161340d565b60006102de8284612dbc565b60208101610e8682846129be565b60208101610e8682846129af565b6040810161322e82856129af565b6102de60208301846129be565b6040810161324982856129be565b6102de60208301846131e6565b602080825281016102de8184612b3d565b602080825281016102de8184612b8b565b602080825281016102de8184612bd9565b602080825281016102de8184612c27565b602080825281016102de8184612c75565b602080825281016102de8184612cd6565b60208101610e868284612db3565b602080825281016102de8184612d7b565b602080825281016102de8184612deb565b60c08101610e868284612e33565b6101c08101610e868284612ea9565b60408101610e868284612fbe565b60808101610e868284612fe2565b60608101610e86828461302c565b60208101610e8682846131dd565b6040810161322e82856131dd565b6040518181016001600160401b038111828210171561336d57600080fd5b604052919050565b60006001600160401b0382111561338b57600080fd5b5060209081020190565b60006001600160401b038211156133ab57600080fd5b506020601f91909101601f19160190565b60200190565b5190565b90815260200190565b919050565b6000610e86826133ef565b151590565b6000610e86826133d4565b6001600160a01b031690565b90565b63ffffffff1690565b60ff1690565b6001600160601b031690565b6000610e86826133e4565b6000610e86826133fe565b60005b8381101561344a578181015183820152602001613432565b83811115612ea35750506000910152565b601f01601f191690565b61346e816133d4565b811461347957600080fd5b50565b61346e816133df565b61346e816133e4565b61346e816133fb565b61346e816133fe565b61346e81613407565b61346e8161340d56fea365627a7a7231582069a22999b4ef38074247eadae69960567af768d651afd3229c4f5a83bcf118c66c6578706572696d656e74616cf564736f6c63430005110040",
  "devdoc": {
    "methods": {}
  },
  "userdoc": {
    "methods": {}
  },
  "storageLayout": {
    "storage": [],
    "types": null
  }
}