{
  "address": "0xE5e8FbB9Efc8e2D8Fe962479aff942639f972Bef",
  "abi": [
    {
      "inputs": [],
      "stateMutability": "nonpayable",
      "type": "constructor"
    },
    {
      "anonymous": false,
      "inputs": [
        {
          "indexed": false,
          "internalType": "string",
          "name": "action",
          "type": "string"
        },
        {
          "indexed": false,
          "internalType": "bool",
          "name": "pauseState",
          "type": "bool"
        }
      ],
      "name": "ActionPaused",
      "type": "event"
    },
    {
      "anonymous": false,
      "inputs": [
        {
          "indexed": false,
          "internalType": "contract CToken",
          "name": "cToken",
          "type": "address"
        },
        {
          "indexed": false,
          "internalType": "string",
          "name": "action",
          "type": "string"
        },
        {
          "indexed": false,
          "internalType": "bool",
          "name": "pauseState",
          "type": "bool"
        }
      ],
      "name": "ActionPaused",
      "type": "event"
    },
    {
      "anonymous": false,
      "inputs": [
        {
          "indexed": true,
          "internalType": "contract CToken",
          "name": "cToken",
          "type": "address"
        },
        {
          "indexed": false,
          "internalType": "uint256",
          "name": "newSpeed",
          "type": "uint256"
        }
      ],
      "name": "CompSpeedUpdated",
      "type": "event"
    },
    {
      "anonymous": false,
      "inputs": [
        {
          "indexed": true,
          "internalType": "contract CToken",
          "name": "cToken",
          "type": "address"
        },
        {
          "indexed": true,
          "internalType": "address",
          "name": "borrower",
          "type": "address"
        },
        {
          "indexed": false,
          "internalType": "uint256",
          "name": "compDelta",
          "type": "uint256"
        },
        {
          "indexed": false,
          "internalType": "uint256",
          "name": "compBorrowIndex",
          "type": "uint256"
        }
      ],
      "name": "DistributedBorrowerComp",
      "type": "event"
    },
    {
      "anonymous": false,
      "inputs": [
        {
          "indexed": true,
          "internalType": "contract CToken",
          "name": "cToken",
          "type": "address"
        },
        {
          "indexed": true,
          "internalType": "address",
          "name": "supplier",
          "type": "address"
        },
        {
          "indexed": false,
          "internalType": "uint256",
          "name": "compDelta",
          "type": "uint256"
        },
        {
          "indexed": false,
          "internalType": "uint256",
          "name": "compSupplyIndex",
          "type": "uint256"
        }
      ],
      "name": "DistributedSupplierComp",
      "type": "event"
    },
    {
      "anonymous": false,
      "inputs": [
        {
          "indexed": false,
          "internalType": "uint256",
          "name": "error",
          "type": "uint256"
        },
        {
          "indexed": false,
          "internalType": "uint256",
          "name": "info",
          "type": "uint256"
        },
        {
          "indexed": false,
          "internalType": "uint256",
          "name": "detail",
          "type": "uint256"
        }
      ],
      "name": "Failure",
      "type": "event"
    },
    {
      "anonymous": false,
      "inputs": [
        {
          "indexed": false,
          "internalType": "contract CToken",
          "name": "cToken",
          "type": "address"
        },
        {
          "indexed": false,
          "internalType": "bool",
          "name": "isComped",
          "type": "bool"
        }
      ],
      "name": "MarketComped",
      "type": "event"
    },
    {
      "anonymous": false,
      "inputs": [
        {
          "indexed": false,
          "internalType": "contract CToken",
          "name": "cToken",
          "type": "address"
        },
        {
          "indexed": false,
          "internalType": "address",
          "name": "account",
          "type": "address"
        }
      ],
      "name": "MarketEntered",
      "type": "event"
    },
    {
      "anonymous": false,
      "inputs": [
        {
          "indexed": false,
          "internalType": "contract CToken",
          "name": "cToken",
          "type": "address"
        },
        {
          "indexed": false,
          "internalType": "address",
          "name": "account",
          "type": "address"
        }
      ],
      "name": "MarketExited",
      "type": "event"
    },
    {
      "anonymous": false,
      "inputs": [
        {
          "indexed": false,
          "internalType": "contract CToken",
          "name": "cToken",
          "type": "address"
        }
      ],
      "name": "MarketListed",
      "type": "event"
    },
    {
      "anonymous": false,
      "inputs": [
        {
          "indexed": true,
          "internalType": "contract CToken",
          "name": "cToken",
          "type": "address"
        },
        {
          "indexed": false,
          "internalType": "uint256",
          "name": "newBorrowCap",
          "type": "uint256"
        }
      ],
      "name": "NewBorrowCap",
      "type": "event"
    },
    {
      "anonymous": false,
      "inputs": [
        {
          "indexed": false,
          "internalType": "address",
          "name": "oldBorrowCapGuardian",
          "type": "address"
        },
        {
          "indexed": false,
          "internalType": "address",
          "name": "newBorrowCapGuardian",
          "type": "address"
        }
      ],
      "name": "NewBorrowCapGuardian",
      "type": "event"
    },
    {
      "anonymous": false,
      "inputs": [
        {
          "indexed": false,
          "internalType": "uint256",
          "name": "oldCloseFactorMantissa",
          "type": "uint256"
        },
        {
          "indexed": false,
          "internalType": "uint256",
          "name": "newCloseFactorMantissa",
          "type": "uint256"
        }
      ],
      "name": "NewCloseFactor",
      "type": "event"
    },
    {
      "anonymous": false,
      "inputs": [
        {
          "indexed": false,
          "internalType": "contract CToken",
          "name": "cToken",
          "type": "address"
        },
        {
          "indexed": false,
          "internalType": "uint256",
          "name": "oldCollateralFactorMantissa",
          "type": "uint256"
        },
        {
          "indexed": false,
          "internalType": "uint256",
          "name": "newCollateralFactorMantissa",
          "type": "uint256"
        }
      ],
      "name": "NewCollateralFactor",
      "type": "event"
    },
    {
      "anonymous": false,
      "inputs": [
        {
          "indexed": false,
          "internalType": "uint256",
          "name": "oldCompRate",
          "type": "uint256"
        },
        {
          "indexed": false,
          "internalType": "uint256",
          "name": "newCompRate",
          "type": "uint256"
        }
      ],
      "name": "NewCompRate",
      "type": "event"
    },
    {
      "anonymous": false,
      "inputs": [
        {
          "indexed": false,
          "internalType": "uint256",
          "name": "oldLiquidationIncentiveMantissa",
          "type": "uint256"
        },
        {
          "indexed": false,
          "internalType": "uint256",
          "name": "newLiquidationIncentiveMantissa",
          "type": "uint256"
        }
      ],
      "name": "NewLiquidationIncentive",
      "type": "event"
    },
    {
      "anonymous": false,
      "inputs": [
        {
          "indexed": false,
          "internalType": "uint256",
          "name": "oldMaxAssets",
          "type": "uint256"
        },
        {
          "indexed": false,
          "internalType": "uint256",
          "name": "newMaxAssets",
          "type": "uint256"
        }
      ],
      "name": "NewMaxAssets",
      "type": "event"
    },
    {
      "anonymous": false,
      "inputs": [
        {
          "indexed": false,
          "internalType": "address",
          "name": "oldPauseGuardian",
          "type": "address"
        },
        {
          "indexed": false,
          "internalType": "address",
          "name": "newPauseGuardian",
          "type": "address"
        }
      ],
      "name": "NewPauseGuardian",
      "type": "event"
    },
    {
      "anonymous": false,
      "inputs": [
        {
          "indexed": false,
          "internalType": "contract PriceOracle",
          "name": "oldPriceOracle",
          "type": "address"
        },
        {
          "indexed": false,
          "internalType": "contract PriceOracle",
          "name": "newPriceOracle",
          "type": "address"
        }
      ],
      "name": "NewPriceOracle",
      "type": "event"
    },
    {
      "inputs": [
        {
          "internalType": "address[]",
          "name": "cTokens",
          "type": "address[]"
        }
      ],
      "name": "_addCompMarkets",
      "outputs": [],
      "stateMutability": "nonpayable",
      "type": "function"
    },
    {
      "inputs": [
        {
          "internalType": "contract Unitroller",
          "name": "unitroller",
          "type": "address"
        }
      ],
      "name": "_become",
      "outputs": [],
      "stateMutability": "nonpayable",
      "type": "function"
    },
    {
      "inputs": [],
      "name": "_borrowGuardianPaused",
      "outputs": [
        {
          "internalType": "bool",
          "name": "",
          "type": "bool"
        }
      ],
      "stateMutability": "view",
      "type": "function"
    },
    {
      "inputs": [
        {
          "internalType": "address",
          "name": "cToken",
          "type": "address"
        }
      ],
      "name": "_dropCompMarket",
      "outputs": [],
      "stateMutability": "nonpayable",
      "type": "function"
    },
    {
      "inputs": [],
      "name": "_mintGuardianPaused",
      "outputs": [
        {
          "internalType": "bool",
          "name": "",
          "type": "bool"
        }
      ],
      "stateMutability": "view",
      "type": "function"
    },
    {
      "inputs": [
        {
          "internalType": "address",
          "name": "newBorrowCapGuardian",
          "type": "address"
        }
      ],
      "name": "_setBorrowCapGuardian",
      "outputs": [],
      "stateMutability": "nonpayable",
      "type": "function"
    },
    {
      "inputs": [
        {
          "internalType": "contract CToken",
          "name": "cToken",
          "type": "address"
        },
        {
          "internalType": "bool",
          "name": "state",
          "type": "bool"
        }
      ],
      "name": "_setBorrowPaused",
      "outputs": [
        {
          "internalType": "bool",
          "name": "",
          "type": "bool"
        }
      ],
      "stateMutability": "nonpayable",
      "type": "function"
    },
    {
      "inputs": [
        {
          "internalType": "uint256",
          "name": "newCloseFactorMantissa",
          "type": "uint256"
        }
      ],
      "name": "_setCloseFactor",
      "outputs": [
        {
          "internalType": "uint256",
          "name": "",
          "type": "uint256"
        }
      ],
      "stateMutability": "nonpayable",
      "type": "function"
    },
    {
      "inputs": [
        {
          "internalType": "contract CToken",
          "name": "cToken",
          "type": "address"
        },
        {
          "internalType": "uint256",
          "name": "newCollateralFactorMantissa",
          "type": "uint256"
        }
      ],
      "name": "_setCollateralFactor",
      "outputs": [
        {
          "internalType": "uint256",
          "name": "",
          "type": "uint256"
        }
      ],
      "stateMutability": "nonpayable",
      "type": "function"
    },
    {
      "inputs": [
        {
          "internalType": "address",
          "name": "_comp",
          "type": "address"
        }
      ],
      "name": "_setCompAddress",
      "outputs": [],
      "stateMutability": "nonpayable",
      "type": "function"
    },
    {
      "inputs": [
        {
          "internalType": "uint256",
          "name": "compRate_",
          "type": "uint256"
        }
      ],
      "name": "_setCompRate",
      "outputs": [],
      "stateMutability": "nonpayable",
      "type": "function"
    },
    {
      "inputs": [
        {
          "internalType": "uint256",
          "name": "newLiquidationIncentiveMantissa",
          "type": "uint256"
        }
      ],
      "name": "_setLiquidationIncentive",
      "outputs": [
        {
          "internalType": "uint256",
          "name": "",
          "type": "uint256"
        }
      ],
      "stateMutability": "nonpayable",
      "type": "function"
    },
    {
      "inputs": [
        {
          "internalType": "contract CToken[]",
          "name": "cTokens",
          "type": "address[]"
        },
        {
          "internalType": "uint256[]",
          "name": "newBorrowCaps",
          "type": "uint256[]"
        }
      ],
      "name": "_setMarketBorrowCaps",
      "outputs": [],
      "stateMutability": "nonpayable",
      "type": "function"
    },
    {
      "inputs": [
        {
          "internalType": "uint256",
          "name": "newMaxAssets",
          "type": "uint256"
        }
      ],
      "name": "_setMaxAssets",
      "outputs": [
        {
          "internalType": "uint256",
          "name": "",
          "type": "uint256"
        }
      ],
      "stateMutability": "nonpayable",
      "type": "function"
    },
    {
      "inputs": [
        {
          "internalType": "contract CToken",
          "name": "cToken",
          "type": "address"
        },
        {
          "internalType": "bool",
          "name": "state",
          "type": "bool"
        }
      ],
      "name": "_setMintPaused",
      "outputs": [
        {
          "internalType": "bool",
          "name": "",
          "type": "bool"
        }
      ],
      "stateMutability": "nonpayable",
      "type": "function"
    },
    {
      "inputs": [
        {
          "internalType": "address",
          "name": "newPauseGuardian",
          "type": "address"
        }
      ],
      "name": "_setPauseGuardian",
      "outputs": [
        {
          "internalType": "uint256",
          "name": "",
          "type": "uint256"
        }
      ],
      "stateMutability": "nonpayable",
      "type": "function"
    },
    {
      "inputs": [
        {
          "internalType": "contract PriceOracle",
          "name": "newOracle",
          "type": "address"
        }
      ],
      "name": "_setPriceOracle",
      "outputs": [
        {
          "internalType": "uint256",
          "name": "",
          "type": "uint256"
        }
      ],
      "stateMutability": "nonpayable",
      "type": "function"
    },
    {
      "inputs": [
        {
          "internalType": "bool",
          "name": "state",
          "type": "bool"
        }
      ],
      "name": "_setSeizePaused",
      "outputs": [
        {
          "internalType": "bool",
          "name": "",
          "type": "bool"
        }
      ],
      "stateMutability": "nonpayable",
      "type": "function"
    },
    {
      "inputs": [
        {
          "internalType": "bool",
          "name": "state",
          "type": "bool"
        }
      ],
      "name": "_setTransferPaused",
      "outputs": [
        {
          "internalType": "bool",
          "name": "",
          "type": "bool"
        }
      ],
      "stateMutability": "nonpayable",
      "type": "function"
    },
    {
      "inputs": [
        {
          "internalType": "contract CToken",
          "name": "cToken",
          "type": "address"
        }
      ],
      "name": "_supportMarket",
      "outputs": [
        {
          "internalType": "uint256",
          "name": "",
          "type": "uint256"
        }
      ],
      "stateMutability": "nonpayable",
      "type": "function"
    },
    {
      "inputs": [
        {
          "internalType": "address",
          "name": "",
          "type": "address"
        },
        {
          "internalType": "uint256",
          "name": "",
          "type": "uint256"
        }
      ],
      "name": "accountAssets",
      "outputs": [
        {
          "internalType": "contract CToken",
          "name": "",
          "type": "address"
        }
      ],
      "stateMutability": "view",
      "type": "function"
    },
    {
      "inputs": [],
      "name": "admin",
      "outputs": [
        {
          "internalType": "address",
          "name": "",
          "type": "address"
        }
      ],
      "stateMutability": "view",
      "type": "function"
    },
    {
      "inputs": [
        {
          "internalType": "uint256",
          "name": "",
          "type": "uint256"
        }
      ],
      "name": "allMarkets",
      "outputs": [
        {
          "internalType": "contract CToken",
          "name": "",
          "type": "address"
        }
      ],
      "stateMutability": "view",
      "type": "function"
    },
    {
      "inputs": [
        {
          "internalType": "address",
          "name": "cToken",
          "type": "address"
        },
        {
          "internalType": "address",
          "name": "borrower",
          "type": "address"
        },
        {
          "internalType": "uint256",
          "name": "borrowAmount",
          "type": "uint256"
        }
      ],
      "name": "borrowAllowed",
      "outputs": [
        {
          "internalType": "uint256",
          "name": "",
          "type": "uint256"
        }
      ],
      "stateMutability": "nonpayable",
      "type": "function"
    },
    {
      "inputs": [],
      "name": "borrowCapGuardian",
      "outputs": [
        {
          "internalType": "address",
          "name": "",
          "type": "address"
        }
      ],
      "stateMutability": "view",
      "type": "function"
    },
    {
      "inputs": [
        {
          "internalType": "address",
          "name": "",
          "type": "address"
        }
      ],
      "name": "borrowCaps",
      "outputs": [
        {
          "internalType": "uint256",
          "name": "",
          "type": "uint256"
        }
      ],
      "stateMutability": "view",
      "type": "function"
    },
    {
      "inputs": [
        {
          "internalType": "address",
          "name": "",
          "type": "address"
        }
      ],
      "name": "borrowGuardianPaused",
      "outputs": [
        {
          "internalType": "bool",
          "name": "",
          "type": "bool"
        }
      ],
      "stateMutability": "view",
      "type": "function"
    },
    {
      "inputs": [
        {
          "internalType": "address",
          "name": "cToken",
          "type": "address"
        },
        {
          "internalType": "address",
          "name": "borrower",
          "type": "address"
        },
        {
          "internalType": "uint256",
          "name": "borrowAmount",
          "type": "uint256"
        }
      ],
      "name": "borrowVerify",
      "outputs": [],
      "stateMutability": "nonpayable",
      "type": "function"
    },
    {
      "inputs": [
        {
          "internalType": "address",
          "name": "account",
          "type": "address"
        },
        {
          "internalType": "contract CToken",
          "name": "cToken",
          "type": "address"
        }
      ],
      "name": "checkMembership",
      "outputs": [
        {
          "internalType": "bool",
          "name": "",
          "type": "bool"
        }
      ],
      "stateMutability": "view",
      "type": "function"
    },
    {
      "inputs": [
        {
          "internalType": "address",
          "name": "holder",
          "type": "address"
        },
        {
          "internalType": "contract CToken[]",
          "name": "cTokens",
          "type": "address[]"
        }
      ],
      "name": "claimComp",
      "outputs": [],
      "stateMutability": "nonpayable",
      "type": "function"
    },
    {
      "inputs": [
        {
          "internalType": "address[]",
          "name": "holders",
          "type": "address[]"
        },
        {
          "internalType": "contract CToken[]",
          "name": "cTokens",
          "type": "address[]"
        },
        {
          "internalType": "bool",
          "name": "borrowers",
          "type": "bool"
        },
        {
          "internalType": "bool",
          "name": "suppliers",
          "type": "bool"
        }
      ],
      "name": "claimComp",
      "outputs": [],
      "stateMutability": "nonpayable",
      "type": "function"
    },
    {
      "inputs": [
        {
          "internalType": "address",
          "name": "holder",
          "type": "address"
        }
      ],
      "name": "claimComp",
      "outputs": [],
      "stateMutability": "nonpayable",
      "type": "function"
    },
    {
      "inputs": [],
      "name": "closeFactorMantissa",
      "outputs": [
        {
          "internalType": "uint256",
          "name": "",
          "type": "uint256"
        }
      ],
      "stateMutability": "view",
      "type": "function"
    },
    {
      "inputs": [],
      "name": "comp",
      "outputs": [
        {
          "internalType": "address",
          "name": "",
          "type": "address"
        }
      ],
      "stateMutability": "view",
      "type": "function"
    },
    {
      "inputs": [
        {
          "internalType": "address",
          "name": "",
          "type": "address"
        }
      ],
      "name": "compAccrued",
      "outputs": [
        {
          "internalType": "uint256",
          "name": "",
          "type": "uint256"
        }
      ],
      "stateMutability": "view",
      "type": "function"
    },
    {
      "inputs": [
        {
          "internalType": "address",
          "name": "",
          "type": "address"
        }
      ],
      "name": "compBorrowState",
      "outputs": [
        {
          "internalType": "uint224",
          "name": "index",
          "type": "uint224"
        },
        {
          "internalType": "uint32",
          "name": "block",
          "type": "uint32"
        }
      ],
      "stateMutability": "view",
      "type": "function"
    },
    {
      "inputs": [
        {
          "internalType": "address",
          "name": "",
          "type": "address"
        },
        {
          "internalType": "address",
          "name": "",
          "type": "address"
        }
      ],
      "name": "compBorrowerIndex",
      "outputs": [
        {
          "internalType": "uint256",
          "name": "",
          "type": "uint256"
        }
      ],
      "stateMutability": "view",
      "type": "function"
    },
    {
      "inputs": [],
      "name": "compClaimThreshold",
      "outputs": [
        {
          "internalType": "uint256",
          "name": "",
          "type": "uint256"
        }
      ],
      "stateMutability": "view",
      "type": "function"
    },
    {
      "inputs": [],
      "name": "compInitialIndex",
      "outputs": [
        {
          "internalType": "uint224",
          "name": "",
          "type": "uint224"
        }
      ],
      "stateMutability": "view",
      "type": "function"
    },
    {
      "inputs": [],
      "name": "compRate",
      "outputs": [
        {
          "internalType": "uint256",
          "name": "",
          "type": "uint256"
        }
      ],
      "stateMutability": "view",
      "type": "function"
    },
    {
      "inputs": [
        {
          "internalType": "address",
          "name": "",
          "type": "address"
        }
      ],
      "name": "compSpeeds",
      "outputs": [
        {
          "internalType": "uint256",
          "name": "",
          "type": "uint256"
        }
      ],
      "stateMutability": "view",
      "type": "function"
    },
    {
      "inputs": [
        {
          "internalType": "address",
          "name": "",
          "type": "address"
        },
        {
          "internalType": "address",
          "name": "",
          "type": "address"
        }
      ],
      "name": "compSupplierIndex",
      "outputs": [
        {
          "internalType": "uint256",
          "name": "",
          "type": "uint256"
        }
      ],
      "stateMutability": "view",
      "type": "function"
    },
    {
      "inputs": [
        {
          "internalType": "address",
          "name": "",
          "type": "address"
        }
      ],
      "name": "compSupplyState",
      "outputs": [
        {
          "internalType": "uint224",
          "name": "index",
          "type": "uint224"
        },
        {
          "internalType": "uint32",
          "name": "block",
          "type": "uint32"
        }
      ],
      "stateMutability": "view",
      "type": "function"
    },
    {
      "inputs": [],
      "name": "comptrollerImplementation",
      "outputs": [
        {
          "internalType": "address",
          "name": "",
          "type": "address"
        }
      ],
      "stateMutability": "view",
      "type": "function"
    },
    {
      "inputs": [
        {
          "internalType": "address[]",
          "name": "cTokens",
          "type": "address[]"
        }
      ],
      "name": "enterMarkets",
      "outputs": [
        {
          "internalType": "uint256[]",
          "name": "",
          "type": "uint256[]"
        }
      ],
      "stateMutability": "nonpayable",
      "type": "function"
    },
    {
      "inputs": [
        {
          "internalType": "address",
          "name": "cTokenAddress",
          "type": "address"
        }
      ],
      "name": "exitMarket",
      "outputs": [
        {
          "internalType": "uint256",
          "name": "",
          "type": "uint256"
        }
      ],
      "stateMutability": "nonpayable",
      "type": "function"
    },
    {
      "inputs": [
        {
          "internalType": "address",
          "name": "account",
          "type": "address"
        }
      ],
      "name": "getAccountLiquidity",
      "outputs": [
        {
          "internalType": "uint256",
          "name": "",
          "type": "uint256"
        },
        {
          "internalType": "uint256",
          "name": "",
          "type": "uint256"
        },
        {
          "internalType": "uint256",
          "name": "",
          "type": "uint256"
        }
      ],
      "stateMutability": "nonpayable",
      "type": "function"
    },
    {
      "inputs": [],
      "name": "getAllMarkets",
      "outputs": [
        {
          "internalType": "contract CToken[]",
          "name": "",
          "type": "address[]"
        }
      ],
      "stateMutability": "view",
      "type": "function"
    },
    {
      "inputs": [
        {
          "internalType": "address",
          "name": "account",
          "type": "address"
        }
      ],
      "name": "getAssetsIn",
      "outputs": [
        {
          "internalType": "contract CToken[]",
          "name": "",
          "type": "address[]"
        }
      ],
      "stateMutability": "view",
      "type": "function"
    },
    {
      "inputs": [],
      "name": "getBlockNumber",
      "outputs": [
        {
          "internalType": "uint256",
          "name": "",
          "type": "uint256"
        }
      ],
      "stateMutability": "view",
      "type": "function"
    },
    {
      "inputs": [],
      "name": "getCompAddress",
      "outputs": [
        {
          "internalType": "address",
          "name": "",
          "type": "address"
        }
      ],
      "stateMutability": "view",
      "type": "function"
    },
    {
      "inputs": [
        {
          "internalType": "address",
          "name": "account",
          "type": "address"
        },
        {
          "internalType": "address",
          "name": "cTokenModify",
          "type": "address"
        },
        {
          "internalType": "uint256",
          "name": "redeemTokens",
          "type": "uint256"
        },
        {
          "internalType": "uint256",
          "name": "borrowAmount",
          "type": "uint256"
        }
      ],
      "name": "getHypotheticalAccountLiquidity",
      "outputs": [
        {
          "internalType": "uint256",
          "name": "",
          "type": "uint256"
        },
        {
          "internalType": "uint256",
          "name": "",
          "type": "uint256"
        },
        {
          "internalType": "uint256",
          "name": "",
          "type": "uint256"
        }
      ],
      "stateMutability": "nonpayable",
      "type": "function"
    },
    {
      "inputs": [],
      "name": "isComptroller",
      "outputs": [
        {
          "internalType": "bool",
          "name": "",
          "type": "bool"
        }
      ],
      "stateMutability": "view",
      "type": "function"
    },
    {
      "inputs": [
        {
          "internalType": "address",
          "name": "cTokenBorrowed",
          "type": "address"
        },
        {
          "internalType": "address",
          "name": "cTokenCollateral",
          "type": "address"
        },
        {
          "internalType": "address",
          "name": "liquidator",
          "type": "address"
        },
        {
          "internalType": "address",
          "name": "borrower",
          "type": "address"
        },
        {
          "internalType": "uint256",
          "name": "repayAmount",
          "type": "uint256"
        }
      ],
      "name": "liquidateBorrowAllowed",
      "outputs": [
        {
          "internalType": "uint256",
          "name": "",
          "type": "uint256"
        }
      ],
      "stateMutability": "nonpayable",
      "type": "function"
    },
    {
      "inputs": [
        {
          "internalType": "address",
          "name": "cTokenBorrowed",
          "type": "address"
        },
        {
          "internalType": "address",
          "name": "cTokenCollateral",
          "type": "address"
        },
        {
          "internalType": "address",
          "name": "liquidator",
          "type": "address"
        },
        {
          "internalType": "address",
          "name": "borrower",
          "type": "address"
        },
        {
          "internalType": "uint256",
          "name": "actualRepayAmount",
          "type": "uint256"
        },
        {
          "internalType": "uint256",
          "name": "seizeTokens",
          "type": "uint256"
        }
      ],
      "name": "liquidateBorrowVerify",
      "outputs": [],
      "stateMutability": "nonpayable",
      "type": "function"
    },
    {
      "inputs": [
        {
          "internalType": "address",
          "name": "cTokenBorrowed",
          "type": "address"
        },
        {
          "internalType": "address",
          "name": "cTokenCollateral",
          "type": "address"
        },
        {
          "internalType": "uint256",
          "name": "actualRepayAmount",
          "type": "uint256"
        }
      ],
      "name": "liquidateCalculateSeizeTokens",
      "outputs": [
        {
          "internalType": "uint256",
          "name": "",
          "type": "uint256"
        },
        {
          "internalType": "uint256",
          "name": "",
          "type": "uint256"
        }
      ],
      "stateMutability": "nonpayable",
      "type": "function"
    },
    {
      "inputs": [],
      "name": "liquidationIncentiveMantissa",
      "outputs": [
        {
          "internalType": "uint256",
          "name": "",
          "type": "uint256"
        }
      ],
      "stateMutability": "view",
      "type": "function"
    },
    {
      "inputs": [
        {
          "internalType": "address",
          "name": "",
          "type": "address"
        }
      ],
      "name": "markets",
      "outputs": [
        {
          "internalType": "bool",
          "name": "isListed",
          "type": "bool"
        },
        {
          "internalType": "uint256",
          "name": "collateralFactorMantissa",
          "type": "uint256"
        },
        {
          "internalType": "bool",
          "name": "isComped",
          "type": "bool"
        }
      ],
      "stateMutability": "view",
      "type": "function"
    },
    {
      "inputs": [],
      "name": "maxAssets",
      "outputs": [
        {
          "internalType": "uint256",
          "name": "",
          "type": "uint256"
        }
      ],
      "stateMutability": "view",
      "type": "function"
    },
    {
      "inputs": [
        {
          "internalType": "address",
          "name": "cToken",
          "type": "address"
        },
        {
          "internalType": "address",
          "name": "minter",
          "type": "address"
        },
        {
          "internalType": "uint256",
          "name": "mintAmount",
          "type": "uint256"
        }
      ],
      "name": "mintAllowed",
      "outputs": [
        {
          "internalType": "uint256",
          "name": "",
          "type": "uint256"
        }
      ],
      "stateMutability": "nonpayable",
      "type": "function"
    },
    {
      "inputs": [
        {
          "internalType": "address",
          "name": "",
          "type": "address"
        }
      ],
      "name": "mintGuardianPaused",
      "outputs": [
        {
          "internalType": "bool",
          "name": "",
          "type": "bool"
        }
      ],
      "stateMutability": "view",
      "type": "function"
    },
    {
      "inputs": [
        {
          "internalType": "address",
          "name": "cToken",
          "type": "address"
        },
        {
          "internalType": "address",
          "name": "minter",
          "type": "address"
        },
        {
          "internalType": "uint256",
          "name": "actualMintAmount",
          "type": "uint256"
        },
        {
          "internalType": "uint256",
          "name": "mintTokens",
          "type": "uint256"
        }
      ],
      "name": "mintVerify",
      "outputs": [],
      "stateMutability": "nonpayable",
      "type": "function"
    },
    {
      "inputs": [],
      "name": "oracle",
      "outputs": [
        {
          "internalType": "contract PriceOracle",
          "name": "",
          "type": "address"
        }
      ],
      "stateMutability": "view",
      "type": "function"
    },
    {
      "inputs": [],
      "name": "pauseGuardian",
      "outputs": [
        {
          "internalType": "address",
          "name": "",
          "type": "address"
        }
      ],
      "stateMutability": "view",
      "type": "function"
    },
    {
      "inputs": [],
      "name": "pendingAdmin",
      "outputs": [
        {
          "internalType": "address",
          "name": "",
          "type": "address"
        }
      ],
      "stateMutability": "view",
      "type": "function"
    },
    {
      "inputs": [],
      "name": "pendingComptrollerImplementation",
      "outputs": [
        {
          "internalType": "address",
          "name": "",
          "type": "address"
        }
      ],
      "stateMutability": "view",
      "type": "function"
    },
    {
      "inputs": [
        {
          "internalType": "address",
          "name": "cToken",
          "type": "address"
        },
        {
          "internalType": "address",
          "name": "redeemer",
          "type": "address"
        },
        {
          "internalType": "uint256",
          "name": "redeemTokens",
          "type": "uint256"
        }
      ],
      "name": "redeemAllowed",
      "outputs": [
        {
          "internalType": "uint256",
          "name": "",
          "type": "uint256"
        }
      ],
      "stateMutability": "nonpayable",
      "type": "function"
    },
    {
      "inputs": [
        {
          "internalType": "address",
          "name": "cToken",
          "type": "address"
        },
        {
          "internalType": "address",
          "name": "redeemer",
          "type": "address"
        },
        {
          "internalType": "uint256",
          "name": "redeemAmount",
          "type": "uint256"
        },
        {
          "internalType": "uint256",
          "name": "redeemTokens",
          "type": "uint256"
        }
      ],
      "name": "redeemVerify",
      "outputs": [],
      "stateMutability": "nonpayable",
      "type": "function"
    },
    {
      "inputs": [],
      "name": "refreshCompSpeeds",
      "outputs": [],
      "stateMutability": "nonpayable",
      "type": "function"
    },
    {
      "inputs": [
        {
          "internalType": "address",
          "name": "cToken",
          "type": "address"
        },
        {
          "internalType": "address",
          "name": "payer",
          "type": "address"
        },
        {
          "internalType": "address",
          "name": "borrower",
          "type": "address"
        },
        {
          "internalType": "uint256",
          "name": "repayAmount",
          "type": "uint256"
        }
      ],
      "name": "repayBorrowAllowed",
      "outputs": [
        {
          "internalType": "uint256",
          "name": "",
          "type": "uint256"
        }
      ],
      "stateMutability": "nonpayable",
      "type": "function"
    },
    {
      "inputs": [
        {
          "internalType": "address",
          "name": "cToken",
          "type": "address"
        },
        {
          "internalType": "address",
          "name": "payer",
          "type": "address"
        },
        {
          "internalType": "address",
          "name": "borrower",
          "type": "address"
        },
        {
          "internalType": "uint256",
          "name": "actualRepayAmount",
          "type": "uint256"
        },
        {
          "internalType": "uint256",
          "name": "borrowerIndex",
          "type": "uint256"
        }
      ],
      "name": "repayBorrowVerify",
      "outputs": [],
      "stateMutability": "nonpayable",
      "type": "function"
    },
    {
      "inputs": [
        {
          "internalType": "address",
          "name": "cTokenCollateral",
          "type": "address"
        },
        {
          "internalType": "address",
          "name": "cTokenBorrowed",
          "type": "address"
        },
        {
          "internalType": "address",
          "name": "liquidator",
          "type": "address"
        },
        {
          "internalType": "address",
          "name": "borrower",
          "type": "address"
        },
        {
          "internalType": "uint256",
          "name": "seizeTokens",
          "type": "uint256"
        }
      ],
      "name": "seizeAllowed",
      "outputs": [
        {
          "internalType": "uint256",
          "name": "",
          "type": "uint256"
        }
      ],
      "stateMutability": "nonpayable",
      "type": "function"
    },
    {
      "inputs": [],
      "name": "seizeGuardianPaused",
      "outputs": [
        {
          "internalType": "bool",
          "name": "",
          "type": "bool"
        }
      ],
      "stateMutability": "view",
      "type": "function"
    },
    {
      "inputs": [
        {
          "internalType": "address",
          "name": "cTokenCollateral",
          "type": "address"
        },
        {
          "internalType": "address",
          "name": "cTokenBorrowed",
          "type": "address"
        },
        {
          "internalType": "address",
          "name": "liquidator",
          "type": "address"
        },
        {
          "internalType": "address",
          "name": "borrower",
          "type": "address"
        },
        {
          "internalType": "uint256",
          "name": "seizeTokens",
          "type": "uint256"
        }
      ],
      "name": "seizeVerify",
      "outputs": [],
      "stateMutability": "nonpayable",
      "type": "function"
    },
    {
      "inputs": [
        {
          "internalType": "address",
          "name": "cToken",
          "type": "address"
        },
        {
          "internalType": "address",
          "name": "src",
          "type": "address"
        },
        {
          "internalType": "address",
          "name": "dst",
          "type": "address"
        },
        {
          "internalType": "uint256",
          "name": "transferTokens",
          "type": "uint256"
        }
      ],
      "name": "transferAllowed",
      "outputs": [
        {
          "internalType": "uint256",
          "name": "",
          "type": "uint256"
        }
      ],
      "stateMutability": "nonpayable",
      "type": "function"
    },
    {
      "inputs": [],
      "name": "transferGuardianPaused",
      "outputs": [
        {
          "internalType": "bool",
          "name": "",
          "type": "bool"
        }
      ],
      "stateMutability": "view",
      "type": "function"
    },
    {
      "inputs": [
        {
          "internalType": "address",
          "name": "cToken",
          "type": "address"
        },
        {
          "internalType": "address",
          "name": "src",
          "type": "address"
        },
        {
          "internalType": "address",
          "name": "dst",
          "type": "address"
        },
        {
          "internalType": "uint256",
          "name": "transferTokens",
          "type": "uint256"
        }
      ],
      "name": "transferVerify",
      "outputs": [],
      "stateMutability": "nonpayable",
      "type": "function"
    }
  ],
  "transactionHash": "0xd8591d54f841d73ccdd5977dd58f946abcba72e0452b744f92dd0023638db4ff",
  "args": [],
  "solcInputHash": "497addb8e3e25b94af720a880fa5ac14",
  "bytecode": "0x608060405234801561001057600080fd5b50600080546001600160a01b03191633179055615fb280620000336000396000f3fe608060405234801561001057600080fd5b506004361061045e5760003560e01c80636d154ea51161024c578063b21be7fd11610146578063da3d454c116100c3578063e875544611610087578063e87554461461124c578063e9af029214611254578063eabe7d911461127a578063ede4edd0146112b0578063f851a440146112d65761045e565b8063da3d454c146111ae578063dce15449146111e4578063dcfbc0c714611210578063e4028eee14611218578063e6653f3d146112445761045e565b8063ca0af0431161010a578063ca0af04314611056578063cc7ebdc414611084578063ce485c5e146110aa578063d02f73511461114b578063d9226ced146111915761045e565b8063b21be7fd14610ef4578063bb82aa5e14610f22578063bdcdc25814610f2a578063c299823814610f66578063c488847b146110075761045e565b80638ebf6364116101d4578063a7f0e23111610198578063a7f0e23114610e42578063aa90075414610e66578063abfceffc14610e6e578063ac0b0bb714610ee4578063b0772d0b14610eec5761045e565b80638ebf636414610dbf578063929fe9a114610dde57806394b2294b14610e0c5780639d1b5a0a14610e14578063a76b3fda14610e1c5761045e565b80637dc0d1d01161021b5780637dc0d1d014610d1b5780638435be4614610d2357806387f7630314610d495780638c57804e14610d515780638e8f294b14610d775761045e565b80636d154ea514610c815780636d35bf9114610ca7578063731f0c2b14610ced578063747026c914610d135761045e565b806347ef3b3b1161035d57806355ee1fe1116102e5578063607ef6c1116102a9578063607ef6c1146109f05780636810dfa614610aae5780636a49111214610bda5780636a56947e14610bf75780636b79c38d14610c335761045e565b806355ee1fe1146109025780635c778605146109285780635ec88c791461095e5780635f5af1aa146109845780635fc7e71e146109aa5761045e565b80634e79238f1161032c5780634e79238f146107fc5780634ef4c3e1146108565780634fd42e171461088c57806351dff989146108a957806352d84d1e146108e55761045e565b806347ef3b3b1461077a5780634a584432146107c65780634ada90af146107ec5780634d8e5037146107f45761045e565b806324a3d622116103eb5780633aa729b4116103af5780633aa729b4146106da5780633bcf7ec1146107005780633c94786f1461072e57806341c728b91461073657806342cbb15c146107725761045e565b806324a3d6221461066857806326782247146106705780632d70db7814610678578063317b0b7714610697578063391957d7146106b45761045e565b80631d504dc6116104325780631d504dc6146105845780631d7b33d7146105aa5780631ededc91146105e257806321af45691461062457806324008a621461062c5761045e565b80627e3dd214610463578063109d0af81461047f57806318c882a5146104a35780631c3db2e0146104d1575b600080fd5b61046b6112de565b604080519115158252519081900360200190f35b6104876112e3565b604080516001600160a01b039092168252519081900360200190f35b61046b600480360360408110156104b957600080fd5b506001600160a01b03813516906020013515156112f2565b610582600480360360408110156104e757600080fd5b6001600160a01b038235169190810190604081016020820135600160201b81111561051157600080fd5b82018360208201111561052357600080fd5b803590602001918460208302840111600160201b8311171561054457600080fd5b919080806020026020016040519081016040528093929190818152602001838360200280828437600092019190915250929550611488945050505050565b005b6105826004803603602081101561059a57600080fd5b50356001600160a01b03166114ea565b6105d0600480360360208110156105c057600080fd5b50356001600160a01b0316611649565b60408051918252519081900360200190f35b610582600480360360a08110156105f857600080fd5b506001600160a01b0381358116916020810135821691604082013516906060810135906080013561165b565b610487611662565b6105d06004803603608081101561064257600080fd5b506001600160a01b03813581169160208101358216916040820135169060600135611671565b61048761173a565b610487611749565b61046b6004803603602081101561068e57600080fd5b50351515611758565b6105d0600480360360208110156106ad57600080fd5b5035611888565b610582600480360360208110156106ca57600080fd5b50356001600160a01b0316611999565b610582600480360360208110156106f057600080fd5b50356001600160a01b0316611a4a565b61046b6004803603604081101561071657600080fd5b506001600160a01b0381351690602001351515611b6a565b61046b611cfb565b6105826004803603608081101561074c57600080fd5b506001600160a01b03813581169160208101359091169060408101359060600135611d0b565b6105d0611d11565b610582600480360360c081101561079057600080fd5b506001600160a01b0381358116916020810135821691604082013581169160608101359091169060808101359060a00135611d15565b6105d0600480360360208110156107dc57600080fd5b50356001600160a01b0316611d1d565b6105d0611d2f565b610582611d35565b6108386004803603608081101561081257600080fd5b506001600160a01b03813581169160208101359091169060408101359060600135611d7d565b60408051938452602084019290925282820152519081900360600190f35b6105d06004803603606081101561086c57600080fd5b506001600160a01b03813581169160208101359091169060400135611db7565b6105d0600480360360208110156108a257600080fd5b5035611e62565b610582600480360360808110156108bf57600080fd5b506001600160a01b03813581169160208101359091169060408101359060600135611f56565b610487600480360360208110156108fb57600080fd5b5035611faa565b6105d06004803603602081101561091857600080fd5b50356001600160a01b0316611fd1565b6105826004803603606081101561093e57600080fd5b506001600160a01b03813581169160208101359091169060400135612058565b6108386004803603602081101561097457600080fd5b50356001600160a01b031661205d565b6105d06004803603602081101561099a57600080fd5b50356001600160a01b0316612092565b6105d0600480360360a08110156109c057600080fd5b506001600160a01b0381358116916020810135821691604082013581169160608101359091169060800135612116565b61058260048036036040811015610a0657600080fd5b810190602081018135600160201b811115610a2057600080fd5b820183602082011115610a3257600080fd5b803590602001918460208302840111600160201b83111715610a5357600080fd5b919390929091602081019035600160201b811115610a7057600080fd5b820183602082011115610a8257600080fd5b803590602001918460208302840111600160201b83111715610aa357600080fd5b509092509050612294565b61058260048036036080811015610ac457600080fd5b810190602081018135600160201b811115610ade57600080fd5b820183602082011115610af057600080fd5b803590602001918460208302840111600160201b83111715610b1157600080fd5b9190808060200260200160405190810160405280939291908181526020018383602002808284376000920191909152509295949360208101935035915050600160201b811115610b6057600080fd5b820183602082011115610b7257600080fd5b803590602001918460208302840111600160201b83111715610b9357600080fd5b919080806020026020016040519081016040528093929190818152602001838360200280828437600092019190915250929550505050803515159150602001351515612429565b61058260048036036020811015610bf057600080fd5b50356125d2565b61058260048036036080811015610c0d57600080fd5b506001600160a01b03813581169160208101358216916040820135169060600135611d0b565b610c5960048036036020811015610c4957600080fd5b50356001600160a01b0316612665565b604080516001600160e01b03909316835263ffffffff90911660208301528051918290030190f35b61046b60048036036020811015610c9757600080fd5b50356001600160a01b031661268f565b610582600480360360a0811015610cbd57600080fd5b506001600160a01b038135811691602081013582169160408201358116916060810135909116906080013561165b565b61046b60048036036020811015610d0357600080fd5b50356001600160a01b03166126a4565b6105d06126b9565b6104876126c4565b61058260048036036020811015610d3957600080fd5b50356001600160a01b03166126d3565b61046b612743565b610c5960048036036020811015610d6757600080fd5b50356001600160a01b0316612753565b610d9d60048036036020811015610d8d57600080fd5b50356001600160a01b031661277d565b6040805193151584526020840192909252151582820152519081900360600190f35b61046b60048036036020811015610dd557600080fd5b503515156127a3565b61046b60048036036040811015610df457600080fd5b506001600160a01b03813581169160200135166128d2565b6105d0612905565b61048761290b565b6105d060048036036020811015610e3257600080fd5b50356001600160a01b031661291a565b610e4a612a77565b604080516001600160e01b039092168252519081900360200190f35b6105d0612a8a565b610e9460048036036020811015610e8457600080fd5b50356001600160a01b0316612a90565b60408051602080825283518183015283519192839290830191858101910280838360005b83811015610ed0578181015183820152602001610eb8565b505050509050019250505060405180910390f35b61046b612b19565b610e94612b29565b6105d060048036036040811015610f0a57600080fd5b506001600160a01b0381358116916020013516612b8b565b610487612ba8565b6105d060048036036080811015610f4057600080fd5b506001600160a01b03813581169160208101358216916040820135169060600135612bb7565b610e9460048036036020811015610f7c57600080fd5b810190602081018135600160201b811115610f9657600080fd5b820183602082011115610fa857600080fd5b803590602001918460208302840111600160201b83111715610fc957600080fd5b919080806020026020016040519081016040528093929190818152602001838360200280828437600092019190915250929550612c4b945050505050565b61103d6004803603606081101561101d57600080fd5b506001600160a01b03813581169160208101359091169060400135612cf5565b6040805192835260208301919091528051918290030190f35b6105d06004803603604081101561106c57600080fd5b506001600160a01b0381358116916020013516612f7c565b6105d06004803603602081101561109a57600080fd5b50356001600160a01b0316612f99565b610582600480360360208110156110c057600080fd5b810190602081018135600160201b8111156110da57600080fd5b8201836020820111156110ec57600080fd5b803590602001918460208302840111600160201b8311171561110d57600080fd5b919080806020026020016040519081016040528093929190818152602001838360200280828437600092019190915250929550612fab945050505050565b6105d0600480360360a081101561116157600080fd5b506001600160a01b038135811691602081013582169160408201358116916060810135909116906080013561302c565b6105d0600480360360208110156111a757600080fd5b50356131e4565b6105d0600480360360608110156111c457600080fd5b506001600160a01b0381358116916020810135909116906040013561324d565b610487600480360360408110156111fa57600080fd5b506001600160a01b03813516906020013561369a565b6104876136cf565b6105d06004803603604081101561122e57600080fd5b506001600160a01b0381351690602001356136de565b61046b6138a1565b6105d06138b1565b6105826004803603602081101561126a57600080fd5b50356001600160a01b03166138b7565b6105d06004803603606081101561129057600080fd5b506001600160a01b0381358116916020810135909116906040013561391b565b6105d0600480360360208110156112c657600080fd5b50356001600160a01b0316613958565b610487613c88565b600181565b6017546001600160a01b031681565b6001600160a01b03821660009081526009602052604081205460ff166113495760405162461bcd60e51b8152600401808060200182810382526028815260200180615e916028913960400191505060405180910390fd5b600a546001600160a01b031633148061136c57506000546001600160a01b031633145b6113a75760405162461bcd60e51b8152600401808060200182810382526027815260200180615eea6027913960400191505060405180910390fd5b6000546001600160a01b03163314806113c257506001821515145b611402576040805162461bcd60e51b815260206004820152600c60248201526b3737ba1030b71030b236b4b760a11b604482015290519081900360640190fd5b6001600160a01b0383166000818152600c6020908152604091829020805486151560ff199091168117909155825193845283830152606090830181905260069083015265426f72726f7760d01b6080830152517f71aec636243f9709bb0007ae15e9afb8150ab01716d75fd7573be5cc096e03b09181900360a00190a150805b92915050565b6040805160018082528183019092526060916020808301908036833701905050905082816000815181106114b857fe5b60200260200101906001600160a01b031690816001600160a01b0316815250506114e58183600180612429565b505050565b806001600160a01b031663f851a4406040518163ffffffff1660e01b815260040160206040518083038186803b15801561152357600080fd5b505afa158015611537573d6000803e3d6000fd5b505050506040513d602081101561154d57600080fd5b50516001600160a01b031633146115955760405162461bcd60e51b8152600401808060200182810382526027815260200180615f566027913960400191505060405180910390fd5b806001600160a01b031663c1e803346040518163ffffffff1660e01b8152600401602060405180830381600087803b1580156115d057600080fd5b505af11580156115e4573d6000803e3d6000fd5b505050506040513d60208110156115fa57600080fd5b505115611646576040805162461bcd60e51b815260206004820152601560248201527418da185b99d9481b9bdd08185d5d1a1bdc9a5e9959605a1b604482015290519081900360640190fd5b50565b600f6020526000908152604090205481565b5050505050565b6015546001600160a01b031681565b6001600160a01b03841660009081526009602052604081205460ff1661169957506009611732565b6116a1615e13565b6040518060200160405280876001600160a01b031663aa5af0fd6040518163ffffffff1660e01b815260040160206040518083038186803b1580156116e557600080fd5b505afa1580156116f9573d6000803e3d6000fd5b505050506040513d602081101561170f57600080fd5b50519052905061171f8682613c97565b61172c8685836000613f1f565b60009150505b949350505050565b600a546001600160a01b031681565b6001546001600160a01b031681565b600a546000906001600160a01b031633148061177e57506000546001600160a01b031633145b6117b95760405162461bcd60e51b8152600401808060200182810382526027815260200180615eea6027913960400191505060405180910390fd5b6000546001600160a01b03163314806117d457506001821515145b611814576040805162461bcd60e51b815260206004820152600c60248201526b3737ba1030b71030b236b4b760a11b604482015290519081900360640190fd5b600a8054831515600160b81b810260ff60b81b1990921691909117909155604080516020810192909252808252600582820152645365697a6560d81b6060830152517fef159d9a32b2472e32b098f954f3ce62d232939f1c207070b584df1814de2de09181900360800190a150805b919050565b600080546001600160a01b031633146118ae576118a760016004614100565b9050611883565b6118b6615e13565b5060408051602081019091528281526118cd615e13565b50604080516020810190915266b1a2bc2ec5000081526118ed8282614166565b15611906576118fd600580614100565b92505050611883565b61190e615e13565b506040805160208101909152670c7d713b49da0000815261192f818461416e565b156119495761193f600580614100565b9350505050611883565b6005805490869055604080518281526020810188905281517f3b9670cf975d26958e754b57098eaa2ac914d8d2a31b83257997b9f346110fd9929181900390910190a160005b9695505050505050565b6000546001600160a01b031633146119e7576040805162461bcd60e51b815260206004820152600c60248201526b3737ba1030b71030b236b4b760a11b604482015290519081900360640190fd5b601580546001600160a01b038381166001600160a01b0319831681179093556040805191909216808252602082019390935281517feda98690e518e9a05f8ec6837663e188211b2da8f4906648b323f2c1d4434e29929181900390910190a15050565b6000546001600160a01b03163314611a98576040805162461bcd60e51b815260206004820152600c60248201526b3737ba1030b71030b236b4b760a11b604482015290519081900360640190fd5b6001600160a01b0381166000908152600960205260409020600381015460ff161515600114611b0e576040805162461bcd60e51b815260206004820152601b60248201527f6d61726b6574206973206e6f74206120636f6d70206d61726b65740000000000604482015290519081900360640190fd5b60038101805460ff19169055604080516001600160a01b03841681526000602082015281517f93c1f3e36ed71139f466a4ce8c9751790e2e33f5afb2df0dcfb3aeabe55d5aa2929181900390910190a1611b66614175565b5050565b6001600160a01b03821660009081526009602052604081205460ff16611bc15760405162461bcd60e51b8152600401808060200182810382526028815260200180615e916028913960400191505060405180910390fd5b600a546001600160a01b0316331480611be457506000546001600160a01b031633145b611c1f5760405162461bcd60e51b8152600401808060200182810382526027815260200180615eea6027913960400191505060405180910390fd5b6000546001600160a01b0316331480611c3a57506001821515145b611c7a576040805162461bcd60e51b815260206004820152600c60248201526b3737ba1030b71030b236b4b760a11b604482015290519081900360640190fd5b6001600160a01b0383166000818152600b6020908152604091829020805486151560ff199091168117909155825193845283830152606090830181905260049083015263135a5b9d60e21b6080830152517f71aec636243f9709bb0007ae15e9afb8150ab01716d75fd7573be5cc096e03b09181900360a00190a150919050565b600a54600160a01b900460ff1681565b50505050565b4390565b505050505050565b60166020526000908152604090205481565b60065481565b333214611d735760405162461bcd60e51b8152600401808060200182810382526031815260200180615eb96031913960400191505060405180910390fd5b611d7b614175565b565b600080600080600080611d928a8a8a8a614551565b925092509250826011811115611da457fe5b95509093509150505b9450945094915050565b6001600160a01b0383166000908152600b602052604081205460ff1615611e16576040805162461bcd60e51b815260206004820152600e60248201526d1b5a5b9d081a5cc81c185d5cd95960921b604482015290519081900360640190fd5b6001600160a01b03841660009081526009602052604090205460ff16611e405760095b9050611e5b565b611e498461495c565b611e5584846000614bda565b60005b90505b9392505050565b600080546001600160a01b03163314611e81576118a76001600b614100565b611e89615e13565b506040805160208101909152828152611ea0615e13565b506040805160208101909152670de0b6b3a76400008152611ec1828261416e565b15611ed2576118fd6007600c614100565b611eda615e13565b5060408051602081019091526714d1120d7b1600008152611efb818461416e565b15611f0c5761193f6007600c614100565b6006805490869055604080518281526020810188905281517faeba5a6c40a8ac138134bff1aaa65debf25971188a58804bad717f82f0ec1316929181900390910190a1600061198f565b80158015611f645750600082115b15611d0b576040805162461bcd60e51b815260206004820152601160248201527072656465656d546f6b656e73207a65726f60781b604482015290519081900360640190fd5b600d8181548110611fb757fe5b6000918252602090912001546001600160a01b0316905081565b600080546001600160a01b03163314611ff0576118a760016010614100565b600480546001600160a01b038481166001600160a01b0319831681179093556040805191909216808252602082019390935281517fd52b2b9b7e9ee655fcb95d2e5b9e0c9f69e7ef2b8e9d2d0ea78402d576d22e22929181900390910190a160009392505050565b6114e5565b600080600080600080612074876000806000614551565b92509250925082601181111561208657fe5b97919650945092505050565b600080546001600160a01b031633146120b1576118a760016013614100565b600a80546001600160a01b038481166001600160a01b0319831617928390556040805192821680845293909116602083015280517f0613b6ee6a04f0d09f390e4d9318894b9f6ac7fd83897cd8d18896ba579c401e9281900390910190a16000611e5b565b6001600160a01b03851660009081526009602052604081205460ff16158061215757506001600160a01b03851660009081526009602052604090205460ff16155b156121665760095b905061228b565b60008061217285614dc9565b9193509091506000905082601181111561218857fe5b146121a25781601181111561219957fe5b9250505061228b565b806121ae576003612199565b6000886001600160a01b03166395dd9193876040518263ffffffff1660e01b815260040180826001600160a01b0316815260200191505060206040518083038186803b1580156121fd57600080fd5b505afa158015612211573d6000803e3d6000fd5b505050506040513d602081101561222757600080fd5b505160408051602081019091526005548152909150600090819061224b9084614de9565b9092509050600082600381111561225e57fe5b1461227257600b5b9550505050505061228b565b80871115612281576011612266565b6000955050505050505b95945050505050565b6000546001600160a01b03163314806122b757506015546001600160a01b031633145b6122f7576040805162461bcd60e51b815260206004820152600c60248201526b3737ba1030b71030b236b4b760a11b604482015290519081900360640190fd5b8281811580159061230757508082145b612348576040805162461bcd60e51b815260206004820152600d60248201526c1a5b9d985b1a59081a5b9c1d5d609a1b604482015290519081900360640190fd5b60005b828110156124205784848281811061235f57fe5b905060200201356016600089898581811061237657fe5b905060200201356001600160a01b03166001600160a01b03166001600160a01b03168152602001908152602001600020819055508686828181106123b657fe5b905060200201356001600160a01b03166001600160a01b03167f6f1951b2aad10f3fc81b86d91105b413a5b3f847a34bbc5ce1904201b14438f68686848181106123fc57fe5b905060200201356040518082815260200191505060405180910390a260010161234b565b50505050505050565b60005b835181101561165b57600084828151811061244357fe5b6020908102919091018101516001600160a01b0381166000908152600990925260409091205490915060ff166124b8576040805162461bcd60e51b81526020600482015260156024820152741b585c9ad95d081b5d5cdd081899481b1a5cdd1959605a1b604482015290519081900360640190fd5b60018415151415612580576124cb615e13565b6040518060200160405280836001600160a01b031663aa5af0fd6040518163ffffffff1660e01b815260040160206040518083038186803b15801561250f57600080fd5b505afa158015612523573d6000803e3d6000fd5b505050506040513d602081101561253957600080fd5b5051905290506125498282613c97565b60005b875181101561257d576125758389838151811061256557fe5b6020026020010151846001613f1f565b60010161254c565b50505b600183151514156125c9576125948161495c565b60005b86518110156125c7576125bf828883815181106125b057fe5b60200260200101516001614bda565b600101612597565b505b5060010161242c565b6125da614e3d565b61261a576040805162461bcd60e51b815260206004820152600c60248201526b3737ba1030b71030b236b4b760a11b604482015290519081900360640190fd5b600e805490829055604080518281526020810184905281517fc227c9272633c3a307d9845bf2bc2509cefb20d655b5f3c1002d8e1e3f22c8b0929181900390910190a1611b66614175565b6010602052600090815260409020546001600160e01b03811690600160e01b900463ffffffff1682565b600c6020526000908152604090205460ff1681565b600b6020526000908152604090205460ff1681565b66038d7ea4c6800081565b6004546001600160a01b031681565b6000546001600160a01b03163314612721576040805162461bcd60e51b815260206004820152600c60248201526b3737ba1030b71030b236b4b760a11b604482015290519081900360640190fd5b601780546001600160a01b0319166001600160a01b0392909216919091179055565b600a54600160b01b900460ff1681565b6011602052600090815260409020546001600160e01b03811690600160e01b900463ffffffff1682565b60096020526000908152604090208054600182015460039092015460ff91821692911683565b600a546000906001600160a01b03163314806127c957506000546001600160a01b031633145b6128045760405162461bcd60e51b8152600401808060200182810382526027815260200180615eea6027913960400191505060405180910390fd5b6000546001600160a01b031633148061281f57506001821515145b61285f576040805162461bcd60e51b815260206004820152600c60248201526b3737ba1030b71030b236b4b760a11b604482015290519081900360640190fd5b600a8054831515600160b01b810260ff60b01b1990921691909117909155604080516020810192909252808252600882820152672a3930b739b332b960c11b6060830152517fef159d9a32b2472e32b098f954f3ce62d232939f1c207070b584df1814de2de09181900360800190a15090565b6001600160a01b038082166000908152600960209081526040808320938616835260029093019052205460ff1692915050565b60075481565b6017546001600160a01b031690565b600080546001600160a01b03163314612939576118a760016012614100565b6001600160a01b03821660009081526009602052604090205460ff1615612966576118a7600a6011614100565b816001600160a01b031663fe9c44ae6040518163ffffffff1660e01b815260040160206040518083038186803b15801561299f57600080fd5b505afa1580156129b3573d6000803e3d6000fd5b505050506040513d60208110156129c957600080fd5b5050604080516060810182526001808252600060208381018281528486018381526001600160a01b03891684526009909252949091209251835490151560ff19918216178455935191830191909155516003909101805491151591909216179055612a3382614e66565b604080516001600160a01b038416815290517fcf583bb0c569eb967f806b11601c4cb93c10310485c67add5f8362c2f212321f9181900360200190a1600092915050565b6ec097ce7bc90715b34b9f100000000081565b600e5481565b60608060086000846001600160a01b03166001600160a01b03168152602001908152602001600020805480602002602001604051908101604052809291908181526020018280548015612b0c57602002820191906000526020600020905b81546001600160a01b03168152600190910190602001808311612aee575b5093979650505050505050565b600a54600160b81b900460ff1681565b6060600d805480602002602001604051908101604052809291908181526020018280548015612b8157602002820191906000526020600020905b81546001600160a01b03168152600190910190602001808311612b63575b5050505050905090565b601260209081526000928352604080842090915290825290205481565b6002546001600160a01b031681565b600a54600090600160b01b900460ff1615612c0e576040805162461bcd60e51b81526020600482015260126024820152711d1c985b9cd9995c881a5cc81c185d5cd95960721b604482015290519081900360640190fd5b6000612c1b868685614f44565b90508015612c2a579050611732565b612c338661495c565b612c3f86866000614bda565b61172c86856000614bda565b8051606090818167ffffffffffffffff81118015612c6857600080fd5b50604051908082528060200260200182016040528015612c92578160200160208202803683370190505b50905060005b82811015612ced576000858281518110612cae57fe5b60200260200101519050612cc28133614ff0565b6011811115612ccd57fe5b838381518110612cd957fe5b602090810291909101015250600101612c98565b509392505050565b6000806000600460009054906101000a90046001600160a01b03166001600160a01b031663fc57d4df876040518263ffffffff1660e01b815260040180826001600160a01b03168152602001915050602060405180830381600087803b158015612d5e57600080fd5b505af1158015612d72573d6000803e3d6000fd5b505050506040513d6020811015612d8857600080fd5b5051600480546040805163fc57d4df60e01b81526001600160a01b038a8116948201949094529051939450600093929091169163fc57d4df9160248082019260209290919082900301818787803b158015612de257600080fd5b505af1158015612df6573d6000803e3d6000fd5b505050506040513d6020811015612e0c57600080fd5b50519050811580612e1b575080155b15612e2f57600d6000935093505050612f74565b6000866001600160a01b031663182df0f56040518163ffffffff1660e01b815260040160206040518083038186803b158015612e6a57600080fd5b505afa158015612e7e573d6000803e3d6000fd5b505050506040513d6020811015612e9457600080fd5b505190506000612ea2615e13565b612eaa615e13565b612eb2615e13565b6000612ec060065489615111565b945090506000816003811115612ed257fe5b14612eed57600b5b6000995099505050505050505050612f74565b612ef78787615111565b935090506000816003811115612f0957fe5b14612f1557600b612eda565b612f1f848461514c565b925090506000816003811115612f3157fe5b14612f3d57600b612eda565b612f47828c614de9565b955090506000816003811115612f5957fe5b14612f6557600b612eda565b60009950939750505050505050505b935093915050565b601360209081526000928352604080842090915290825290205481565b60146020526000908152604090205481565b612fb3614e3d565b612ff3576040805162461bcd60e51b815260206004820152600c60248201526b3737ba1030b71030b236b4b760a11b604482015290519081900360640190fd5b60005b81518110156130235761301b82828151811061300e57fe5b6020026020010151615164565b600101612ff6565b50611646614175565b600a54600090600160b81b900460ff1615613080576040805162461bcd60e51b815260206004820152600f60248201526e1cd95a5e99481a5cc81c185d5cd959608a1b604482015290519081900360640190fd5b6001600160a01b03861660009081526009602052604090205460ff1615806130c157506001600160a01b03851660009081526009602052604090205460ff16155b156130cd57600961215f565b846001600160a01b0316635fe3b5676040518163ffffffff1660e01b815260040160206040518083038186803b15801561310657600080fd5b505afa15801561311a573d6000803e3d6000fd5b505050506040513d602081101561313057600080fd5b505160408051635fe3b56760e01b815290516001600160a01b0392831692891691635fe3b567916004808301926020929190829003018186803b15801561317657600080fd5b505afa15801561318a573d6000803e3d6000fd5b505050506040513d60208110156131a057600080fd5b50516001600160a01b0316146131b757600261215f565b6131c08661495c565b6131cc86846000614bda565b6131d886856000614bda565b60009695505050505050565b600080546001600160a01b03163314613203576118a76001600d614100565b6007805490839055604080518281526020810185905281517f7093cf1eb653f749c3ff531d6df7f92764536a7fa0d13530cd26e070780c32ea929181900390910190a16000611e5b565b6001600160a01b0383166000908152600c602052604081205460ff16156132ae576040805162461bcd60e51b815260206004820152601060248201526f189bdc9c9bddc81a5cc81c185d5cd95960821b604482015290519081900360640190fd5b6001600160a01b03841660009081526009602052604090205460ff166132d5576009611e39565b6001600160a01b038085166000908152600960209081526040808320938716835260029093019052205460ff166133c557336001600160a01b0385161461335b576040805162461bcd60e51b815260206004820152601560248201527439b2b73232b91036bab9ba1031329031aa37b5b2b760591b604482015290519081900360640190fd5b60006133673385614ff0565b9050600081601181111561337757fe5b146133905780601181111561338857fe5b915050611e5b565b6001600160a01b038086166000908152600960209081526040808320938816835260029093019052205460ff166133c357fe5b505b600460009054906101000a90046001600160a01b03166001600160a01b031663fc57d4df856040518263ffffffff1660e01b815260040180826001600160a01b03168152602001915050602060405180830381600087803b15801561342957600080fd5b505af115801561343d573d6000803e3d6000fd5b505050506040513d602081101561345357600080fd5b505161346057600d611e39565b6001600160a01b03841660009081526016602052604090205480156135ab576000856001600160a01b03166347bd37186040518163ffffffff1660e01b815260040160206040518083038186803b1580156134ba57600080fd5b505afa1580156134ce573d6000803e3d6000fd5b505050506040513d60208110156134e457600080fd5b505190506000806134f5838761547f565b9092509050600082600381111561350857fe5b14613553576040805162461bcd60e51b8152602060048201526016602482015275746f74616c20626f72726f7773206f766572666c6f7760501b604482015290519081900360640190fd5b8381106135a7576040805162461bcd60e51b815260206004820152601960248201527f6d61726b657420626f72726f7720636170207265616368656400000000000000604482015290519081900360640190fd5b5050505b6000806135bb8688600088614551565b919350909150600090508260118111156135d157fe5b146135ec578160118111156135e257fe5b9350505050611e5b565b80156135f95760046135e2565b613601615e13565b6040518060200160405280896001600160a01b031663aa5af0fd6040518163ffffffff1660e01b815260040160206040518083038186803b15801561364557600080fd5b505afa158015613659573d6000803e3d6000fd5b505050506040513d602081101561366f57600080fd5b50519052905061367f8882613c97565b61368c8888836000613f1f565b600098975050505050505050565b600860205281600052604060002081815481106136b357fe5b6000918252602090912001546001600160a01b03169150829050565b6003546001600160a01b031681565b600080546001600160a01b03163314613704576136fd60016006614100565b9050611482565b6001600160a01b0383166000908152600960205260409020805460ff166137395761373160096007614100565b915050611482565b613741615e13565b506040805160208101909152838152613758615e13565b506040805160208101909152670c7d713b49da00008152613779818361416e565b156137945761378a60066008614100565b9350505050611482565b84158015906138305750600460009054906101000a90046001600160a01b03166001600160a01b031663fc57d4df876040518263ffffffff1660e01b815260040180826001600160a01b03168152602001915050602060405180830381600087803b15801561380257600080fd5b505af1158015613816573d6000803e3d6000fd5b505050506040513d602081101561382c57600080fd5b5051155b156138415761378a600d6009614100565b60018301805490869055604080516001600160a01b03891681526020810183905280820188905290517f70483e6592cd5182d45ac970e05bc62cdcc90e9d8ef2c2dbe686cf383bcd7fc59181900360600190a16000979650505050505050565b600a54600160a81b900460ff1681565b60055481565b61164681600d80548060200260200160405190810160405280929190818152602001828054801561391157602002820191906000526020600020905b81546001600160a01b031681526001909101906020018083116138f3575b5050505050611488565b600080613929858585614f44565b90508015613938579050611e5b565b6139418561495c565b61394d85856000614bda565b600095945050505050565b6000808290506000806000836001600160a01b031663c37f68e2336040518263ffffffff1660e01b815260040180826001600160a01b0316815260200191505060806040518083038186803b1580156139b057600080fd5b505afa1580156139c4573d6000803e3d6000fd5b505050506040513d60808110156139da57600080fd5b508051602082015160409092015190945090925090508215613a2d5760405162461bcd60e51b8152600401808060200182810382526025815260200180615f116025913960400191505060405180910390fd5b8015613a4a57613a3f600c6002614100565b945050505050611883565b6000613a57873385614f44565b90508015613a7857613a6c600e6003836154a5565b95505050505050611883565b6001600160a01b0385166000908152600960209081526040808320338452600281019092529091205460ff16613ab75760009650505050505050611883565b3360009081526002820160209081526040808320805460ff191690556008825291829020805483518184028101840190945280845260609392830182828015613b2957602002820191906000526020600020905b81546001600160a01b03168152600190910190602001808311613b0b575b5050835193945083925060009150505b82811015613b7e57896001600160a01b0316848281518110613b5757fe5b60200260200101516001600160a01b03161415613b7657809150613b7e565b600101613b39565b50818110613b8857fe5b336000908152600860205260409020805481906000198101908110613ba957fe5b9060005260206000200160009054906101000a90046001600160a01b0316818381548110613bd357fe5b9060005260206000200160006101000a8154816001600160a01b0302191690836001600160a01b0316021790555080805480613c0b57fe5b6000828152602090819020820160001990810180546001600160a01b0319169055909101909155604080516001600160a01b038d168152339281019290925280517fe699a64c18b07ac5b7301aa273f36a2287239eb9501d81950672794afba29a0d9281900390910190a160009c9b505050505050505050505050565b6000546001600160a01b031681565b6001600160a01b0382166000908152601160209081526040808320600f9092528220549091613cc4611d11565b8354909150600090613ce4908390600160e01b900463ffffffff1661550b565b9050600081118015613cf65750600083115b15613ec5576000613d6b876001600160a01b03166347bd37186040518163ffffffff1660e01b815260040160206040518083038186803b158015613d3957600080fd5b505afa158015613d4d573d6000803e3d6000fd5b505050506040513d6020811015613d6357600080fd5b505187615545565b90506000613d798386615563565b9050613d83615e13565b60008311613da05760405180602001604052806000815250613daa565b613daa82846155a5565b9050613db4615e13565b604080516020810190915288546001600160e01b03168152613dd690836155e3565b90506040518060400160405280613e2683600001516040518060400160405280601a81526020017f6e657720696e6465782065786365656473203232342062697473000000000000815250615608565b6001600160e01b03168152602001613e61886040518060400160405280601c8152602001600080516020615f368339815191528152506156a2565b63ffffffff9081169091526001600160a01b038c166000908152601160209081526040909120835181549490920151909216600160e01b026001600160e01b039182166001600160e01b0319909416939093171691909117905550611d1592505050565b8015611d1557613ef8826040518060400160405280601c8152602001600080516020615f368339815191528152506156a2565b845463ffffffff91909116600160e01b026001600160e01b03909116178455505050505050565b6001600160a01b0384166000908152601160205260409020613f3f615e13565b50604080516020810190915281546001600160e01b03168152613f60615e13565b5060408051602080820183526001600160a01b03808a16600090815260138352848120918a168082528284529481208054855286519590915291529190915580511561242057613fae615e13565b613fb883836156f7565b9050600061403e896001600160a01b03166395dd91938a6040518263ffffffff1660e01b815260040180826001600160a01b0316815260200191505060206040518083038186803b15801561400c57600080fd5b505afa158015614020573d6000803e3d6000fd5b505050506040513d602081101561403657600080fd5b505188615545565b9050600061404c828461571c565b6001600160a01b038a1660009081526014602052604081205491925090614073908361574b565b90506140948a828a61408c5766038d7ea4c6800061408f565b60005b615781565b6001600160a01b03808c1660008181526014602090815260409182902094909455895181518781529485015280519193928f16927f1fc3ecc087d8d2d15e23d0032af5a47059c3892d003d8e139fdcb6bb327c99a6929081900390910190a35050505050505050505050565b60007f45b96fe442630264581b197e84bbada861235052c5a1aadfff9ea4e40a969aa083601181111561412f57fe5b83601381111561413b57fe5b604080519283526020830191909152600082820152519081900360600190a1826011811115611e5b57fe5b519051111590565b5190511090565b6060600d8054806020026020016040519081016040528092919081815260200182805480156141cd57602002820191906000526020600020905b81546001600160a01b031681526001909101906020018083116141af575b5050505050905060005b81518110156142915760008282815181106141ee57fe5b60200260200101519050614200615e13565b6040518060200160405280836001600160a01b031663aa5af0fd6040518163ffffffff1660e01b815260040160206040518083038186803b15801561424457600080fd5b505afa158015614258573d6000803e3d6000fd5b505050506040513d602081101561426e57600080fd5b50519052905061427d8261495c565b6142878282613c97565b50506001016141d7565b5061429a615e13565b6040518060200160405280600081525090506060825167ffffffffffffffff811180156142c657600080fd5b5060405190808252806020026020018201604052801561430057816020015b6142ed615e13565b8152602001906001900390816142e55790505b50905060005b835181101561448857600084828151811061431d57fe5b6020908102919091018101516001600160a01b0381166000908152600990925260409091206003015490915060ff161561447f57614359615e13565b60408051602080820180845260045463fc57d4df60e01b9091526001600160a01b03868116602485015293519293849391169163fc57d4df9160448086019291908187030181600087803b1580156143b057600080fd5b505af11580156143c4573d6000803e3d6000fd5b505050506040513d60208110156143da57600080fd5b5051905290506143e8615e13565b61445682846001600160a01b03166347bd37186040518163ffffffff1660e01b815260040160206040518083038186803b15801561442557600080fd5b505afa158015614439573d6000803e3d6000fd5b505050506040513d602081101561444f57600080fd5b50516158c2565b90508085858151811061446557fe5b602002602001018190525061447a86826155e3565b955050505b50600101614306565b5060005b8351811015611d0b576000600d82815481106144a457fe5b600091825260208220015485516001600160a01b0390911692506144c95760006144f1565b6144f1600e546144ec8686815181106144de57fe5b6020026020010151886158e3565b615916565b6001600160a01b0383166000818152600f60209081526040918290208490558151848152915193945091927f2ab93f65628379309f36cb125e90d7c902454a545c4f8b8cb0794af75c24b807929181900390910190a2505060010161448c565b600080600061455e615e26565b6001600160a01b0388166000908152600860209081526040808320805482518185028101850190935280835284936060939291908301828280156145cb57602002820191906000526020600020905b81546001600160a01b031681526001909101906020018083116145ad575b5050505050905060005b81518110156149185760008282815181106145ec57fe5b60200260200101519050806001600160a01b031663c37f68e28e6040518263ffffffff1660e01b815260040180826001600160a01b0316815260200191505060806040518083038186803b15801561464357600080fd5b505afa158015614657573d6000803e3d6000fd5b505050506040513d608081101561466d57600080fd5b508051602082015160408084015160609485015160808c0152938a019390935291880191909152945084156146b257600f600080985098509850505050505050611dad565b60408051602080820183526001600160a01b0380851660008181526009845285812060010154855260c08c01949094528451808401865260808c0151815260e08c015260048054865163fc57d4df60e01b815291820192909252945191169363fc57d4df9360248083019493928390030190829087803b15801561473557600080fd5b505af1158015614749573d6000803e3d6000fd5b505050506040513d602081101561475f57600080fd5b505160a0870181905261478257600d600080985098509850505050505050611dad565b604080516020810190915260a08701518152610100870181905260c087015160e08801516147af9261592f565b610120880152935060008460038111156147c557fe5b146147e057600b600080985098509850505050505050611dad565b6147f886610120015187604001518860000151615987565b87529350600084600381111561480a57fe5b1461482557600b600080985098509850505050505050611dad565b61483d86610100015187606001518860200151615987565b60208801529350600084600381111561485257fe5b1461486d57600b600080985098509850505050505050611dad565b8b6001600160a01b0316816001600160a01b0316141561490f5761489b8661012001518c8860200151615987565b6020880152935060008460038111156148b057fe5b146148cb57600b600080985098509850505050505050611dad565b6148df8661010001518b8860200151615987565b6020880152935060008460038111156148f457fe5b1461490f57600b600080985098509850505050505050611dad565b506001016145d5565b5060208401518451111561493f575050506020810151905160009450039150829050611dad565b600080856000015186602001510396509650965050505050611dad565b6001600160a01b0381166000908152601060209081526040808320600f9092528220549091614989611d11565b83549091506000906149a9908390600160e01b900463ffffffff1661550b565b90506000811180156149bb5750600083115b15614b81576000856001600160a01b03166318160ddd6040518163ffffffff1660e01b815260040160206040518083038186803b1580156149fb57600080fd5b505afa158015614a0f573d6000803e3d6000fd5b505050506040513d6020811015614a2557600080fd5b505190506000614a358386615563565b9050614a3f615e13565b60008311614a5c5760405180602001604052806000815250614a66565b614a6682846155a5565b9050614a70615e13565b604080516020810190915288546001600160e01b03168152614a9290836155e3565b90506040518060400160405280614ae283600001516040518060400160405280601a81526020017f6e657720696e6465782065786365656473203232342062697473000000000000815250615608565b6001600160e01b03168152602001614b1d886040518060400160405280601c8152602001600080516020615f368339815191528152506156a2565b63ffffffff9081169091526001600160a01b038b166000908152601060209081526040909120835181549490920151909216600160e01b026001600160e01b039182166001600160e01b031990941693909317169190911790555061165b92505050565b801561165b57614bb4826040518060400160405280601c8152602001600080516020615f368339815191528152506156a2565b845463ffffffff91909116600160e01b026001600160e01b039091161784555050505050565b6001600160a01b0383166000908152601060205260409020614bfa615e13565b50604080516020810190915281546001600160e01b03168152614c1b615e13565b5060408051602080820183526001600160a01b03808916600090815260128352848120918916808252828452948120805485528651959091529152919091558051158015614c695750815115155b15614c81576ec097ce7bc90715b34b9f100000000081525b614c89615e13565b614c9383836156f7565b90506000876001600160a01b03166370a08231886040518263ffffffff1660e01b815260040180826001600160a01b0316815260200191505060206040518083038186803b158015614ce457600080fd5b505afa158015614cf8573d6000803e3d6000fd5b505050506040513d6020811015614d0e57600080fd5b505190506000614d1e828461571c565b6001600160a01b03891660009081526014602052604081205491925090614d45908361574b565b9050614d5e89828a61408c5766038d7ea4c6800061408f565b6001600160a01b03808b1660008181526014602090815260409182902094909455895181518781529485015280519193928e16927f2caecd17d02f56fa897705dcc740da2d237c373f70686f4e0d9bd3bf0400ea7a929081900390910190a350505050505050505050565b6000806000614ddc846000806000614551565b9250925092509193909250565b6000806000614df6615e13565b614e0086866159d4565b90925090506000826003811115614e1357fe5b14614e245750915060009050614e36565b6000614e2f82615a3c565b9350935050505b9250929050565b600080546001600160a01b0316331480614e6157506002546001600160a01b031633145b905090565b60005b600d54811015614ef157816001600160a01b0316600d8281548110614e8a57fe5b6000918252602090912001546001600160a01b03161415614ee9576040805162461bcd60e51b81526020600482015260146024820152731b585c9ad95d08185b1c9958591e48185919195960621b604482015290519081900360640190fd5b600101614e69565b50600d80546001810182556000919091527fd7b6990105719101dabeb77144f2a3385c8033acd3af97e9423a695e81ad1eb50180546001600160a01b0319166001600160a01b0392909216919091179055565b6001600160a01b03831660009081526009602052604081205460ff16614f6b576009611e39565b6001600160a01b038085166000908152600960209081526040808320938716835260029093019052205460ff16614fa3576000611e39565b600080614fb38587866000614551565b91935090915060009050826011811115614fc957fe5b14614fe357816011811115614fda57fe5b92505050611e5b565b80156131d8576004614fda565b6001600160a01b0382166000908152600960205260408120805460ff1661501b576009915050611482565b6001600160a01b038316600090815260028201602052604090205460ff1615156001141561504d576000915050611482565b6007546001600160a01b03841660009081526008602052604090205410615078576010915050611482565b6001600160a01b0380841660008181526002840160209081526040808320805460ff19166001908117909155600883528184208054918201815584529282902090920180549489166001600160a01b031990951685179055815193845283019190915280517f3ab23ab0d51cccc0c3085aec51f99228625aa1a922b3a8ca89a26b0f2027a1a59281900390910190a15060009392505050565b600061511b615e13565b615141604051806020016040528086815250604051806020016040528086815250615a4b565b915091509250929050565b6000615156615e13565b835183516151419190615b35565b6001600160a01b0381166000908152600960205260409020805460ff1615156001146151d7576040805162461bcd60e51b815260206004820152601960248201527f636f6d70206d61726b6574206973206e6f74206c697374656400000000000000604482015290519081900360640190fd5b600381015460ff1615615231576040805162461bcd60e51b815260206004820152601960248201527f636f6d70206d61726b657420616c726561647920616464656400000000000000604482015290519081900360640190fd5b60038101805460ff19166001908117909155604080516001600160a01b0385168152602081019290925280517f93c1f3e36ed71139f466a4ce8c9751790e2e33f5afb2df0dcfb3aeabe55d5aa29281900390910190a16001600160a01b0382166000908152601060205260409020546001600160e01b03161580156152d957506001600160a01b038216600090815260106020526040902054600160e01b900463ffffffff16155b156153965760405180604001604052806ec097ce7bc90715b34b9f10000000006001600160e01b0316815260200161533b615312611d11565b6040518060400160405280601c8152602001600080516020615f368339815191528152506156a2565b63ffffffff9081169091526001600160a01b0384166000908152601060209081526040909120835181549490920151909216600160e01b026001600160e01b039182166001600160e01b031990941693909317169190911790555b6001600160a01b0382166000908152601160205260409020546001600160e01b03161580156153e857506001600160a01b038216600090815260116020526040902054600160e01b900463ffffffff16155b15611b665760405180604001604052806ec097ce7bc90715b34b9f10000000006001600160e01b03168152602001615421615312611d11565b63ffffffff9081169091526001600160a01b0384166000908152601160209081526040909120835181549490920151909216600160e01b026001600160e01b039182166001600160e01b031990941693909317169190911790555050565b60008083830184811061549757600092509050614e36565b600260009250925050614e36565b60007f45b96fe442630264581b197e84bbada861235052c5a1aadfff9ea4e40a969aa08460118111156154d457fe5b8460138111156154e057fe5b604080519283526020830191909152818101859052519081900360600190a1836011811115611e5857fe5b6000611e5b8383604051806040016040528060158152602001747375627472616374696f6e20756e646572666c6f7760581b815250615be6565b6000611e5b61555c84670de0b6b3a7640000615563565b8351615c40565b6000611e5b83836040518060400160405280601781526020017f6d756c7469706c69636174696f6e206f766572666c6f77000000000000000000815250615c73565b6155ad615e13565b60405180602001604052806155da6155d4866ec097ce7bc90715b34b9f1000000000615563565b85615c40565b90529392505050565b6155eb615e13565b60405180602001604052806155da8560000151856000015161574b565b600081600160e01b841061569a5760405162461bcd60e51b81526004018080602001828103825283818151815260200191508051906020019080838360005b8381101561565f578181015183820152602001615647565b50505050905090810190601f16801561568c5780820380516001836020036101000a031916815260200191505b509250505060405180910390fd5b509192915050565b600081600160201b841061569a5760405162461bcd60e51b815260206004820181815283516024840152835190928392604490910191908501908083836000831561565f578181015183820152602001615647565b6156ff615e13565b60405180602001604052806155da8560000151856000015161550b565b60006ec097ce7bc90715b34b9f100000000061573c848460000151615563565b8161574357fe5b049392505050565b6000611e5b8383604051806040016040528060118152602001706164646974696f6e206f766572666c6f7760781b815250615cf2565b60008183101580156157935750600083115b156158ba5760006157a261290b565b90506000816001600160a01b03166370a08231306040518263ffffffff1660e01b815260040180826001600160a01b0316815260200191505060206040518083038186803b1580156157f357600080fd5b505afa158015615807573d6000803e3d6000fd5b505050506040513d602081101561581d57600080fd5b505190508085116158b757816001600160a01b031663a9059cbb87876040518363ffffffff1660e01b815260040180836001600160a01b0316815260200182815260200192505050602060405180830381600087803b15801561587f57600080fd5b505af1158015615893573d6000803e3d6000fd5b505050506040513d60208110156158a957600080fd5b5060009350611e5b92505050565b50505b509092915050565b6158ca615e13565b60405180602001604052806155da856000015185615563565b6158eb615e13565b60405180602001604052806155da61590f8660000151670de0b6b3a7640000615563565b8551615c40565b6000670de0b6b3a764000061573c848460000151615563565b6000615939615e13565b6000615943615e13565b61594d8787615a4b565b9092509050600082600381111561596057fe5b1461596f579092509050612f74565b6159798186615a4b565b935093505050935093915050565b6000806000615994615e13565b61599e87876159d4565b909250905060008260038111156159b157fe5b146159c25750915060009050612f74565b6159796159ce82615a3c565b8661547f565b60006159de615e13565b6000806159ef866000015186615d47565b90925090506000826003811115615a0257fe5b14615a2157506040805160208101909152600081529092509050614e36565b60408051602081019091529081526000969095509350505050565b51670de0b6b3a7640000900490565b6000615a55615e13565b600080615a6a86600001518660000151615d47565b90925090506000826003811115615a7d57fe5b14615a9c57506040805160208101909152600081529092509050614e36565b600080615ab16706f05b59d3b200008461547f565b90925090506000826003811115615ac457fe5b14615ae75781604051806020016040528060008152509550955050505050614e36565b600080615afc83670de0b6b3a7640000615d86565b90925090506000826003811115615b0f57fe5b14615b1657fe5b604080516020810190915290815260009a909950975050505050505050565b6000615b3f615e13565b600080615b5486670de0b6b3a7640000615d47565b90925090506000826003811115615b6757fe5b14615b8657506040805160208101909152600081529092509050614e36565b600080615b938388615d86565b90925090506000826003811115615ba657fe5b14615bc95781604051806020016040528060008152509550955050505050614e36565b604080516020810190915290815260009890975095505050505050565b60008184841115615c385760405162461bcd60e51b815260206004820181815283516024840152835190928392604490910191908501908083836000831561565f578181015183820152602001615647565b505050900390565b6000611e5b83836040518060400160405280600e81526020016d646976696465206279207a65726f60901b815250615db1565b6000831580615c80575082155b15615c8d57506000611e5b565b83830283858281615c9a57fe5b04148390615ce95760405162461bcd60e51b815260206004820181815283516024840152835190928392604490910191908501908083836000831561565f578181015183820152602001615647565b50949350505050565b60008383018285821015615ce95760405162461bcd60e51b815260206004820181815283516024840152835190928392604490910191908501908083836000831561565f578181015183820152602001615647565b60008083615d5a57506000905080614e36565b83830283858281615d6757fe5b0414615d7b57600260009250925050614e36565b600092509050614e36565b60008082615d9a5750600190506000614e36565b6000838581615da557fe5b04915091509250929050565b60008183615e005760405162461bcd60e51b815260206004820181815283516024840152835190928392604490910191908501908083836000831561565f578181015183820152602001615647565b50828481615e0a57fe5b04949350505050565b6040518060200160405280600081525090565b604051806101400160405280600081526020016000815260200160008152602001600081526020016000815260200160008152602001615e64615e13565b8152602001615e71615e13565b8152602001615e7e615e13565b8152602001615e8b615e13565b90529056fe63616e6e6f742070617573652061206d61726b65742074686174206973206e6f74206c69737465646f6e6c792065787465726e616c6c79206f776e6564206163636f756e7473206d61792072656672657368207370656564736f6e6c7920706175736520677561726469616e20616e642061646d696e2063616e207061757365657869744d61726b65743a206765744163636f756e74536e617073686f74206661696c6564626c6f636b206e756d62657220657863656564732033322062697473000000006f6e6c7920756e6974726f6c6c65722061646d696e2063616e206368616e676520627261696e73a2646970667358221220bd1fc974af8dfc8cbf0e9b76709cd9834fbe9aef6ca987a2ab3122d3c4b7bca964736f6c634300060c0033",
  "devdoc": {
    "author": "Compound",
    "kind": "dev",
    "methods": {
      "_addCompMarkets(address[])": {
        "params": {
          "cTokens": "The addresses of the markets to add"
        }
      },
      "_dropCompMarket(address)": {
        "params": {
          "cToken": "The address of the market to drop"
        }
      },
      "_setBorrowCapGuardian(address)": {
        "params": {
          "newBorrowCapGuardian": "The address of the new Borrow Cap Guardian"
        }
      },
      "_setCloseFactor(uint256)": {
        "details": "Admin function to set closeFactor",
        "params": {
          "newCloseFactorMantissa": "New close factor, scaled by 1e18"
        },
        "returns": {
          "_0": "uint 0=success, otherwise a failure. (See ErrorReporter for details)"
        }
      },
      "_setCollateralFactor(address,uint256)": {
        "details": "Admin function to set per-market collateralFactor",
        "params": {
          "cToken": "The market to set the factor on",
          "newCollateralFactorMantissa": "The new collateral factor, scaled by 1e18"
        },
        "returns": {
          "_0": "uint 0=success, otherwise a failure. (See ErrorReporter for details)"
        }
      },
      "_setCompAddress(address)": {
        "params": {
          "_comp": "The COMP address"
        }
      },
      "_setCompRate(uint256)": {
        "params": {
          "compRate_": "The amount of COMP wei per block to distribute"
        }
      },
      "_setLiquidationIncentive(uint256)": {
        "details": "Admin function to set liquidationIncentive",
        "params": {
          "newLiquidationIncentiveMantissa": "New liquidationIncentive scaled by 1e18"
        },
        "returns": {
          "_0": "uint 0=success, otherwise a failure. (See ErrorReporter for details)"
        }
      },
      "_setMarketBorrowCaps(address[],uint256[])": {
        "details": "Admin or borrowCapGuardian function to set the borrow caps. A borrow cap of 0 corresponds to unlimited borrowing.",
        "params": {
          "cTokens": "The addresses of the markets (tokens) to change the borrow caps for",
          "newBorrowCaps": "The new borrow cap values in underlying to be set. A value of 0 corresponds to unlimited borrowing."
        }
      },
      "_setMaxAssets(uint256)": {
        "details": "Admin function to set maxAssets",
        "params": {
          "newMaxAssets": "New max assets"
        },
        "returns": {
          "_0": "uint 0=success, otherwise a failure. (See ErrorReporter for details)"
        }
      },
      "_setPauseGuardian(address)": {
        "params": {
          "newPauseGuardian": "The address of the new Pause Guardian"
        },
        "returns": {
          "_0": "uint 0=success, otherwise a failure. (See enum Error for details)"
        }
      },
      "_setPriceOracle(address)": {
        "details": "Admin function to set a new price oracle",
        "returns": {
          "_0": "uint 0=success, otherwise a failure (see ErrorReporter.sol for details)"
        }
      },
      "_supportMarket(address)": {
        "details": "Admin function to set isListed and add support for the market",
        "params": {
          "cToken": "The address of the market (token) to list"
        },
        "returns": {
          "_0": "uint 0=success, otherwise a failure. (See enum Error for details)"
        }
      },
      "borrowAllowed(address,address,uint256)": {
        "params": {
          "borrowAmount": "The amount of underlying the account would borrow",
          "borrower": "The account which would borrow the asset",
          "cToken": "The market to verify the borrow against"
        },
        "returns": {
          "_0": "0 if the borrow is allowed, otherwise a semi-opaque error code (See ErrorReporter.sol)"
        }
      },
      "borrowVerify(address,address,uint256)": {
        "params": {
          "borrowAmount": "The amount of the underlying asset requested to borrow",
          "borrower": "The address borrowing the underlying",
          "cToken": "Asset whose underlying is being borrowed"
        }
      },
      "checkMembership(address,address)": {
        "params": {
          "account": "The address of the account to check",
          "cToken": "The cToken to check"
        },
        "returns": {
          "_0": "True if the account is in the asset, otherwise false."
        }
      },
      "claimComp(address)": {
        "params": {
          "holder": "The address to claim COMP for"
        }
      },
      "claimComp(address,address[])": {
        "params": {
          "cTokens": "The list of markets to claim COMP in",
          "holder": "The address to claim COMP for"
        }
      },
      "claimComp(address[],address[],bool,bool)": {
        "params": {
          "borrowers": "Whether or not to claim COMP earned by borrowing",
          "cTokens": "The list of markets to claim COMP in",
          "holders": "The addresses to claim COMP for",
          "suppliers": "Whether or not to claim COMP earned by supplying"
        }
      },
      "enterMarkets(address[])": {
        "params": {
          "cTokens": "The list of addresses of the cToken markets to be enabled"
        },
        "returns": {
          "_0": "Success indicator for whether each corresponding market was entered"
        }
      },
      "exitMarket(address)": {
        "details": "Sender must not have an outstanding borrow balance in the asset,  or be providing necessary collateral for an outstanding borrow.",
        "params": {
          "cTokenAddress": "The address of the asset to be removed"
        },
        "returns": {
          "_0": "Whether or not the account successfully exited the market"
        }
      },
      "getAccountLiquidity(address)": {
        "returns": {
          "_0": "(possible error code (semi-opaque), account liquidity in excess of collateral requirements,          account shortfall below collateral requirements)"
        }
      },
      "getAllMarkets()": {
        "details": "The automatic getter may be used to access an individual market.",
        "returns": {
          "_0": "The list of market addresses"
        }
      },
      "getAssetsIn(address)": {
        "params": {
          "account": "The address of the account to pull assets for"
        },
        "returns": {
          "_0": "A dynamic list with the assets the account has entered"
        }
      },
      "getCompAddress()": {
        "returns": {
          "_0": "The address of COMP"
        }
      },
      "getHypotheticalAccountLiquidity(address,address,uint256,uint256)": {
        "params": {
          "account": "The account to determine liquidity for",
          "borrowAmount": "The amount of underlying to hypothetically borrow",
          "cTokenModify": "The market to hypothetically redeem/borrow in",
          "redeemTokens": "The number of tokens to hypothetically redeem"
        },
        "returns": {
          "_0": "(possible error code (semi-opaque), hypothetical account liquidity in excess of collateral requirements,          hypothetical account shortfall below collateral requirements)"
        }
      },
      "liquidateBorrowAllowed(address,address,address,address,uint256)": {
        "params": {
          "borrower": "The address of the borrower",
          "cTokenBorrowed": "Asset which was borrowed by the borrower",
          "cTokenCollateral": "Asset which was used as collateral and will be seized",
          "liquidator": "The address repaying the borrow and seizing the collateral",
          "repayAmount": "The amount of underlying being repaid"
        }
      },
      "liquidateBorrowVerify(address,address,address,address,uint256,uint256)": {
        "params": {
          "actualRepayAmount": "The amount of underlying being repaid",
          "borrower": "The address of the borrower",
          "cTokenBorrowed": "Asset which was borrowed by the borrower",
          "cTokenCollateral": "Asset which was used as collateral and will be seized",
          "liquidator": "The address repaying the borrow and seizing the collateral"
        }
      },
      "liquidateCalculateSeizeTokens(address,address,uint256)": {
        "details": "Used in liquidation (called in cToken.liquidateBorrowFresh)",
        "params": {
          "actualRepayAmount": "The amount of cTokenBorrowed underlying to convert into cTokenCollateral tokens",
          "cTokenBorrowed": "The address of the borrowed cToken",
          "cTokenCollateral": "The address of the collateral cToken"
        },
        "returns": {
          "_0": "(errorCode, number of cTokenCollateral tokens to be seized in a liquidation)"
        }
      },
      "mintAllowed(address,address,uint256)": {
        "params": {
          "cToken": "The market to verify the mint against",
          "mintAmount": "The amount of underlying being supplied to the market in exchange for tokens",
          "minter": "The account which would get the minted tokens"
        },
        "returns": {
          "_0": "0 if the mint is allowed, otherwise a semi-opaque error code (See ErrorReporter.sol)"
        }
      },
      "mintVerify(address,address,uint256,uint256)": {
        "params": {
          "actualMintAmount": "The amount of the underlying asset being minted",
          "cToken": "Asset being minted",
          "mintTokens": "The number of tokens being minted",
          "minter": "The address minting the tokens"
        }
      },
      "redeemAllowed(address,address,uint256)": {
        "params": {
          "cToken": "The market to verify the redeem against",
          "redeemTokens": "The number of cTokens to exchange for the underlying asset in the market",
          "redeemer": "The account which would redeem the tokens"
        },
        "returns": {
          "_0": "0 if the redeem is allowed, otherwise a semi-opaque error code (See ErrorReporter.sol)"
        }
      },
      "redeemVerify(address,address,uint256,uint256)": {
        "params": {
          "cToken": "Asset being redeemed",
          "redeemAmount": "The amount of the underlying asset being redeemed",
          "redeemTokens": "The number of tokens being redeemed",
          "redeemer": "The address redeeming the tokens"
        }
      },
      "repayBorrowAllowed(address,address,address,uint256)": {
        "params": {
          "borrower": "The account which would borrowed the asset",
          "cToken": "The market to verify the repay against",
          "payer": "The account which would repay the asset",
          "repayAmount": "The amount of the underlying asset the account would repay"
        },
        "returns": {
          "_0": "0 if the repay is allowed, otherwise a semi-opaque error code (See ErrorReporter.sol)"
        }
      },
      "repayBorrowVerify(address,address,address,uint256,uint256)": {
        "params": {
          "actualRepayAmount": "The amount of underlying being repaid",
          "borrower": "The address of the borrower",
          "cToken": "Asset being repaid",
          "payer": "The address repaying the borrow"
        }
      },
      "seizeAllowed(address,address,address,address,uint256)": {
        "params": {
          "borrower": "The address of the borrower",
          "cTokenBorrowed": "Asset which was borrowed by the borrower",
          "cTokenCollateral": "Asset which was used as collateral and will be seized",
          "liquidator": "The address repaying the borrow and seizing the collateral",
          "seizeTokens": "The number of collateral tokens to seize"
        }
      },
      "seizeVerify(address,address,address,address,uint256)": {
        "params": {
          "borrower": "The address of the borrower",
          "cTokenBorrowed": "Asset which was borrowed by the borrower",
          "cTokenCollateral": "Asset which was used as collateral and will be seized",
          "liquidator": "The address repaying the borrow and seizing the collateral",
          "seizeTokens": "The number of collateral tokens to seize"
        }
      },
      "transferAllowed(address,address,address,uint256)": {
        "params": {
          "cToken": "The market to verify the transfer against",
          "dst": "The account which receives the tokens",
          "src": "The account which sources the tokens",
          "transferTokens": "The number of cTokens to transfer"
        },
        "returns": {
          "_0": "0 if the transfer is allowed, otherwise a semi-opaque error code (See ErrorReporter.sol)"
        }
      },
      "transferVerify(address,address,address,uint256)": {
        "params": {
          "cToken": "Asset being transferred",
          "dst": "The account which receives the tokens",
          "src": "The account which sources the tokens",
          "transferTokens": "The number of cTokens to transfer"
        }
      }
    },
    "title": "Compound's Comptroller Contract",
    "version": 1
  },
  "userdoc": {
    "events": {
      "ActionPaused(address,string,bool)": {
        "notice": "Emitted when an action is paused on a market"
      },
      "ActionPaused(string,bool)": {
        "notice": "Emitted when an action is paused globally"
      },
      "CompSpeedUpdated(address,uint256)": {
        "notice": "Emitted when a new COMP speed is calculated for a market"
      },
      "DistributedBorrowerComp(address,address,uint256,uint256)": {
        "notice": "Emitted when COMP is distributed to a borrower"
      },
      "DistributedSupplierComp(address,address,uint256,uint256)": {
        "notice": "Emitted when COMP is distributed to a supplier"
      },
      "MarketComped(address,bool)": {
        "notice": "Emitted when market comped status is changed"
      },
      "MarketEntered(address,address)": {
        "notice": "Emitted when an account enters a market"
      },
      "MarketExited(address,address)": {
        "notice": "Emitted when an account exits a market"
      },
      "MarketListed(address)": {
        "notice": "Emitted when an admin supports a market"
      },
      "NewBorrowCap(address,uint256)": {
        "notice": "Emitted when borrow cap for a cToken is changed"
      },
      "NewBorrowCapGuardian(address,address)": {
        "notice": "Emitted when borrow cap guardian is changed"
      },
      "NewCloseFactor(uint256,uint256)": {
        "notice": "Emitted when close factor is changed by admin"
      },
      "NewCollateralFactor(address,uint256,uint256)": {
        "notice": "Emitted when a collateral factor is changed by admin"
      },
      "NewCompRate(uint256,uint256)": {
        "notice": "Emitted when COMP rate is changed"
      },
      "NewLiquidationIncentive(uint256,uint256)": {
        "notice": "Emitted when liquidation incentive is changed by admin"
      },
      "NewMaxAssets(uint256,uint256)": {
        "notice": "Emitted when maxAssets is changed by admin"
      },
      "NewPauseGuardian(address,address)": {
        "notice": "Emitted when pause guardian is changed"
      },
      "NewPriceOracle(address,address)": {
        "notice": "Emitted when price oracle is changed"
      }
    },
    "kind": "user",
    "methods": {
      "_addCompMarkets(address[])": {
        "notice": "Add markets to compMarkets, allowing them to earn COMP in the flywheel"
      },
      "_dropCompMarket(address)": {
        "notice": "Remove a market from compMarkets, preventing it from earning COMP in the flywheel"
      },
      "_setBorrowCapGuardian(address)": {
        "notice": "Admin function to change the Borrow Cap Guardian"
      },
      "_setCloseFactor(uint256)": {
        "notice": "Sets the closeFactor used when liquidating borrows"
      },
      "_setCollateralFactor(address,uint256)": {
        "notice": "Sets the collateralFactor for a market"
      },
      "_setCompAddress(address)": {
        "notice": "Set the COMP token address"
      },
      "_setCompRate(uint256)": {
        "notice": "Set the amount of COMP distributed per block"
      },
      "_setLiquidationIncentive(uint256)": {
        "notice": "Sets liquidationIncentive"
      },
      "_setMarketBorrowCaps(address[],uint256[])": {
        "notice": "Set the given borrow caps for the given cToken markets. Borrowing that brings total borrows to or above borrow cap will revert."
      },
      "_setMaxAssets(uint256)": {
        "notice": "Sets maxAssets which controls how many markets can be entered"
      },
      "_setPauseGuardian(address)": {
        "notice": "Admin function to change the Pause Guardian"
      },
      "_setPriceOracle(address)": {
        "notice": "Sets a new price oracle for the comptroller"
      },
      "_supportMarket(address)": {
        "notice": "Add the market to the markets mapping and set it as listed"
      },
      "accountAssets(address,uint256)": {
        "notice": "Per-account mapping of \"assets you are in\", capped by maxAssets"
      },
      "admin()": {
        "notice": "Administrator for this contract"
      },
      "allMarkets(uint256)": {
        "notice": "A list of all markets"
      },
      "borrowAllowed(address,address,uint256)": {
        "notice": "Checks if the account should be allowed to borrow the underlying asset of the given market"
      },
      "borrowVerify(address,address,uint256)": {
        "notice": "Validates borrow and reverts on rejection. May emit logs."
      },
      "checkMembership(address,address)": {
        "notice": "Returns whether the given account is entered in the given asset"
      },
      "claimComp(address)": {
        "notice": "Claim all the comp accrued by holder in all markets"
      },
      "claimComp(address,address[])": {
        "notice": "Claim all the comp accrued by holder in the specified markets"
      },
      "claimComp(address[],address[],bool,bool)": {
        "notice": "Claim all comp accrued by the holders"
      },
      "closeFactorMantissa()": {
        "notice": "Multiplier used to calculate the maximum repayAmount when liquidating a borrow"
      },
      "compAccrued(address)": {
        "notice": "The COMP accrued but not yet transferred to each user"
      },
      "compBorrowState(address)": {
        "notice": "The COMP market borrow state for each market"
      },
      "compBorrowerIndex(address,address)": {
        "notice": "The COMP borrow index for each market for each borrower as of the last time they accrued COMP"
      },
      "compClaimThreshold()": {
        "notice": "The threshold above which the flywheel transfers COMP, in wei"
      },
      "compInitialIndex()": {
        "notice": "The initial COMP index for a market"
      },
      "compRate()": {
        "notice": "The rate at which the flywheel distributes COMP, per block"
      },
      "compSpeeds(address)": {
        "notice": "The portion of compRate that each market currently receives"
      },
      "compSupplierIndex(address,address)": {
        "notice": "The COMP borrow index for each market for each supplier as of the last time they accrued COMP"
      },
      "compSupplyState(address)": {
        "notice": "The COMP market supply state for each market"
      },
      "comptrollerImplementation()": {
        "notice": "Active brains of Unitroller"
      },
      "enterMarkets(address[])": {
        "notice": "Add assets to be included in account liquidity calculation"
      },
      "exitMarket(address)": {
        "notice": "Removes asset from sender's account liquidity calculation"
      },
      "getAccountLiquidity(address)": {
        "notice": "Determine the current account liquidity wrt collateral requirements"
      },
      "getAllMarkets()": {
        "notice": "Return all of the markets"
      },
      "getAssetsIn(address)": {
        "notice": "Returns the assets an account has entered"
      },
      "getCompAddress()": {
        "notice": "Return the address of the COMP token"
      },
      "getHypotheticalAccountLiquidity(address,address,uint256,uint256)": {
        "notice": "Determine what the account liquidity would be if the given amounts were redeemed/borrowed"
      },
      "isComptroller()": {
        "notice": "Indicator that this is a Comptroller contract (for inspection)"
      },
      "liquidateBorrowAllowed(address,address,address,address,uint256)": {
        "notice": "Checks if the liquidation should be allowed to occur"
      },
      "liquidateBorrowVerify(address,address,address,address,uint256,uint256)": {
        "notice": "Validates liquidateBorrow and reverts on rejection. May emit logs."
      },
      "liquidateCalculateSeizeTokens(address,address,uint256)": {
        "notice": "Calculate number of tokens of collateral asset to seize given an underlying amount"
      },
      "liquidationIncentiveMantissa()": {
        "notice": "Multiplier representing the discount on collateral that a liquidator receives"
      },
      "markets(address)": {
        "notice": "Official mapping of cTokens -> Market metadata"
      },
      "maxAssets()": {
        "notice": "Max number of assets a single account can participate in (borrow or use as collateral)"
      },
      "mintAllowed(address,address,uint256)": {
        "notice": "Checks if the account should be allowed to mint tokens in the given market"
      },
      "mintVerify(address,address,uint256,uint256)": {
        "notice": "Validates mint and reverts on rejection. May emit logs."
      },
      "oracle()": {
        "notice": "Oracle which gives the price of any given asset"
      },
      "pauseGuardian()": {
        "notice": "The Pause Guardian can pause certain actions as a safety mechanism.  Actions which allow users to remove their own assets cannot be paused.  Liquidation / seizing / transfer can only be paused globally, not by market."
      },
      "pendingAdmin()": {
        "notice": "Pending administrator for this contract"
      },
      "pendingComptrollerImplementation()": {
        "notice": "Pending brains of Unitroller"
      },
      "redeemAllowed(address,address,uint256)": {
        "notice": "Checks if the account should be allowed to redeem tokens in the given market"
      },
      "redeemVerify(address,address,uint256,uint256)": {
        "notice": "Validates redeem and reverts on rejection. May emit logs."
      },
      "refreshCompSpeeds()": {
        "notice": "Recalculate and update COMP speeds for all COMP markets"
      },
      "repayBorrowAllowed(address,address,address,uint256)": {
        "notice": "Checks if the account should be allowed to repay a borrow in the given market"
      },
      "repayBorrowVerify(address,address,address,uint256,uint256)": {
        "notice": "Validates repayBorrow and reverts on rejection. May emit logs."
      },
      "seizeAllowed(address,address,address,address,uint256)": {
        "notice": "Checks if the seizing of assets should be allowed to occur"
      },
      "seizeVerify(address,address,address,address,uint256)": {
        "notice": "Validates seize and reverts on rejection. May emit logs."
      },
      "transferAllowed(address,address,address,uint256)": {
        "notice": "Checks if the account should be allowed to transfer tokens in the given market"
      },
      "transferVerify(address,address,address,uint256)": {
        "notice": "Validates transfer and reverts on rejection. May emit logs."
      }
    },
    "version": 1
  },
  "storageLayout": {
    "storage": [
      {
        "astId": 9731,
        "contract": "contracts/Comptroller.sol:Comptroller",
        "label": "admin",
        "offset": 0,
        "slot": "0",
        "type": "t_address"
      },
      {
        "astId": 9734,
        "contract": "contracts/Comptroller.sol:Comptroller",
        "label": "pendingAdmin",
        "offset": 0,
        "slot": "1",
        "type": "t_address"
      },
      {
        "astId": 9737,
        "contract": "contracts/Comptroller.sol:Comptroller",
        "label": "comptrollerImplementation",
        "offset": 0,
        "slot": "2",
        "type": "t_address"
      },
      {
        "astId": 9740,
        "contract": "contracts/Comptroller.sol:Comptroller",
        "label": "pendingComptrollerImplementation",
        "offset": 0,
        "slot": "3",
        "type": "t_address"
      },
      {
        "astId": 9746,
        "contract": "contracts/Comptroller.sol:Comptroller",
        "label": "oracle",
        "offset": 0,
        "slot": "4",
        "type": "t_contract(PriceOracle)15693"
      },
      {
        "astId": 9749,
        "contract": "contracts/Comptroller.sol:Comptroller",
        "label": "closeFactorMantissa",
        "offset": 0,
        "slot": "5",
        "type": "t_uint256"
      },
      {
        "astId": 9752,
        "contract": "contracts/Comptroller.sol:Comptroller",
        "label": "liquidationIncentiveMantissa",
        "offset": 0,
        "slot": "6",
        "type": "t_uint256"
      },
      {
        "astId": 9755,
        "contract": "contracts/Comptroller.sol:Comptroller",
        "label": "maxAssets",
        "offset": 0,
        "slot": "7",
        "type": "t_uint256"
      },
      {
        "astId": 9761,
        "contract": "contracts/Comptroller.sol:Comptroller",
        "label": "accountAssets",
        "offset": 0,
        "slot": "8",
        "type": "t_mapping(t_address,t_array(t_contract(CToken)4735)dyn_storage)"
      },
      {
        "astId": 9784,
        "contract": "contracts/Comptroller.sol:Comptroller",
        "label": "markets",
        "offset": 0,
        "slot": "9",
        "type": "t_mapping(t_address,t_struct(Market)9779_storage)"
      },
      {
        "astId": 9787,
        "contract": "contracts/Comptroller.sol:Comptroller",
        "label": "pauseGuardian",
        "offset": 0,
        "slot": "10",
        "type": "t_address"
      },
      {
        "astId": 9789,
        "contract": "contracts/Comptroller.sol:Comptroller",
        "label": "_mintGuardianPaused",
        "offset": 20,
        "slot": "10",
        "type": "t_bool"
      },
      {
        "astId": 9791,
        "contract": "contracts/Comptroller.sol:Comptroller",
        "label": "_borrowGuardianPaused",
        "offset": 21,
        "slot": "10",
        "type": "t_bool"
      },
      {
        "astId": 9793,
        "contract": "contracts/Comptroller.sol:Comptroller",
        "label": "transferGuardianPaused",
        "offset": 22,
        "slot": "10",
        "type": "t_bool"
      },
      {
        "astId": 9795,
        "contract": "contracts/Comptroller.sol:Comptroller",
        "label": "seizeGuardianPaused",
        "offset": 23,
        "slot": "10",
        "type": "t_bool"
      },
      {
        "astId": 9799,
        "contract": "contracts/Comptroller.sol:Comptroller",
        "label": "mintGuardianPaused",
        "offset": 0,
        "slot": "11",
        "type": "t_mapping(t_address,t_bool)"
      },
      {
        "astId": 9803,
        "contract": "contracts/Comptroller.sol:Comptroller",
        "label": "borrowGuardianPaused",
        "offset": 0,
        "slot": "12",
        "type": "t_mapping(t_address,t_bool)"
      },
      {
        "astId": 9817,
        "contract": "contracts/Comptroller.sol:Comptroller",
        "label": "allMarkets",
        "offset": 0,
        "slot": "13",
        "type": "t_array(t_contract(CToken)4735)dyn_storage"
      },
      {
        "astId": 9820,
        "contract": "contracts/Comptroller.sol:Comptroller",
        "label": "compRate",
        "offset": 0,
        "slot": "14",
        "type": "t_uint256"
      },
      {
        "astId": 9825,
        "contract": "contracts/Comptroller.sol:Comptroller",
        "label": "compSpeeds",
        "offset": 0,
        "slot": "15",
        "type": "t_mapping(t_address,t_uint256)"
      },
      {
        "astId": 9830,
        "contract": "contracts/Comptroller.sol:Comptroller",
        "label": "compSupplyState",
        "offset": 0,
        "slot": "16",
        "type": "t_mapping(t_address,t_struct(CompMarketState)9813_storage)"
      },
      {
        "astId": 9835,
        "contract": "contracts/Comptroller.sol:Comptroller",
        "label": "compBorrowState",
        "offset": 0,
        "slot": "17",
        "type": "t_mapping(t_address,t_struct(CompMarketState)9813_storage)"
      },
      {
        "astId": 9842,
        "contract": "contracts/Comptroller.sol:Comptroller",
        "label": "compSupplierIndex",
        "offset": 0,
        "slot": "18",
        "type": "t_mapping(t_address,t_mapping(t_address,t_uint256))"
      },
      {
        "astId": 9849,
        "contract": "contracts/Comptroller.sol:Comptroller",
        "label": "compBorrowerIndex",
        "offset": 0,
        "slot": "19",
        "type": "t_mapping(t_address,t_mapping(t_address,t_uint256))"
      },
      {
        "astId": 9854,
        "contract": "contracts/Comptroller.sol:Comptroller",
        "label": "compAccrued",
        "offset": 0,
        "slot": "20",
        "type": "t_mapping(t_address,t_uint256)"
      },
      {
        "astId": 9859,
        "contract": "contracts/Comptroller.sol:Comptroller",
        "label": "borrowCapGuardian",
        "offset": 0,
        "slot": "21",
        "type": "t_address"
      },
      {
        "astId": 9863,
        "contract": "contracts/Comptroller.sol:Comptroller",
        "label": "borrowCaps",
        "offset": 0,
        "slot": "22",
        "type": "t_mapping(t_address,t_uint256)"
      },
      {
        "astId": 9865,
        "contract": "contracts/Comptroller.sol:Comptroller",
        "label": "comp",
        "offset": 0,
        "slot": "23",
        "type": "t_address"
      }
    ],
    "types": {
      "t_address": {
        "encoding": "inplace",
        "label": "address",
        "numberOfBytes": "20"
      },
      "t_array(t_contract(CToken)4735)dyn_storage": {
        "base": "t_contract(CToken)4735",
        "encoding": "dynamic_array",
        "label": "contract CToken[]",
        "numberOfBytes": "32"
      },
      "t_bool": {
        "encoding": "inplace",
        "label": "bool",
        "numberOfBytes": "1"
      },
      "t_contract(CToken)4735": {
        "encoding": "inplace",
        "label": "contract CToken",
        "numberOfBytes": "20"
      },
      "t_contract(PriceOracle)15693": {
        "encoding": "inplace",
        "label": "contract PriceOracle",
        "numberOfBytes": "20"
      },
      "t_mapping(t_address,t_array(t_contract(CToken)4735)dyn_storage)": {
        "encoding": "mapping",
        "key": "t_address",
        "label": "mapping(address => contract CToken[])",
        "numberOfBytes": "32",
        "value": "t_array(t_contract(CToken)4735)dyn_storage"
      },
      "t_mapping(t_address,t_bool)": {
        "encoding": "mapping",
        "key": "t_address",
        "label": "mapping(address => bool)",
        "numberOfBytes": "32",
        "value": "t_bool"
      },
      "t_mapping(t_address,t_mapping(t_address,t_uint256))": {
        "encoding": "mapping",
        "key": "t_address",
        "label": "mapping(address => mapping(address => uint256))",
        "numberOfBytes": "32",
        "value": "t_mapping(t_address,t_uint256)"
      },
      "t_mapping(t_address,t_struct(CompMarketState)9813_storage)": {
        "encoding": "mapping",
        "key": "t_address",
        "label": "mapping(address => struct ComptrollerV3Storage.CompMarketState)",
        "numberOfBytes": "32",
        "value": "t_struct(CompMarketState)9813_storage"
      },
      "t_mapping(t_address,t_struct(Market)9779_storage)": {
        "encoding": "mapping",
        "key": "t_address",
        "label": "mapping(address => struct ComptrollerV2Storage.Market)",
        "numberOfBytes": "32",
        "value": "t_struct(Market)9779_storage"
      },
      "t_mapping(t_address,t_uint256)": {
        "encoding": "mapping",
        "key": "t_address",
        "label": "mapping(address => uint256)",
        "numberOfBytes": "32",
        "value": "t_uint256"
      },
      "t_struct(CompMarketState)9813_storage": {
        "encoding": "inplace",
        "label": "struct ComptrollerV3Storage.CompMarketState",
        "members": [
          {
            "astId": 9809,
            "contract": "contracts/Comptroller.sol:Comptroller",
            "label": "index",
            "offset": 0,
            "slot": "0",
            "type": "t_uint224"
          },
          {
            "astId": 9812,
            "contract": "contracts/Comptroller.sol:Comptroller",
            "label": "block",
            "offset": 28,
            "slot": "0",
            "type": "t_uint32"
          }
        ],
        "numberOfBytes": "32"
      },
      "t_struct(Market)9779_storage": {
        "encoding": "inplace",
        "label": "struct ComptrollerV2Storage.Market",
        "members": [
          {
            "astId": 9767,
            "contract": "contracts/Comptroller.sol:Comptroller",
            "label": "isListed",
            "offset": 0,
            "slot": "0",
            "type": "t_bool"
          },
          {
            "astId": 9770,
            "contract": "contracts/Comptroller.sol:Comptroller",
            "label": "collateralFactorMantissa",
            "offset": 0,
            "slot": "1",
            "type": "t_uint256"
          },
          {
            "astId": 9775,
            "contract": "contracts/Comptroller.sol:Comptroller",
            "label": "accountMembership",
            "offset": 0,
            "slot": "2",
            "type": "t_mapping(t_address,t_bool)"
          },
          {
            "astId": 9778,
            "contract": "contracts/Comptroller.sol:Comptroller",
            "label": "isComped",
            "offset": 0,
            "slot": "3",
            "type": "t_bool"
          }
        ],
        "numberOfBytes": "128"
      },
      "t_uint224": {
        "encoding": "inplace",
        "label": "uint224",
        "numberOfBytes": "28"
      },
      "t_uint256": {
        "encoding": "inplace",
        "label": "uint256",
        "numberOfBytes": "32"
      },
      "t_uint32": {
        "encoding": "inplace",
        "label": "uint32",
        "numberOfBytes": "4"
      }
    }
  }
}