{
  "address": "0xd86F1d88B03cCa0C1d2Ac1c06c4e39f046d9EB84",
  "abi": [
    {
      "inputs": [
        {
          "internalType": "address",
          "name": "account",
          "type": "address"
        }
      ],
      "payable": false,
      "stateMutability": "nonpayable",
      "type": "constructor"
    },
    {
      "anonymous": false,
      "inputs": [
        {
          "indexed": true,
          "internalType": "address",
          "name": "owner",
          "type": "address"
        },
        {
          "indexed": true,
          "internalType": "address",
          "name": "spender",
          "type": "address"
        },
        {
          "indexed": false,
          "internalType": "uint256",
          "name": "amount",
          "type": "uint256"
        }
      ],
      "name": "Approval",
      "type": "event"
    },
    {
      "anonymous": false,
      "inputs": [
        {
          "indexed": true,
          "internalType": "address",
          "name": "delegator",
          "type": "address"
        },
        {
          "indexed": true,
          "internalType": "address",
          "name": "fromDelegate",
          "type": "address"
        },
        {
          "indexed": true,
          "internalType": "address",
          "name": "toDelegate",
          "type": "address"
        }
      ],
      "name": "DelegateChanged",
      "type": "event"
    },
    {
      "anonymous": false,
      "inputs": [
        {
          "indexed": true,
          "internalType": "address",
          "name": "delegate",
          "type": "address"
        },
        {
          "indexed": false,
          "internalType": "uint256",
          "name": "previousBalance",
          "type": "uint256"
        },
        {
          "indexed": false,
          "internalType": "uint256",
          "name": "newBalance",
          "type": "uint256"
        }
      ],
      "name": "DelegateVotesChanged",
      "type": "event"
    },
    {
      "anonymous": false,
      "inputs": [
        {
          "indexed": true,
          "internalType": "address",
          "name": "from",
          "type": "address"
        },
        {
          "indexed": true,
          "internalType": "address",
          "name": "to",
          "type": "address"
        },
        {
          "indexed": false,
          "internalType": "uint256",
          "name": "amount",
          "type": "uint256"
        }
      ],
      "name": "Transfer",
      "type": "event"
    },
    {
      "constant": true,
      "inputs": [],
      "name": "DELEGATION_TYPEHASH",
      "outputs": [
        {
          "internalType": "bytes32",
          "name": "",
          "type": "bytes32"
        }
      ],
      "payable": false,
      "stateMutability": "view",
      "type": "function"
    },
    {
      "constant": true,
      "inputs": [],
      "name": "DOMAIN_TYPEHASH",
      "outputs": [
        {
          "internalType": "bytes32",
          "name": "",
          "type": "bytes32"
        }
      ],
      "payable": false,
      "stateMutability": "view",
      "type": "function"
    },
    {
      "constant": true,
      "inputs": [
        {
          "internalType": "address",
          "name": "account",
          "type": "address"
        },
        {
          "internalType": "address",
          "name": "spender",
          "type": "address"
        }
      ],
      "name": "allowance",
      "outputs": [
        {
          "internalType": "uint256",
          "name": "",
          "type": "uint256"
        }
      ],
      "payable": false,
      "stateMutability": "view",
      "type": "function"
    },
    {
      "constant": false,
      "inputs": [
        {
          "internalType": "address",
          "name": "spender",
          "type": "address"
        },
        {
          "internalType": "uint256",
          "name": "rawAmount",
          "type": "uint256"
        }
      ],
      "name": "approve",
      "outputs": [
        {
          "internalType": "bool",
          "name": "",
          "type": "bool"
        }
      ],
      "payable": false,
      "stateMutability": "nonpayable",
      "type": "function"
    },
    {
      "constant": true,
      "inputs": [
        {
          "internalType": "address",
          "name": "account",
          "type": "address"
        }
      ],
      "name": "balanceOf",
      "outputs": [
        {
          "internalType": "uint256",
          "name": "",
          "type": "uint256"
        }
      ],
      "payable": false,
      "stateMutability": "view",
      "type": "function"
    },
    {
      "constant": true,
      "inputs": [
        {
          "internalType": "address",
          "name": "",
          "type": "address"
        },
        {
          "internalType": "uint32",
          "name": "",
          "type": "uint32"
        }
      ],
      "name": "checkpoints",
      "outputs": [
        {
          "internalType": "uint32",
          "name": "fromBlock",
          "type": "uint32"
        },
        {
          "internalType": "uint96",
          "name": "votes",
          "type": "uint96"
        }
      ],
      "payable": false,
      "stateMutability": "view",
      "type": "function"
    },
    {
      "constant": true,
      "inputs": [],
      "name": "decimals",
      "outputs": [
        {
          "internalType": "uint8",
          "name": "",
          "type": "uint8"
        }
      ],
      "payable": false,
      "stateMutability": "view",
      "type": "function"
    },
    {
      "constant": false,
      "inputs": [
        {
          "internalType": "address",
          "name": "delegatee",
          "type": "address"
        }
      ],
      "name": "delegate",
      "outputs": [],
      "payable": false,
      "stateMutability": "nonpayable",
      "type": "function"
    },
    {
      "constant": false,
      "inputs": [
        {
          "internalType": "address",
          "name": "delegatee",
          "type": "address"
        },
        {
          "internalType": "uint256",
          "name": "nonce",
          "type": "uint256"
        },
        {
          "internalType": "uint256",
          "name": "expiry",
          "type": "uint256"
        },
        {
          "internalType": "uint8",
          "name": "v",
          "type": "uint8"
        },
        {
          "internalType": "bytes32",
          "name": "r",
          "type": "bytes32"
        },
        {
          "internalType": "bytes32",
          "name": "s",
          "type": "bytes32"
        }
      ],
      "name": "delegateBySig",
      "outputs": [],
      "payable": false,
      "stateMutability": "nonpayable",
      "type": "function"
    },
    {
      "constant": true,
      "inputs": [
        {
          "internalType": "address",
          "name": "",
          "type": "address"
        }
      ],
      "name": "delegates",
      "outputs": [
        {
          "internalType": "address",
          "name": "",
          "type": "address"
        }
      ],
      "payable": false,
      "stateMutability": "view",
      "type": "function"
    },
    {
      "constant": true,
      "inputs": [
        {
          "internalType": "address",
          "name": "account",
          "type": "address"
        }
      ],
      "name": "getCurrentVotes",
      "outputs": [
        {
          "internalType": "uint96",
          "name": "",
          "type": "uint96"
        }
      ],
      "payable": false,
      "stateMutability": "view",
      "type": "function"
    },
    {
      "constant": true,
      "inputs": [
        {
          "internalType": "address",
          "name": "account",
          "type": "address"
        },
        {
          "internalType": "uint256",
          "name": "blockNumber",
          "type": "uint256"
        }
      ],
      "name": "getPriorVotes",
      "outputs": [
        {
          "internalType": "uint96",
          "name": "",
          "type": "uint96"
        }
      ],
      "payable": false,
      "stateMutability": "view",
      "type": "function"
    },
    {
      "constant": true,
      "inputs": [],
      "name": "name",
      "outputs": [
        {
          "internalType": "string",
          "name": "",
          "type": "string"
        }
      ],
      "payable": false,
      "stateMutability": "view",
      "type": "function"
    },
    {
      "constant": true,
      "inputs": [
        {
          "internalType": "address",
          "name": "",
          "type": "address"
        }
      ],
      "name": "nonces",
      "outputs": [
        {
          "internalType": "uint256",
          "name": "",
          "type": "uint256"
        }
      ],
      "payable": false,
      "stateMutability": "view",
      "type": "function"
    },
    {
      "constant": true,
      "inputs": [
        {
          "internalType": "address",
          "name": "",
          "type": "address"
        }
      ],
      "name": "numCheckpoints",
      "outputs": [
        {
          "internalType": "uint32",
          "name": "",
          "type": "uint32"
        }
      ],
      "payable": false,
      "stateMutability": "view",
      "type": "function"
    },
    {
      "constant": true,
      "inputs": [],
      "name": "symbol",
      "outputs": [
        {
          "internalType": "string",
          "name": "",
          "type": "string"
        }
      ],
      "payable": false,
      "stateMutability": "view",
      "type": "function"
    },
    {
      "constant": true,
      "inputs": [],
      "name": "totalSupply",
      "outputs": [
        {
          "internalType": "uint256",
          "name": "",
          "type": "uint256"
        }
      ],
      "payable": false,
      "stateMutability": "view",
      "type": "function"
    },
    {
      "constant": false,
      "inputs": [
        {
          "internalType": "address",
          "name": "dst",
          "type": "address"
        },
        {
          "internalType": "uint256",
          "name": "rawAmount",
          "type": "uint256"
        }
      ],
      "name": "transfer",
      "outputs": [
        {
          "internalType": "bool",
          "name": "",
          "type": "bool"
        }
      ],
      "payable": false,
      "stateMutability": "nonpayable",
      "type": "function"
    },
    {
      "constant": false,
      "inputs": [
        {
          "internalType": "address",
          "name": "src",
          "type": "address"
        },
        {
          "internalType": "address",
          "name": "dst",
          "type": "address"
        },
        {
          "internalType": "uint256",
          "name": "rawAmount",
          "type": "uint256"
        }
      ],
      "name": "transferFrom",
      "outputs": [
        {
          "internalType": "bool",
          "name": "",
          "type": "bool"
        }
      ],
      "payable": false,
      "stateMutability": "nonpayable",
      "type": "function"
    }
  ],
  "transactionHash": "0x5270958d21ed5e2d4f5aff7c3d4b360f55834ae872ce78da15a7cec72968fb94",
  "args": [
    "0x9e3C40045A3503b33BfEdAEA0BF6981120E8c753"
  ],
  "solcInputHash": "251f15328f1c87691ade7a81df7774b1",
  "bytecode": "0x60806040523480156200001157600080fd5b5060405162001be938038062001be98339810160408190526200003491620000bc565b6001600160a01b03811660008181526001602052604080822080546001600160601b0319166a52b7d2dcc80cd2e400000090811790915590517fddf252ad1be2c89b69c2b068fc378daa952ba7f163c4a11628f55a4df523b3ef916200009a91620000f6565b60405180910390a35062000135565b8051620000b6816200011b565b92915050565b600060208284031215620000cf57600080fd5b6000620000dd8484620000a9565b949350505050565b620000f08162000118565b82525050565b60208101620000b68284620000e5565b60006001600160a01b038216620000b6565b90565b620001268162000106565b81146200013257600080fd5b50565b611aa480620001456000396000f3fe608060405234801561001057600080fd5b50600436106101215760003560e01c806370a08231116100ad578063b4b5ea5711610071578063b4b5ea571461025f578063c3cda52014610272578063dd62ed3e14610285578063e7a324dc14610298578063f1127ed8146102a057610121565b806370a08231146101fe578063782d6fe1146102115780637ecebe001461023157806395d89b4114610244578063a9059cbb1461024c57610121565b806323b872dd116100f457806323b872dd14610181578063313ce56714610194578063587cde1e146101a95780635c19a95c146101c95780636fcfff45146101de57610121565b806306fdde0314610126578063095ea7b31461014457806318160ddd1461016457806320606b7014610179575b600080fd5b61012e6102c1565b60405161013b9190611755565b60405180910390f35b61015761015236600461121e565b6102f2565b60405161013b91906116ab565b61016c6103af565b60405161013b91906116b9565b61016c6103be565b61015761018f3660046111d1565b6103d5565b61019c61051a565b60405161013b91906117ef565b6101bc6101b7366004611171565b61051f565b60405161013b919061169d565b6101dc6101d7366004611171565b61053a565b005b6101f16101ec366004611171565b610547565b60405161013b91906117c6565b61016c61020c366004611171565b61055f565b61022461021f36600461121e565b610583565b60405161013b919061180b565b61016c61023f366004611171565b61079a565b61012e6107ac565b61015761025a36600461121e565b6107cb565b61022461026d366004611171565b610807565b6101dc61028036600461124e565b610877565b61016c610293366004611197565b610a6e565b61016c610aa0565b6102b36102ae3660046112d5565b610aac565b60405161013b9291906117d4565b6040518060400160405280601581526020017404261736564204c6f616e73204f776e65727368697605c1b81525081565b600080600019831415610308575060001961032d565b61032a8360405180606001604052806025815260200161192760259139610ae1565b90505b336000818152602081815260408083206001600160a01b03891680855292529182902080546001600160601b0319166001600160601b03861617905590519091907f8c5be1e5ebec7d5bd14f71427d1e84f3dd0314c0f7b2291e5b200ac8c7c3b9259061039b9085906117fd565b60405180910390a360019150505b92915050565b6a52b7d2dcc80cd2e400000081565b6040516103ca90611687565b604051809103902081565b6001600160a01b0383166000908152602081815260408083203380855290835281842054825160608101909352602580845291936001600160601b0390911692859261042b928892919061192790830139610ae1565b9050866001600160a01b0316836001600160a01b03161415801561045857506001600160601b0382811614155b1561050057600061048283836040518060600160405280603d81526020016119fe603d9139610b10565b6001600160a01b03898116600081815260208181526040808320948a16808452949091529081902080546001600160601b0319166001600160601b0386161790555192935090917f8c5be1e5ebec7d5bd14f71427d1e84f3dd0314c0f7b2291e5b200ac8c7c3b925906104f69085906117fd565b60405180910390a3505b61050b878783610b4f565b600193505050505b9392505050565b601281565b6002602052600090815260409020546001600160a01b031681565b6105443382610cfa565b50565b60046020526000908152604090205463ffffffff1681565b6001600160a01b03166000908152600160205260409020546001600160601b031690565b60004382106105ad5760405162461bcd60e51b81526004016105a490611786565b60405180910390fd5b6001600160a01b03831660009081526004602052604090205463ffffffff16806105db5760009150506103a9565b6001600160a01b038416600090815260036020908152604080832063ffffffff600019860181168552925290912054168310610657576001600160a01b03841660009081526003602090815260408083206000199490940163ffffffff1683529290522054600160201b90046001600160601b031690506103a9565b6001600160a01b038416600090815260036020908152604080832083805290915290205463ffffffff168310156106925760009150506103a9565b600060001982015b8163ffffffff168163ffffffff16111561075557600282820363ffffffff160481036106c461112e565b506001600160a01b038716600090815260036020908152604080832063ffffffff858116855290835292819020815180830190925254928316808252600160201b9093046001600160601b03169181019190915290871415610730576020015194506103a99350505050565b805163ffffffff168711156107475781935061074e565b6001820392505b505061069a565b506001600160a01b038516600090815260036020908152604080832063ffffffff909416835292905220546001600160601b03600160201b9091041691505092915050565b60056020526000908152604090205481565b60405180604001604052806003815260200162424c4f60e81b81525081565b6000806107f08360405180606001604052806026815260200161194c60269139610ae1565b90506107fd338583610b4f565b5060019392505050565b6001600160a01b03811660009081526004602052604081205463ffffffff1680610832576000610513565b6001600160a01b0383166000908152600360209081526040808320600019850163ffffffff168452909152902054600160201b90046001600160601b03169392505050565b600060405161088590611687565b60408051918290038220828201909152601582527404261736564204c6f616e73204f776e65727368697605c1b6020909201919091527f6ae10a765f7b7a616cc09d7204231b2b108ae830446095a4ab82d40277f78cb56108e4610d84565b306040516020016108f89493929190611705565b604051602081830303815290604052805190602001209050600060405161091e90611692565b604051908190038120610939918a908a908a906020016116c7565b60405160208183030381529060405280519060200120905060008282604051602001610966929190611656565b6040516020818303038152906040528051906020012090506000600182888888604051600081526020016040526040516109a3949392919061173a565b6020604051602081039080840390855afa1580156109c5573d6000803e3d6000fd5b5050604051601f1901519150506001600160a01b0381166109f85760405162461bcd60e51b81526004016105a490611766565b6001600160a01b03811660009081526005602052604090208054600181019091558914610a375760405162461bcd60e51b81526004016105a490611796565b87421115610a575760405162461bcd60e51b81526004016105a490611776565b610a61818b610cfa565b505050505b505050505050565b6001600160a01b039182166000908152602081815260408083209390941682529190915220546001600160601b031690565b6040516103ca90611692565b600360209081526000928352604080842090915290825290205463ffffffff811690600160201b90046001600160601b031682565b600081600160601b8410610b085760405162461bcd60e51b81526004016105a49190611755565b509192915050565b6000836001600160601b0316836001600160601b031611158290610b475760405162461bcd60e51b81526004016105a49190611755565b505050900390565b6001600160a01b038316610b755760405162461bcd60e51b81526004016105a4906117b6565b6001600160a01b038216610b9b5760405162461bcd60e51b81526004016105a4906117a6565b6001600160a01b038316600090815260016020908152604091829020548251606081019093526036808452610be6936001600160601b0390921692859291906118f190830139610b10565b6001600160a01b03848116600090815260016020908152604080832080546001600160601b0319166001600160601b03968716179055928616825290829020548251606081019093526030808452610c4e94919091169285929091906119ce90830139610d88565b6001600160a01b038381166000818152600160205260409081902080546001600160601b0319166001600160601b0395909516949094179093559151908516907fddf252ad1be2c89b69c2b068fc378daa952ba7f163c4a11628f55a4df523b3ef90610cbb9085906117fd565b60405180910390a36001600160a01b03808416600090815260026020526040808220548584168352912054610cf592918216911683610dc4565b505050565b6001600160a01b03808316600081815260026020818152604080842080546001845282862054949093528787166001600160a01b031984168117909155905191909516946001600160601b039092169391928592917f3134e8a2e6d97e929a7e54011ea5485d7d196dd5f0ba4d4ef95803e8e3fc257f9190a4610d7e828483610dc4565b50505050565b4690565b6000838301826001600160601b038087169083161015610dbb5760405162461bcd60e51b81526004016105a49190611755565b50949350505050565b816001600160a01b0316836001600160a01b031614158015610def57506000816001600160601b0316115b15610cf5576001600160a01b03831615610ea7576001600160a01b03831660009081526004602052604081205463ffffffff169081610e2f576000610e6e565b6001600160a01b0385166000908152600360209081526040808320600019860163ffffffff168452909152902054600160201b90046001600160601b03165b90506000610e9582856040518060600160405280602881526020016119a660289139610b10565b9050610ea386848484610f52565b5050505b6001600160a01b03821615610cf5576001600160a01b03821660009081526004602052604081205463ffffffff169081610ee2576000610f21565b6001600160a01b0384166000908152600360209081526040808320600019860163ffffffff168452909152902054600160201b90046001600160601b03165b90506000610f488285604051806060016040528060278152602001611a3b60279139610d88565b9050610a66858484845b6000610f764360405180606001604052806034815260200161197260349139611107565b905060008463ffffffff16118015610fbf57506001600160a01b038516600090815260036020908152604080832063ffffffff6000198901811685529252909120548282169116145b1561101e576001600160a01b0385166000908152600360209081526040808320600019880163ffffffff168452909152902080546fffffffffffffffffffffffff000000001916600160201b6001600160601b038516021790556110bd565b60408051808201825263ffffffff80841682526001600160601b0380861660208085019182526001600160a01b038b166000818152600383528781208c871682528352878120965187549451909516600160201b026fffffffffffffffffffffffff000000001995871663ffffffff19958616179590951694909417909555938252600490935292909220805460018801909316929091169190911790555b846001600160a01b03167fdec2bacdd2f05b59de34da9b523dff8be42e5e38e818c82fdb0bae774387a72484846040516110f8929190611819565b60405180910390a25050505050565b600081600160201b8410610b085760405162461bcd60e51b81526004016105a49190611755565b604080518082019091526000808252602082015290565b80356103a9816118c1565b80356103a9816118d5565b80356103a9816118de565b80356103a9816118e7565b60006020828403121561118357600080fd5b600061118f8484611145565b949350505050565b600080604083850312156111aa57600080fd5b60006111b68585611145565b92505060206111c785828601611145565b9150509250929050565b6000806000606084860312156111e657600080fd5b60006111f28686611145565b935050602061120386828701611145565b925050604061121486828701611150565b9150509250925092565b6000806040838503121561123157600080fd5b600061123d8585611145565b92505060206111c785828601611150565b60008060008060008060c0878903121561126757600080fd5b60006112738989611145565b965050602061128489828a01611150565b955050604061129589828a01611150565b94505060606112a689828a01611166565b93505060806112b789828a01611150565b92505060a06112c889828a01611150565b9150509295509295509295565b600080604083850312156112e857600080fd5b60006112f48585611145565b92505060206111c78582860161115b565b61130e81611846565b82525050565b61130e81611851565b61130e81611856565b61130e61133282611856565b611856565b600061134282611834565b61134c8185611838565b935061135c81856020860161188b565b611365816118b7565b9093019392505050565b600061137c602683611838565b7f436f6d703a3a64656c656761746542795369673a20696e76616c6964207369678152656e617475726560d01b602082015260400192915050565b60006113c4602683611838565b7f436f6d703a3a64656c656761746542795369673a207369676e617475726520658152651e1c1a5c995960d21b602082015260400192915050565b600061140c600283611841565b61190160f01b815260020192915050565b600061142a602783611838565b7f436f6d703a3a6765745072696f72566f7465733a206e6f742079657420646574815266195c9b5a5b995960ca1b602082015260400192915050565b6000611473602283611838565b7f436f6d703a3a64656c656761746542795369673a20696e76616c6964206e6f6e815261636560f01b602082015260400192915050565b60006114b7603a83611838565b7f436f6d703a3a5f7472616e73666572546f6b656e733a2063616e6e6f7420747281527f616e7366657220746f20746865207a65726f2061646472657373000000000000602082015260400192915050565b6000611516604383611841565b7f454950373132446f6d61696e28737472696e67206e616d652c75696e7432353681527f20636861696e49642c6164647265737320766572696679696e67436f6e74726160208201526263742960e81b604082015260430192915050565b6000611581603c83611838565b7f436f6d703a3a5f7472616e73666572546f6b656e733a2063616e6e6f7420747281527f616e736665722066726f6d20746865207a65726f206164647265737300000000602082015260400192915050565b60006115e0603a83611841565b7f44656c65676174696f6e28616464726573732064656c6567617465652c75696e81527f74323536206e6f6e63652c75696e7432353620657870697279290000000000006020820152603a0192915050565b61130e81611865565b61130e8161186e565b61130e81611880565b61130e81611874565b6000611661826113ff565b915061166d8285611326565b60208201915061167d8284611326565b5060200192915050565b60006103a982611509565b60006103a9826115d3565b602081016103a98284611305565b602081016103a98284611314565b602081016103a9828461131d565b608081016116d5828761131d565b6116e26020830186611305565b6116ef604083018561131d565b6116fc606083018461131d565b95945050505050565b60808101611713828761131d565b611720602083018661131d565b61172d604083018561131d565b6116fc6060830184611305565b60808101611748828761131d565b6116e2602083018661163b565b602080825281016105138184611337565b602080825281016103a98161136f565b602080825281016103a9816113b7565b602080825281016103a98161141d565b602080825281016103a981611466565b602080825281016103a9816114aa565b602080825281016103a981611574565b602081016103a98284611632565b604081016117e28285611632565b610513602083018461164d565b602081016103a9828461163b565b602081016103a98284611644565b602081016103a9828461164d565b604081016118278285611644565b6105136020830184611644565b5190565b90815260200190565b919050565b60006103a982611859565b151590565b90565b6001600160a01b031690565b63ffffffff1690565b60ff1690565b6001600160601b031690565b60006103a982611874565b60005b838110156118a657818101518382015260200161188e565b83811115610d7e5750506000910152565b601f01601f191690565b6118ca81611846565b811461054457600080fd5b6118ca81611856565b6118ca81611865565b6118ca8161186e56fe436f6d703a3a5f7472616e73666572546f6b656e733a207472616e7366657220616d6f756e7420657863656564732062616c616e6365436f6d703a3a617070726f76653a20616d6f756e7420657863656564732039362062697473436f6d703a3a7472616e736665723a20616d6f756e7420657863656564732039362062697473436f6d703a3a5f7772697465436865636b706f696e743a20626c6f636b206e756d62657220657863656564732033322062697473436f6d703a3a5f6d6f7665566f7465733a20766f746520616d6f756e7420756e646572666c6f7773436f6d703a3a5f7472616e73666572546f6b656e733a207472616e7366657220616d6f756e74206f766572666c6f7773436f6d703a3a7472616e7366657246726f6d3a207472616e7366657220616d6f756e742065786365656473207370656e64657220616c6c6f77616e6365436f6d703a3a5f6d6f7665566f7465733a20766f746520616d6f756e74206f766572666c6f7773a365627a7a7231582024f560f566078d2de7c68e94b5fe6076561279bcbd593521eb7f2d8626bc27896c6578706572696d656e74616cf564736f6c63430005110040",
  "devdoc": {
    "methods": {
      "allowance(address,address)": {
        "params": {
          "account": "The address of the account holding the funds",
          "spender": "The address of the account spending the funds"
        },
        "return": "The number of tokens approved"
      },
      "approve(address,uint256)": {
        "details": "This will overwrite the approval amount for `spender` and is subject to issues noted [here](https://eips.ethereum.org/EIPS/eip-20#approve)",
        "params": {
          "rawAmount": "The number of tokens that are approved (2^256-1 means infinite)",
          "spender": "The address of the account which may transfer tokens"
        },
        "return": "Whether or not the approval succeeded"
      },
      "balanceOf(address)": {
        "params": {
          "account": "The address of the account to get the balance of"
        },
        "return": "The number of tokens held"
      },
      "constructor": {
        "params": {
          "account": "The initial account to grant all the tokens"
        }
      },
      "delegate(address)": {
        "params": {
          "delegatee": "The address to delegate votes to"
        }
      },
      "delegateBySig(address,uint256,uint256,uint8,bytes32,bytes32)": {
        "params": {
          "delegatee": "The address to delegate votes to",
          "expiry": "The time at which to expire the signature",
          "nonce": "The contract state required to match the signature",
          "r": "Half of the ECDSA signature pair",
          "s": "Half of the ECDSA signature pair",
          "v": "The recovery byte of the signature"
        }
      },
      "getCurrentVotes(address)": {
        "params": {
          "account": "The address to get votes balance"
        },
        "return": "The number of current votes for `account`"
      },
      "getPriorVotes(address,uint256)": {
        "details": "Block number must be a finalized block or else this function will revert to prevent misinformation.",
        "params": {
          "account": "The address of the account to check",
          "blockNumber": "The block number to get the vote balance at"
        },
        "return": "The number of votes the account had as of the given block"
      },
      "transfer(address,uint256)": {
        "params": {
          "dst": "The address of the destination account",
          "rawAmount": "The number of tokens to transfer"
        },
        "return": "Whether or not the transfer succeeded"
      },
      "transferFrom(address,address,uint256)": {
        "params": {
          "dst": "The address of the destination account",
          "rawAmount": "The number of tokens to transfer",
          "src": "The address of the source account"
        },
        "return": "Whether or not the transfer succeeded"
      }
    }
  },
  "userdoc": {
    "methods": {
      "allowance(address,address)": {
        "notice": "Get the number of tokens `spender` is approved to spend on behalf of `account`"
      },
      "approve(address,uint256)": {
        "notice": "Approve `spender` to transfer up to `amount` from `src`"
      },
      "balanceOf(address)": {
        "notice": "Get the number of tokens held by the `account`"
      },
      "constructor": "Construct a new Comp token",
      "delegate(address)": {
        "notice": "Delegate votes from `msg.sender` to `delegatee`"
      },
      "delegateBySig(address,uint256,uint256,uint8,bytes32,bytes32)": {
        "notice": "Delegates votes from signatory to `delegatee`"
      },
      "getCurrentVotes(address)": {
        "notice": "Gets the current votes balance for `account`"
      },
      "getPriorVotes(address,uint256)": {
        "notice": "Determine the prior number of votes for an account as of a block number"
      },
      "transfer(address,uint256)": {
        "notice": "Transfer `amount` tokens from `msg.sender` to `dst`"
      },
      "transferFrom(address,address,uint256)": {
        "notice": "Transfer `amount` tokens from `src` to `dst`"
      }
    }
  },
  "storageLayout": {
    "storage": [
      {
        "astId": 12893,
        "contract": "contracts/Governance/Comp.sol:Comp",
        "label": "allowances",
        "offset": 0,
        "slot": "0",
        "type": "t_mapping(t_address,t_mapping(t_address,t_uint96))"
      },
      {
        "astId": 12897,
        "contract": "contracts/Governance/Comp.sol:Comp",
        "label": "balances",
        "offset": 0,
        "slot": "1",
        "type": "t_mapping(t_address,t_uint96)"
      },
      {
        "astId": 12901,
        "contract": "contracts/Governance/Comp.sol:Comp",
        "label": "delegates",
        "offset": 0,
        "slot": "2",
        "type": "t_mapping(t_address,t_address)"
      },
      {
        "astId": 12912,
        "contract": "contracts/Governance/Comp.sol:Comp",
        "label": "checkpoints",
        "offset": 0,
        "slot": "3",
        "type": "t_mapping(t_address,t_mapping(t_uint32,t_struct(Checkpoint)12906_storage))"
      },
      {
        "astId": 12916,
        "contract": "contracts/Governance/Comp.sol:Comp",
        "label": "numCheckpoints",
        "offset": 0,
        "slot": "4",
        "type": "t_mapping(t_address,t_uint32)"
      },
      {
        "astId": 12930,
        "contract": "contracts/Governance/Comp.sol:Comp",
        "label": "nonces",
        "offset": 0,
        "slot": "5",
        "type": "t_mapping(t_address,t_uint256)"
      }
    ],
    "types": {
      "t_address": {
        "encoding": "inplace",
        "label": "address",
        "numberOfBytes": "20"
      },
      "t_mapping(t_address,t_address)": {
        "encoding": "mapping",
        "key": "t_address",
        "label": "mapping(address => address)",
        "numberOfBytes": "32",
        "value": "t_address"
      },
      "t_mapping(t_address,t_mapping(t_address,t_uint96))": {
        "encoding": "mapping",
        "key": "t_address",
        "label": "mapping(address => mapping(address => uint96))",
        "numberOfBytes": "32",
        "value": "t_mapping(t_address,t_uint96)"
      },
      "t_mapping(t_address,t_mapping(t_uint32,t_struct(Checkpoint)12906_storage))": {
        "encoding": "mapping",
        "key": "t_address",
        "label": "mapping(address => mapping(uint32 => struct Comp.Checkpoint))",
        "numberOfBytes": "32",
        "value": "t_mapping(t_uint32,t_struct(Checkpoint)12906_storage)"
      },
      "t_mapping(t_address,t_uint256)": {
        "encoding": "mapping",
        "key": "t_address",
        "label": "mapping(address => uint256)",
        "numberOfBytes": "32",
        "value": "t_uint256"
      },
      "t_mapping(t_address,t_uint32)": {
        "encoding": "mapping",
        "key": "t_address",
        "label": "mapping(address => uint32)",
        "numberOfBytes": "32",
        "value": "t_uint32"
      },
      "t_mapping(t_address,t_uint96)": {
        "encoding": "mapping",
        "key": "t_address",
        "label": "mapping(address => uint96)",
        "numberOfBytes": "32",
        "value": "t_uint96"
      },
      "t_mapping(t_uint32,t_struct(Checkpoint)12906_storage)": {
        "encoding": "mapping",
        "key": "t_uint32",
        "label": "mapping(uint32 => struct Comp.Checkpoint)",
        "numberOfBytes": "32",
        "value": "t_struct(Checkpoint)12906_storage"
      },
      "t_struct(Checkpoint)12906_storage": {
        "encoding": "inplace",
        "label": "struct Comp.Checkpoint",
        "members": [
          {
            "astId": 12903,
            "contract": "contracts/Governance/Comp.sol:Comp",
            "label": "fromBlock",
            "offset": 0,
            "slot": "0",
            "type": "t_uint32"
          },
          {
            "astId": 12905,
            "contract": "contracts/Governance/Comp.sol:Comp",
            "label": "votes",
            "offset": 4,
            "slot": "0",
            "type": "t_uint96"
          }
        ],
        "numberOfBytes": "32"
      },
      "t_uint256": {
        "encoding": "inplace",
        "label": "uint256",
        "numberOfBytes": "32"
      },
      "t_uint32": {
        "encoding": "inplace",
        "label": "uint32",
        "numberOfBytes": "4"
      },
      "t_uint96": {
        "encoding": "inplace",
        "label": "uint96",
        "numberOfBytes": "12"
      }
    }
  }
}