{
  "address": "0xA532c79E58ADAff2a869bc619b069ee7b22A5a85",
  "abi": [
    {
      "inputs": [
        {
          "internalType": "contract CToken",
          "name": "cToken",
          "type": "address"
        },
        {
          "internalType": "address payable",
          "name": "account",
          "type": "address"
        }
      ],
      "name": "cTokenBalances",
      "outputs": [
        {
          "components": [
            {
              "internalType": "address",
              "name": "cToken",
              "type": "address"
            },
            {
              "internalType": "uint256",
              "name": "balanceOf",
              "type": "uint256"
            },
            {
              "internalType": "uint256",
              "name": "borrowBalanceCurrent",
              "type": "uint256"
            },
            {
              "internalType": "uint256",
              "name": "balanceOfUnderlying",
              "type": "uint256"
            },
            {
              "internalType": "uint256",
              "name": "tokenBalance",
              "type": "uint256"
            },
            {
              "internalType": "uint256",
              "name": "tokenAllowance",
              "type": "uint256"
            }
          ],
          "internalType": "struct CompoundLens.CTokenBalances",
          "name": "",
          "type": "tuple"
        }
      ],
      "stateMutability": "nonpayable",
      "type": "function"
    },
    {
      "inputs": [
        {
          "internalType": "contract CToken[]",
          "name": "cTokens",
          "type": "address[]"
        },
        {
          "internalType": "address payable",
          "name": "account",
          "type": "address"
        }
      ],
      "name": "cTokenBalancesAll",
      "outputs": [
        {
          "components": [
            {
              "internalType": "address",
              "name": "cToken",
              "type": "address"
            },
            {
              "internalType": "uint256",
              "name": "balanceOf",
              "type": "uint256"
            },
            {
              "internalType": "uint256",
              "name": "borrowBalanceCurrent",
              "type": "uint256"
            },
            {
              "internalType": "uint256",
              "name": "balanceOfUnderlying",
              "type": "uint256"
            },
            {
              "internalType": "uint256",
              "name": "tokenBalance",
              "type": "uint256"
            },
            {
              "internalType": "uint256",
              "name": "tokenAllowance",
              "type": "uint256"
            }
          ],
          "internalType": "struct CompoundLens.CTokenBalances[]",
          "name": "",
          "type": "tuple[]"
        }
      ],
      "stateMutability": "nonpayable",
      "type": "function"
    },
    {
      "inputs": [
        {
          "internalType": "contract CToken",
          "name": "cToken",
          "type": "address"
        }
      ],
      "name": "cTokenMetadata",
      "outputs": [
        {
          "components": [
            {
              "internalType": "address",
              "name": "cToken",
              "type": "address"
            },
            {
              "internalType": "uint256",
              "name": "exchangeRateCurrent",
              "type": "uint256"
            },
            {
              "internalType": "uint256",
              "name": "supplyRatePerBlock",
              "type": "uint256"
            },
            {
              "internalType": "uint256",
              "name": "borrowRatePerBlock",
              "type": "uint256"
            },
            {
              "internalType": "uint256",
              "name": "reserveFactorMantissa",
              "type": "uint256"
            },
            {
              "internalType": "uint256",
              "name": "totalBorrows",
              "type": "uint256"
            },
            {
              "internalType": "uint256",
              "name": "totalReserves",
              "type": "uint256"
            },
            {
              "internalType": "uint256",
              "name": "totalSupply",
              "type": "uint256"
            },
            {
              "internalType": "uint256",
              "name": "totalCash",
              "type": "uint256"
            },
            {
              "internalType": "bool",
              "name": "isListed",
              "type": "bool"
            },
            {
              "internalType": "uint256",
              "name": "collateralFactorMantissa",
              "type": "uint256"
            },
            {
              "internalType": "address",
              "name": "underlyingAssetAddress",
              "type": "address"
            },
            {
              "internalType": "uint256",
              "name": "cTokenDecimals",
              "type": "uint256"
            },
            {
              "internalType": "uint256",
              "name": "underlyingDecimals",
              "type": "uint256"
            }
          ],
          "internalType": "struct CompoundLens.CTokenMetadata",
          "name": "",
          "type": "tuple"
        }
      ],
      "stateMutability": "nonpayable",
      "type": "function"
    },
    {
      "inputs": [
        {
          "internalType": "contract CToken[]",
          "name": "cTokens",
          "type": "address[]"
        }
      ],
      "name": "cTokenMetadataAll",
      "outputs": [
        {
          "components": [
            {
              "internalType": "address",
              "name": "cToken",
              "type": "address"
            },
            {
              "internalType": "uint256",
              "name": "exchangeRateCurrent",
              "type": "uint256"
            },
            {
              "internalType": "uint256",
              "name": "supplyRatePerBlock",
              "type": "uint256"
            },
            {
              "internalType": "uint256",
              "name": "borrowRatePerBlock",
              "type": "uint256"
            },
            {
              "internalType": "uint256",
              "name": "reserveFactorMantissa",
              "type": "uint256"
            },
            {
              "internalType": "uint256",
              "name": "totalBorrows",
              "type": "uint256"
            },
            {
              "internalType": "uint256",
              "name": "totalReserves",
              "type": "uint256"
            },
            {
              "internalType": "uint256",
              "name": "totalSupply",
              "type": "uint256"
            },
            {
              "internalType": "uint256",
              "name": "totalCash",
              "type": "uint256"
            },
            {
              "internalType": "bool",
              "name": "isListed",
              "type": "bool"
            },
            {
              "internalType": "uint256",
              "name": "collateralFactorMantissa",
              "type": "uint256"
            },
            {
              "internalType": "address",
              "name": "underlyingAssetAddress",
              "type": "address"
            },
            {
              "internalType": "uint256",
              "name": "cTokenDecimals",
              "type": "uint256"
            },
            {
              "internalType": "uint256",
              "name": "underlyingDecimals",
              "type": "uint256"
            }
          ],
          "internalType": "struct CompoundLens.CTokenMetadata[]",
          "name": "",
          "type": "tuple[]"
        }
      ],
      "stateMutability": "nonpayable",
      "type": "function"
    },
    {
      "inputs": [
        {
          "internalType": "contract CToken",
          "name": "cToken",
          "type": "address"
        }
      ],
      "name": "cTokenUnderlyingPrice",
      "outputs": [
        {
          "components": [
            {
              "internalType": "address",
              "name": "cToken",
              "type": "address"
            },
            {
              "internalType": "uint256",
              "name": "underlyingPrice",
              "type": "uint256"
            }
          ],
          "internalType": "struct CompoundLens.CTokenUnderlyingPrice",
          "name": "",
          "type": "tuple"
        }
      ],
      "stateMutability": "nonpayable",
      "type": "function"
    },
    {
      "inputs": [
        {
          "internalType": "contract CToken[]",
          "name": "cTokens",
          "type": "address[]"
        }
      ],
      "name": "cTokenUnderlyingPriceAll",
      "outputs": [
        {
          "components": [
            {
              "internalType": "address",
              "name": "cToken",
              "type": "address"
            },
            {
              "internalType": "uint256",
              "name": "underlyingPrice",
              "type": "uint256"
            }
          ],
          "internalType": "struct CompoundLens.CTokenUnderlyingPrice[]",
          "name": "",
          "type": "tuple[]"
        }
      ],
      "stateMutability": "nonpayable",
      "type": "function"
    },
    {
      "inputs": [
        {
          "internalType": "contract ComptrollerLensInterface",
          "name": "comptroller",
          "type": "address"
        },
        {
          "internalType": "address",
          "name": "account",
          "type": "address"
        }
      ],
      "name": "getAccountLimits",
      "outputs": [
        {
          "components": [
            {
              "internalType": "contract CToken[]",
              "name": "markets",
              "type": "address[]"
            },
            {
              "internalType": "uint256",
              "name": "liquidity",
              "type": "uint256"
            },
            {
              "internalType": "uint256",
              "name": "shortfall",
              "type": "uint256"
            }
          ],
          "internalType": "struct CompoundLens.AccountLimits",
          "name": "",
          "type": "tuple"
        }
      ],
      "stateMutability": "nonpayable",
      "type": "function"
    },
    {
      "inputs": [
        {
          "internalType": "contract Blo",
          "name": "comp",
          "type": "address"
        },
        {
          "internalType": "address",
          "name": "account",
          "type": "address"
        }
      ],
      "name": "getCompBalanceMetadata",
      "outputs": [
        {
          "components": [
            {
              "internalType": "uint256",
              "name": "balance",
              "type": "uint256"
            },
            {
              "internalType": "uint256",
              "name": "votes",
              "type": "uint256"
            },
            {
              "internalType": "address",
              "name": "delegate",
              "type": "address"
            }
          ],
          "internalType": "struct CompoundLens.CompBalanceMetadata",
          "name": "",
          "type": "tuple"
        }
      ],
      "stateMutability": "view",
      "type": "function"
    },
    {
      "inputs": [
        {
          "internalType": "contract Blo",
          "name": "comp",
          "type": "address"
        },
        {
          "internalType": "contract ComptrollerLensInterface",
          "name": "comptroller",
          "type": "address"
        },
        {
          "internalType": "address",
          "name": "account",
          "type": "address"
        }
      ],
      "name": "getCompBalanceMetadataExt",
      "outputs": [
        {
          "components": [
            {
              "internalType": "uint256",
              "name": "balance",
              "type": "uint256"
            },
            {
              "internalType": "uint256",
              "name": "votes",
              "type": "uint256"
            },
            {
              "internalType": "address",
              "name": "delegate",
              "type": "address"
            },
            {
              "internalType": "uint256",
              "name": "allocated",
              "type": "uint256"
            }
          ],
          "internalType": "struct CompoundLens.CompBalanceMetadataExt",
          "name": "",
          "type": "tuple"
        }
      ],
      "stateMutability": "nonpayable",
      "type": "function"
    },
    {
      "inputs": [
        {
          "internalType": "contract Blo",
          "name": "comp",
          "type": "address"
        },
        {
          "internalType": "address",
          "name": "account",
          "type": "address"
        },
        {
          "internalType": "uint32[]",
          "name": "blockNumbers",
          "type": "uint32[]"
        }
      ],
      "name": "getCompVotes",
      "outputs": [
        {
          "components": [
            {
              "internalType": "uint256",
              "name": "blockNumber",
              "type": "uint256"
            },
            {
              "internalType": "uint256",
              "name": "votes",
              "type": "uint256"
            }
          ],
          "internalType": "struct CompoundLens.CompVotes[]",
          "name": "",
          "type": "tuple[]"
        }
      ],
      "stateMutability": "view",
      "type": "function"
    },
    {
      "inputs": [
        {
          "internalType": "contract GovernorAlpha",
          "name": "governor",
          "type": "address"
        },
        {
          "internalType": "uint256[]",
          "name": "proposalIds",
          "type": "uint256[]"
        }
      ],
      "name": "getGovProposals",
      "outputs": [
        {
          "components": [
            {
              "internalType": "uint256",
              "name": "proposalId",
              "type": "uint256"
            },
            {
              "internalType": "address",
              "name": "proposer",
              "type": "address"
            },
            {
              "internalType": "uint256",
              "name": "eta",
              "type": "uint256"
            },
            {
              "internalType": "address[]",
              "name": "targets",
              "type": "address[]"
            },
            {
              "internalType": "uint256[]",
              "name": "values",
              "type": "uint256[]"
            },
            {
              "internalType": "string[]",
              "name": "signatures",
              "type": "string[]"
            },
            {
              "internalType": "bytes[]",
              "name": "calldatas",
              "type": "bytes[]"
            },
            {
              "internalType": "uint256",
              "name": "startBlock",
              "type": "uint256"
            },
            {
              "internalType": "uint256",
              "name": "endBlock",
              "type": "uint256"
            },
            {
              "internalType": "uint256",
              "name": "forVotes",
              "type": "uint256"
            },
            {
              "internalType": "uint256",
              "name": "againstVotes",
              "type": "uint256"
            },
            {
              "internalType": "bool",
              "name": "canceled",
              "type": "bool"
            },
            {
              "internalType": "bool",
              "name": "executed",
              "type": "bool"
            }
          ],
          "internalType": "struct CompoundLens.GovProposal[]",
          "name": "",
          "type": "tuple[]"
        }
      ],
      "stateMutability": "view",
      "type": "function"
    },
    {
      "inputs": [
        {
          "internalType": "contract GovernorAlpha",
          "name": "governor",
          "type": "address"
        },
        {
          "internalType": "address",
          "name": "voter",
          "type": "address"
        },
        {
          "internalType": "uint256[]",
          "name": "proposalIds",
          "type": "uint256[]"
        }
      ],
      "name": "getGovReceipts",
      "outputs": [
        {
          "components": [
            {
              "internalType": "uint256",
              "name": "proposalId",
              "type": "uint256"
            },
            {
              "internalType": "bool",
              "name": "hasVoted",
              "type": "bool"
            },
            {
              "internalType": "bool",
              "name": "support",
              "type": "bool"
            },
            {
              "internalType": "uint96",
              "name": "votes",
              "type": "uint96"
            }
          ],
          "internalType": "struct CompoundLens.GovReceipt[]",
          "name": "",
          "type": "tuple[]"
        }
      ],
      "stateMutability": "view",
      "type": "function"
    }
  ],
  "transactionHash": "0x43430cd5e81b6860584e4219e0e655593730e7be3c3088f6229f458c94274c9f",
  "args": [],
  "solcInputHash": "b27eaf7800c139524c7c0c3d12ff6608",
  "bytecode": "0x608060405234801561001057600080fd5b50612ef1806100206000396000f3fe608060405234801561001057600080fd5b50600436106100b45760003560e01c8063595642191161007157806359564219146101825780637dd8f6d9146101a257806396994869146101c2578063995ed99f146101e2578063bdf950c914610202578063c5ae593414610222576100b4565b80630972bf8b146100b9578063158eca8b146100e25780631ea63741146101025780632b2d5ed614610122578063416405d7146101425780634b70d84b14610162575b600080fd5b6100cc6100c7366004612319565b610242565b6040516100d99190612a50565b60405180910390f35b6100f56100f036600461250a565b6102f7565b6040516100d99190612d93565b6101156101103660046124cb565b610a7b565b6040516100d99190612db0565b6101356101303660046122da565b610e02565b6040516100d99190612ae1565b610155610150366004612431565b610eb2565b6040516100d99190612de4565b6101756101703660046122da565b61105b565b6040516100d99190612a9e565b610195610190366004612469565b611100565b6040516100d99190612b21565b6101b56101b0366004612431565b611261565b6040516100d99190612d16565b6101d56101d03660046125dc565b61139d565b6040516100d99190612b63565b6101f56101f0366004612526565b61156c565b6040516100d99190612c9f565b610215610210366004612431565b6116d8565b6040516100d99190612d85565b61023561023036600461250a565b611a78565b6040516100d99190612da2565b60608281816001600160401b038111801561025c57600080fd5b5060405190808252806020026020018201604052801561029657816020015b610283611de7565b81526020019060019003908161027b5790505b50905060005b828110156102ed576102ce8787838181106102b357fe5b90506020020160208101906102c8919061250a565b866116d8565b8282815181106102da57fe5b602090810291909101015260010161029c565b5095945050505050565b6102ff611e26565b6000826001600160a01b031663bd6d894d6040518163ffffffff1660e01b8152600401602060405180830381600087803b15801561033c57600080fd5b505af1158015610350573d6000803e3d6000fd5b505050506040513d601f19601f8201168201806040525081019061037491906126ba565b90506000836001600160a01b0316635fe3b5676040518163ffffffff1660e01b815260040160206040518083038186803b1580156103b157600080fd5b505afa1580156103c5573d6000803e3d6000fd5b505050506040513d601f19601f820116820180604052508101906103e991906121ae565b9050600080826001600160a01b0316638e8f294b876040518263ffffffff1660e01b815260040161041a9190612a03565b604080518083038186803b15801561043157600080fd5b505afa158015610445573d6000803e3d6000fd5b505050506040513d601f19601f820116820180604052508101906104699190612405565b9150915060008061050a886001600160a01b03166395d89b416040518163ffffffff1660e01b815260040160006040518083038186803b1580156104ac57600080fd5b505afa1580156104c0573d6000803e3d6000fd5b505050506040513d6000823e601f3d908101601f191682016040526104e8919081019061262e565b604051806040016040528060048152602001630c48aa8960e31b815250611c0c565b1561051b575060009050601261067b565b6000889050806001600160a01b0316636f307dc36040518163ffffffff1660e01b815260040160206040518083038186803b15801561055957600080fd5b505afa15801561056d573d6000803e3d6000fd5b505050506040513d601f19601f8201168201806040525081019061059191906121ae565b9250806001600160a01b0316636f307dc36040518163ffffffff1660e01b815260040160206040518083038186803b1580156105cc57600080fd5b505afa1580156105e0573d6000803e3d6000fd5b505050506040513d601f19601f8201168201806040525081019061060491906121ae565b6001600160a01b031663313ce5676040518163ffffffff1660e01b815260040160206040518083038186803b15801561063c57600080fd5b505afa158015610650573d6000803e3d6000fd5b505050506040513d601f19601f8201168201806040525081019061067491906127a6565b60ff169150505b604051806101c00160405280896001600160a01b03168152602001878152602001896001600160a01b031663ae9d70b06040518163ffffffff1660e01b815260040160206040518083038186803b1580156106d557600080fd5b505afa1580156106e9573d6000803e3d6000fd5b505050506040513d601f19601f8201168201806040525081019061070d91906126ba565b8152602001896001600160a01b031663f8f9da286040518163ffffffff1660e01b815260040160206040518083038186803b15801561074b57600080fd5b505afa15801561075f573d6000803e3d6000fd5b505050506040513d601f19601f8201168201806040525081019061078391906126ba565b8152602001896001600160a01b031663173b99046040518163ffffffff1660e01b815260040160206040518083038186803b1580156107c157600080fd5b505afa1580156107d5573d6000803e3d6000fd5b505050506040513d601f19601f820116820180604052508101906107f991906126ba565b8152602001896001600160a01b03166347bd37186040518163ffffffff1660e01b815260040160206040518083038186803b15801561083757600080fd5b505afa15801561084b573d6000803e3d6000fd5b505050506040513d601f19601f8201168201806040525081019061086f91906126ba565b8152602001896001600160a01b0316638f840ddd6040518163ffffffff1660e01b815260040160206040518083038186803b1580156108ad57600080fd5b505afa1580156108c1573d6000803e3d6000fd5b505050506040513d601f19601f820116820180604052508101906108e591906126ba565b8152602001896001600160a01b03166318160ddd6040518163ffffffff1660e01b815260040160206040518083038186803b15801561092357600080fd5b505afa158015610937573d6000803e3d6000fd5b505050506040513d601f19601f8201168201806040525081019061095b91906126ba565b8152602001896001600160a01b0316633b1d21a26040518163ffffffff1660e01b815260040160206040518083038186803b15801561099957600080fd5b505afa1580156109ad573d6000803e3d6000fd5b505050506040513d601f19601f820116820180604052508101906109d191906126ba565b81526020018515158152602001848152602001836001600160a01b03168152602001896001600160a01b031663313ce5676040518163ffffffff1660e01b815260040160206040518083038186803b158015610a2c57600080fd5b505afa158015610a40573d6000803e3d6000fd5b505050506040513d601f19601f82011682018060405250810190610a6491906127a6565b60ff16815260200191909152979650505050505050565b610a83611ea9565b6040516370a0823160e01b81526000906001600160a01b038616906370a0823190610ab2908690600401612a03565b60206040518083038186803b158015610aca57600080fd5b505afa158015610ade573d6000803e3d6000fd5b505050506040513d601f19601f82011682018060405250810190610b0291906126ba565b6040516374d7814960e11b81529091506001600160a01b0385169063e9af029290610b31908690600401612a03565b600060405180830381600087803b158015610b4b57600080fd5b505af1158015610b5f573d6000803e3d6000fd5b50506040516370a0823160e01b8152600092506001600160a01b03881691506370a0823190610b92908790600401612a03565b60206040518083038186803b158015610baa57600080fd5b505afa158015610bbe573d6000803e3d6000fd5b505050506040513d601f19601f82011682018060405250810190610be291906126ba565b90506000856001600160a01b031663cc7ebdc4866040518263ffffffff1660e01b8152600401610c129190612a03565b60206040518083038186803b158015610c2a57600080fd5b505afa158015610c3e573d6000803e3d6000fd5b505050506040513d601f19601f82011682018060405250810190610c6291906126ba565b90506000610c9782846040518060400160405280600e81526020016d1cdd5b4818dbdb5c081d1bdd185b60921b815250611c65565b90506000610ccb82866040518060400160405280600d81526020016c1cdd5888185b1b1bd8d85d1959609a1b815250611c95565b905060405180608001604052808681526020018a6001600160a01b031663b4b5ea578a6040518263ffffffff1660e01b8152600401610d0a9190612a03565b60206040518083038186803b158015610d2257600080fd5b505afa158015610d36573d6000803e3d6000fd5b505050506040513d601f19601f82011682018060405250810190610d5a91906127c7565b6001600160601b031681526020018a6001600160a01b031663587cde1e8a6040518263ffffffff1660e01b8152600401610d949190612a03565b60206040518083038186803b158015610dac57600080fd5b505afa158015610dc0573d6000803e3d6000fd5b505050506040513d601f19601f82011682018060405250810190610de491906121ae565b6001600160a01b031681526020019190915298975050505050505050565b60608181816001600160401b0381118015610e1c57600080fd5b50604051908082528060200260200182016040528015610e5657816020015b610e43611eda565b815260200190600190039081610e3b5790505b50905060005b82811015610ea757610e88868683818110610e7357fe5b9050602002016020810190610230919061250a565b828281518110610e9457fe5b6020908102919091010152600101610e5c565b509150505b92915050565b610eba611ef1565b6040805160608101918290526370a0823160e01b909152806001600160a01b0385166370a08231610eee8660648501612a03565b60206040518083038186803b158015610f0657600080fd5b505afa158015610f1a573d6000803e3d6000fd5b505050506040513d601f19601f82011682018060405250810190610f3e91906126ba565b8152602001846001600160a01b031663b4b5ea57856040518263ffffffff1660e01b8152600401610f6f9190612a03565b60206040518083038186803b158015610f8757600080fd5b505afa158015610f9b573d6000803e3d6000fd5b505050506040513d601f19601f82011682018060405250810190610fbf91906127c7565b6001600160601b03168152602001846001600160a01b031663587cde1e856040518263ffffffff1660e01b8152600401610ff99190612a03565b60206040518083038186803b15801561101157600080fd5b505afa158015611025573d6000803e3d6000fd5b505050506040513d601f19601f8201168201806040525081019061104991906121ae565b6001600160a01b031690529392505050565b60608181816001600160401b038111801561107557600080fd5b506040519080825280602002602001820160405280156110af57816020015b61109c611e26565b8152602001906001900390816110945790505b50905060005b82811015610ea7576110e18686838181106110cc57fe5b90506020020160208101906100f0919061250a565b8282815181106110ed57fe5b60209081029190910101526001016110b5565b606080826001600160401b038111801561111957600080fd5b5060405190808252806020026020018201604052801561115357816020015b611140611f1b565b8152602001906001900390816111385790505b50905060005b838110156102ed57604051806040016040528086868481811061117857fe5b905060200201602081019061118d9190612782565b63ffffffff168152602001886001600160a01b031663782d6fe1898989878181106111b457fe5b90506020020160208101906111c99190612782565b6040518363ffffffff1660e01b81526004016111e6929190612a31565b60206040518083038186803b1580156111fe57600080fd5b505afa158015611212573d6000803e3d6000fd5b505050506040513d601f19601f8201168201806040525081019061123691906127c7565b6001600160601b031681525082828151811061124e57fe5b6020908102919091010152600101611159565b611269611f35565b6000806000856001600160a01b0316635ec88c79866040518263ffffffff1660e01b815260040161129a9190612a03565b60606040518083038186803b1580156112b257600080fd5b505afa1580156112c6573d6000803e3d6000fd5b505050506040513d601f19601f820116820180604052508101906112ea9190612755565b925092509250826000146112fd57600080fd5b604080516060810191829052632aff3bff60e21b909152806001600160a01b03881663abfceffc6113318960648501612a03565b60006040518083038186803b15801561134957600080fd5b505afa15801561135d573d6000803e3d6000fd5b505050506040513d6000823e601f3d908101601f19168201604052611385919081019061236d565b81526020810193909352604090920152949350505050565b606080826001600160401b03811180156113b657600080fd5b506040519080825280602002602001820160405280156113f057816020015b6113dd611f56565b8152602001906001900390816113d55790505b50905060005b8381101561156357606080606080896001600160a01b031663328dd9828a8a8881811061141f57fe5b905060200201356040518263ffffffff1660e01b81526004016114429190612e0e565b60006040518083038186803b15801561145a57600080fd5b505afa15801561146e573d6000803e3d6000fd5b505050506040513d6000823e601f3d908101601f1916820160405261149691908101906121d1565b9350935093509350604051806101a001604052806000815260200160006001600160a01b0316815260200160008152602001858152602001848152602001838152602001828152602001600081526020016000815260200160008152602001600081526020016000151581526020016000151581525086868151811061151857fe5b602002602001018190525061155386868151811061153257fe5b60200260200101518b8b8b8981811061154757fe5b90506020020135611cc1565b5050600190920191506113f69050565b50949350505050565b805160609081816001600160401b038111801561158857600080fd5b506040519080825280602002602001820160405280156115c257816020015b6115af611fcb565b8152602001906001900390816115a75790505b50905060005b828110156102ed576115d8611ff2565b876001600160a01b031663e23a9a528784815181106115f357fe5b6020026020010151896040518363ffffffff1660e01b8152600401611619929190612e17565b60606040518083038186803b15801561163157600080fd5b505afa158015611645573d6000803e3d6000fd5b505050506040513d601f19601f820116820180604052508101906116699190612668565b9050604051806080016040528087848151811061168257fe5b6020026020010151815260200182600001511515815260200182602001511515815260200182604001516001600160601b03168152508383815181106116c457fe5b6020908102919091010152506001016115c8565b6116e0611de7565b6040516370a0823160e01b81526000906001600160a01b038516906370a082319061170f908690600401612a03565b60206040518083038186803b15801561172757600080fd5b505afa15801561173b573d6000803e3d6000fd5b505050506040513d601f19601f8201168201806040525081019061175f91906126ba565b90506000846001600160a01b03166317bfdfbc856040518263ffffffff1660e01b815260040161178f9190612a03565b602060405180830381600087803b1580156117a957600080fd5b505af11580156117bd573d6000803e3d6000fd5b505050506040513d601f19601f820116820180604052508101906117e191906126ba565b90506000856001600160a01b0316633af9e669866040518263ffffffff1660e01b81526004016118119190612a03565b602060405180830381600087803b15801561182b57600080fd5b505af115801561183f573d6000803e3d6000fd5b505050506040513d601f19601f8201168201806040525081019061186391906126ba565b90506000806118a4886001600160a01b03166395d89b416040518163ffffffff1660e01b815260040160006040518083038186803b1580156104ac57600080fd5b156118be5750506001600160a01b03851680319031611a3b565b60008890506000816001600160a01b0316636f307dc36040518163ffffffff1660e01b815260040160206040518083038186803b1580156118fe57600080fd5b505afa158015611912573d6000803e3d6000fd5b505050506040513d601f19601f8201168201806040525081019061193691906121ae565b6040516370a0823160e01b81529091506001600160a01b038216906370a0823190611965908c90600401612a03565b60206040518083038186803b15801561197d57600080fd5b505afa158015611991573d6000803e3d6000fd5b505050506040513d601f19601f820116820180604052508101906119b591906126ba565b604051636eb1769f60e11b81529094506001600160a01b0382169063dd62ed3e906119e6908c908e90600401612a17565b60206040518083038186803b1580156119fe57600080fd5b505afa158015611a12573d6000803e3d6000fd5b505050506040513d601f19601f82011682018060405250810190611a3691906126ba565b925050505b6040805160c0810182526001600160a01b039990991689526020890195909552938701929092526060860152608085015260a08401525090919050565b611a80611eda565b6000826001600160a01b0316635fe3b5676040518163ffffffff1660e01b815260040160206040518083038186803b158015611abb57600080fd5b505afa158015611acf573d6000803e3d6000fd5b505050506040513d601f19601f82011682018060405250810190611af391906121ae565b90506000816001600160a01b0316637dc0d1d06040518163ffffffff1660e01b815260040160206040518083038186803b158015611b3057600080fd5b505afa158015611b44573d6000803e3d6000fd5b505050506040513d601f19601f82011682018060405250810190611b6891906121ae565b90506040518060400160405280856001600160a01b03168152602001826001600160a01b031663fc57d4df876040518263ffffffff1660e01b8152600401611bb09190612a03565b602060405180830381600087803b158015611bca57600080fd5b505af1158015611bde573d6000803e3d6000fd5b505050506040513d601f19601f82011682018060405250810190611c0291906126ba565b9052949350505050565b600081604051602001611c1f91906129e7565b6040516020818303038152906040528051906020012083604051602001611c4691906129e7565b6040516020818303038152906040528051906020012014905092915050565b600083830182858210156115635760405162461bcd60e51b8152600401611c8c9190612d03565b60405180910390fd5b60008184841115611cb95760405162461bcd60e51b8152600401611c8c9190612d03565b505050900390565b600080600080600080600080896001600160a01b031663013cf08b8a6040518263ffffffff1660e01b8152600401611cf99190612e0e565b6101206040518083038186803b158015611d1257600080fd5b505afa158015611d26573d6000803e3d6000fd5b505050506040513d601f19601f82011682018060405250810190611d4a91906126d2565b9850985098509850985098509850985050888b6000018181525050878b602001906001600160a01b031690816001600160a01b031681525050868b6040018181525050858b60e0018181525050848b610100018181525050838b610120018181525050828b610140018181525050818b610160019015159081151581525050808b6101800190151590811515815250505050505050505050505050565b6040518060c0016040528060006001600160a01b0316815260200160008152602001600081526020016000815260200160008152602001600081525090565b604051806101c0016040528060006001600160a01b0316815260200160008152602001600081526020016000815260200160008152602001600081526020016000815260200160008152602001600081526020016000151581526020016000815260200160006001600160a01b0316815260200160008152602001600081525090565b6040518060800160405280600081526020016000815260200160006001600160a01b03168152602001600081525090565b604080518082019091526000808252602082015290565b6040518060600160405280600081526020016000815260200160006001600160a01b031681525090565b604051806040016040528060008152602001600081525090565b60405180606001604052806060815260200160008152602001600081525090565b604051806101a001604052806000815260200160006001600160a01b031681526020016000815260200160608152602001606081526020016060815260200160608152602001600081526020016000815260200160008152602001600081526020016000151581526020016000151581525090565b60408051608081018252600080825260208201819052918101829052606081019190915290565b604080516060810182526000808252602082018190529181019190915290565b600082601f830112612022578081fd5b815161203561203082612e54565b612e2e565b818152915060208083019084810160005b8481101561206f5761205d888484518a0101612130565b84529282019290820190600101612046565b505050505092915050565b60008083601f84011261208b578182fd5b5081356001600160401b038111156120a1578182fd5b60208301915083602080830285010111156120bb57600080fd5b9250929050565b600082601f8301126120d2578081fd5b81516120e061203082612e54565b81815291506020808301908481018184028601820187101561210157600080fd5b60005b8481101561206f57815184529282019290820190600101612104565b80518015158114610eac57600080fd5b600082601f830112612140578081fd5b81516001600160401b03811115612155578182fd5b612168601f8201601f1916602001612e2e565b915080825283602082850101111561217f57600080fd5b612190816020840160208601612e73565b5092915050565b80516001600160601b0381168114610eac57600080fd5b6000602082840312156121bf578081fd5b81516121ca81612ea3565b9392505050565b600080600080608085870312156121e6578283fd5b84516001600160401b03808211156121fc578485fd5b818701915087601f83011261220f578485fd5b815161221d61203082612e54565b80828252602080830192508086018c82838702890101111561223d57898afd5b8996505b8487101561226857805161225481612ea3565b845260019690960195928101928101612241565b508a0151909850935050508082111561227f578485fd5b61228b888389016120c2565b945060408701519150808211156122a0578384fd5b6122ac88838901612012565b935060608701519150808211156122c1578283fd5b506122ce87828801612012565b91505092959194509250565b600080602083850312156122ec578182fd5b82356001600160401b03811115612301578283fd5b61230d8582860161207a565b90969095509350505050565b60008060006040848603121561232d578081fd5b83356001600160401b03811115612342578182fd5b61234e8682870161207a565b909450925050602084013561236281612ea3565b809150509250925092565b6000602080838503121561237f578182fd5b82516001600160401b03811115612394578283fd5b8301601f810185136123a4578283fd5b80516123b261203082612e54565b81815283810190838501858402850186018910156123ce578687fd5b8694505b838510156123f95780516123e581612ea3565b8352600194909401939185019185016123d2565b50979650505050505050565b60008060408385031215612417578182fd5b6124218484612120565b9150602083015190509250929050565b60008060408385031215612443578182fd5b823561244e81612ea3565b9150602083013561245e81612ea3565b809150509250929050565b6000806000806060858703121561247e578182fd5b843561248981612ea3565b9350602085013561249981612ea3565b925060408501356001600160401b038111156124b3578283fd5b6124bf8782880161207a565b95989497509550505050565b6000806000606084860312156124df578081fd5b83356124ea81612ea3565b925060208401356124fa81612ea3565b9150604084013561236281612ea3565b60006020828403121561251b578081fd5b81356121ca81612ea3565b60008060006060848603121561253a578081fd5b833561254581612ea3565b925060208481013561255681612ea3565b925060408501356001600160401b03811115612570578283fd5b8501601f81018713612580578283fd5b803561258e61203082612e54565b81815283810190838501858402850186018b10156125aa578687fd5b8694505b838510156125cc5780358352600194909401939185019185016125ae565b5080955050505050509250925092565b6000806000604084860312156125f0578081fd5b83356125fb81612ea3565b925060208401356001600160401b03811115612615578182fd5b6126218682870161207a565b9497909650939450505050565b60006020828403121561263f578081fd5b81516001600160401b03811115612654578182fd5b61266084828501612130565b949350505050565b600060608284031215612679578081fd5b6126836060612e2e565b61268d8484612120565b815261269c8460208501612120565b60208201526126ae8460408501612197565b60408201529392505050565b6000602082840312156126cb578081fd5b5051919050565b60008060008060008060008060006101208a8c0312156126f0578687fd5b8951985060208a015161270281612ea3565b8098505060408a0151965060608a0151955060808a0151945060a08a0151935060c08a015192506127368b60e08c01612120565b91506127468b6101008c01612120565b90509295985092959850929598565b600080600060608486031215612769578081fd5b8351925060208401519150604084015190509250925092565b600060208284031215612793578081fd5b813563ffffffff811681146121ca578182fd5b6000602082840312156127b7578081fd5b815160ff811681146121ca578182fd5b6000602082840312156127d8578081fd5b6121ca8383612197565b6001600160a01b03169052565b6000815180845260208085019450808401835b838110156128275781516001600160a01b031687529582019590820190600101612802565b509495945050505050565b6000815180845260208085018081965082840281019150828601855b858110156128785782840389526128668483516128ba565b9885019893509084019060010161284e565b5091979650505050505050565b6000815180845260208085019450808401835b8381101561282757815187529582019590820190600101612898565b15159052565b600081518084526128d2816020860160208601612e73565b601f01601f19169290920160200192915050565b80516001600160a01b031682526020808201519083015260408082015190830152606080820151908301526080808201519083015260a090810151910152565b6129318282516127e2565b6020810151602083015260408101516040830152606081015160608301526080810151608083015260a081015160a083015260c081015160c083015260e081015160e083015261010080820151818401525061012080820151612996828501826128b4565b50506101408181015190830152610160808201516129b6828501826127e2565b505061018081810151908301526101a090810151910152565b80516001600160a01b03168252602090810151910152565b600082516129f9818460208701612e73565b9190910192915050565b6001600160a01b0391909116815260200190565b6001600160a01b0392831681529116602082015260400190565b6001600160a01b0392909216825263ffffffff16602082015260400190565b6020808252825182820181905260009190848201906040850190845b81811015612a9257612a7f8385516128e6565b9284019260c09290920191600101612a6c565b50909695505050505050565b6020808252825182820181905260009190848201906040850190845b81811015612a9257612acd838551612926565b928401926101c09290920191600101612aba565b602080825282518282018190526000919060409081850190868401855b8281101561287857612b118483516129cf565b9284019290850190600101612afe565b602080825282518282018190526000919060409081850190868401855b8281101561287857815180518552860151868501529284019290850190600101612b3e565b60208082528251828201819052600091906040908185019080840286018301878501865b83811015612c9157603f1989840301855281516101a08151855288820151612bb18a8701826127e2565b5087820151888601526060808301518282880152612bd1838801826127ef565b9250505060808083015186830382880152612bec8382612885565b9250505060a08083015186830382880152612c078382612832565b9250505060c08083015186830382880152612c228382612832565b60e085810151908901526101008086015190890152610120808601519089015261014080860151908901526101608086015191945092509050612c67828801826128b4565b50506101809182015191612c7d868201846128b4565b509588019593505090860190600101612b87565b509098975050505050505050565b602080825282518282018190526000919060409081850190868401855b828110156128785781518051855286810151151587860152858101511515868601526060908101516001600160601b03169085015260809093019290850190600101612cbc565b6000602082526121ca60208301846128ba565b6020808252825160608383015280516080840181905260009291820190839060a08601905b80831015612d645783516001600160a01b03168252928401926001929092019190840190612d3b565b50838701516040870152604087015160608701528094505050505092915050565b60c08101610eac82846128e6565b6101c08101610eac8284612926565b60408101610eac82846129cf565b81518152602080830151908201526040808301516001600160a01b0316908201526060918201519181019190915260800190565b81518152602080830151908201526040918201516001600160a01b03169181019190915260600190565b90815260200190565b9182526001600160a01b0316602082015260400190565b6040518181016001600160401b0381118282101715612e4c57600080fd5b604052919050565b60006001600160401b03821115612e69578081fd5b5060209081020190565b60005b83811015612e8e578181015183820152602001612e76565b83811115612e9d576000848401525b50505050565b6001600160a01b0381168114612eb857600080fd5b5056fea2646970667358221220a6c7a6bac7857d3e22e241d94908cc11c45b7ad1b44aab93b5a0715c98ca18f964736f6c634300060c0033",
  "devdoc": {
    "kind": "dev",
    "methods": {},
    "version": 1
  },
  "userdoc": {
    "kind": "user",
    "methods": {},
    "version": 1
  },
  "storageLayout": {
    "storage": [],
    "types": null
  }
}