{
  "address": "0xeC5bfA0775b7Aa90bf6BB8580AbDAbcB4C376880",
  "abi": [
    {
      "inputs": [],
      "payable": false,
      "stateMutability": "nonpayable",
      "type": "constructor"
    },
    {
      "anonymous": false,
      "inputs": [
        {
          "indexed": false,
          "internalType": "string",
          "name": "action",
          "type": "string"
        },
        {
          "indexed": false,
          "internalType": "bool",
          "name": "pauseState",
          "type": "bool"
        }
      ],
      "name": "ActionPaused",
      "type": "event"
    },
    {
      "anonymous": false,
      "inputs": [
        {
          "indexed": false,
          "internalType": "contract CToken",
          "name": "cToken",
          "type": "address"
        },
        {
          "indexed": false,
          "internalType": "string",
          "name": "action",
          "type": "string"
        },
        {
          "indexed": false,
          "internalType": "bool",
          "name": "pauseState",
          "type": "bool"
        }
      ],
      "name": "ActionPaused",
      "type": "event"
    },
    {
      "anonymous": false,
      "inputs": [
        {
          "indexed": true,
          "internalType": "contract CToken",
          "name": "cToken",
          "type": "address"
        },
        {
          "indexed": false,
          "internalType": "uint256",
          "name": "newSpeed",
          "type": "uint256"
        }
      ],
      "name": "CompSpeedUpdated",
      "type": "event"
    },
    {
      "anonymous": false,
      "inputs": [
        {
          "indexed": true,
          "internalType": "contract CToken",
          "name": "cToken",
          "type": "address"
        },
        {
          "indexed": true,
          "internalType": "address",
          "name": "borrower",
          "type": "address"
        },
        {
          "indexed": false,
          "internalType": "uint256",
          "name": "compDelta",
          "type": "uint256"
        },
        {
          "indexed": false,
          "internalType": "uint256",
          "name": "compBorrowIndex",
          "type": "uint256"
        }
      ],
      "name": "DistributedBorrowerComp",
      "type": "event"
    },
    {
      "anonymous": false,
      "inputs": [
        {
          "indexed": true,
          "internalType": "contract CToken",
          "name": "cToken",
          "type": "address"
        },
        {
          "indexed": true,
          "internalType": "address",
          "name": "supplier",
          "type": "address"
        },
        {
          "indexed": false,
          "internalType": "uint256",
          "name": "compDelta",
          "type": "uint256"
        },
        {
          "indexed": false,
          "internalType": "uint256",
          "name": "compSupplyIndex",
          "type": "uint256"
        }
      ],
      "name": "DistributedSupplierComp",
      "type": "event"
    },
    {
      "anonymous": false,
      "inputs": [
        {
          "indexed": false,
          "internalType": "uint256",
          "name": "error",
          "type": "uint256"
        },
        {
          "indexed": false,
          "internalType": "uint256",
          "name": "info",
          "type": "uint256"
        },
        {
          "indexed": false,
          "internalType": "uint256",
          "name": "detail",
          "type": "uint256"
        }
      ],
      "name": "Failure",
      "type": "event"
    },
    {
      "anonymous": false,
      "inputs": [
        {
          "indexed": false,
          "internalType": "contract CToken",
          "name": "cToken",
          "type": "address"
        },
        {
          "indexed": false,
          "internalType": "bool",
          "name": "isComped",
          "type": "bool"
        }
      ],
      "name": "MarketComped",
      "type": "event"
    },
    {
      "anonymous": false,
      "inputs": [
        {
          "indexed": false,
          "internalType": "contract CToken",
          "name": "cToken",
          "type": "address"
        },
        {
          "indexed": false,
          "internalType": "address",
          "name": "account",
          "type": "address"
        }
      ],
      "name": "MarketEntered",
      "type": "event"
    },
    {
      "anonymous": false,
      "inputs": [
        {
          "indexed": false,
          "internalType": "contract CToken",
          "name": "cToken",
          "type": "address"
        },
        {
          "indexed": false,
          "internalType": "address",
          "name": "account",
          "type": "address"
        }
      ],
      "name": "MarketExited",
      "type": "event"
    },
    {
      "anonymous": false,
      "inputs": [
        {
          "indexed": false,
          "internalType": "contract CToken",
          "name": "cToken",
          "type": "address"
        }
      ],
      "name": "MarketListed",
      "type": "event"
    },
    {
      "anonymous": false,
      "inputs": [
        {
          "indexed": true,
          "internalType": "contract CToken",
          "name": "cToken",
          "type": "address"
        },
        {
          "indexed": false,
          "internalType": "uint256",
          "name": "newBorrowCap",
          "type": "uint256"
        }
      ],
      "name": "NewBorrowCap",
      "type": "event"
    },
    {
      "anonymous": false,
      "inputs": [
        {
          "indexed": false,
          "internalType": "address",
          "name": "oldBorrowCapGuardian",
          "type": "address"
        },
        {
          "indexed": false,
          "internalType": "address",
          "name": "newBorrowCapGuardian",
          "type": "address"
        }
      ],
      "name": "NewBorrowCapGuardian",
      "type": "event"
    },
    {
      "anonymous": false,
      "inputs": [
        {
          "indexed": false,
          "internalType": "uint256",
          "name": "oldCloseFactorMantissa",
          "type": "uint256"
        },
        {
          "indexed": false,
          "internalType": "uint256",
          "name": "newCloseFactorMantissa",
          "type": "uint256"
        }
      ],
      "name": "NewCloseFactor",
      "type": "event"
    },
    {
      "anonymous": false,
      "inputs": [
        {
          "indexed": false,
          "internalType": "contract CToken",
          "name": "cToken",
          "type": "address"
        },
        {
          "indexed": false,
          "internalType": "uint256",
          "name": "oldCollateralFactorMantissa",
          "type": "uint256"
        },
        {
          "indexed": false,
          "internalType": "uint256",
          "name": "newCollateralFactorMantissa",
          "type": "uint256"
        }
      ],
      "name": "NewCollateralFactor",
      "type": "event"
    },
    {
      "anonymous": false,
      "inputs": [
        {
          "indexed": false,
          "internalType": "uint256",
          "name": "oldCompRate",
          "type": "uint256"
        },
        {
          "indexed": false,
          "internalType": "uint256",
          "name": "newCompRate",
          "type": "uint256"
        }
      ],
      "name": "NewCompRate",
      "type": "event"
    },
    {
      "anonymous": false,
      "inputs": [
        {
          "indexed": false,
          "internalType": "uint256",
          "name": "oldLiquidationIncentiveMantissa",
          "type": "uint256"
        },
        {
          "indexed": false,
          "internalType": "uint256",
          "name": "newLiquidationIncentiveMantissa",
          "type": "uint256"
        }
      ],
      "name": "NewLiquidationIncentive",
      "type": "event"
    },
    {
      "anonymous": false,
      "inputs": [
        {
          "indexed": false,
          "internalType": "uint256",
          "name": "oldMaxAssets",
          "type": "uint256"
        },
        {
          "indexed": false,
          "internalType": "uint256",
          "name": "newMaxAssets",
          "type": "uint256"
        }
      ],
      "name": "NewMaxAssets",
      "type": "event"
    },
    {
      "anonymous": false,
      "inputs": [
        {
          "indexed": false,
          "internalType": "address",
          "name": "oldPauseGuardian",
          "type": "address"
        },
        {
          "indexed": false,
          "internalType": "address",
          "name": "newPauseGuardian",
          "type": "address"
        }
      ],
      "name": "NewPauseGuardian",
      "type": "event"
    },
    {
      "anonymous": false,
      "inputs": [
        {
          "indexed": false,
          "internalType": "contract PriceOracle",
          "name": "oldPriceOracle",
          "type": "address"
        },
        {
          "indexed": false,
          "internalType": "contract PriceOracle",
          "name": "newPriceOracle",
          "type": "address"
        }
      ],
      "name": "NewPriceOracle",
      "type": "event"
    },
    {
      "constant": false,
      "inputs": [
        {
          "internalType": "address[]",
          "name": "cTokens",
          "type": "address[]"
        }
      ],
      "name": "_addCompMarkets",
      "outputs": [],
      "payable": false,
      "stateMutability": "nonpayable",
      "type": "function"
    },
    {
      "constant": false,
      "inputs": [
        {
          "internalType": "contract Unitroller",
          "name": "unitroller",
          "type": "address"
        }
      ],
      "name": "_become",
      "outputs": [],
      "payable": false,
      "stateMutability": "nonpayable",
      "type": "function"
    },
    {
      "constant": true,
      "inputs": [],
      "name": "_borrowGuardianPaused",
      "outputs": [
        {
          "internalType": "bool",
          "name": "",
          "type": "bool"
        }
      ],
      "payable": false,
      "stateMutability": "view",
      "type": "function"
    },
    {
      "constant": false,
      "inputs": [
        {
          "internalType": "address",
          "name": "cToken",
          "type": "address"
        }
      ],
      "name": "_dropCompMarket",
      "outputs": [],
      "payable": false,
      "stateMutability": "nonpayable",
      "type": "function"
    },
    {
      "constant": true,
      "inputs": [],
      "name": "_mintGuardianPaused",
      "outputs": [
        {
          "internalType": "bool",
          "name": "",
          "type": "bool"
        }
      ],
      "payable": false,
      "stateMutability": "view",
      "type": "function"
    },
    {
      "constant": false,
      "inputs": [
        {
          "internalType": "address",
          "name": "newBorrowCapGuardian",
          "type": "address"
        }
      ],
      "name": "_setBorrowCapGuardian",
      "outputs": [],
      "payable": false,
      "stateMutability": "nonpayable",
      "type": "function"
    },
    {
      "constant": false,
      "inputs": [
        {
          "internalType": "contract CToken",
          "name": "cToken",
          "type": "address"
        },
        {
          "internalType": "bool",
          "name": "state",
          "type": "bool"
        }
      ],
      "name": "_setBorrowPaused",
      "outputs": [
        {
          "internalType": "bool",
          "name": "",
          "type": "bool"
        }
      ],
      "payable": false,
      "stateMutability": "nonpayable",
      "type": "function"
    },
    {
      "constant": false,
      "inputs": [
        {
          "internalType": "uint256",
          "name": "newCloseFactorMantissa",
          "type": "uint256"
        }
      ],
      "name": "_setCloseFactor",
      "outputs": [
        {
          "internalType": "uint256",
          "name": "",
          "type": "uint256"
        }
      ],
      "payable": false,
      "stateMutability": "nonpayable",
      "type": "function"
    },
    {
      "constant": false,
      "inputs": [
        {
          "internalType": "contract CToken",
          "name": "cToken",
          "type": "address"
        },
        {
          "internalType": "uint256",
          "name": "newCollateralFactorMantissa",
          "type": "uint256"
        }
      ],
      "name": "_setCollateralFactor",
      "outputs": [
        {
          "internalType": "uint256",
          "name": "",
          "type": "uint256"
        }
      ],
      "payable": false,
      "stateMutability": "nonpayable",
      "type": "function"
    },
    {
      "constant": false,
      "inputs": [
        {
          "internalType": "uint256",
          "name": "compRate_",
          "type": "uint256"
        }
      ],
      "name": "_setCompRate",
      "outputs": [],
      "payable": false,
      "stateMutability": "nonpayable",
      "type": "function"
    },
    {
      "constant": false,
      "inputs": [
        {
          "internalType": "uint256",
          "name": "newLiquidationIncentiveMantissa",
          "type": "uint256"
        }
      ],
      "name": "_setLiquidationIncentive",
      "outputs": [
        {
          "internalType": "uint256",
          "name": "",
          "type": "uint256"
        }
      ],
      "payable": false,
      "stateMutability": "nonpayable",
      "type": "function"
    },
    {
      "constant": false,
      "inputs": [
        {
          "internalType": "contract CToken[]",
          "name": "cTokens",
          "type": "address[]"
        },
        {
          "internalType": "uint256[]",
          "name": "newBorrowCaps",
          "type": "uint256[]"
        }
      ],
      "name": "_setMarketBorrowCaps",
      "outputs": [],
      "payable": false,
      "stateMutability": "nonpayable",
      "type": "function"
    },
    {
      "constant": false,
      "inputs": [
        {
          "internalType": "uint256",
          "name": "newMaxAssets",
          "type": "uint256"
        }
      ],
      "name": "_setMaxAssets",
      "outputs": [
        {
          "internalType": "uint256",
          "name": "",
          "type": "uint256"
        }
      ],
      "payable": false,
      "stateMutability": "nonpayable",
      "type": "function"
    },
    {
      "constant": false,
      "inputs": [
        {
          "internalType": "contract CToken",
          "name": "cToken",
          "type": "address"
        },
        {
          "internalType": "bool",
          "name": "state",
          "type": "bool"
        }
      ],
      "name": "_setMintPaused",
      "outputs": [
        {
          "internalType": "bool",
          "name": "",
          "type": "bool"
        }
      ],
      "payable": false,
      "stateMutability": "nonpayable",
      "type": "function"
    },
    {
      "constant": false,
      "inputs": [
        {
          "internalType": "address",
          "name": "newPauseGuardian",
          "type": "address"
        }
      ],
      "name": "_setPauseGuardian",
      "outputs": [
        {
          "internalType": "uint256",
          "name": "",
          "type": "uint256"
        }
      ],
      "payable": false,
      "stateMutability": "nonpayable",
      "type": "function"
    },
    {
      "constant": false,
      "inputs": [
        {
          "internalType": "contract PriceOracle",
          "name": "newOracle",
          "type": "address"
        }
      ],
      "name": "_setPriceOracle",
      "outputs": [
        {
          "internalType": "uint256",
          "name": "",
          "type": "uint256"
        }
      ],
      "payable": false,
      "stateMutability": "nonpayable",
      "type": "function"
    },
    {
      "constant": false,
      "inputs": [
        {
          "internalType": "bool",
          "name": "state",
          "type": "bool"
        }
      ],
      "name": "_setSeizePaused",
      "outputs": [
        {
          "internalType": "bool",
          "name": "",
          "type": "bool"
        }
      ],
      "payable": false,
      "stateMutability": "nonpayable",
      "type": "function"
    },
    {
      "constant": false,
      "inputs": [
        {
          "internalType": "bool",
          "name": "state",
          "type": "bool"
        }
      ],
      "name": "_setTransferPaused",
      "outputs": [
        {
          "internalType": "bool",
          "name": "",
          "type": "bool"
        }
      ],
      "payable": false,
      "stateMutability": "nonpayable",
      "type": "function"
    },
    {
      "constant": false,
      "inputs": [
        {
          "internalType": "contract CToken",
          "name": "cToken",
          "type": "address"
        }
      ],
      "name": "_supportMarket",
      "outputs": [
        {
          "internalType": "uint256",
          "name": "",
          "type": "uint256"
        }
      ],
      "payable": false,
      "stateMutability": "nonpayable",
      "type": "function"
    },
    {
      "constant": true,
      "inputs": [
        {
          "internalType": "address",
          "name": "",
          "type": "address"
        },
        {
          "internalType": "uint256",
          "name": "",
          "type": "uint256"
        }
      ],
      "name": "accountAssets",
      "outputs": [
        {
          "internalType": "contract CToken",
          "name": "",
          "type": "address"
        }
      ],
      "payable": false,
      "stateMutability": "view",
      "type": "function"
    },
    {
      "constant": true,
      "inputs": [],
      "name": "admin",
      "outputs": [
        {
          "internalType": "address",
          "name": "",
          "type": "address"
        }
      ],
      "payable": false,
      "stateMutability": "view",
      "type": "function"
    },
    {
      "constant": true,
      "inputs": [
        {
          "internalType": "uint256",
          "name": "",
          "type": "uint256"
        }
      ],
      "name": "allMarkets",
      "outputs": [
        {
          "internalType": "contract CToken",
          "name": "",
          "type": "address"
        }
      ],
      "payable": false,
      "stateMutability": "view",
      "type": "function"
    },
    {
      "constant": false,
      "inputs": [
        {
          "internalType": "address",
          "name": "cToken",
          "type": "address"
        },
        {
          "internalType": "address",
          "name": "borrower",
          "type": "address"
        },
        {
          "internalType": "uint256",
          "name": "borrowAmount",
          "type": "uint256"
        }
      ],
      "name": "borrowAllowed",
      "outputs": [
        {
          "internalType": "uint256",
          "name": "",
          "type": "uint256"
        }
      ],
      "payable": false,
      "stateMutability": "nonpayable",
      "type": "function"
    },
    {
      "constant": true,
      "inputs": [],
      "name": "borrowCapGuardian",
      "outputs": [
        {
          "internalType": "address",
          "name": "",
          "type": "address"
        }
      ],
      "payable": false,
      "stateMutability": "view",
      "type": "function"
    },
    {
      "constant": true,
      "inputs": [
        {
          "internalType": "address",
          "name": "",
          "type": "address"
        }
      ],
      "name": "borrowCaps",
      "outputs": [
        {
          "internalType": "uint256",
          "name": "",
          "type": "uint256"
        }
      ],
      "payable": false,
      "stateMutability": "view",
      "type": "function"
    },
    {
      "constant": true,
      "inputs": [
        {
          "internalType": "address",
          "name": "",
          "type": "address"
        }
      ],
      "name": "borrowGuardianPaused",
      "outputs": [
        {
          "internalType": "bool",
          "name": "",
          "type": "bool"
        }
      ],
      "payable": false,
      "stateMutability": "view",
      "type": "function"
    },
    {
      "constant": false,
      "inputs": [
        {
          "internalType": "address",
          "name": "cToken",
          "type": "address"
        },
        {
          "internalType": "address",
          "name": "borrower",
          "type": "address"
        },
        {
          "internalType": "uint256",
          "name": "borrowAmount",
          "type": "uint256"
        }
      ],
      "name": "borrowVerify",
      "outputs": [],
      "payable": false,
      "stateMutability": "nonpayable",
      "type": "function"
    },
    {
      "constant": true,
      "inputs": [
        {
          "internalType": "address",
          "name": "account",
          "type": "address"
        },
        {
          "internalType": "contract CToken",
          "name": "cToken",
          "type": "address"
        }
      ],
      "name": "checkMembership",
      "outputs": [
        {
          "internalType": "bool",
          "name": "",
          "type": "bool"
        }
      ],
      "payable": false,
      "stateMutability": "view",
      "type": "function"
    },
    {
      "constant": false,
      "inputs": [
        {
          "internalType": "address",
          "name": "holder",
          "type": "address"
        },
        {
          "internalType": "contract CToken[]",
          "name": "cTokens",
          "type": "address[]"
        }
      ],
      "name": "claimComp",
      "outputs": [],
      "payable": false,
      "stateMutability": "nonpayable",
      "type": "function"
    },
    {
      "constant": false,
      "inputs": [
        {
          "internalType": "address[]",
          "name": "holders",
          "type": "address[]"
        },
        {
          "internalType": "contract CToken[]",
          "name": "cTokens",
          "type": "address[]"
        },
        {
          "internalType": "bool",
          "name": "borrowers",
          "type": "bool"
        },
        {
          "internalType": "bool",
          "name": "suppliers",
          "type": "bool"
        }
      ],
      "name": "claimComp",
      "outputs": [],
      "payable": false,
      "stateMutability": "nonpayable",
      "type": "function"
    },
    {
      "constant": false,
      "inputs": [
        {
          "internalType": "address",
          "name": "holder",
          "type": "address"
        }
      ],
      "name": "claimComp",
      "outputs": [],
      "payable": false,
      "stateMutability": "nonpayable",
      "type": "function"
    },
    {
      "constant": true,
      "inputs": [],
      "name": "closeFactorMantissa",
      "outputs": [
        {
          "internalType": "uint256",
          "name": "",
          "type": "uint256"
        }
      ],
      "payable": false,
      "stateMutability": "view",
      "type": "function"
    },
    {
      "constant": true,
      "inputs": [
        {
          "internalType": "address",
          "name": "",
          "type": "address"
        }
      ],
      "name": "compAccrued",
      "outputs": [
        {
          "internalType": "uint256",
          "name": "",
          "type": "uint256"
        }
      ],
      "payable": false,
      "stateMutability": "view",
      "type": "function"
    },
    {
      "constant": true,
      "inputs": [
        {
          "internalType": "address",
          "name": "",
          "type": "address"
        }
      ],
      "name": "compBorrowState",
      "outputs": [
        {
          "internalType": "uint224",
          "name": "index",
          "type": "uint224"
        },
        {
          "internalType": "uint32",
          "name": "block",
          "type": "uint32"
        }
      ],
      "payable": false,
      "stateMutability": "view",
      "type": "function"
    },
    {
      "constant": true,
      "inputs": [
        {
          "internalType": "address",
          "name": "",
          "type": "address"
        },
        {
          "internalType": "address",
          "name": "",
          "type": "address"
        }
      ],
      "name": "compBorrowerIndex",
      "outputs": [
        {
          "internalType": "uint256",
          "name": "",
          "type": "uint256"
        }
      ],
      "payable": false,
      "stateMutability": "view",
      "type": "function"
    },
    {
      "constant": true,
      "inputs": [],
      "name": "compClaimThreshold",
      "outputs": [
        {
          "internalType": "uint256",
          "name": "",
          "type": "uint256"
        }
      ],
      "payable": false,
      "stateMutability": "view",
      "type": "function"
    },
    {
      "constant": true,
      "inputs": [],
      "name": "compInitialIndex",
      "outputs": [
        {
          "internalType": "uint224",
          "name": "",
          "type": "uint224"
        }
      ],
      "payable": false,
      "stateMutability": "view",
      "type": "function"
    },
    {
      "constant": true,
      "inputs": [],
      "name": "compRate",
      "outputs": [
        {
          "internalType": "uint256",
          "name": "",
          "type": "uint256"
        }
      ],
      "payable": false,
      "stateMutability": "view",
      "type": "function"
    },
    {
      "constant": true,
      "inputs": [
        {
          "internalType": "address",
          "name": "",
          "type": "address"
        }
      ],
      "name": "compSpeeds",
      "outputs": [
        {
          "internalType": "uint256",
          "name": "",
          "type": "uint256"
        }
      ],
      "payable": false,
      "stateMutability": "view",
      "type": "function"
    },
    {
      "constant": true,
      "inputs": [
        {
          "internalType": "address",
          "name": "",
          "type": "address"
        },
        {
          "internalType": "address",
          "name": "",
          "type": "address"
        }
      ],
      "name": "compSupplierIndex",
      "outputs": [
        {
          "internalType": "uint256",
          "name": "",
          "type": "uint256"
        }
      ],
      "payable": false,
      "stateMutability": "view",
      "type": "function"
    },
    {
      "constant": true,
      "inputs": [
        {
          "internalType": "address",
          "name": "",
          "type": "address"
        }
      ],
      "name": "compSupplyState",
      "outputs": [
        {
          "internalType": "uint224",
          "name": "index",
          "type": "uint224"
        },
        {
          "internalType": "uint32",
          "name": "block",
          "type": "uint32"
        }
      ],
      "payable": false,
      "stateMutability": "view",
      "type": "function"
    },
    {
      "constant": true,
      "inputs": [],
      "name": "comptrollerImplementation",
      "outputs": [
        {
          "internalType": "address",
          "name": "",
          "type": "address"
        }
      ],
      "payable": false,
      "stateMutability": "view",
      "type": "function"
    },
    {
      "constant": false,
      "inputs": [
        {
          "internalType": "address[]",
          "name": "cTokens",
          "type": "address[]"
        }
      ],
      "name": "enterMarkets",
      "outputs": [
        {
          "internalType": "uint256[]",
          "name": "",
          "type": "uint256[]"
        }
      ],
      "payable": false,
      "stateMutability": "nonpayable",
      "type": "function"
    },
    {
      "constant": false,
      "inputs": [
        {
          "internalType": "address",
          "name": "cTokenAddress",
          "type": "address"
        }
      ],
      "name": "exitMarket",
      "outputs": [
        {
          "internalType": "uint256",
          "name": "",
          "type": "uint256"
        }
      ],
      "payable": false,
      "stateMutability": "nonpayable",
      "type": "function"
    },
    {
      "constant": false,
      "inputs": [
        {
          "internalType": "address",
          "name": "account",
          "type": "address"
        }
      ],
      "name": "getAccountLiquidity",
      "outputs": [
        {
          "internalType": "uint256",
          "name": "",
          "type": "uint256"
        },
        {
          "internalType": "uint256",
          "name": "",
          "type": "uint256"
        },
        {
          "internalType": "uint256",
          "name": "",
          "type": "uint256"
        }
      ],
      "payable": false,
      "stateMutability": "nonpayable",
      "type": "function"
    },
    {
      "constant": true,
      "inputs": [],
      "name": "getAllMarkets",
      "outputs": [
        {
          "internalType": "contract CToken[]",
          "name": "",
          "type": "address[]"
        }
      ],
      "payable": false,
      "stateMutability": "view",
      "type": "function"
    },
    {
      "constant": true,
      "inputs": [
        {
          "internalType": "address",
          "name": "account",
          "type": "address"
        }
      ],
      "name": "getAssetsIn",
      "outputs": [
        {
          "internalType": "contract CToken[]",
          "name": "",
          "type": "address[]"
        }
      ],
      "payable": false,
      "stateMutability": "view",
      "type": "function"
    },
    {
      "constant": true,
      "inputs": [],
      "name": "getBlockNumber",
      "outputs": [
        {
          "internalType": "uint256",
          "name": "",
          "type": "uint256"
        }
      ],
      "payable": false,
      "stateMutability": "view",
      "type": "function"
    },
    {
      "constant": true,
      "inputs": [],
      "name": "getCompAddress",
      "outputs": [
        {
          "internalType": "address",
          "name": "",
          "type": "address"
        }
      ],
      "payable": false,
      "stateMutability": "view",
      "type": "function"
    },
    {
      "constant": false,
      "inputs": [
        {
          "internalType": "address",
          "name": "account",
          "type": "address"
        },
        {
          "internalType": "address",
          "name": "cTokenModify",
          "type": "address"
        },
        {
          "internalType": "uint256",
          "name": "redeemTokens",
          "type": "uint256"
        },
        {
          "internalType": "uint256",
          "name": "borrowAmount",
          "type": "uint256"
        }
      ],
      "name": "getHypotheticalAccountLiquidity",
      "outputs": [
        {
          "internalType": "uint256",
          "name": "",
          "type": "uint256"
        },
        {
          "internalType": "uint256",
          "name": "",
          "type": "uint256"
        },
        {
          "internalType": "uint256",
          "name": "",
          "type": "uint256"
        }
      ],
      "payable": false,
      "stateMutability": "nonpayable",
      "type": "function"
    },
    {
      "constant": true,
      "inputs": [],
      "name": "isComptroller",
      "outputs": [
        {
          "internalType": "bool",
          "name": "",
          "type": "bool"
        }
      ],
      "payable": false,
      "stateMutability": "view",
      "type": "function"
    },
    {
      "constant": false,
      "inputs": [
        {
          "internalType": "address",
          "name": "cTokenBorrowed",
          "type": "address"
        },
        {
          "internalType": "address",
          "name": "cTokenCollateral",
          "type": "address"
        },
        {
          "internalType": "address",
          "name": "liquidator",
          "type": "address"
        },
        {
          "internalType": "address",
          "name": "borrower",
          "type": "address"
        },
        {
          "internalType": "uint256",
          "name": "repayAmount",
          "type": "uint256"
        }
      ],
      "name": "liquidateBorrowAllowed",
      "outputs": [
        {
          "internalType": "uint256",
          "name": "",
          "type": "uint256"
        }
      ],
      "payable": false,
      "stateMutability": "nonpayable",
      "type": "function"
    },
    {
      "constant": false,
      "inputs": [
        {
          "internalType": "address",
          "name": "cTokenBorrowed",
          "type": "address"
        },
        {
          "internalType": "address",
          "name": "cTokenCollateral",
          "type": "address"
        },
        {
          "internalType": "address",
          "name": "liquidator",
          "type": "address"
        },
        {
          "internalType": "address",
          "name": "borrower",
          "type": "address"
        },
        {
          "internalType": "uint256",
          "name": "actualRepayAmount",
          "type": "uint256"
        },
        {
          "internalType": "uint256",
          "name": "seizeTokens",
          "type": "uint256"
        }
      ],
      "name": "liquidateBorrowVerify",
      "outputs": [],
      "payable": false,
      "stateMutability": "nonpayable",
      "type": "function"
    },
    {
      "constant": false,
      "inputs": [
        {
          "internalType": "address",
          "name": "cTokenBorrowed",
          "type": "address"
        },
        {
          "internalType": "address",
          "name": "cTokenCollateral",
          "type": "address"
        },
        {
          "internalType": "uint256",
          "name": "actualRepayAmount",
          "type": "uint256"
        }
      ],
      "name": "liquidateCalculateSeizeTokens",
      "outputs": [
        {
          "internalType": "uint256",
          "name": "",
          "type": "uint256"
        },
        {
          "internalType": "uint256",
          "name": "",
          "type": "uint256"
        }
      ],
      "payable": false,
      "stateMutability": "nonpayable",
      "type": "function"
    },
    {
      "constant": true,
      "inputs": [],
      "name": "liquidationIncentiveMantissa",
      "outputs": [
        {
          "internalType": "uint256",
          "name": "",
          "type": "uint256"
        }
      ],
      "payable": false,
      "stateMutability": "view",
      "type": "function"
    },
    {
      "constant": true,
      "inputs": [
        {
          "internalType": "address",
          "name": "",
          "type": "address"
        }
      ],
      "name": "markets",
      "outputs": [
        {
          "internalType": "bool",
          "name": "isListed",
          "type": "bool"
        },
        {
          "internalType": "uint256",
          "name": "collateralFactorMantissa",
          "type": "uint256"
        },
        {
          "internalType": "bool",
          "name": "isComped",
          "type": "bool"
        }
      ],
      "payable": false,
      "stateMutability": "view",
      "type": "function"
    },
    {
      "constant": true,
      "inputs": [],
      "name": "maxAssets",
      "outputs": [
        {
          "internalType": "uint256",
          "name": "",
          "type": "uint256"
        }
      ],
      "payable": false,
      "stateMutability": "view",
      "type": "function"
    },
    {
      "constant": false,
      "inputs": [
        {
          "internalType": "address",
          "name": "cToken",
          "type": "address"
        },
        {
          "internalType": "address",
          "name": "minter",
          "type": "address"
        },
        {
          "internalType": "uint256",
          "name": "mintAmount",
          "type": "uint256"
        }
      ],
      "name": "mintAllowed",
      "outputs": [
        {
          "internalType": "uint256",
          "name": "",
          "type": "uint256"
        }
      ],
      "payable": false,
      "stateMutability": "nonpayable",
      "type": "function"
    },
    {
      "constant": true,
      "inputs": [
        {
          "internalType": "address",
          "name": "",
          "type": "address"
        }
      ],
      "name": "mintGuardianPaused",
      "outputs": [
        {
          "internalType": "bool",
          "name": "",
          "type": "bool"
        }
      ],
      "payable": false,
      "stateMutability": "view",
      "type": "function"
    },
    {
      "constant": false,
      "inputs": [
        {
          "internalType": "address",
          "name": "cToken",
          "type": "address"
        },
        {
          "internalType": "address",
          "name": "minter",
          "type": "address"
        },
        {
          "internalType": "uint256",
          "name": "actualMintAmount",
          "type": "uint256"
        },
        {
          "internalType": "uint256",
          "name": "mintTokens",
          "type": "uint256"
        }
      ],
      "name": "mintVerify",
      "outputs": [],
      "payable": false,
      "stateMutability": "nonpayable",
      "type": "function"
    },
    {
      "constant": true,
      "inputs": [],
      "name": "oracle",
      "outputs": [
        {
          "internalType": "contract PriceOracle",
          "name": "",
          "type": "address"
        }
      ],
      "payable": false,
      "stateMutability": "view",
      "type": "function"
    },
    {
      "constant": true,
      "inputs": [],
      "name": "pauseGuardian",
      "outputs": [
        {
          "internalType": "address",
          "name": "",
          "type": "address"
        }
      ],
      "payable": false,
      "stateMutability": "view",
      "type": "function"
    },
    {
      "constant": true,
      "inputs": [],
      "name": "pendingAdmin",
      "outputs": [
        {
          "internalType": "address",
          "name": "",
          "type": "address"
        }
      ],
      "payable": false,
      "stateMutability": "view",
      "type": "function"
    },
    {
      "constant": true,
      "inputs": [],
      "name": "pendingComptrollerImplementation",
      "outputs": [
        {
          "internalType": "address",
          "name": "",
          "type": "address"
        }
      ],
      "payable": false,
      "stateMutability": "view",
      "type": "function"
    },
    {
      "constant": false,
      "inputs": [
        {
          "internalType": "address",
          "name": "cToken",
          "type": "address"
        },
        {
          "internalType": "address",
          "name": "redeemer",
          "type": "address"
        },
        {
          "internalType": "uint256",
          "name": "redeemTokens",
          "type": "uint256"
        }
      ],
      "name": "redeemAllowed",
      "outputs": [
        {
          "internalType": "uint256",
          "name": "",
          "type": "uint256"
        }
      ],
      "payable": false,
      "stateMutability": "nonpayable",
      "type": "function"
    },
    {
      "constant": false,
      "inputs": [
        {
          "internalType": "address",
          "name": "cToken",
          "type": "address"
        },
        {
          "internalType": "address",
          "name": "redeemer",
          "type": "address"
        },
        {
          "internalType": "uint256",
          "name": "redeemAmount",
          "type": "uint256"
        },
        {
          "internalType": "uint256",
          "name": "redeemTokens",
          "type": "uint256"
        }
      ],
      "name": "redeemVerify",
      "outputs": [],
      "payable": false,
      "stateMutability": "nonpayable",
      "type": "function"
    },
    {
      "constant": false,
      "inputs": [],
      "name": "refreshCompSpeeds",
      "outputs": [],
      "payable": false,
      "stateMutability": "nonpayable",
      "type": "function"
    },
    {
      "constant": false,
      "inputs": [
        {
          "internalType": "address",
          "name": "cToken",
          "type": "address"
        },
        {
          "internalType": "address",
          "name": "payer",
          "type": "address"
        },
        {
          "internalType": "address",
          "name": "borrower",
          "type": "address"
        },
        {
          "internalType": "uint256",
          "name": "repayAmount",
          "type": "uint256"
        }
      ],
      "name": "repayBorrowAllowed",
      "outputs": [
        {
          "internalType": "uint256",
          "name": "",
          "type": "uint256"
        }
      ],
      "payable": false,
      "stateMutability": "nonpayable",
      "type": "function"
    },
    {
      "constant": false,
      "inputs": [
        {
          "internalType": "address",
          "name": "cToken",
          "type": "address"
        },
        {
          "internalType": "address",
          "name": "payer",
          "type": "address"
        },
        {
          "internalType": "address",
          "name": "borrower",
          "type": "address"
        },
        {
          "internalType": "uint256",
          "name": "actualRepayAmount",
          "type": "uint256"
        },
        {
          "internalType": "uint256",
          "name": "borrowerIndex",
          "type": "uint256"
        }
      ],
      "name": "repayBorrowVerify",
      "outputs": [],
      "payable": false,
      "stateMutability": "nonpayable",
      "type": "function"
    },
    {
      "constant": false,
      "inputs": [
        {
          "internalType": "address",
          "name": "cTokenCollateral",
          "type": "address"
        },
        {
          "internalType": "address",
          "name": "cTokenBorrowed",
          "type": "address"
        },
        {
          "internalType": "address",
          "name": "liquidator",
          "type": "address"
        },
        {
          "internalType": "address",
          "name": "borrower",
          "type": "address"
        },
        {
          "internalType": "uint256",
          "name": "seizeTokens",
          "type": "uint256"
        }
      ],
      "name": "seizeAllowed",
      "outputs": [
        {
          "internalType": "uint256",
          "name": "",
          "type": "uint256"
        }
      ],
      "payable": false,
      "stateMutability": "nonpayable",
      "type": "function"
    },
    {
      "constant": true,
      "inputs": [],
      "name": "seizeGuardianPaused",
      "outputs": [
        {
          "internalType": "bool",
          "name": "",
          "type": "bool"
        }
      ],
      "payable": false,
      "stateMutability": "view",
      "type": "function"
    },
    {
      "constant": false,
      "inputs": [
        {
          "internalType": "address",
          "name": "cTokenCollateral",
          "type": "address"
        },
        {
          "internalType": "address",
          "name": "cTokenBorrowed",
          "type": "address"
        },
        {
          "internalType": "address",
          "name": "liquidator",
          "type": "address"
        },
        {
          "internalType": "address",
          "name": "borrower",
          "type": "address"
        },
        {
          "internalType": "uint256",
          "name": "seizeTokens",
          "type": "uint256"
        }
      ],
      "name": "seizeVerify",
      "outputs": [],
      "payable": false,
      "stateMutability": "nonpayable",
      "type": "function"
    },
    {
      "constant": false,
      "inputs": [
        {
          "internalType": "address",
          "name": "cToken",
          "type": "address"
        },
        {
          "internalType": "address",
          "name": "src",
          "type": "address"
        },
        {
          "internalType": "address",
          "name": "dst",
          "type": "address"
        },
        {
          "internalType": "uint256",
          "name": "transferTokens",
          "type": "uint256"
        }
      ],
      "name": "transferAllowed",
      "outputs": [
        {
          "internalType": "uint256",
          "name": "",
          "type": "uint256"
        }
      ],
      "payable": false,
      "stateMutability": "nonpayable",
      "type": "function"
    },
    {
      "constant": true,
      "inputs": [],
      "name": "transferGuardianPaused",
      "outputs": [
        {
          "internalType": "bool",
          "name": "",
          "type": "bool"
        }
      ],
      "payable": false,
      "stateMutability": "view",
      "type": "function"
    },
    {
      "constant": false,
      "inputs": [
        {
          "internalType": "address",
          "name": "cToken",
          "type": "address"
        },
        {
          "internalType": "address",
          "name": "src",
          "type": "address"
        },
        {
          "internalType": "address",
          "name": "dst",
          "type": "address"
        },
        {
          "internalType": "uint256",
          "name": "transferTokens",
          "type": "uint256"
        }
      ],
      "name": "transferVerify",
      "outputs": [],
      "payable": false,
      "stateMutability": "nonpayable",
      "type": "function"
    }
  ],
  "transactionHash": "0xdbc10dee7f18b695aefb92c35a393f56119daeff702608c17c675522aa09a16b",
  "args": [],
  "solcInputHash": "251f15328f1c87691ade7a81df7774b1",
  "bytecode": "0x608060405234801561001057600080fd5b50600080546001600160a01b03191633179055615f9f80620000336000396000f3fe608060405234801561001057600080fd5b50600436106104485760003560e01c80636d154ea511610241578063bb82aa5e1161013b578063da3d454c116100c3578063e875544611610087578063e875544614611208578063e9af029214611210578063eabe7d9114611236578063ede4edd01461126c578063f851a4401461129257610448565b8063da3d454c1461116a578063dce15449146111a0578063dcfbc0c7146111cc578063e4028eee146111d4578063e6653f3d1461120057610448565b8063ca0af0431161010a578063ca0af04314611012578063cc7ebdc414611040578063ce485c5e14611066578063d02f735114611107578063d9226ced1461114d57610448565b8063bb82aa5e14610ede578063bdcdc25814610ee6578063c299823814610f22578063c488847b14610fc357610448565b8063929fe9a1116101c9578063aa9007541161018d578063aa90075414610e22578063abfceffc14610e2a578063ac0b0bb714610ea0578063b0772d0b14610ea8578063b21be7fd14610eb057610448565b8063929fe9a114610d9a57806394b2294b14610dc85780639d1b5a0a14610dd0578063a76b3fda14610dd8578063a7f0e23114610dfe57610448565b80637dc0d1d0116102105780637dc0d1d014610cfd57806387f7630314610d055780638c57804e14610d0d5780638e8f294b14610d335780638ebf636414610d7b57610448565b80636d154ea514610c635780636d35bf9114610c89578063731f0c2b14610ccf578063747026c914610cf557610448565b806347ef3b3b1161035257806355ee1fe1116102da578063607ef6c11161029e578063607ef6c1146109d25780636810dfa614610a905780636a49111214610bbc5780636a56947e14610bd95780636b79c38d14610c1557610448565b806355ee1fe1146108e45780635c7786051461090a5780635ec88c79146109405780635f5af1aa146109665780635fc7e71e1461098c57610448565b80634e79238f116103215780634e79238f146107de5780634ef4c3e1146108385780634fd42e171461086e57806351dff9891461088b57806352d84d1e146108c757610448565b806347ef3b3b1461075c5780634a584432146107a85780634ada90af146107ce5780634d8e5037146107d657610448565b806326782247116103d55780633aa729b4116103a45780633aa729b4146106bc5780633bcf7ec1146106e25780633c94786f1461071057806341c728b91461071857806342cbb15c1461075457610448565b806326782247146106525780632d70db781461065a578063317b0b7714610679578063391957d71461069657610448565b80631d7b33d71161041c5780631d7b33d7146105705780631ededc91146105a857806321af4569146105ea57806324008a621461060e57806324a3d6221461064a57610448565b80627e3dd21461044d57806318c882a5146104695780631c3db2e0146104975780631d504dc61461054a575b600080fd5b61045561129a565b604080519115158252519081900360200190f35b6104556004803603604081101561047f57600080fd5b506001600160a01b038135169060200135151561129f565b610548600480360360408110156104ad57600080fd5b6001600160a01b038235169190810190604081016020820135600160201b8111156104d757600080fd5b8201836020820111156104e957600080fd5b803590602001918460208302840111600160201b8311171561050a57600080fd5b91908080602002602001604051908101604052809392919081815260200183836020028082843760009201919091525092955061143f945050505050565b005b6105486004803603602081101561056057600080fd5b50356001600160a01b03166114a1565b6105966004803603602081101561058657600080fd5b50356001600160a01b0316611600565b60408051918252519081900360200190f35b610548600480360360a08110156105be57600080fd5b506001600160a01b03813581169160208101358216916040820135169060608101359060800135611612565b6105f2611619565b604080516001600160a01b039092168252519081900360200190f35b6105966004803603608081101561062457600080fd5b506001600160a01b03813581169160208101358216916040820135169060600135611628565b6105f26116f1565b6105f2611700565b6104556004803603602081101561067057600080fd5b5035151561170f565b6105966004803603602081101561068f57600080fd5b5035611849565b610548600480360360208110156106ac57600080fd5b50356001600160a01b031661195a565b610548600480360360208110156106d257600080fd5b50356001600160a01b0316611a06565b610455600480360360408110156106f857600080fd5b506001600160a01b0381351690602001351515611b37565b610455611cd2565b6105486004803603608081101561072e57600080fd5b506001600160a01b03813581169160208101359091169060408101359060600135611ce2565b610596611ce8565b610548600480360360c081101561077257600080fd5b506001600160a01b0381358116916020810135821691604082013581169160608101359091169060808101359060a00135611ced565b610596600480360360208110156107be57600080fd5b50356001600160a01b0316611cf5565b610596611d07565b610548611d0d565b61081a600480360360808110156107f457600080fd5b506001600160a01b03813581169160208101359091169060408101359060600135611d55565b60408051938452602084019290925282820152519081900360600190f35b6105966004803603606081101561084e57600080fd5b506001600160a01b03813581169160208101359091169060400135611d8f565b6105966004803603602081101561088457600080fd5b5035611e3a565b610548600480360360808110156108a157600080fd5b506001600160a01b03813581169160208101359091169060408101359060600135611f2e565b6105f2600480360360208110156108dd57600080fd5b5035611f82565b610596600480360360208110156108fa57600080fd5b50356001600160a01b0316611fa9565b6105486004803603606081101561092057600080fd5b506001600160a01b03813581169160208101359091169060400135612030565b61081a6004803603602081101561095657600080fd5b50356001600160a01b0316612035565b6105966004803603602081101561097c57600080fd5b50356001600160a01b031661206a565b610596600480360360a08110156109a257600080fd5b506001600160a01b03813581169160208101358216916040820135811691606081013590911690608001356120ee565b610548600480360360408110156109e857600080fd5b810190602081018135600160201b811115610a0257600080fd5b820183602082011115610a1457600080fd5b803590602001918460208302840111600160201b83111715610a3557600080fd5b919390929091602081019035600160201b811115610a5257600080fd5b820183602082011115610a6457600080fd5b803590602001918460208302840111600160201b83111715610a8557600080fd5b509092509050612275565b61054860048036036080811015610aa657600080fd5b810190602081018135600160201b811115610ac057600080fd5b820183602082011115610ad257600080fd5b803590602001918460208302840111600160201b83111715610af357600080fd5b9190808060200260200160405190810160405280939291908181526020018383602002808284376000920191909152509295949360208101935035915050600160201b811115610b4257600080fd5b820183602082011115610b5457600080fd5b803590602001918460208302840111600160201b83111715610b7557600080fd5b919080806020026020016040519081016040528093929190818152602001838360200280828437600092019190915250929550505050803515159150602001351515612405565b61054860048036036020811015610bd257600080fd5b50356125ae565b61054860048036036080811015610bef57600080fd5b506001600160a01b03813581169160208101358216916040820135169060600135611ce2565b610c3b60048036036020811015610c2b57600080fd5b50356001600160a01b0316612652565b604080516001600160e01b03909316835263ffffffff90911660208301528051918290030190f35b61045560048036036020811015610c7957600080fd5b50356001600160a01b031661267c565b610548600480360360a0811015610c9f57600080fd5b506001600160a01b0381358116916020810135821691604082013581169160608101359091169060800135611612565b61045560048036036020811015610ce557600080fd5b50356001600160a01b0316612691565b6105966126a6565b6105f26126b1565b6104556126c0565b610c3b60048036036020811015610d2357600080fd5b50356001600160a01b03166126d0565b610d5960048036036020811015610d4957600080fd5b50356001600160a01b03166126fa565b6040805193151584526020840192909252151582820152519081900360600190f35b61045560048036036020811015610d9157600080fd5b50351515612720565b61045560048036036040811015610db057600080fd5b506001600160a01b0381358116916020013516612859565b61059661288c565b6105f2612892565b61059660048036036020811015610dee57600080fd5b50356001600160a01b03166128aa565b610e06612a07565b604080516001600160e01b039092168252519081900360200190f35b610596612a1a565b610e5060048036036020811015610e4057600080fd5b50356001600160a01b0316612a20565b60408051602080825283518183015283519192839290830191858101910280838360005b83811015610e8c578181015183820152602001610e74565b505050509050019250505060405180910390f35b610455612aa9565b610e50612ab9565b61059660048036036040811015610ec657600080fd5b506001600160a01b0381358116916020013516612b1b565b6105f2612b38565b61059660048036036080811015610efc57600080fd5b506001600160a01b03813581169160208101358216916040820135169060600135612b47565b610e5060048036036020811015610f3857600080fd5b810190602081018135600160201b811115610f5257600080fd5b820183602082011115610f6457600080fd5b803590602001918460208302840111600160201b83111715610f8557600080fd5b919080806020026020016040519081016040528093929190818152602001838360200280828437600092019190915250929550612bdb945050505050565b610ff960048036036060811015610fd957600080fd5b506001600160a01b03813581169160208101359091169060400135612c72565b6040805192835260208301919091528051918290030190f35b6105966004803603604081101561102857600080fd5b506001600160a01b0381358116916020013516612ee9565b6105966004803603602081101561105657600080fd5b50356001600160a01b0316612f06565b6105486004803603602081101561107c57600080fd5b810190602081018135600160201b81111561109657600080fd5b8201836020820111156110a857600080fd5b803590602001918460208302840111600160201b831117156110c957600080fd5b919080806020026020016040519081016040528093929190818152602001838360200280828437600092019190915250929550612f18945050505050565b610596600480360360a081101561111d57600080fd5b506001600160a01b0381358116916020810135821691604082013581169160608101359091169060800135612faa565b6105966004803603602081101561116357600080fd5b5035613162565b6105966004803603606081101561118057600080fd5b506001600160a01b038135811691602081013590911690604001356131cb565b6105f2600480360360408110156111b657600080fd5b506001600160a01b038135169060200135613607565b6105f261363c565b610596600480360360408110156111ea57600080fd5b506001600160a01b03813516906020013561364b565b6104556137fd565b61059661380d565b6105486004803603602081101561122657600080fd5b50356001600160a01b0316613813565b6105966004803603606081101561124c57600080fd5b506001600160a01b03813581169160208101359091169060400135613877565b6105966004803603602081101561128257600080fd5b50356001600160a01b03166138b4565b6105f2613bc7565b600181565b6001600160a01b03821660009081526009602052604081205460ff166112f65760405162461bcd60e51b8152600401808060200182810382526028815260200180615e246028913960400191505060405180910390fd5b600a546001600160a01b031633148061131957506000546001600160a01b031633145b6113545760405162461bcd60e51b8152600401808060200182810382526027815260200180615e7d6027913960400191505060405180910390fd5b6000546001600160a01b031633148061136f57506001821515145b6113b9576040805162461bcd60e51b81526020600482015260166024820152756f6e6c792061646d696e2063616e20756e706175736560501b604482015290519081900360640190fd5b6001600160a01b0383166000818152600c6020908152604091829020805486151560ff199091168117909155825193845283830152606090830181905260069083015265426f72726f7760d01b6080830152517f71aec636243f9709bb0007ae15e9afb8150ab01716d75fd7573be5cc096e03b09181900360a00190a150805b92915050565b60408051600180825281830190925260609160208083019080388339019050509050828160008151811061146f57fe5b60200260200101906001600160a01b031690816001600160a01b03168152505061149c8183600180612405565b505050565b806001600160a01b031663f851a4406040518163ffffffff1660e01b815260040160206040518083038186803b1580156114da57600080fd5b505afa1580156114ee573d6000803e3d6000fd5b505050506040513d602081101561150457600080fd5b50516001600160a01b0316331461154c5760405162461bcd60e51b8152600401808060200182810382526027815260200180615f446027913960400191505060405180910390fd5b806001600160a01b031663c1e803346040518163ffffffff1660e01b8152600401602060405180830381600087803b15801561158757600080fd5b505af115801561159b573d6000803e3d6000fd5b505050506040513d60208110156115b157600080fd5b5051156115fd576040805162461bcd60e51b815260206004820152601560248201527418da185b99d9481b9bdd08185d5d1a1bdc9a5e9959605a1b604482015290519081900360640190fd5b50565b600f6020526000908152604090205481565b5050505050565b6015546001600160a01b031681565b6001600160a01b03841660009081526009602052604081205460ff16611650575060096116e9565b611658615d64565b6040518060200160405280876001600160a01b031663aa5af0fd6040518163ffffffff1660e01b815260040160206040518083038186803b15801561169c57600080fd5b505afa1580156116b0573d6000803e3d6000fd5b505050506040513d60208110156116c657600080fd5b5051905290506116d68682613bd6565b6116e38685836000613e5e565b60009150505b949350505050565b600a546001600160a01b031681565b6001546001600160a01b031681565b600a546000906001600160a01b031633148061173557506000546001600160a01b031633145b6117705760405162461bcd60e51b8152600401808060200182810382526027815260200180615e7d6027913960400191505060405180910390fd5b6000546001600160a01b031633148061178b57506001821515145b6117d5576040805162461bcd60e51b81526020600482015260166024820152756f6e6c792061646d696e2063616e20756e706175736560501b604482015290519081900360640190fd5b600a8054831515600160b81b810260ff60b81b1990921691909117909155604080516020810192909252808252600582820152645365697a6560d81b6060830152517fef159d9a32b2472e32b098f954f3ce62d232939f1c207070b584df1814de2de09181900360800190a150805b919050565b600080546001600160a01b0316331461186f5761186860016004614048565b9050611844565b611877615d64565b50604080516020810190915282815261188e615d64565b50604080516020810190915266b1a2bc2ec5000081526118ae82826140ae565b156118c7576118be600580614048565b92505050611844565b6118cf615d64565b506040805160208101909152670c7d713b49da000081526118f081846140b6565b1561190a57611900600580614048565b9350505050611844565b6005805490869055604080518281526020810188905281517f3b9670cf975d26958e754b57098eaa2ac914d8d2a31b83257997b9f346110fd9929181900390910190a160005b9695505050505050565b6000546001600160a01b031633146119a35760405162461bcd60e51b8152600401808060200182810382526026815260200180615ea46026913960400191505060405180910390fd5b601580546001600160a01b038381166001600160a01b0319831681179093556040805191909216808252602082019390935281517feda98690e518e9a05f8ec6837663e188211b2da8f4906648b323f2c1d4434e29929181900390910190a15050565b6000546001600160a01b03163314611a65576040805162461bcd60e51b815260206004820152601f60248201527f6f6e6c792061646d696e2063616e2064726f7020636f6d70206d61726b657400604482015290519081900360640190fd5b6001600160a01b0381166000908152600960205260409020600381015460ff161515600114611adb576040805162461bcd60e51b815260206004820152601b60248201527f6d61726b6574206973206e6f74206120636f6d70206d61726b65740000000000604482015290519081900360640190fd5b60038101805460ff19169055604080516001600160a01b03841681526000602082015281517f93c1f3e36ed71139f466a4ce8c9751790e2e33f5afb2df0dcfb3aeabe55d5aa2929181900390910190a1611b336140bd565b5050565b6001600160a01b03821660009081526009602052604081205460ff16611b8e5760405162461bcd60e51b8152600401808060200182810382526028815260200180615e246028913960400191505060405180910390fd5b600a546001600160a01b0316331480611bb157506000546001600160a01b031633145b611bec5760405162461bcd60e51b8152600401808060200182810382526027815260200180615e7d6027913960400191505060405180910390fd5b6000546001600160a01b0316331480611c0757506001821515145b611c51576040805162461bcd60e51b81526020600482015260166024820152756f6e6c792061646d696e2063616e20756e706175736560501b604482015290519081900360640190fd5b6001600160a01b0383166000818152600b6020908152604091829020805486151560ff199091168117909155825193845283830152606090830181905260049083015263135a5b9d60e21b6080830152517f71aec636243f9709bb0007ae15e9afb8150ab01716d75fd7573be5cc096e03b09181900360a00190a150919050565b600a54600160a01b900460ff1681565b50505050565b435b90565b505050505050565b60166020526000908152604090205481565b60065481565b333214611d4b5760405162461bcd60e51b8152600401808060200182810382526031815260200180615e4c6031913960400191505060405180910390fd5b611d536140bd565b565b600080600080600080611d6a8a8a8a8a614484565b925092509250826011811115611d7c57fe5b95509093509150505b9450945094915050565b6001600160a01b0383166000908152600b602052604081205460ff1615611dee576040805162461bcd60e51b815260206004820152600e60248201526d1b5a5b9d081a5cc81c185d5cd95960921b604482015290519081900360640190fd5b6001600160a01b03841660009081526009602052604090205460ff16611e185760095b9050611e33565b611e21846148a2565b611e2d84846000614b20565b60005b90505b9392505050565b600080546001600160a01b03163314611e59576118686001600b614048565b611e61615d64565b506040805160208101909152828152611e78615d64565b506040805160208101909152670de0b6b3a76400008152611e9982826140b6565b15611eaa576118be6007600c614048565b611eb2615d64565b5060408051602081019091526714d1120d7b1600008152611ed381846140b6565b15611ee4576119006007600c614048565b6006805490869055604080518281526020810188905281517faeba5a6c40a8ac138134bff1aaa65debf25971188a58804bad717f82f0ec1316929181900390910190a16000611950565b80158015611f3c5750600082115b15611ce2576040805162461bcd60e51b815260206004820152601160248201527072656465656d546f6b656e73207a65726f60781b604482015290519081900360640190fd5b600d8181548110611f8f57fe5b6000918252602090912001546001600160a01b0316905081565b600080546001600160a01b03163314611fc85761186860016010614048565b600480546001600160a01b038481166001600160a01b0319831681179093556040805191909216808252602082019390935281517fd52b2b9b7e9ee655fcb95d2e5b9e0c9f69e7ef2b8e9d2d0ea78402d576d22e22929181900390910190a160009392505050565b61149c565b60008060008060008061204c876000806000614484565b92509250925082601181111561205e57fe5b97919650945092505050565b600080546001600160a01b031633146120895761186860016013614048565b600a80546001600160a01b038481166001600160a01b0319831617928390556040805192821680845293909116602083015280517f0613b6ee6a04f0d09f390e4d9318894b9f6ac7fd83897cd8d18896ba579c401e9281900390910190a16000611e33565b6001600160a01b03851660009081526009602052604081205460ff16158061212f57506001600160a01b03851660009081526009602052604090205460ff16155b1561213e5760095b905061226c565b60008061214a85614d18565b9193509091506000905082601181111561216057fe5b1461217a5781601181111561217157fe5b9250505061226c565b80612186576003612171565b6000886001600160a01b03166395dd9193876040518263ffffffff1660e01b815260040180826001600160a01b03166001600160a01b0316815260200191505060206040518083038186803b1580156121de57600080fd5b505afa1580156121f2573d6000803e3d6000fd5b505050506040513d602081101561220857600080fd5b505160408051602081019091526005548152909150600090819061222c9084614d38565b9092509050600082600381111561223f57fe5b1461225357600b5b9550505050505061226c565b80871115612262576011612247565b6000955050505050505b95945050505050565b6000546001600160a01b031633148061229857506015546001600160a01b031633145b6122d35760405162461bcd60e51b8152600401808060200182810382526035815260200180615eca6035913960400191505060405180910390fd5b828181158015906122e357508082145b612324576040805162461bcd60e51b815260206004820152600d60248201526c1a5b9d985b1a59081a5b9c1d5d609a1b604482015290519081900360640190fd5b60005b828110156123fc5784848281811061233b57fe5b905060200201356016600089898581811061235257fe5b905060200201356001600160a01b03166001600160a01b03166001600160a01b031681526020019081526020016000208190555086868281811061239257fe5b905060200201356001600160a01b03166001600160a01b03167f6f1951b2aad10f3fc81b86d91105b413a5b3f847a34bbc5ce1904201b14438f68686848181106123d857fe5b905060200201356040518082815260200191505060405180910390a2600101612327565b50505050505050565b60005b835181101561161257600084828151811061241f57fe5b6020908102919091018101516001600160a01b0381166000908152600990925260409091205490915060ff16612494576040805162461bcd60e51b81526020600482015260156024820152741b585c9ad95d081b5d5cdd081899481b1a5cdd1959605a1b604482015290519081900360640190fd5b6001841515141561255c576124a7615d64565b6040518060200160405280836001600160a01b031663aa5af0fd6040518163ffffffff1660e01b815260040160206040518083038186803b1580156124eb57600080fd5b505afa1580156124ff573d6000803e3d6000fd5b505050506040513d602081101561251557600080fd5b5051905290506125258282613bd6565b60005b8751811015612559576125518389838151811061254157fe5b6020026020010151846001613e5e565b600101612528565b50505b600183151514156125a557612570816148a2565b60005b86518110156125a35761259b8288838151811061258c57fe5b60200260200101516001614b20565b600101612573565b505b50600101612408565b6125b6614d8c565b612607576040805162461bcd60e51b815260206004820152601f60248201527f6f6e6c792061646d696e2063616e206368616e676520636f6d70207261746500604482015290519081900360640190fd5b600e805490829055604080518281526020810184905281517fc227c9272633c3a307d9845bf2bc2509cefb20d655b5f3c1002d8e1e3f22c8b0929181900390910190a1611b336140bd565b6010602052600090815260409020546001600160e01b03811690600160e01b900463ffffffff1682565b600c6020526000908152604090205460ff1681565b600b6020526000908152604090205460ff1681565b66038d7ea4c6800081565b6004546001600160a01b031681565b600a54600160b01b900460ff1681565b6011602052600090815260409020546001600160e01b03811690600160e01b900463ffffffff1682565b60096020526000908152604090208054600182015460039092015460ff91821692911683565b600a546000906001600160a01b031633148061274657506000546001600160a01b031633145b6127815760405162461bcd60e51b8152600401808060200182810382526027815260200180615e7d6027913960400191505060405180910390fd5b6000546001600160a01b031633148061279c57506001821515145b6127e6576040805162461bcd60e51b81526020600482015260166024820152756f6e6c792061646d696e2063616e20756e706175736560501b604482015290519081900360640190fd5b600a8054831515600160b01b810260ff60b01b1990921691909117909155604080516020810192909252808252600882820152672a3930b739b332b960c11b6060830152517fef159d9a32b2472e32b098f954f3ce62d232939f1c207070b584df1814de2de09181900360800190a15090565b6001600160a01b038082166000908152600960209081526040808320938616835260029093019052205460ff1692915050565b60075481565b73c00e94cb662c3520282e6f5717214004a7f2688890565b600080546001600160a01b031633146128c95761186860016012614048565b6001600160a01b03821660009081526009602052604090205460ff16156128f657611868600a6011614048565b816001600160a01b031663fe9c44ae6040518163ffffffff1660e01b815260040160206040518083038186803b15801561292f57600080fd5b505afa158015612943573d6000803e3d6000fd5b505050506040513d602081101561295957600080fd5b5050604080516060810182526001808252600060208381018281528486018381526001600160a01b03891684526009909252949091209251835490151560ff199182161784559351918301919091555160039091018054911515919092161790556129c382614db5565b604080516001600160a01b038416815290517fcf583bb0c569eb967f806b11601c4cb93c10310485c67add5f8362c2f212321f9181900360200190a1600092915050565b6ec097ce7bc90715b34b9f100000000081565b600e5481565b60608060086000846001600160a01b03166001600160a01b03168152602001908152602001600020805480602002602001604051908101604052809291908181526020018280548015612a9c57602002820191906000526020600020905b81546001600160a01b03168152600190910190602001808311612a7e575b5093979650505050505050565b600a54600160b81b900460ff1681565b6060600d805480602002602001604051908101604052809291908181526020018280548015612b1157602002820191906000526020600020905b81546001600160a01b03168152600190910190602001808311612af3575b5050505050905090565b601260209081526000928352604080842090915290825290205481565b6002546001600160a01b031681565b600a54600090600160b01b900460ff1615612b9e576040805162461bcd60e51b81526020600482015260126024820152711d1c985b9cd9995c881a5cc81c185d5cd95960721b604482015290519081900360640190fd5b6000612bab868685614e93565b90508015612bba5790506116e9565b612bc3866148a2565b612bcf86866000614b20565b6116e386856000614b20565b6060600082519050606081604051908082528060200260200182016040528015612c0f578160200160208202803883390190505b50905060005b82811015612c6a576000858281518110612c2b57fe5b60200260200101519050612c3f8133614f3f565b6011811115612c4a57fe5b838381518110612c5657fe5b602090810291909101015250600101612c15565b509392505050565b600480546040805163fc57d4df60e01b81526001600160a01b038781169482019490945290516000938493849391169163fc57d4df9160248082019260209290919082900301818787803b158015612cc957600080fd5b505af1158015612cdd573d6000803e3d6000fd5b505050506040513d6020811015612cf357600080fd5b5051600480546040805163fc57d4df60e01b81526001600160a01b038a8116948201949094529051939450600093929091169163fc57d4df9160248082019260209290919082900301818787803b158015612d4d57600080fd5b505af1158015612d61573d6000803e3d6000fd5b505050506040513d6020811015612d7757600080fd5b50519050811580612d86575080155b15612d9b57600d935060009250612ee1915050565b6000866001600160a01b031663182df0f56040518163ffffffff1660e01b815260040160206040518083038186803b158015612dd657600080fd5b505afa158015612dea573d6000803e3d6000fd5b505050506040513d6020811015612e0057600080fd5b505190506000612e0e615d64565b612e16615d64565b612e1e615d64565b6000612e2c60065489615060565b945090506000816003811115612e3e57fe5b14612e5a57600b5b995060009850612ee1975050505050505050565b612e648787615060565b935090506000816003811115612e7657fe5b14612e8257600b612e46565b612e8c848461509b565b925090506000816003811115612e9e57fe5b14612eaa57600b612e46565b612eb4828c614d38565b955090506000816003811115612ec657fe5b14612ed257600b612e46565b60009950939750505050505050505b935093915050565b601360209081526000928352604080842090915290825290205481565b60146020526000908152604090205481565b612f20614d8c565b612f71576040805162461bcd60e51b815260206004820152601e60248201527f6f6e6c792061646d696e2063616e2061646420636f6d70206d61726b65740000604482015290519081900360640190fd5b60005b8151811015612fa157612f99828281518110612f8c57fe5b60200260200101516150b3565b600101612f74565b506115fd6140bd565b600a54600090600160b81b900460ff1615612ffe576040805162461bcd60e51b815260206004820152600f60248201526e1cd95a5e99481a5cc81c185d5cd959608a1b604482015290519081900360640190fd5b6001600160a01b03861660009081526009602052604090205460ff16158061303f57506001600160a01b03851660009081526009602052604090205460ff16155b1561304b576009612137565b846001600160a01b0316635fe3b5676040518163ffffffff1660e01b815260040160206040518083038186803b15801561308457600080fd5b505afa158015613098573d6000803e3d6000fd5b505050506040513d60208110156130ae57600080fd5b505160408051635fe3b56760e01b815290516001600160a01b0392831692891691635fe3b567916004808301926020929190829003018186803b1580156130f457600080fd5b505afa158015613108573d6000803e3d6000fd5b505050506040513d602081101561311e57600080fd5b50516001600160a01b031614613135576002612137565b61313e866148a2565b61314a86846000614b20565b61315686856000614b20565b60009695505050505050565b600080546001600160a01b03163314613181576118686001600d614048565b6007805490839055604080518281526020810185905281517f7093cf1eb653f749c3ff531d6df7f92764536a7fa0d13530cd26e070780c32ea929181900390910190a16000611e33565b6001600160a01b0383166000908152600c602052604081205460ff161561322c576040805162461bcd60e51b815260206004820152601060248201526f189bdc9c9bddc81a5cc81c185d5cd95960821b604482015290519081900360640190fd5b6001600160a01b03841660009081526009602052604090205460ff16613253576009611e11565b6001600160a01b038085166000908152600960209081526040808320938716835260029093019052205460ff1661334357336001600160a01b038516146132d9576040805162461bcd60e51b815260206004820152601560248201527439b2b73232b91036bab9ba1031329031aa37b5b2b760591b604482015290519081900360640190fd5b60006132e53385614f3f565b905060008160118111156132f557fe5b1461330e5780601181111561330657fe5b915050611e33565b6001600160a01b038086166000908152600960209081526040808320938816835260029093019052205460ff1661334157fe5b505b600480546040805163fc57d4df60e01b81526001600160a01b03888116948201949094529051929091169163fc57d4df916024808201926020929091908290030181600087803b15801561339657600080fd5b505af11580156133aa573d6000803e3d6000fd5b505050506040513d60208110156133c057600080fd5b50516133cd57600d611e11565b6001600160a01b0384166000908152601660205260409020548015613518576000856001600160a01b03166347bd37186040518163ffffffff1660e01b815260040160206040518083038186803b15801561342757600080fd5b505afa15801561343b573d6000803e3d6000fd5b505050506040513d602081101561345157600080fd5b5051905060008061346283876153ce565b9092509050600082600381111561347557fe5b146134c0576040805162461bcd60e51b8152602060048201526016602482015275746f74616c20626f72726f7773206f766572666c6f7760501b604482015290519081900360640190fd5b838110613514576040805162461bcd60e51b815260206004820152601960248201527f6d61726b657420626f72726f7720636170207265616368656400000000000000604482015290519081900360640190fd5b5050505b6000806135288688600088614484565b9193509091506000905082601181111561353e57fe5b146135595781601181111561354f57fe5b9350505050611e33565b801561356657600461354f565b61356e615d64565b6040518060200160405280896001600160a01b031663aa5af0fd6040518163ffffffff1660e01b815260040160206040518083038186803b1580156135b257600080fd5b505afa1580156135c6573d6000803e3d6000fd5b505050506040513d60208110156135dc57600080fd5b5051905290506135ec8882613bd6565b6135f98888836000613e5e565b600098975050505050505050565b6008602052816000526040600020818154811061362057fe5b6000918252602090912001546001600160a01b03169150829050565b6003546001600160a01b031681565b600080546001600160a01b031633146136715761366a60016006614048565b9050611439565b6001600160a01b0383166000908152600960205260409020805460ff166136a65761369e60096007614048565b915050611439565b6136ae615d64565b5060408051602081019091528381526136c5615d64565b506040805160208101909152670c7d713b49da000081526136e681836140b6565b15613701576136f760066008614048565b9350505050611439565b841580159061378c5750600480546040805163fc57d4df60e01b81526001600160a01b038a8116948201949094529051929091169163fc57d4df916024808201926020929091908290030181600087803b15801561375e57600080fd5b505af1158015613772573d6000803e3d6000fd5b505050506040513d602081101561378857600080fd5b5051155b1561379d576136f7600d6009614048565b60018301805490869055604080516001600160a01b03891681526020810183905280820188905290517f70483e6592cd5182d45ac970e05bc62cdcc90e9d8ef2c2dbe686cf383bcd7fc59181900360600190a16000979650505050505050565b600a54600160a81b900460ff1681565b60055481565b6115fd81600d80548060200260200160405190810160405280929190818152602001828054801561386d57602002820191906000526020600020905b81546001600160a01b0316815260019091019060200180831161384f575b505050505061143f565b600080613885858585614e93565b90508015613894579050611e33565b61389d856148a2565b6138a985856000614b20565b600095945050505050565b6000808290506000806000836001600160a01b031663c37f68e2336040518263ffffffff1660e01b815260040180826001600160a01b03166001600160a01b0316815260200191505060806040518083038186803b15801561391557600080fd5b505afa158015613929573d6000803e3d6000fd5b505050506040513d608081101561393f57600080fd5b5080516020820151604090920151909450909250905082156139925760405162461bcd60e51b8152600401808060200182810382526025815260200180615eff6025913960400191505060405180910390fd5b80156139af576139a4600c6002614048565b945050505050611844565b60006139bc873385614e93565b905080156139dd576139d1600e6003836153f4565b95505050505050611844565b6001600160a01b0385166000908152600960209081526040808320338452600281019092529091205460ff16613a1c5760009650505050505050611844565b3360009081526002820160209081526040808320805460ff191690556008825291829020805483518184028101840190945280845260609392830182828015613a8e57602002820191906000526020600020905b81546001600160a01b03168152600190910190602001808311613a70575b5050835193945083925060009150505b82811015613ae357896001600160a01b0316848281518110613abc57fe5b60200260200101516001600160a01b03161415613adb57809150613ae3565b600101613a9e565b50818110613aed57fe5b336000908152600860205260409020805481906000198101908110613b0e57fe5b9060005260206000200160009054906101000a90046001600160a01b0316818381548110613b3857fe5b600091825260209091200180546001600160a01b0319166001600160a01b03929092169190911790558054613b71826000198301615d77565b50604080516001600160a01b038c16815233602082015281517fe699a64c18b07ac5b7301aa273f36a2287239eb9501d81950672794afba29a0d929181900390910190a160009c9b505050505050505050505050565b6000546001600160a01b031681565b6001600160a01b0382166000908152601160209081526040808320600f9092528220549091613c03611ce8565b8354909150600090613c23908390600160e01b900463ffffffff1661545a565b9050600081118015613c355750600083115b15613e04576000613caa876001600160a01b03166347bd37186040518163ffffffff1660e01b815260040160206040518083038186803b158015613c7857600080fd5b505afa158015613c8c573d6000803e3d6000fd5b505050506040513d6020811015613ca257600080fd5b505187615494565b90506000613cb883866154b2565b9050613cc2615d64565b60008311613cdf5760405180602001604052806000815250613ce9565b613ce982846154f4565b9050613cf3615d64565b604080516020810190915288546001600160e01b03168152613d159083615532565b90506040518060400160405280613d6583600001516040518060400160405280601a81526020017f6e657720696e6465782065786365656473203232342062697473000000000000815250615557565b6001600160e01b03168152602001613da0886040518060400160405280601c8152602001600080516020615f248339815191528152506155f1565b63ffffffff9081169091526001600160a01b038c166000908152601160209081526040909120835181549490920151909216600160e01b026001600160e01b039182166001600160e01b0319909416939093171691909117905550611ced92505050565b8015611ced57613e37826040518060400160405280601c8152602001600080516020615f248339815191528152506155f1565b845463ffffffff91909116600160e01b026001600160e01b03909116178455505050505050565b6001600160a01b0384166000908152601160205260409020613e7e615d64565b50604080516020810190915281546001600160e01b03168152613e9f615d64565b5060408051602080820183526001600160a01b03808a16600090815260138352848120918a16808252828452948120805485528651959091529152919091558051156123fc57613eed615d64565b613ef78383615646565b90506000613f86896001600160a01b03166395dd91938a6040518263ffffffff1660e01b815260040180826001600160a01b03166001600160a01b0316815260200191505060206040518083038186803b158015613f5457600080fd5b505afa158015613f68573d6000803e3d6000fd5b505050506040513d6020811015613f7e57600080fd5b505188615494565b90506000613f94828461566b565b6001600160a01b038a1660009081526014602052604081205491925090613fbb908361569a565b9050613fdc8a828a613fd45766038d7ea4c68000613fd7565b60005b6156d0565b6001600160a01b03808c1660008181526014602090815260409182902094909455895181518781529485015280519193928f16927f1fc3ecc087d8d2d15e23d0032af5a47059c3892d003d8e139fdcb6bb327c99a6929081900390910190a35050505050505050505050565b60007f45b96fe442630264581b197e84bbada861235052c5a1aadfff9ea4e40a969aa083601181111561407757fe5b83601381111561408357fe5b604080519283526020830191909152600082820152519081900360600190a1826011811115611e3357fe5b519051111590565b5190511090565b6060600d80548060200260200160405190810160405280929190818152602001828054801561411557602002820191906000526020600020905b81546001600160a01b031681526001909101906020018083116140f7575b50939450600093505050505b81518110156141db57600082828151811061413857fe5b6020026020010151905061414a615d64565b6040518060200160405280836001600160a01b031663aa5af0fd6040518163ffffffff1660e01b815260040160206040518083038186803b15801561418e57600080fd5b505afa1580156141a2573d6000803e3d6000fd5b505050506040513d60208110156141b857600080fd5b5051905290506141c7826148a2565b6141d18282613bd6565b5050600101614121565b506141e4615d64565b6040518060200160405280600081525090506060825160405190808252806020026020018201604052801561423357816020015b614220615d64565b8152602001906001900390816142185790505b50905060005b83518110156143bb57600084828151811061425057fe5b6020908102919091018101516001600160a01b0381166000908152600990925260409091206003015490915060ff16156143b25761428c615d64565b60408051602080820180845260045463fc57d4df60e01b9091526001600160a01b03868116602485015293519293849391169163fc57d4df9160448086019291908187030181600087803b1580156142e357600080fd5b505af11580156142f7573d6000803e3d6000fd5b505050506040513d602081101561430d57600080fd5b50519052905061431b615d64565b61438982846001600160a01b03166347bd37186040518163ffffffff1660e01b815260040160206040518083038186803b15801561435857600080fd5b505afa15801561436c573d6000803e3d6000fd5b505050506040513d602081101561438257600080fd5b5051615815565b90508085858151811061439857fe5b60200260200101819052506143ad8682615532565b955050505b50600101614239565b5060005b8351811015611ce2576000600d82815481106143d757fe5b600091825260208220015485516001600160a01b0390911692506143fc576000614424565b614424600e5461441f86868151811061441157fe5b602002602001015188615836565b615869565b6001600160a01b0383166000818152600f60209081526040918290208490558151848152915193945091927f2ab93f65628379309f36cb125e90d7c902454a545c4f8b8cb0794af75c24b807929181900390910190a250506001016143bf565b6000806000614491615d9b565b6001600160a01b0388166000908152600860209081526040808320805482518185028101850190935280835284936060939291908301828280156144fe57602002820191906000526020600020905b81546001600160a01b031681526001909101906020018083116144e0575b50939450600093505050505b815181101561485d57600082828151811061452157fe5b60200260200101519050806001600160a01b031663c37f68e28e6040518263ffffffff1660e01b815260040180826001600160a01b03166001600160a01b0316815260200191505060806040518083038186803b15801561458157600080fd5b505afa158015614595573d6000803e3d6000fd5b505050506040513d60808110156145ab57600080fd5b508051602082015160408084015160609485015160808c0152938a019390935291880191909152945084156145f15750600f975060009650869550611d85945050505050565b60408051602080820183526001600160a01b0380851660008181526009845285812060010154855260c08c01949094528451808401865260808c0151815260e08c015260048054865163fc57d4df60e01b815291820192909252945191169363fc57d4df9360248083019493928390030190829087803b15801561467457600080fd5b505af1158015614688573d6000803e3d6000fd5b505050506040513d602081101561469e57600080fd5b505160a087018190526146c25750600d975060009650869550611d85945050505050565b604080516020810190915260a08701518152610100870181905260c087015160e08801516146ef92615882565b6101208801529350600084600381111561470557fe5b146147215750600b975060009650869550611d85945050505050565b614739866101200151876040015188600001516158da565b87529350600084600381111561474b57fe5b146147675750600b975060009650869550611d85945050505050565b61477f866101000151876060015188602001516158da565b60208801529350600084600381111561479457fe5b146147b05750600b975060009650869550611d85945050505050565b8b6001600160a01b0316816001600160a01b03161415614854576147de8661012001518c88602001516158da565b6020880152935060008460038111156147f357fe5b1461480f5750600b975060009650869550611d85945050505050565b6148238661010001518b88602001516158da565b60208801529350600084600381111561483857fe5b146148545750600b975060009650869550611d85945050505050565b5060010161450a565b50602084015184511115614884575050506020810151905160009450039150829050611d85565b5050815160209092015160009550859450919091039150611d859050565b6001600160a01b0381166000908152601060209081526040808320600f90925282205490916148cf611ce8565b83549091506000906148ef908390600160e01b900463ffffffff1661545a565b90506000811180156149015750600083115b15614ac7576000856001600160a01b03166318160ddd6040518163ffffffff1660e01b815260040160206040518083038186803b15801561494157600080fd5b505afa158015614955573d6000803e3d6000fd5b505050506040513d602081101561496b57600080fd5b50519050600061497b83866154b2565b9050614985615d64565b600083116149a257604051806020016040528060008152506149ac565b6149ac82846154f4565b90506149b6615d64565b604080516020810190915288546001600160e01b031681526149d89083615532565b90506040518060400160405280614a2883600001516040518060400160405280601a81526020017f6e657720696e6465782065786365656473203232342062697473000000000000815250615557565b6001600160e01b03168152602001614a63886040518060400160405280601c8152602001600080516020615f248339815191528152506155f1565b63ffffffff9081169091526001600160a01b038b166000908152601060209081526040909120835181549490920151909216600160e01b026001600160e01b039182166001600160e01b031990941693909317169190911790555061161292505050565b801561161257614afa826040518060400160405280601c8152602001600080516020615f248339815191528152506155f1565b845463ffffffff91909116600160e01b026001600160e01b039091161784555050505050565b6001600160a01b0383166000908152601060205260409020614b40615d64565b50604080516020810190915281546001600160e01b03168152614b61615d64565b5060408051602080820183526001600160a01b03808916600090815260128352848120918916808252828452948120805485528651959091529152919091558051158015614baf5750815115155b15614bc7576ec097ce7bc90715b34b9f100000000081525b614bcf615d64565b614bd98383615646565b90506000876001600160a01b03166370a08231886040518263ffffffff1660e01b815260040180826001600160a01b03166001600160a01b0316815260200191505060206040518083038186803b158015614c3357600080fd5b505afa158015614c47573d6000803e3d6000fd5b505050506040513d6020811015614c5d57600080fd5b505190506000614c6d828461566b565b6001600160a01b03891660009081526014602052604081205491925090614c94908361569a565b9050614cad89828a613fd45766038d7ea4c68000613fd7565b6001600160a01b03808b1660008181526014602090815260409182902094909455895181518781529485015280519193928e16927f2caecd17d02f56fa897705dcc740da2d237c373f70686f4e0d9bd3bf0400ea7a929081900390910190a350505050505050505050565b6000806000614d2b846000806000614484565b9250925092509193909250565b6000806000614d45615d64565b614d4f8686615927565b90925090506000826003811115614d6257fe5b14614d735750915060009050614d85565b6000614d7e8261598f565b9350935050505b9250929050565b600080546001600160a01b0316331480614db057506002546001600160a01b031633145b905090565b60005b600d54811015614e4057816001600160a01b0316600d8281548110614dd957fe5b6000918252602090912001546001600160a01b03161415614e38576040805162461bcd60e51b81526020600482015260146024820152731b585c9ad95d08185b1c9958591e48185919195960621b604482015290519081900360640190fd5b600101614db8565b50600d80546001810182556000919091527fd7b6990105719101dabeb77144f2a3385c8033acd3af97e9423a695e81ad1eb50180546001600160a01b0319166001600160a01b0392909216919091179055565b6001600160a01b03831660009081526009602052604081205460ff16614eba576009611e11565b6001600160a01b038085166000908152600960209081526040808320938716835260029093019052205460ff16614ef2576000611e11565b600080614f028587866000614484565b91935090915060009050826011811115614f1857fe5b14614f3257816011811115614f2957fe5b92505050611e33565b8015613156576004614f29565b6001600160a01b0382166000908152600960205260408120805460ff16614f6a576009915050611439565b6001600160a01b038316600090815260028201602052604090205460ff16151560011415614f9c576000915050611439565b6007546001600160a01b03841660009081526008602052604090205410614fc7576010915050611439565b6001600160a01b0380841660008181526002840160209081526040808320805460ff19166001908117909155600883528184208054918201815584529282902090920180549489166001600160a01b031990951685179055815193845283019190915280517f3ab23ab0d51cccc0c3085aec51f99228625aa1a922b3a8ca89a26b0f2027a1a59281900390910190a15060009392505050565b600061506a615d64565b61509060405180602001604052808681525060405180602001604052808681525061599e565b915091509250929050565b60006150a5615d64565b835183516150909190615a87565b6001600160a01b0381166000908152600960205260409020805460ff161515600114615126576040805162461bcd60e51b815260206004820152601960248201527f636f6d70206d61726b6574206973206e6f74206c697374656400000000000000604482015290519081900360640190fd5b600381015460ff1615615180576040805162461bcd60e51b815260206004820152601960248201527f636f6d70206d61726b657420616c726561647920616464656400000000000000604482015290519081900360640190fd5b60038101805460ff19166001908117909155604080516001600160a01b0385168152602081019290925280517f93c1f3e36ed71139f466a4ce8c9751790e2e33f5afb2df0dcfb3aeabe55d5aa29281900390910190a16001600160a01b0382166000908152601060205260409020546001600160e01b031615801561522857506001600160a01b038216600090815260106020526040902054600160e01b900463ffffffff16155b156152e55760405180604001604052806ec097ce7bc90715b34b9f10000000006001600160e01b0316815260200161528a615261611ce8565b6040518060400160405280601c8152602001600080516020615f248339815191528152506155f1565b63ffffffff9081169091526001600160a01b0384166000908152601060209081526040909120835181549490920151909216600160e01b026001600160e01b039182166001600160e01b031990941693909317169190911790555b6001600160a01b0382166000908152601160205260409020546001600160e01b031615801561533757506001600160a01b038216600090815260116020526040902054600160e01b900463ffffffff16155b15611b335760405180604001604052806ec097ce7bc90715b34b9f10000000006001600160e01b03168152602001615370615261611ce8565b63ffffffff9081169091526001600160a01b0384166000908152601160209081526040909120835181549490920151909216600160e01b026001600160e01b039182166001600160e01b031990941693909317169190911790555050565b6000808383018481106153e657600092509050614d85565b506002915060009050614d85565b60007f45b96fe442630264581b197e84bbada861235052c5a1aadfff9ea4e40a969aa084601181111561542357fe5b84601381111561542f57fe5b604080519283526020830191909152818101859052519081900360600190a1836011811115611e3057fe5b6000611e338383604051806040016040528060158152602001747375627472616374696f6e20756e646572666c6f7760581b815250615b37565b6000611e336154ab84670de0b6b3a76400006154b2565b8351615b91565b6000611e3383836040518060400160405280601781526020017f6d756c7469706c69636174696f6e206f766572666c6f77000000000000000000815250615bc4565b6154fc615d64565b6040518060200160405280615529615523866ec097ce7bc90715b34b9f10000000006154b2565b85615b91565b90529392505050565b61553a615d64565b60405180602001604052806155298560000151856000015161569a565b600081600160e01b84106155e95760405162461bcd60e51b81526004018080602001828103825283818151815260200191508051906020019080838360005b838110156155ae578181015183820152602001615596565b50505050905090810190601f1680156155db5780820380516001836020036101000a031916815260200191505b509250505060405180910390fd5b509192915050565b600081600160201b84106155e95760405162461bcd60e51b81526020600482018181528351602484015283519092839260449091019190850190808383600083156155ae578181015183820152602001615596565b61564e615d64565b60405180602001604052806155298560000151856000015161545a565b60006ec097ce7bc90715b34b9f100000000061568b8484600001516154b2565b8161569257fe5b049392505050565b6000611e338383604051806040016040528060118152602001706164646974696f6e206f766572666c6f7760781b815250615c43565b60008183101580156156e25750600083115b1561580d5760006156f1612892565b604080516370a0823160e01b815230600482015290519192506000916001600160a01b038416916370a08231916024808301926020929190829003018186803b15801561573d57600080fd5b505afa158015615751573d6000803e3d6000fd5b505050506040513d602081101561576757600080fd5b5051905080851161580a57816001600160a01b031663a9059cbb87876040518363ffffffff1660e01b815260040180836001600160a01b03166001600160a01b0316815260200182815260200192505050602060405180830381600087803b1580156157d257600080fd5b505af11580156157e6573d6000803e3d6000fd5b505050506040513d60208110156157fc57600080fd5b5060009350611e3392505050565b50505b509092915050565b61581d615d64565b60405180602001604052806155298560000151856154b2565b61583e615d64565b60405180602001604052806155296158628660000151670de0b6b3a76400006154b2565b8551615b91565b6000670de0b6b3a764000061568b8484600001516154b2565b600061588c615d64565b6000615896615d64565b6158a0878761599e565b909250905060008260038111156158b357fe5b146158c2579092509050612ee1565b6158cc818661599e565b935093505050935093915050565b60008060006158e7615d64565b6158f18787615927565b9092509050600082600381111561590457fe5b146159155750915060009050612ee1565b6158cc6159218261598f565b866153ce565b6000615931615d64565b600080615942866000015186615c98565b9092509050600082600381111561595557fe5b1461597457506040805160208101909152600081529092509050614d85565b60408051602081019091529081526000969095509350505050565b51670de0b6b3a7640000900490565b60006159a8615d64565b6000806159bd86600001518660000151615c98565b909250905060008260038111156159d057fe5b146159ef57506040805160208101909152600081529092509050614d85565b600080615a046706f05b59d3b20000846153ce565b90925090506000826003811115615a1757fe5b14615a3957506040805160208101909152600081529094509250614d85915050565b600080615a4e83670de0b6b3a7640000615cd7565b90925090506000826003811115615a6157fe5b14615a6857fe5b604080516020810190915290815260009a909950975050505050505050565b6000615a91615d64565b600080615aa686670de0b6b3a7640000615c98565b90925090506000826003811115615ab957fe5b14615ad857506040805160208101909152600081529092509050614d85565b600080615ae58388615cd7565b90925090506000826003811115615af857fe5b14615b1a57506040805160208101909152600081529094509250614d85915050565b604080516020810190915290815260009890975095505050505050565b60008184841115615b895760405162461bcd60e51b81526020600482018181528351602484015283519092839260449091019190850190808383600083156155ae578181015183820152602001615596565b505050900390565b6000611e3383836040518060400160405280600e81526020016d646976696465206279207a65726f60901b815250615d02565b6000831580615bd1575082155b15615bde57506000611e33565b83830283858281615beb57fe5b04148390615c3a5760405162461bcd60e51b81526020600482018181528351602484015283519092839260449091019190850190808383600083156155ae578181015183820152602001615596565b50949350505050565b60008383018285821015615c3a5760405162461bcd60e51b81526020600482018181528351602484015283519092839260449091019190850190808383600083156155ae578181015183820152602001615596565b60008083615cab57506000905080614d85565b83830283858281615cb857fe5b0414615ccc57506002915060009050614d85565b600092509050614d85565b60008082615ceb5750600190506000614d85565b6000838581615cf657fe5b04915091509250929050565b60008183615d515760405162461bcd60e51b81526020600482018181528351602484015283519092839260449091019190850190808383600083156155ae578181015183820152602001615596565b50828481615d5b57fe5b04949350505050565b6040518060200160405280600081525090565b81548183558181111561149c5760008381526020902061149c918101908301615e05565b604051806101400160405280600081526020016000815260200160008152602001600081526020016000815260200160008152602001615dd9615d64565b8152602001615de6615d64565b8152602001615df3615d64565b8152602001615e00615d64565b905290565b611cea91905b80821115615e1f5760008155600101615e0b565b509056fe63616e6e6f742070617573652061206d61726b65742074686174206973206e6f74206c69737465646f6e6c792065787465726e616c6c79206f776e6564206163636f756e7473206d61792072656672657368207370656564736f6e6c7920706175736520677561726469616e20616e642061646d696e2063616e2070617573656f6e6c792061646d696e2063616e2073657420626f72726f772063617020677561726469616e6f6e6c792061646d696e206f7220626f72726f772063617020677561726469616e2063616e2073657420626f72726f772063617073657869744d61726b65743a206765744163636f756e74536e617073686f74206661696c6564626c6f636b206e756d62657220657863656564732033322062697473000000006f6e6c7920756e6974726f6c6c65722061646d696e2063616e206368616e676520627261696e73a265627a7a72315820359b62edd38f706aff517151562bdd4386d2df6db13c48d65c335d92d9af081e64736f6c63430005110032",
  "devdoc": {
    "author": "Compound",
    "methods": {
      "_addCompMarkets(address[])": {
        "params": {
          "cTokens": "The addresses of the markets to add"
        }
      },
      "_dropCompMarket(address)": {
        "params": {
          "cToken": "The address of the market to drop"
        }
      },
      "_setBorrowCapGuardian(address)": {
        "params": {
          "newBorrowCapGuardian": "The address of the new Borrow Cap Guardian"
        }
      },
      "_setCloseFactor(uint256)": {
        "details": "Admin function to set closeFactor",
        "params": {
          "newCloseFactorMantissa": "New close factor, scaled by 1e18"
        },
        "return": "uint 0=success, otherwise a failure. (See ErrorReporter for details)"
      },
      "_setCollateralFactor(address,uint256)": {
        "details": "Admin function to set per-market collateralFactor",
        "params": {
          "cToken": "The market to set the factor on",
          "newCollateralFactorMantissa": "The new collateral factor, scaled by 1e18"
        },
        "return": "uint 0=success, otherwise a failure. (See ErrorReporter for details)"
      },
      "_setCompRate(uint256)": {
        "params": {
          "compRate_": "The amount of COMP wei per block to distribute"
        }
      },
      "_setLiquidationIncentive(uint256)": {
        "details": "Admin function to set liquidationIncentive",
        "params": {
          "newLiquidationIncentiveMantissa": "New liquidationIncentive scaled by 1e18"
        },
        "return": "uint 0=success, otherwise a failure. (See ErrorReporter for details)"
      },
      "_setMarketBorrowCaps(address[],uint256[])": {
        "details": "Admin or borrowCapGuardian function to set the borrow caps. A borrow cap of 0 corresponds to unlimited borrowing.",
        "params": {
          "cTokens": "The addresses of the markets (tokens) to change the borrow caps for",
          "newBorrowCaps": "The new borrow cap values in underlying to be set. A value of 0 corresponds to unlimited borrowing."
        }
      },
      "_setMaxAssets(uint256)": {
        "details": "Admin function to set maxAssets",
        "params": {
          "newMaxAssets": "New max assets"
        },
        "return": "uint 0=success, otherwise a failure. (See ErrorReporter for details)"
      },
      "_setPauseGuardian(address)": {
        "params": {
          "newPauseGuardian": "The address of the new Pause Guardian"
        },
        "return": "uint 0=success, otherwise a failure. (See enum Error for details)"
      },
      "_setPriceOracle(address)": {
        "details": "Admin function to set a new price oracle",
        "return": "uint 0=success, otherwise a failure (see ErrorReporter.sol for details)"
      },
      "_supportMarket(address)": {
        "details": "Admin function to set isListed and add support for the market",
        "params": {
          "cToken": "The address of the market (token) to list"
        },
        "return": "uint 0=success, otherwise a failure. (See enum Error for details)"
      },
      "borrowAllowed(address,address,uint256)": {
        "params": {
          "borrowAmount": "The amount of underlying the account would borrow",
          "borrower": "The account which would borrow the asset",
          "cToken": "The market to verify the borrow against"
        },
        "return": "0 if the borrow is allowed, otherwise a semi-opaque error code (See ErrorReporter.sol)"
      },
      "borrowVerify(address,address,uint256)": {
        "params": {
          "borrowAmount": "The amount of the underlying asset requested to borrow",
          "borrower": "The address borrowing the underlying",
          "cToken": "Asset whose underlying is being borrowed"
        }
      },
      "checkMembership(address,address)": {
        "params": {
          "account": "The address of the account to check",
          "cToken": "The cToken to check"
        },
        "return": "True if the account is in the asset, otherwise false."
      },
      "claimComp(address)": {
        "params": {
          "holder": "The address to claim COMP for"
        }
      },
      "claimComp(address,address[])": {
        "params": {
          "cTokens": "The list of markets to claim COMP in",
          "holder": "The address to claim COMP for"
        }
      },
      "claimComp(address[],address[],bool,bool)": {
        "params": {
          "borrowers": "Whether or not to claim COMP earned by borrowing",
          "cTokens": "The list of markets to claim COMP in",
          "holders": "The addresses to claim COMP for",
          "suppliers": "Whether or not to claim COMP earned by supplying"
        }
      },
      "enterMarkets(address[])": {
        "params": {
          "cTokens": "The list of addresses of the cToken markets to be enabled"
        },
        "return": "Success indicator for whether each corresponding market was entered"
      },
      "exitMarket(address)": {
        "details": "Sender must not have an outstanding borrow balance in the asset, or be providing necessary collateral for an outstanding borrow.",
        "params": {
          "cTokenAddress": "The address of the asset to be removed"
        },
        "return": "Whether or not the account successfully exited the market"
      },
      "getAccountLiquidity(address)": {
        "return": "(possible error code (semi-opaque), account liquidity in excess of collateral requirements,         account shortfall below collateral requirements)"
      },
      "getAllMarkets()": {
        "details": "The automatic getter may be used to access an individual market.",
        "return": "The list of market addresses"
      },
      "getAssetsIn(address)": {
        "params": {
          "account": "The address of the account to pull assets for"
        },
        "return": "A dynamic list with the assets the account has entered"
      },
      "getCompAddress()": {
        "return": "The address of COMP"
      },
      "getHypotheticalAccountLiquidity(address,address,uint256,uint256)": {
        "params": {
          "account": "The account to determine liquidity for",
          "borrowAmount": "The amount of underlying to hypothetically borrow",
          "cTokenModify": "The market to hypothetically redeem/borrow in",
          "redeemTokens": "The number of tokens to hypothetically redeem"
        },
        "return": "(possible error code (semi-opaque), hypothetical account liquidity in excess of collateral requirements,         hypothetical account shortfall below collateral requirements)"
      },
      "liquidateBorrowAllowed(address,address,address,address,uint256)": {
        "params": {
          "borrower": "The address of the borrower",
          "cTokenBorrowed": "Asset which was borrowed by the borrower",
          "cTokenCollateral": "Asset which was used as collateral and will be seized",
          "liquidator": "The address repaying the borrow and seizing the collateral",
          "repayAmount": "The amount of underlying being repaid"
        }
      },
      "liquidateBorrowVerify(address,address,address,address,uint256,uint256)": {
        "params": {
          "actualRepayAmount": "The amount of underlying being repaid",
          "borrower": "The address of the borrower",
          "cTokenBorrowed": "Asset which was borrowed by the borrower",
          "cTokenCollateral": "Asset which was used as collateral and will be seized",
          "liquidator": "The address repaying the borrow and seizing the collateral"
        }
      },
      "liquidateCalculateSeizeTokens(address,address,uint256)": {
        "details": "Used in liquidation (called in cToken.liquidateBorrowFresh)",
        "params": {
          "actualRepayAmount": "The amount of cTokenBorrowed underlying to convert into cTokenCollateral tokens",
          "cTokenBorrowed": "The address of the borrowed cToken",
          "cTokenCollateral": "The address of the collateral cToken"
        },
        "return": "(errorCode, number of cTokenCollateral tokens to be seized in a liquidation)"
      },
      "mintAllowed(address,address,uint256)": {
        "params": {
          "cToken": "The market to verify the mint against",
          "mintAmount": "The amount of underlying being supplied to the market in exchange for tokens",
          "minter": "The account which would get the minted tokens"
        },
        "return": "0 if the mint is allowed, otherwise a semi-opaque error code (See ErrorReporter.sol)"
      },
      "mintVerify(address,address,uint256,uint256)": {
        "params": {
          "actualMintAmount": "The amount of the underlying asset being minted",
          "cToken": "Asset being minted",
          "mintTokens": "The number of tokens being minted",
          "minter": "The address minting the tokens"
        }
      },
      "redeemAllowed(address,address,uint256)": {
        "params": {
          "cToken": "The market to verify the redeem against",
          "redeemTokens": "The number of cTokens to exchange for the underlying asset in the market",
          "redeemer": "The account which would redeem the tokens"
        },
        "return": "0 if the redeem is allowed, otherwise a semi-opaque error code (See ErrorReporter.sol)"
      },
      "redeemVerify(address,address,uint256,uint256)": {
        "params": {
          "cToken": "Asset being redeemed",
          "redeemAmount": "The amount of the underlying asset being redeemed",
          "redeemTokens": "The number of tokens being redeemed",
          "redeemer": "The address redeeming the tokens"
        }
      },
      "repayBorrowAllowed(address,address,address,uint256)": {
        "params": {
          "borrower": "The account which would borrowed the asset",
          "cToken": "The market to verify the repay against",
          "payer": "The account which would repay the asset",
          "repayAmount": "The amount of the underlying asset the account would repay"
        },
        "return": "0 if the repay is allowed, otherwise a semi-opaque error code (See ErrorReporter.sol)"
      },
      "repayBorrowVerify(address,address,address,uint256,uint256)": {
        "params": {
          "actualRepayAmount": "The amount of underlying being repaid",
          "borrower": "The address of the borrower",
          "cToken": "Asset being repaid",
          "payer": "The address repaying the borrow"
        }
      },
      "seizeAllowed(address,address,address,address,uint256)": {
        "params": {
          "borrower": "The address of the borrower",
          "cTokenBorrowed": "Asset which was borrowed by the borrower",
          "cTokenCollateral": "Asset which was used as collateral and will be seized",
          "liquidator": "The address repaying the borrow and seizing the collateral",
          "seizeTokens": "The number of collateral tokens to seize"
        }
      },
      "seizeVerify(address,address,address,address,uint256)": {
        "params": {
          "borrower": "The address of the borrower",
          "cTokenBorrowed": "Asset which was borrowed by the borrower",
          "cTokenCollateral": "Asset which was used as collateral and will be seized",
          "liquidator": "The address repaying the borrow and seizing the collateral",
          "seizeTokens": "The number of collateral tokens to seize"
        }
      },
      "transferAllowed(address,address,address,uint256)": {
        "params": {
          "cToken": "The market to verify the transfer against",
          "dst": "The account which receives the tokens",
          "src": "The account which sources the tokens",
          "transferTokens": "The number of cTokens to transfer"
        },
        "return": "0 if the transfer is allowed, otherwise a semi-opaque error code (See ErrorReporter.sol)"
      },
      "transferVerify(address,address,address,uint256)": {
        "params": {
          "cToken": "Asset being transferred",
          "dst": "The account which receives the tokens",
          "src": "The account which sources the tokens",
          "transferTokens": "The number of cTokens to transfer"
        }
      }
    },
    "title": "Compound's Comptroller Contract"
  },
  "userdoc": {
    "methods": {
      "_addCompMarkets(address[])": {
        "notice": "Add markets to compMarkets, allowing them to earn COMP in the flywheel"
      },
      "_dropCompMarket(address)": {
        "notice": "Remove a market from compMarkets, preventing it from earning COMP in the flywheel"
      },
      "_setBorrowCapGuardian(address)": {
        "notice": "Admin function to change the Borrow Cap Guardian"
      },
      "_setCloseFactor(uint256)": {
        "notice": "Sets the closeFactor used when liquidating borrows"
      },
      "_setCollateralFactor(address,uint256)": {
        "notice": "Sets the collateralFactor for a market"
      },
      "_setCompRate(uint256)": {
        "notice": "Set the amount of COMP distributed per block"
      },
      "_setLiquidationIncentive(uint256)": {
        "notice": "Sets liquidationIncentive"
      },
      "_setMarketBorrowCaps(address[],uint256[])": {
        "notice": "Set the given borrow caps for the given cToken markets. Borrowing that brings total borrows to or above borrow cap will revert."
      },
      "_setMaxAssets(uint256)": {
        "notice": "Sets maxAssets which controls how many markets can be entered"
      },
      "_setPauseGuardian(address)": {
        "notice": "Admin function to change the Pause Guardian"
      },
      "_setPriceOracle(address)": {
        "notice": "Sets a new price oracle for the comptroller"
      },
      "_supportMarket(address)": {
        "notice": "Add the market to the markets mapping and set it as listed"
      },
      "borrowAllowed(address,address,uint256)": {
        "notice": "Checks if the account should be allowed to borrow the underlying asset of the given market"
      },
      "borrowVerify(address,address,uint256)": {
        "notice": "Validates borrow and reverts on rejection. May emit logs."
      },
      "checkMembership(address,address)": {
        "notice": "Returns whether the given account is entered in the given asset"
      },
      "claimComp(address)": {
        "notice": "Claim all the comp accrued by holder in all markets"
      },
      "claimComp(address,address[])": {
        "notice": "Claim all the comp accrued by holder in the specified markets"
      },
      "claimComp(address[],address[],bool,bool)": {
        "notice": "Claim all comp accrued by the holders"
      },
      "enterMarkets(address[])": {
        "notice": "Add assets to be included in account liquidity calculation"
      },
      "exitMarket(address)": {
        "notice": "Removes asset from sender's account liquidity calculation"
      },
      "getAccountLiquidity(address)": {
        "notice": "Determine the current account liquidity wrt collateral requirements"
      },
      "getAllMarkets()": {
        "notice": "Return all of the markets"
      },
      "getAssetsIn(address)": {
        "notice": "Returns the assets an account has entered"
      },
      "getCompAddress()": {
        "notice": "Return the address of the COMP token"
      },
      "getHypotheticalAccountLiquidity(address,address,uint256,uint256)": {
        "notice": "Determine what the account liquidity would be if the given amounts were redeemed/borrowed"
      },
      "liquidateBorrowAllowed(address,address,address,address,uint256)": {
        "notice": "Checks if the liquidation should be allowed to occur"
      },
      "liquidateBorrowVerify(address,address,address,address,uint256,uint256)": {
        "notice": "Validates liquidateBorrow and reverts on rejection. May emit logs."
      },
      "liquidateCalculateSeizeTokens(address,address,uint256)": {
        "notice": "Calculate number of tokens of collateral asset to seize given an underlying amount"
      },
      "mintAllowed(address,address,uint256)": {
        "notice": "Checks if the account should be allowed to mint tokens in the given market"
      },
      "mintVerify(address,address,uint256,uint256)": {
        "notice": "Validates mint and reverts on rejection. May emit logs."
      },
      "redeemAllowed(address,address,uint256)": {
        "notice": "Checks if the account should be allowed to redeem tokens in the given market"
      },
      "redeemVerify(address,address,uint256,uint256)": {
        "notice": "Validates redeem and reverts on rejection. May emit logs."
      },
      "refreshCompSpeeds()": {
        "notice": "Recalculate and update COMP speeds for all COMP markets"
      },
      "repayBorrowAllowed(address,address,address,uint256)": {
        "notice": "Checks if the account should be allowed to repay a borrow in the given market"
      },
      "repayBorrowVerify(address,address,address,uint256,uint256)": {
        "notice": "Validates repayBorrow and reverts on rejection. May emit logs."
      },
      "seizeAllowed(address,address,address,address,uint256)": {
        "notice": "Checks if the seizing of assets should be allowed to occur"
      },
      "seizeVerify(address,address,address,address,uint256)": {
        "notice": "Validates seize and reverts on rejection. May emit logs."
      },
      "transferAllowed(address,address,address,uint256)": {
        "notice": "Checks if the account should be allowed to transfer tokens in the given market"
      },
      "transferVerify(address,address,address,uint256)": {
        "notice": "Validates transfer and reverts on rejection. May emit logs."
      }
    }
  },
  "storageLayout": {
    "storage": [
      {
        "astId": 10884,
        "contract": "contracts/Comptroller.sol:Comptroller",
        "label": "admin",
        "offset": 0,
        "slot": "0",
        "type": "t_address"
      },
      {
        "astId": 10886,
        "contract": "contracts/Comptroller.sol:Comptroller",
        "label": "pendingAdmin",
        "offset": 0,
        "slot": "1",
        "type": "t_address"
      },
      {
        "astId": 10888,
        "contract": "contracts/Comptroller.sol:Comptroller",
        "label": "comptrollerImplementation",
        "offset": 0,
        "slot": "2",
        "type": "t_address"
      },
      {
        "astId": 10890,
        "contract": "contracts/Comptroller.sol:Comptroller",
        "label": "pendingComptrollerImplementation",
        "offset": 0,
        "slot": "3",
        "type": "t_address"
      },
      {
        "astId": 10895,
        "contract": "contracts/Comptroller.sol:Comptroller",
        "label": "oracle",
        "offset": 0,
        "slot": "4",
        "type": "t_contract(PriceOracle)16658"
      },
      {
        "astId": 10897,
        "contract": "contracts/Comptroller.sol:Comptroller",
        "label": "closeFactorMantissa",
        "offset": 0,
        "slot": "5",
        "type": "t_uint256"
      },
      {
        "astId": 10899,
        "contract": "contracts/Comptroller.sol:Comptroller",
        "label": "liquidationIncentiveMantissa",
        "offset": 0,
        "slot": "6",
        "type": "t_uint256"
      },
      {
        "astId": 10901,
        "contract": "contracts/Comptroller.sol:Comptroller",
        "label": "maxAssets",
        "offset": 0,
        "slot": "7",
        "type": "t_uint256"
      },
      {
        "astId": 10906,
        "contract": "contracts/Comptroller.sol:Comptroller",
        "label": "accountAssets",
        "offset": 0,
        "slot": "8",
        "type": "t_mapping(t_address,t_array(t_contract(CToken)6117)dyn_storage)"
      },
      {
        "astId": 10924,
        "contract": "contracts/Comptroller.sol:Comptroller",
        "label": "markets",
        "offset": 0,
        "slot": "9",
        "type": "t_mapping(t_address,t_struct(Market)10920_storage)"
      },
      {
        "astId": 10926,
        "contract": "contracts/Comptroller.sol:Comptroller",
        "label": "pauseGuardian",
        "offset": 0,
        "slot": "10",
        "type": "t_address"
      },
      {
        "astId": 10928,
        "contract": "contracts/Comptroller.sol:Comptroller",
        "label": "_mintGuardianPaused",
        "offset": 20,
        "slot": "10",
        "type": "t_bool"
      },
      {
        "astId": 10930,
        "contract": "contracts/Comptroller.sol:Comptroller",
        "label": "_borrowGuardianPaused",
        "offset": 21,
        "slot": "10",
        "type": "t_bool"
      },
      {
        "astId": 10932,
        "contract": "contracts/Comptroller.sol:Comptroller",
        "label": "transferGuardianPaused",
        "offset": 22,
        "slot": "10",
        "type": "t_bool"
      },
      {
        "astId": 10934,
        "contract": "contracts/Comptroller.sol:Comptroller",
        "label": "seizeGuardianPaused",
        "offset": 23,
        "slot": "10",
        "type": "t_bool"
      },
      {
        "astId": 10938,
        "contract": "contracts/Comptroller.sol:Comptroller",
        "label": "mintGuardianPaused",
        "offset": 0,
        "slot": "11",
        "type": "t_mapping(t_address,t_bool)"
      },
      {
        "astId": 10942,
        "contract": "contracts/Comptroller.sol:Comptroller",
        "label": "borrowGuardianPaused",
        "offset": 0,
        "slot": "12",
        "type": "t_mapping(t_address,t_bool)"
      },
      {
        "astId": 10953,
        "contract": "contracts/Comptroller.sol:Comptroller",
        "label": "allMarkets",
        "offset": 0,
        "slot": "13",
        "type": "t_array(t_contract(CToken)6117)dyn_storage"
      },
      {
        "astId": 10955,
        "contract": "contracts/Comptroller.sol:Comptroller",
        "label": "compRate",
        "offset": 0,
        "slot": "14",
        "type": "t_uint256"
      },
      {
        "astId": 10959,
        "contract": "contracts/Comptroller.sol:Comptroller",
        "label": "compSpeeds",
        "offset": 0,
        "slot": "15",
        "type": "t_mapping(t_address,t_uint256)"
      },
      {
        "astId": 10963,
        "contract": "contracts/Comptroller.sol:Comptroller",
        "label": "compSupplyState",
        "offset": 0,
        "slot": "16",
        "type": "t_mapping(t_address,t_struct(CompMarketState)10950_storage)"
      },
      {
        "astId": 10967,
        "contract": "contracts/Comptroller.sol:Comptroller",
        "label": "compBorrowState",
        "offset": 0,
        "slot": "17",
        "type": "t_mapping(t_address,t_struct(CompMarketState)10950_storage)"
      },
      {
        "astId": 10973,
        "contract": "contracts/Comptroller.sol:Comptroller",
        "label": "compSupplierIndex",
        "offset": 0,
        "slot": "18",
        "type": "t_mapping(t_address,t_mapping(t_address,t_uint256))"
      },
      {
        "astId": 10979,
        "contract": "contracts/Comptroller.sol:Comptroller",
        "label": "compBorrowerIndex",
        "offset": 0,
        "slot": "19",
        "type": "t_mapping(t_address,t_mapping(t_address,t_uint256))"
      },
      {
        "astId": 10983,
        "contract": "contracts/Comptroller.sol:Comptroller",
        "label": "compAccrued",
        "offset": 0,
        "slot": "20",
        "type": "t_mapping(t_address,t_uint256)"
      },
      {
        "astId": 10988,
        "contract": "contracts/Comptroller.sol:Comptroller",
        "label": "borrowCapGuardian",
        "offset": 0,
        "slot": "21",
        "type": "t_address"
      },
      {
        "astId": 10992,
        "contract": "contracts/Comptroller.sol:Comptroller",
        "label": "borrowCaps",
        "offset": 0,
        "slot": "22",
        "type": "t_mapping(t_address,t_uint256)"
      }
    ],
    "types": {
      "t_address": {
        "encoding": "inplace",
        "label": "address",
        "numberOfBytes": "20"
      },
      "t_array(t_contract(CToken)6117)dyn_storage": {
        "base": "t_contract(CToken)6117",
        "encoding": "dynamic_array",
        "label": "contract CToken[]",
        "numberOfBytes": "32"
      },
      "t_bool": {
        "encoding": "inplace",
        "label": "bool",
        "numberOfBytes": "1"
      },
      "t_contract(CToken)6117": {
        "encoding": "inplace",
        "label": "contract CToken",
        "numberOfBytes": "20"
      },
      "t_contract(PriceOracle)16658": {
        "encoding": "inplace",
        "label": "contract PriceOracle",
        "numberOfBytes": "20"
      },
      "t_mapping(t_address,t_array(t_contract(CToken)6117)dyn_storage)": {
        "encoding": "mapping",
        "key": "t_address",
        "label": "mapping(address => contract CToken[])",
        "numberOfBytes": "32",
        "value": "t_array(t_contract(CToken)6117)dyn_storage"
      },
      "t_mapping(t_address,t_bool)": {
        "encoding": "mapping",
        "key": "t_address",
        "label": "mapping(address => bool)",
        "numberOfBytes": "32",
        "value": "t_bool"
      },
      "t_mapping(t_address,t_mapping(t_address,t_uint256))": {
        "encoding": "mapping",
        "key": "t_address",
        "label": "mapping(address => mapping(address => uint256))",
        "numberOfBytes": "32",
        "value": "t_mapping(t_address,t_uint256)"
      },
      "t_mapping(t_address,t_struct(CompMarketState)10950_storage)": {
        "encoding": "mapping",
        "key": "t_address",
        "label": "mapping(address => struct ComptrollerV3Storage.CompMarketState)",
        "numberOfBytes": "32",
        "value": "t_struct(CompMarketState)10950_storage"
      },
      "t_mapping(t_address,t_struct(Market)10920_storage)": {
        "encoding": "mapping",
        "key": "t_address",
        "label": "mapping(address => struct ComptrollerV2Storage.Market)",
        "numberOfBytes": "32",
        "value": "t_struct(Market)10920_storage"
      },
      "t_mapping(t_address,t_uint256)": {
        "encoding": "mapping",
        "key": "t_address",
        "label": "mapping(address => uint256)",
        "numberOfBytes": "32",
        "value": "t_uint256"
      },
      "t_struct(CompMarketState)10950_storage": {
        "encoding": "inplace",
        "label": "struct ComptrollerV3Storage.CompMarketState",
        "members": [
          {
            "astId": 10947,
            "contract": "contracts/Comptroller.sol:Comptroller",
            "label": "index",
            "offset": 0,
            "slot": "0",
            "type": "t_uint224"
          },
          {
            "astId": 10949,
            "contract": "contracts/Comptroller.sol:Comptroller",
            "label": "block",
            "offset": 28,
            "slot": "0",
            "type": "t_uint32"
          }
        ],
        "numberOfBytes": "32"
      },
      "t_struct(Market)10920_storage": {
        "encoding": "inplace",
        "label": "struct ComptrollerV2Storage.Market",
        "members": [
          {
            "astId": 10911,
            "contract": "contracts/Comptroller.sol:Comptroller",
            "label": "isListed",
            "offset": 0,
            "slot": "0",
            "type": "t_bool"
          },
          {
            "astId": 10913,
            "contract": "contracts/Comptroller.sol:Comptroller",
            "label": "collateralFactorMantissa",
            "offset": 0,
            "slot": "1",
            "type": "t_uint256"
          },
          {
            "astId": 10917,
            "contract": "contracts/Comptroller.sol:Comptroller",
            "label": "accountMembership",
            "offset": 0,
            "slot": "2",
            "type": "t_mapping(t_address,t_bool)"
          },
          {
            "astId": 10919,
            "contract": "contracts/Comptroller.sol:Comptroller",
            "label": "isComped",
            "offset": 0,
            "slot": "3",
            "type": "t_bool"
          }
        ],
        "numberOfBytes": "128"
      },
      "t_uint224": {
        "encoding": "inplace",
        "label": "uint224",
        "numberOfBytes": "28"
      },
      "t_uint256": {
        "encoding": "inplace",
        "label": "uint256",
        "numberOfBytes": "32"
      },
      "t_uint32": {
        "encoding": "inplace",
        "label": "uint32",
        "numberOfBytes": "4"
      }
    }
  }
}