{
  "address": "0x1D808Ea6B963f89f07B0308346F4aC2C53e310f9",
  "abi": [
    {
      "inputs": [
        {
          "internalType": "uint256",
          "name": "jumpMultiplierPerYear",
          "type": "uint256"
        },
        {
          "internalType": "uint256",
          "name": "kink_",
          "type": "uint256"
        },
        {
          "internalType": "address",
          "name": "pot_",
          "type": "address"
        },
        {
          "internalType": "address",
          "name": "jug_",
          "type": "address"
        },
        {
          "internalType": "address",
          "name": "owner_",
          "type": "address"
        }
      ],
      "stateMutability": "nonpayable",
      "type": "constructor"
    },
    {
      "anonymous": false,
      "inputs": [
        {
          "indexed": false,
          "internalType": "uint256",
          "name": "baseRatePerBlock",
          "type": "uint256"
        },
        {
          "indexed": false,
          "internalType": "uint256",
          "name": "multiplierPerBlock",
          "type": "uint256"
        },
        {
          "indexed": false,
          "internalType": "uint256",
          "name": "jumpMultiplierPerBlock",
          "type": "uint256"
        },
        {
          "indexed": false,
          "internalType": "uint256",
          "name": "kink",
          "type": "uint256"
        }
      ],
      "name": "NewInterestParams",
      "type": "event"
    },
    {
      "inputs": [],
      "name": "assumedOneMinusReserveFactorMantissa",
      "outputs": [
        {
          "internalType": "uint256",
          "name": "",
          "type": "uint256"
        }
      ],
      "stateMutability": "view",
      "type": "function"
    },
    {
      "inputs": [],
      "name": "baseRatePerBlock",
      "outputs": [
        {
          "internalType": "uint256",
          "name": "",
          "type": "uint256"
        }
      ],
      "stateMutability": "view",
      "type": "function"
    },
    {
      "inputs": [],
      "name": "blocksPerYear",
      "outputs": [
        {
          "internalType": "uint256",
          "name": "",
          "type": "uint256"
        }
      ],
      "stateMutability": "view",
      "type": "function"
    },
    {
      "inputs": [],
      "name": "dsrPerBlock",
      "outputs": [
        {
          "internalType": "uint256",
          "name": "",
          "type": "uint256"
        }
      ],
      "stateMutability": "view",
      "type": "function"
    },
    {
      "inputs": [],
      "name": "gapPerBlock",
      "outputs": [
        {
          "internalType": "uint256",
          "name": "",
          "type": "uint256"
        }
      ],
      "stateMutability": "view",
      "type": "function"
    },
    {
      "inputs": [
        {
          "internalType": "uint256",
          "name": "cash",
          "type": "uint256"
        },
        {
          "internalType": "uint256",
          "name": "borrows",
          "type": "uint256"
        },
        {
          "internalType": "uint256",
          "name": "reserves",
          "type": "uint256"
        }
      ],
      "name": "getBorrowRate",
      "outputs": [
        {
          "internalType": "uint256",
          "name": "",
          "type": "uint256"
        }
      ],
      "stateMutability": "view",
      "type": "function"
    },
    {
      "inputs": [
        {
          "internalType": "uint256",
          "name": "cash",
          "type": "uint256"
        },
        {
          "internalType": "uint256",
          "name": "borrows",
          "type": "uint256"
        },
        {
          "internalType": "uint256",
          "name": "reserves",
          "type": "uint256"
        },
        {
          "internalType": "uint256",
          "name": "reserveFactorMantissa",
          "type": "uint256"
        }
      ],
      "name": "getSupplyRate",
      "outputs": [
        {
          "internalType": "uint256",
          "name": "",
          "type": "uint256"
        }
      ],
      "stateMutability": "view",
      "type": "function"
    },
    {
      "inputs": [],
      "name": "isInterestRateModel",
      "outputs": [
        {
          "internalType": "bool",
          "name": "",
          "type": "bool"
        }
      ],
      "stateMutability": "view",
      "type": "function"
    },
    {
      "inputs": [],
      "name": "jumpMultiplierPerBlock",
      "outputs": [
        {
          "internalType": "uint256",
          "name": "",
          "type": "uint256"
        }
      ],
      "stateMutability": "view",
      "type": "function"
    },
    {
      "inputs": [],
      "name": "kink",
      "outputs": [
        {
          "internalType": "uint256",
          "name": "",
          "type": "uint256"
        }
      ],
      "stateMutability": "view",
      "type": "function"
    },
    {
      "inputs": [],
      "name": "multiplierPerBlock",
      "outputs": [
        {
          "internalType": "uint256",
          "name": "",
          "type": "uint256"
        }
      ],
      "stateMutability": "view",
      "type": "function"
    },
    {
      "inputs": [],
      "name": "owner",
      "outputs": [
        {
          "internalType": "address",
          "name": "",
          "type": "address"
        }
      ],
      "stateMutability": "view",
      "type": "function"
    },
    {
      "inputs": [],
      "name": "poke",
      "outputs": [],
      "stateMutability": "nonpayable",
      "type": "function"
    },
    {
      "inputs": [
        {
          "internalType": "uint256",
          "name": "baseRatePerYear",
          "type": "uint256"
        },
        {
          "internalType": "uint256",
          "name": "gapPerYear",
          "type": "uint256"
        },
        {
          "internalType": "uint256",
          "name": "jumpMultiplierPerYear",
          "type": "uint256"
        },
        {
          "internalType": "uint256",
          "name": "kink_",
          "type": "uint256"
        }
      ],
      "name": "updateJumpRateModel",
      "outputs": [],
      "stateMutability": "nonpayable",
      "type": "function"
    },
    {
      "inputs": [
        {
          "internalType": "uint256",
          "name": "cash",
          "type": "uint256"
        },
        {
          "internalType": "uint256",
          "name": "borrows",
          "type": "uint256"
        },
        {
          "internalType": "uint256",
          "name": "reserves",
          "type": "uint256"
        }
      ],
      "name": "utilizationRate",
      "outputs": [
        {
          "internalType": "uint256",
          "name": "",
          "type": "uint256"
        }
      ],
      "stateMutability": "pure",
      "type": "function"
    }
  ],
  "transactionHash": "0x7d6f1b7e27749ff2a1229145ef7aa1ff9bffbb5db4a86b455290e329e5d23802",
  "args": [
    "1090000000000000000",
    "800000000000000000",
    "0x867E3054af4d30fCCF0fCf3B6e855B49EF7e02Ed",
    "0xF6ecaC073C95e9170af878Dfd2934e31c6E25D85",
    "0x966da064E49F63D84d636D5a694038D831c75051"
  ],
  "solcInputHash": "5bafef6c7eb1724e8eb00df70d658d65",
  "bytecode": "0x60806040523480156200001157600080fd5b506040516200125d3803806200125d833981810160405260a08110156200003757600080fd5b508051602082015160408301516060840151608090940151600080546001600160a01b0319166001600160a01b038316178155939492939192918086868483808484846200008884808585620000ef565b5050505050505050505062201480668e1bc9bf04000081620000a657fe5b04600555600680546001600160a01b038086166001600160a01b0319928316179092556007805492851692909116919091179055620000e4620001e1565b505050505062000765565b6200010c62201480856200045460201b620006671790919060201c565b600255620001646200012e6220148083620004a7602090811b620006b217901c565b62000150670de0b6b3a764000086620004a760201b620006b21790919060201c565b6200045460201b620006671790919060201c565b60015562000182826220148062000454602090811b6200066717901c565b60038190556004829055600254600154604080519283526020830191909152818101929092526060810183905290517f6960ab234c7ef4b0c9197100f5393cfcde7c453ac910a27bd2000aa1dd4c068d9181900360800190a150505050565b60075460408051636cb1c69b60e11b8152644554482d4160d81b600482015281516000936001600160a01b03169263d9638d369260248082019391829003018186803b1580156200023157600080fd5b505afa15801562000246573d6000803e3d6000fd5b505050506040513d60408110156200025d57600080fd5b505160075460408051635001f3b560e01b815290519293506000926200034892600f9262000334926b033b2e3c9fd0803ce8000000926200015092670de0b6b3a7640000928692869262000320926001600160a01b0390921691635001f3b591600480820192602092909190829003018186803b158015620002de57600080fd5b505afa158015620002f3573d6000803e3d6000fd5b505050506040513d60208110156200030a57600080fd5b50518b9062000505602090811b6200070b17901c565b6200056060201b620007651790919060201c565b620004a760201b620006b21790919060201c565b90506200036e670d2f13f7789f000062000150670de0b6b3a764000062000334620005aa565b6002819055811115620003cf57620003c660045462000150670de0b6b3a764000062000334600554620003b2600254886200056060201b620007651790919060201c565b6200050560201b6200070b1790919060201c565b600155620003fe565b620003fa60045462000150670de0b6b3a7640000600554620004a760201b620006b21790919060201c565b6001555b600254600154600354600454604080519485526020850193909352838301919091526060830152517f6960ab234c7ef4b0c9197100f5393cfcde7c453ac910a27bd2000aa1dd4c068d9181900360800190a15050565b60006200049e83836040518060400160405280601a81526020017f536166654d6174683a206469766973696f6e206279207a65726f0000000000008152506200066160201b60201c565b90505b92915050565b600082620004b857506000620004a1565b82820282848281620004c657fe5b04146200049e5760405162461bcd60e51b81526004018080602001828103825260218152602001806200123c6021913960400191505060405180910390fd5b6000828201838110156200049e576040805162461bcd60e51b815260206004820152601b60248201527f536166654d6174683a206164646974696f6e206f766572666c6f770000000000604482015290519081900360640190fd5b60006200049e83836040518060400160405280601f81526020017f536166654d6174683a207375627472616374696f6e20756e646572666c6f77008152506200070860201b60201c565b60006200065c600f62000334633b9aca00620001506b033b2e3c9fd0803ce8000000600660009054906101000a90046001600160a01b03166001600160a01b031663487bf0826040518163ffffffff1660e01b815260040160206040518083038186803b1580156200061b57600080fd5b505afa15801562000630573d6000803e3d6000fd5b505050506040513d60208110156200064757600080fd5b50519062000560602090811b6200076517901c565b905090565b60008183620006f15760405162461bcd60e51b81526004018080602001828103825283818151815260200191508051906020019080838360005b83811015620006b55781810151838201526020016200069b565b50505050905090810190601f168015620006e35780820380516001836020036101000a031916815260200191505b509250505060405180910390fd5b506000838581620006fe57fe5b0495945050505050565b600081848411156200075d5760405162461bcd60e51b8152602060048201818152835160248401528351909283926044909101919085019080838360008315620006b55781810151838201526020016200069b565b505050900390565b610ac780620007756000396000f3fe608060405234801561001057600080fd5b50600436106100f55760003560e01c80638da5cb5b11610097578063b9f9850a11610066578063b9f9850a14610226578063f14039de1461022e578063f52d21f314610236578063fd2da3391461023e576100f5565b80638da5cb5b146101c357806396456c5c146101e7578063a385fb96146101ef578063b8168816146101f7576100f5565b80632191f92a116100d35780632191f92a1461016e5780636dac7cd51461018a5780636e71e2d8146101925780638726bb89146101bb576100f5565b806315f24053146100fa57806318178358146101355780632037f3e71461013f575b600080fd5b6101236004803603606081101561011057600080fd5b5080359060208101359060400135610246565b60408051918252519081900360200190f35b61013d61025d565b005b61013d6004803603608081101561015557600080fd5b508035906020810135906040810135906060013561047d565b6101766104ea565b604080519115158252519081900360200190f35b6101236104ef565b610123600480360360608110156101a857600080fd5b50803590602081013590604001356104fb565b61012361052d565b6101cb610533565b604080516001600160a01b039092168252519081900360200190f35b610123610542565b6101236105e6565b6101236004803603608081101561020d57600080fd5b50803590602081013590604081013590606001356105ed565b61012361064f565b610123610655565b61012361065b565b610123610661565b60006102538484846107a7565b90505b9392505050565b60075460408051636cb1c69b60e11b8152644554482d4160d81b600482015281516000936001600160a01b03169263d9638d369260248082019391829003018186803b1580156102ac57600080fd5b505afa1580156102c0573d6000803e3d6000fd5b505050506040513d60408110156102d657600080fd5b505160075460408051635001f3b560e01b8152905192935060009261039792600f9261038b926b033b2e3c9fd0803ce80000009261039192670de0b6b3a76400009286928692610385926001600160a01b0390921691635001f3b591600480820192602092909190829003018186803b15801561035257600080fd5b505afa158015610366573d6000803e3d6000fd5b505050506040513d602081101561037c57600080fd5b50518b9061070b565b90610765565b906106b2565b90610667565b90506103b9670d2f13f7789f0000610391670de0b6b3a764000061038b610542565b6002819055811115610400576103f8600454610391670de0b6b3a764000061038b6005546103f26002548861076590919063ffffffff16565b9061070b565b600155610427565b610423600454610391670de0b6b3a76400006005546106b290919063ffffffff16565b6001555b600254600154600354600454604080519485526020850193909352838301919091526060830152517f6960ab234c7ef4b0c9197100f5393cfcde7c453ac910a27bd2000aa1dd4c068d9181900360800190a15050565b6000546001600160a01b031633146104c65760405162461bcd60e51b8152600401808060200182810382526026815260200180610a6c6026913960400191505060405180910390fd5b6220148083046005556104dc6000808484610864565b6104e461025d565b50505050565b600181565b670d2f13f7789f000081565b60008261050a57506000610256565b61025361051b83610385878761070b565b61039185670de0b6b3a76400006106b2565b60015481565b6000546001600160a01b031681565b60006105e1600f61038b633b9aca006103916b033b2e3c9fd0803ce8000000600660009054906101000a90046001600160a01b03166001600160a01b031663487bf0826040518163ffffffff1660e01b815260040160206040518083038186803b1580156105af57600080fd5b505afa1580156105c3573d6000803e3d6000fd5b505050506040513d60208110156105d957600080fd5b505190610765565b905090565b6220148081565b6000806105fc868686866108f3565b9050600061060e85610385898961070b565b90508061061d57509050610647565b60006106358261039161062e610542565b8b906106b2565b9050610641818461070b565b93505050505b949350505050565b60035481565b60025481565b60055481565b60045481565b60006106a983836040518060400160405280601a81526020017f536166654d6174683a206469766973696f6e206279207a65726f00000000000081525061094e565b90505b92915050565b6000826106c1575060006106ac565b828202828482816106ce57fe5b04146106a95760405162461bcd60e51b8152600401808060200182810382526021815260200180610a4b6021913960400191505060405180910390fd5b6000828201838110156106a9576040805162461bcd60e51b815260206004820152601b60248201527f536166654d6174683a206164646974696f6e206f766572666c6f770000000000604482015290519081900360640190fd5b60006106a983836040518060400160405280601f81526020017f536166654d6174683a207375627472616374696f6e20756e646572666c6f77008152506109f0565b6000806107b58585856104fb565b905060045481116107ef576107e76002546103f2670de0b6b3a7640000610391600154866106b290919063ffffffff16565b915050610256565b600061081a6002546103f2670de0b6b3a76400006103916001546004546106b290919063ffffffff16565b905060006108336004548461076590919063ffffffff16565b905061085a826103f2670de0b6b3a7640000610391600354866106b290919063ffffffff16565b9350505050610256565b6108718462201480610667565b60025561088461051b62201480836106b2565b6001556108948262201480610667565b60038190556004829055600254600154604080519283526020830191909152818101929092526060810183905290517f6960ab234c7ef4b0c9197100f5393cfcde7c453ac910a27bd2000aa1dd4c068d9181900360800190a150505050565b600080610908670de0b6b3a764000084610765565b905060006109178787876107a7565b90506000610931670de0b6b3a764000061039184866106b2565b9050610641670de0b6b3a76400006103918361038b8c8c8c6104fb565b600081836109da5760405162461bcd60e51b81526004018080602001828103825283818151815260200191508051906020019080838360005b8381101561099f578181015183820152602001610987565b50505050905090810190601f1680156109cc5780820380516001836020036101000a031916815260200191505b509250505060405180910390fd5b5060008385816109e657fe5b0495945050505050565b60008184841115610a425760405162461bcd60e51b815260206004820181815283516024840152835190928392604490910191908501908083836000831561099f578181015183820152602001610987565b50505090039056fe536166654d6174683a206d756c7469706c69636174696f6e206f766572666c6f776f6e6c7920746865206f776e6572206d61792063616c6c20746869732066756e6374696f6e2ea2646970667358221220c42dd0770b394d110419a1de8e56f6ea9af74e3fe923367c85ed987e5568ae5a64736f6c634300060c0033536166654d6174683a206d756c7469706c69636174696f6e206f766572666c6f77",
  "devdoc": {
    "author": "Compound (modified by Dharma Labs)",
    "kind": "dev",
    "methods": {
      "constructor": {
        "params": {
          "jug_": "The address of the Dai jug (where SF is kept)",
          "jumpMultiplierPerYear": "The multiplierPerBlock after hitting a specified utilization point",
          "kink_": "The utilization point at which the jump multiplier is applied",
          "owner_": "The address of the owner, i.e. the Timelock contract (which has the ability to update parameters directly)",
          "pot_": "The address of the Dai pot (where DSR is earned)"
        }
      },
      "dsrPerBlock()": {
        "returns": {
          "_0": "The Dai savings rate per block (as a percentage, and scaled by 1e18)"
        }
      },
      "getBorrowRate(uint256,uint256,uint256)": {
        "params": {
          "borrows": "The amount of borrows in the market",
          "cash": "The amount of cash in the market",
          "reserves": "The amount of reserves in the market"
        },
        "returns": {
          "_0": "The borrow rate percentage per block as a mantissa (scaled by 1e18)"
        }
      },
      "getSupplyRate(uint256,uint256,uint256,uint256)": {
        "params": {
          "borrows": "The total amount of borrows the market has outstanding",
          "cash": "The total amount of cash the market has",
          "reserveFactorMantissa": "The current reserve factor the market has",
          "reserves": "The total amnount of reserves the market has"
        },
        "returns": {
          "_0": "The supply rate per block (as a percentage, and scaled by 1e18)"
        }
      },
      "updateJumpRateModel(uint256,uint256,uint256,uint256)": {
        "params": {
          "baseRatePerYear": "The approximate target base APR, as a mantissa (scaled by 1e18). For DAI, this is calculated from DSR and SF. Input not used.",
          "gapPerYear": "The Additional margin per year separating the base borrow rate from the roof. (scaled by 1e18)",
          "jumpMultiplierPerYear": "The jumpMultiplierPerYear after hitting a specified utilization point",
          "kink_": "The utilization point at which the jump multiplier is applied"
        }
      },
      "utilizationRate(uint256,uint256,uint256)": {
        "params": {
          "borrows": "The amount of borrows in the market",
          "cash": "The amount of cash in the market",
          "reserves": "The amount of reserves in the market (currently unused)"
        },
        "returns": {
          "_0": "The utilization rate as a mantissa between [0, 1e18]"
        }
      }
    },
    "title": "Compound's DAIInterestRateModel Contract (version 3)",
    "version": 1
  },
  "userdoc": {
    "kind": "user",
    "methods": {
      "assumedOneMinusReserveFactorMantissa()": {
        "notice": "The assumed (1 - reserve factor) used to calculate the minimum borrow rate (reserve factor = 0.05)"
      },
      "baseRatePerBlock()": {
        "notice": "The base interest rate which is the y-intercept when utilization rate is 0"
      },
      "blocksPerYear()": {
        "notice": "The approximate number of blocks per year that is assumed by the interest rate model"
      },
      "constructor": "Construct an interest rate model",
      "dsrPerBlock()": {
        "notice": "Calculates the Dai savings rate per block"
      },
      "gapPerBlock()": {
        "notice": "The additional margin per block separating the base borrow rate from the roof."
      },
      "getBorrowRate(uint256,uint256,uint256)": {
        "notice": "Calculates the current borrow rate per block"
      },
      "getSupplyRate(uint256,uint256,uint256,uint256)": {
        "notice": "Calculates the current supply interest rate per block including the Dai savings rate"
      },
      "isInterestRateModel()": {
        "notice": "Indicator that this is an InterestRateModel contract (for inspection)"
      },
      "jumpMultiplierPerBlock()": {
        "notice": "The multiplierPerBlock after hitting a specified utilization point"
      },
      "kink()": {
        "notice": "The utilization point at which the jump multiplier is applied"
      },
      "multiplierPerBlock()": {
        "notice": "The multiplier of utilization rate that gives the slope of the interest rate"
      },
      "owner()": {
        "notice": "The address of the owner, i.e. the Timelock contract, which can update parameters directly"
      },
      "poke()": {
        "notice": "Resets the baseRate and multiplier per block based on the stability fee and Dai savings rate"
      },
      "updateJumpRateModel(uint256,uint256,uint256,uint256)": {
        "notice": "External function to update the parameters of the interest rate model"
      },
      "utilizationRate(uint256,uint256,uint256)": {
        "notice": "Calculates the utilization rate of the market: `borrows / (cash + borrows - reserves)`"
      }
    },
    "notice": "The parameterized model described in section 2.4 of the original Compound Protocol whitepaper. Version 3 modifies the interest rate model in Version 2 by increasing the initial \"gap\" or slope of the model prior to the \"kink\" from 2% to 4%, and enabling updateable parameters.",
    "version": 1
  },
  "storageLayout": {
    "storage": [
      {
        "astId": 19,
        "contract": "contracts/DAIInterestRateModelV3.sol:DAIInterestRateModelV3",
        "label": "owner",
        "offset": 0,
        "slot": "0",
        "type": "t_address"
      },
      {
        "astId": 26,
        "contract": "contracts/DAIInterestRateModelV3.sol:DAIInterestRateModelV3",
        "label": "multiplierPerBlock",
        "offset": 0,
        "slot": "1",
        "type": "t_uint256"
      },
      {
        "astId": 29,
        "contract": "contracts/DAIInterestRateModelV3.sol:DAIInterestRateModelV3",
        "label": "baseRatePerBlock",
        "offset": 0,
        "slot": "2",
        "type": "t_uint256"
      },
      {
        "astId": 32,
        "contract": "contracts/DAIInterestRateModelV3.sol:DAIInterestRateModelV3",
        "label": "jumpMultiplierPerBlock",
        "offset": 0,
        "slot": "3",
        "type": "t_uint256"
      },
      {
        "astId": 35,
        "contract": "contracts/DAIInterestRateModelV3.sol:DAIInterestRateModelV3",
        "label": "kink",
        "offset": 0,
        "slot": "4",
        "type": "t_uint256"
      },
      {
        "astId": 9858,
        "contract": "contracts/DAIInterestRateModelV3.sol:DAIInterestRateModelV3",
        "label": "gapPerBlock",
        "offset": 0,
        "slot": "5",
        "type": "t_uint256"
      },
      {
        "astId": 9864,
        "contract": "contracts/DAIInterestRateModelV3.sol:DAIInterestRateModelV3",
        "label": "pot",
        "offset": 0,
        "slot": "6",
        "type": "t_contract(PotLike)10149"
      },
      {
        "astId": 9866,
        "contract": "contracts/DAIInterestRateModelV3.sol:DAIInterestRateModelV3",
        "label": "jug",
        "offset": 0,
        "slot": "7",
        "type": "t_contract(JugLike)10161"
      }
    ],
    "types": {
      "t_address": {
        "encoding": "inplace",
        "label": "address",
        "numberOfBytes": "20"
      },
      "t_contract(JugLike)10161": {
        "encoding": "inplace",
        "label": "contract JugLike",
        "numberOfBytes": "20"
      },
      "t_contract(PotLike)10149": {
        "encoding": "inplace",
        "label": "contract PotLike",
        "numberOfBytes": "20"
      },
      "t_uint256": {
        "encoding": "inplace",
        "label": "uint256",
        "numberOfBytes": "32"
      }
    }
  }
}