{
  "address": "0xFa639587f88128c39f54276C0278EA8911AA8E37",
  "abi": [
    {
      "inputs": [
        {
          "internalType": "address",
          "name": "timelock_",
          "type": "address"
        },
        {
          "internalType": "address",
          "name": "comp_",
          "type": "address"
        },
        {
          "internalType": "address",
          "name": "guardian_",
          "type": "address"
        }
      ],
      "stateMutability": "nonpayable",
      "type": "constructor"
    },
    {
      "anonymous": false,
      "inputs": [
        {
          "indexed": false,
          "internalType": "uint256",
          "name": "id",
          "type": "uint256"
        }
      ],
      "name": "ProposalCanceled",
      "type": "event"
    },
    {
      "anonymous": false,
      "inputs": [
        {
          "indexed": false,
          "internalType": "uint256",
          "name": "id",
          "type": "uint256"
        },
        {
          "indexed": false,
          "internalType": "address",
          "name": "proposer",
          "type": "address"
        },
        {
          "indexed": false,
          "internalType": "address[]",
          "name": "targets",
          "type": "address[]"
        },
        {
          "indexed": false,
          "internalType": "uint256[]",
          "name": "values",
          "type": "uint256[]"
        },
        {
          "indexed": false,
          "internalType": "string[]",
          "name": "signatures",
          "type": "string[]"
        },
        {
          "indexed": false,
          "internalType": "bytes[]",
          "name": "calldatas",
          "type": "bytes[]"
        },
        {
          "indexed": false,
          "internalType": "uint256",
          "name": "startBlock",
          "type": "uint256"
        },
        {
          "indexed": false,
          "internalType": "uint256",
          "name": "endBlock",
          "type": "uint256"
        },
        {
          "indexed": false,
          "internalType": "string",
          "name": "description",
          "type": "string"
        }
      ],
      "name": "ProposalCreated",
      "type": "event"
    },
    {
      "anonymous": false,
      "inputs": [
        {
          "indexed": false,
          "internalType": "uint256",
          "name": "id",
          "type": "uint256"
        }
      ],
      "name": "ProposalExecuted",
      "type": "event"
    },
    {
      "anonymous": false,
      "inputs": [
        {
          "indexed": false,
          "internalType": "uint256",
          "name": "id",
          "type": "uint256"
        },
        {
          "indexed": false,
          "internalType": "uint256",
          "name": "eta",
          "type": "uint256"
        }
      ],
      "name": "ProposalQueued",
      "type": "event"
    },
    {
      "anonymous": false,
      "inputs": [
        {
          "indexed": false,
          "internalType": "address",
          "name": "voter",
          "type": "address"
        },
        {
          "indexed": false,
          "internalType": "uint256",
          "name": "proposalId",
          "type": "uint256"
        },
        {
          "indexed": false,
          "internalType": "bool",
          "name": "support",
          "type": "bool"
        },
        {
          "indexed": false,
          "internalType": "uint256",
          "name": "votes",
          "type": "uint256"
        }
      ],
      "name": "VoteCast",
      "type": "event"
    },
    {
      "inputs": [],
      "name": "BALLOT_TYPEHASH",
      "outputs": [
        {
          "internalType": "bytes32",
          "name": "",
          "type": "bytes32"
        }
      ],
      "stateMutability": "view",
      "type": "function"
    },
    {
      "inputs": [],
      "name": "DOMAIN_TYPEHASH",
      "outputs": [
        {
          "internalType": "bytes32",
          "name": "",
          "type": "bytes32"
        }
      ],
      "stateMutability": "view",
      "type": "function"
    },
    {
      "inputs": [],
      "name": "__abdicate",
      "outputs": [],
      "stateMutability": "nonpayable",
      "type": "function"
    },
    {
      "inputs": [],
      "name": "__acceptAdmin",
      "outputs": [],
      "stateMutability": "nonpayable",
      "type": "function"
    },
    {
      "inputs": [
        {
          "internalType": "address",
          "name": "newPendingAdmin",
          "type": "address"
        },
        {
          "internalType": "uint256",
          "name": "eta",
          "type": "uint256"
        }
      ],
      "name": "__executeSetTimelockPendingAdmin",
      "outputs": [],
      "stateMutability": "nonpayable",
      "type": "function"
    },
    {
      "inputs": [
        {
          "internalType": "address",
          "name": "newPendingAdmin",
          "type": "address"
        },
        {
          "internalType": "uint256",
          "name": "eta",
          "type": "uint256"
        }
      ],
      "name": "__queueSetTimelockPendingAdmin",
      "outputs": [],
      "stateMutability": "nonpayable",
      "type": "function"
    },
    {
      "inputs": [
        {
          "internalType": "uint256",
          "name": "proposalId",
          "type": "uint256"
        }
      ],
      "name": "cancel",
      "outputs": [],
      "stateMutability": "nonpayable",
      "type": "function"
    },
    {
      "inputs": [
        {
          "internalType": "uint256",
          "name": "proposalId",
          "type": "uint256"
        },
        {
          "internalType": "bool",
          "name": "support",
          "type": "bool"
        }
      ],
      "name": "castVote",
      "outputs": [],
      "stateMutability": "nonpayable",
      "type": "function"
    },
    {
      "inputs": [
        {
          "internalType": "uint256",
          "name": "proposalId",
          "type": "uint256"
        },
        {
          "internalType": "bool",
          "name": "support",
          "type": "bool"
        },
        {
          "internalType": "uint8",
          "name": "v",
          "type": "uint8"
        },
        {
          "internalType": "bytes32",
          "name": "r",
          "type": "bytes32"
        },
        {
          "internalType": "bytes32",
          "name": "s",
          "type": "bytes32"
        }
      ],
      "name": "castVoteBySig",
      "outputs": [],
      "stateMutability": "nonpayable",
      "type": "function"
    },
    {
      "inputs": [],
      "name": "comp",
      "outputs": [
        {
          "internalType": "contract CompInterface",
          "name": "",
          "type": "address"
        }
      ],
      "stateMutability": "view",
      "type": "function"
    },
    {
      "inputs": [
        {
          "internalType": "uint256",
          "name": "proposalId",
          "type": "uint256"
        }
      ],
      "name": "execute",
      "outputs": [],
      "stateMutability": "payable",
      "type": "function"
    },
    {
      "inputs": [
        {
          "internalType": "uint256",
          "name": "proposalId",
          "type": "uint256"
        }
      ],
      "name": "getActions",
      "outputs": [
        {
          "internalType": "address[]",
          "name": "targets",
          "type": "address[]"
        },
        {
          "internalType": "uint256[]",
          "name": "values",
          "type": "uint256[]"
        },
        {
          "internalType": "string[]",
          "name": "signatures",
          "type": "string[]"
        },
        {
          "internalType": "bytes[]",
          "name": "calldatas",
          "type": "bytes[]"
        }
      ],
      "stateMutability": "view",
      "type": "function"
    },
    {
      "inputs": [
        {
          "internalType": "uint256",
          "name": "proposalId",
          "type": "uint256"
        },
        {
          "internalType": "address",
          "name": "voter",
          "type": "address"
        }
      ],
      "name": "getReceipt",
      "outputs": [
        {
          "components": [
            {
              "internalType": "bool",
              "name": "hasVoted",
              "type": "bool"
            },
            {
              "internalType": "bool",
              "name": "support",
              "type": "bool"
            },
            {
              "internalType": "uint96",
              "name": "votes",
              "type": "uint96"
            }
          ],
          "internalType": "struct GovernorAlpha.Receipt",
          "name": "",
          "type": "tuple"
        }
      ],
      "stateMutability": "view",
      "type": "function"
    },
    {
      "inputs": [],
      "name": "guardian",
      "outputs": [
        {
          "internalType": "address",
          "name": "",
          "type": "address"
        }
      ],
      "stateMutability": "view",
      "type": "function"
    },
    {
      "inputs": [
        {
          "internalType": "address",
          "name": "",
          "type": "address"
        }
      ],
      "name": "latestProposalIds",
      "outputs": [
        {
          "internalType": "uint256",
          "name": "",
          "type": "uint256"
        }
      ],
      "stateMutability": "view",
      "type": "function"
    },
    {
      "inputs": [],
      "name": "name",
      "outputs": [
        {
          "internalType": "string",
          "name": "",
          "type": "string"
        }
      ],
      "stateMutability": "view",
      "type": "function"
    },
    {
      "inputs": [],
      "name": "proposalCount",
      "outputs": [
        {
          "internalType": "uint256",
          "name": "",
          "type": "uint256"
        }
      ],
      "stateMutability": "view",
      "type": "function"
    },
    {
      "inputs": [],
      "name": "proposalMaxOperations",
      "outputs": [
        {
          "internalType": "uint256",
          "name": "",
          "type": "uint256"
        }
      ],
      "stateMutability": "pure",
      "type": "function"
    },
    {
      "inputs": [],
      "name": "proposalThreshold",
      "outputs": [
        {
          "internalType": "uint256",
          "name": "",
          "type": "uint256"
        }
      ],
      "stateMutability": "pure",
      "type": "function"
    },
    {
      "inputs": [
        {
          "internalType": "uint256",
          "name": "",
          "type": "uint256"
        }
      ],
      "name": "proposals",
      "outputs": [
        {
          "internalType": "uint256",
          "name": "id",
          "type": "uint256"
        },
        {
          "internalType": "address",
          "name": "proposer",
          "type": "address"
        },
        {
          "internalType": "uint256",
          "name": "eta",
          "type": "uint256"
        },
        {
          "internalType": "uint256",
          "name": "startBlock",
          "type": "uint256"
        },
        {
          "internalType": "uint256",
          "name": "endBlock",
          "type": "uint256"
        },
        {
          "internalType": "uint256",
          "name": "forVotes",
          "type": "uint256"
        },
        {
          "internalType": "uint256",
          "name": "againstVotes",
          "type": "uint256"
        },
        {
          "internalType": "bool",
          "name": "canceled",
          "type": "bool"
        },
        {
          "internalType": "bool",
          "name": "executed",
          "type": "bool"
        }
      ],
      "stateMutability": "view",
      "type": "function"
    },
    {
      "inputs": [
        {
          "internalType": "address[]",
          "name": "targets",
          "type": "address[]"
        },
        {
          "internalType": "uint256[]",
          "name": "values",
          "type": "uint256[]"
        },
        {
          "internalType": "string[]",
          "name": "signatures",
          "type": "string[]"
        },
        {
          "internalType": "bytes[]",
          "name": "calldatas",
          "type": "bytes[]"
        },
        {
          "internalType": "string",
          "name": "description",
          "type": "string"
        }
      ],
      "name": "propose",
      "outputs": [
        {
          "internalType": "uint256",
          "name": "",
          "type": "uint256"
        }
      ],
      "stateMutability": "nonpayable",
      "type": "function"
    },
    {
      "inputs": [
        {
          "internalType": "uint256",
          "name": "proposalId",
          "type": "uint256"
        }
      ],
      "name": "queue",
      "outputs": [],
      "stateMutability": "nonpayable",
      "type": "function"
    },
    {
      "inputs": [],
      "name": "quorumVotes",
      "outputs": [
        {
          "internalType": "uint256",
          "name": "",
          "type": "uint256"
        }
      ],
      "stateMutability": "pure",
      "type": "function"
    },
    {
      "inputs": [
        {
          "internalType": "uint256",
          "name": "proposalId",
          "type": "uint256"
        }
      ],
      "name": "state",
      "outputs": [
        {
          "internalType": "enum GovernorAlpha.ProposalState",
          "name": "",
          "type": "uint8"
        }
      ],
      "stateMutability": "view",
      "type": "function"
    },
    {
      "inputs": [],
      "name": "timelock",
      "outputs": [
        {
          "internalType": "contract TimelockInterface",
          "name": "",
          "type": "address"
        }
      ],
      "stateMutability": "view",
      "type": "function"
    },
    {
      "inputs": [],
      "name": "votingDelay",
      "outputs": [
        {
          "internalType": "uint256",
          "name": "",
          "type": "uint256"
        }
      ],
      "stateMutability": "pure",
      "type": "function"
    },
    {
      "inputs": [],
      "name": "votingPeriod",
      "outputs": [
        {
          "internalType": "uint256",
          "name": "",
          "type": "uint256"
        }
      ],
      "stateMutability": "pure",
      "type": "function"
    }
  ],
  "transactionHash": "0x8def56b329436f1aa3cd20a01ee36a12a404dae33937cd799326fbfd923e4065",
  "args": [
    "0x63cCfC422dC72468820C59C6d4C66cf8E6bBE907",
    "0xa05dCaEB873a0C2d56ee523CcF11920EcA105778",
    "0x966da064E49F63D84d636D5a694038D831c75051"
  ],
  "solcInputHash": "6896a63f9cd2cfb807c22ca8c7362789",
  "bytecode": "0x60806040523480156200001157600080fd5b50604051620032dc380380620032dc833981016040819052620000349162000077565b600080546001600160a01b039485166001600160a01b031991821617909155600180549385169382169390931790925560028054919093169116179055620000e3565b6000806000606084860312156200008c578283fd5b83516200009981620000ca565b6020850151909350620000ac81620000ca565b6040850151909250620000bf81620000ca565b809150509250925092565b6001600160a01b0381168114620000e057600080fd5b50565b6131e980620000f36000396000f3fe60806040526004361061019c5760003560e01c8063452a9320116100ec578063d33219b41161008a578063ddf0b00911610064578063ddf0b00914610456578063deaaa7cc14610476578063e23a9a521461048b578063fe0d94c1146104b85761019c565b8063d33219b41461040c578063da35c66414610421578063da95691a146104365761019c565b80637bdbe4d0116100c65780637bdbe4d0146103ad57806391500671146103c2578063b58131b0146103e2578063b9a61961146103f75761019c565b8063452a9320146103635780634634c61f14610378578063760fbc13146103985761019c565b806320606b7011610159578063328dd98211610133578063328dd982146102d15780633932abb1146103015780633e4f49e61461031657806340e58ee5146103435761019c565b806320606b701461028757806321f43e421461029c57806324bc1a64146102bc5761019c565b8063013cf08b146101a157806302a251a3146101df57806306fdde0314610201578063109d0af81461022357806315373e3d1461024557806317977c6114610267575b600080fd5b3480156101ad57600080fd5b506101c16101bc3660046123d2565b6104cb565b6040516101d6999897969594939291906130a8565b60405180910390f35b3480156101eb57600080fd5b506101f4610524565b6040516101d691906127f5565b34801561020d57600080fd5b5061021661052a565b6040516101d6919061286c565b34801561022f57600080fd5b50610238610563565b6040516101d6919061264e565b34801561025157600080fd5b50610265610260366004612416565b610572565b005b34801561027357600080fd5b506101f461028236600461221a565b610581565b34801561029357600080fd5b506101f4610593565b3480156102a857600080fd5b506102656102b7366004612235565b6105b7565b3480156102c857600080fd5b506101f461069e565b3480156102dd57600080fd5b506102f16102ec3660046123d2565b6106ad565b6040516101d6949392919061279d565b34801561030d57600080fd5b506101f461093c565b34801561032257600080fd5b506103366103313660046123d2565b610941565b6040516101d69190612858565b34801561034f57600080fd5b5061026561035e3660046123d2565b610acb565b34801561036f57600080fd5b50610238610d34565b34801561038457600080fd5b50610265610393366004612445565b610d43565b3480156103a457600080fd5b50610265610efc565b3480156103b957600080fd5b506101f4610f38565b3480156103ce57600080fd5b506102656103dd366004612235565b610f3d565b3480156103ee57600080fd5b506101f4611012565b34801561040357600080fd5b50610265611020565b34801561041857600080fd5b506102386110a5565b34801561042d57600080fd5b506101f46110b4565b34801561044257600080fd5b506101f461045136600461225f565b6110ba565b34801561046257600080fd5b506102656104713660046123d2565b6114da565b34801561048257600080fd5b506101f4611744565b34801561049757600080fd5b506104ab6104a63660046123ea565b611768565b6040516101d69190612fe2565b6102656104c63660046123d2565b6117d7565b6004602052600090815260409020805460018201546002830154600784015460088501546009860154600a870154600b9097015495966001600160a01b0390951695939492939192909160ff8082169161010090041689565b61438090565b6040518060400160405280601a81526020017f4261736564204c6f616e7320476f7665726e6f7220416c70686100000000000081525081565b6001546001600160a01b031681565b61057d33838361199c565b5050565b60056020526000908152604090205481565b7f8cad95687ba82c2ce50e74f7b754645e5117c3a5bec8151c0726d5857980a86681565b6002546001600160a01b031633146105ea5760405162461bcd60e51b81526004016105e1906129b1565b60405180910390fd5b600080546040516001600160a01b0390911691630825f38f9183919061061490879060200161264e565b604051602081830303815290604052856040518563ffffffff1660e01b8152600401610643949392919061267b565b600060405180830381600087803b15801561065d57600080fd5b505af1158015610671573d6000803e3d6000fd5b505050506040513d6000823e601f3d908101601f19168201604052610699919081019061235f565b505050565b6a034f086f3b33b68400000090565b6060806060806000600460008781526020019081526020016000209050806003018160040182600501836006018380548060200260200160405190810160405280929190818152602001828054801561072f57602002820191906000526020600020905b81546001600160a01b03168152600190910190602001808311610711575b505050505093508280548060200260200160405190810160405280929190818152602001828054801561078157602002820191906000526020600020905b81548152602001906001019080831161076d575b5050505050925081805480602002602001604051908101604052809291908181526020016000905b828210156108545760008481526020908190208301805460408051601f60026000196101006001871615020190941693909304928301859004850281018501909152818152928301828280156108405780601f1061081557610100808354040283529160200191610840565b820191906000526020600020905b81548152906001019060200180831161082357829003601f168201915b5050505050815260200190600101906107a9565b50505050915080805480602002602001604051908101604052809291908181526020016000905b828210156109265760008481526020908190208301805460408051601f60026000196101006001871615020190941693909304928301859004850281018501909152818152928301828280156109125780601f106108e757610100808354040283529160200191610912565b820191906000526020600020905b8154815290600101906020018083116108f557829003601f168201915b50505050508152602001906001019061087b565b5050505090509450945094509450509193509193565b600190565b600081600354101580156109555750600082115b6109715760405162461bcd60e51b81526004016105e190612a23565b6000828152600460205260409020600b81015460ff1615610996576002915050610ac6565b806007015443116109ab576000915050610ac6565b806008015443116109c0576001915050610ac6565b80600a015481600901541115806109e157506109da61069e565b8160090154105b156109f0576003915050610ac6565b6002810154610a03576004915050610ac6565b600b810154610100900460ff1615610a1f576007915050610ac6565b610ab0816002015460008054906101000a90046001600160a01b03166001600160a01b031663c1a287e26040518163ffffffff1660e01b815260040160206040518083038186803b158015610a7357600080fd5b505afa158015610a87573d6000803e3d6000fd5b505050506040513d601f19601f82011682018060405250810190610aab9190612347565b611b65565b4210610ac0576006915050610ac6565b60059150505b919050565b6000610ad682610941565b90506007816007811115610ae657fe5b1415610b045760405162461bcd60e51b81526004016105e190612ebd565b60008281526004602052604090206002546001600160a01b0316331480610bcf5750610b2e611012565b60018054838201546001600160a01b039182169263782d6fe19290911690610b57904390611b91565b6040518363ffffffff1660e01b8152600401610b74929190612662565b60206040518083038186803b158015610b8c57600080fd5b505afa158015610ba0573d6000803e3d6000fd5b505050506040513d601f19601f82011682018060405250810190610bc4919061249b565b6001600160601b0316105b610beb5760405162461bcd60e51b81526004016105e190612c89565b600b8101805460ff1916600117905560005b6003820154811015610cf7576000546003830180546001600160a01b039092169163591fcdfe919084908110610c2f57fe5b6000918252602090912001546004850180546001600160a01b039092169185908110610c5757fe5b9060005260206000200154856005018581548110610c7157fe5b90600052602060002001866006018681548110610c8a57fe5b9060005260206000200187600201546040518663ffffffff1660e01b8152600401610cb9959493929190612764565b600060405180830381600087803b158015610cd357600080fd5b505af1158015610ce7573d6000803e3d6000fd5b505060019092019150610bfd9050565b507f789cf55be980739dad1d0699b93b58e806b51c9d96619bfa8fe0a28abaa7b30c83604051610d2791906127f5565b60405180910390a1505050565b6002546001600160a01b031681565b60408051808201909152601a81527f4261736564204c6f616e7320476f7665726e6f7220416c70686100000000000060209091015260007f8cad95687ba82c2ce50e74f7b754645e5117c3a5bec8151c0726d5857980a8667fbd7ef45695602f38e8269700b61b8a7babbb8bdaeed39da58150041f4515b7f5610dc4611bb9565b30604051602001610dd894939291906127fe565b60405160208183030381529060405280519060200120905060007f8e25870c07e0b0b3884c78da52790939a455c275406c44ae8b434b692fb916ee8787604051602001610e2793929190612822565b60405160208183030381529060405280519060200120905060008282604051602001610e54929190612633565b604051602081830303815290604052805190602001209050600060018288888860405160008152602001604052604051610e91949392919061283a565b6020604051602081039080840390855afa158015610eb3573d6000803e3d6000fd5b5050604051601f1901519150506001600160a01b038116610ee65760405162461bcd60e51b81526004016105e190612deb565b610ef1818a8a61199c565b505050505050505050565b6002546001600160a01b03163314610f265760405162461bcd60e51b81526004016105e190612f8c565b600280546001600160a01b0319169055565b600a90565b6002546001600160a01b03163314610f675760405162461bcd60e51b81526004016105e190612b3c565b600080546040516001600160a01b0390911691633a66f90191839190610f9190879060200161264e565b604051602081830303815290604052856040518563ffffffff1660e01b8152600401610fc0949392919061267b565b602060405180830381600087803b158015610fda57600080fd5b505af1158015610fee573d6000803e3d6000fd5b505050506040513d601f19601f820116820180604052508101906106999190612347565b69d3c21bcecceda100000090565b6002546001600160a01b0316331461104a5760405162461bcd60e51b81526004016105e19061287f565b6000805460408051630e18b68160e01b815290516001600160a01b0390921692630e18b6819260048084019382900301818387803b15801561108b57600080fd5b505af115801561109f573d6000803e3d6000fd5b50505050565b6000546001600160a01b031681565b60035481565b60006110c4611012565b600180546001600160a01b03169063782d6fe19033906110e5904390611b91565b6040518363ffffffff1660e01b8152600401611102929190612662565b60206040518083038186803b15801561111a57600080fd5b505afa15801561112e573d6000803e3d6000fd5b505050506040513d601f19601f82011682018060405250810190611152919061249b565b6001600160601b0316116111785760405162461bcd60e51b81526004016105e190612d8e565b8451865114801561118a575083518651145b8015611197575082518651145b6111b35760405162461bcd60e51b81526004016105e190612c1f565b85516111d15760405162461bcd60e51b81526004016105e190612d42565b6111d9610f38565b865111156111f95760405162461bcd60e51b81526004016105e190612bac565b33600090815260056020526040902054801561127657600061121a82610941565b9050600181600781111561122a57fe5b14156112485760405162461bcd60e51b81526004016105e190612e3a565b600081600781111561125657fe5b14156112745760405162461bcd60e51b81526004016105e190612ab9565b505b600061128443610aab61093c565b9050600061129482610aab610524565b60038054600101905590506112a7611d1c565b604051806101a001604052806003548152602001336001600160a01b03168152602001600081526020018b81526020018a815260200189815260200188815260200184815260200183815260200160008152602001600081526020016000151581526020016000151581525090508060046000836000015181526020019081526020016000206000820151816000015560208201518160010160006101000a8154816001600160a01b0302191690836001600160a01b0316021790555060408201518160020155606082015181600301908051906020019061138a929190611d91565b50608082015180516113a6916004840191602090910190611df6565b5060a082015180516113c2916005840191602090910190611e3d565b5060c082015180516113de916006840191602090910190611e96565b5060e082015181600701556101008201518160080155610120820151816009015561014082015181600a015561016082015181600b0160006101000a81548160ff02191690831515021790555061018082015181600b0160016101000a81548160ff02191690831515021790555090505080600001516005600083602001516001600160a01b03166001600160a01b03168152602001908152602001600020819055507f7d84a6263ae0d98d3329bd7b46bb4e8d6f98cd35a7adb45c274c8b7fd5ebd5e08160000151338c8c8c8c89898e6040516114c499989796959493929190613010565b60405180910390a1519998505050505050505050565b60046114e582610941565b60078111156114f057fe5b1461150d5760405162461bcd60e51b81526004016105e1906128dc565b600081815260046020818152604080842084548251630d48571f60e31b815292519195946115629442946001600160a01b0390931693636a42b8f8938084019390829003018186803b158015610a7357600080fd5b905060005b600383015481101561170a5761170283600301828154811061158557fe5b6000918252602090912001546004850180546001600160a01b0390921691849081106115ad57fe5b90600052602060002001548560050184815481106115c757fe5b600091825260209182902001805460408051601f60026000196101006001871615020190941693909304928301859004850281018501909152818152928301828280156116555780601f1061162a57610100808354040283529160200191611655565b820191906000526020600020905b81548152906001019060200180831161163857829003601f168201915b505050505086600601858154811061166957fe5b600091825260209182902001805460408051601f60026000196101006001871615020190941693909304928301859004850281018501909152818152928301828280156116f75780601f106116cc576101008083540402835291602001916116f7565b820191906000526020600020905b8154815290600101906020018083116116da57829003601f168201915b505050505086611bbd565b600101611567565b50600282018190556040517f9a2e42fd6722813d69113e7d0079d3d940171428df7373df9c7f7617cfda289290610d2790859084906130f4565b7f8e25870c07e0b0b3884c78da52790939a455c275406c44ae8b434b692fb916ee81565b611770611eef565b5060008281526004602090815260408083206001600160a01b0385168452600c018252918290208251606081018452905460ff80821615158352610100820416151592820192909252620100009091046001600160601b0316918101919091525b92915050565b60056117e282610941565b60078111156117ed57fe5b1461180a5760405162461bcd60e51b81526004016105e190612946565b6000818152600460205260408120600b8101805461ff001916610100179055905b6003820154811015611960576000546004830180546001600160a01b0390921691630825f38f91908490811061185d57fe5b906000526020600020015484600301848154811061187757fe5b6000918252602090912001546004860180546001600160a01b03909216918690811061189f57fe5b90600052602060002001548660050186815481106118b957fe5b906000526020600020018760060187815481106118d257fe5b9060005260206000200188600201546040518763ffffffff1660e01b8152600401611901959493929190612764565b6000604051808303818588803b15801561191a57600080fd5b505af115801561192e573d6000803e3d6000fd5b50505050506040513d6000823e601f3d908101601f19168201604052611957919081019061235f565b5060010161182b565b507f712ae1383f79ac853f8d882153778e0260ef8f03b504e2866e0593e04d2b291f8260405161199091906127f5565b60405180910390a15050565b60016119a783610941565b60078111156119b257fe5b146119cf5760405162461bcd60e51b81526004016105e190612f13565b60008281526004602090815260408083206001600160a01b0387168452600c8101909252909120805460ff1615611a185760405162461bcd60e51b81526004016105e190612a6c565b600154600783015460405163782d6fe160e01b81526000926001600160a01b03169163782d6fe191611a4e918a91600401612662565b60206040518083038186803b158015611a6657600080fd5b505afa158015611a7a573d6000803e3d6000fd5b505050506040513d601f19601f82011682018060405250810190611a9e919061249b565b90508315611ac757611abd8360090154826001600160601b0316611b65565b6009840155611ae4565b611ade83600a0154826001600160601b0316611b65565b600a8401555b8154600160ff199091161761ff00191661010085151502176dffffffffffffffffffffffff00001916620100006001600160601b038316021782556040517f877856338e13f63d0c36822ff0ef736b80934cd90574a3a5bc9262c39d217c4690611b559088908890889086906126e7565b60405180910390a1505050505050565b600082820183811015611b8a5760405162461bcd60e51b81526004016105e190612bf4565b9392505050565b600082821115611bb35760405162461bcd60e51b81526004016105e190612f5d565b50900390565b4690565b6000546040516001600160a01b039091169063f2b0653790611beb9088908890889088908890602001612718565b604051602081830303815290604052805190602001206040518263ffffffff1660e01b8152600401611c1d91906127f5565b60206040518083038186803b158015611c3557600080fd5b505afa158015611c49573d6000803e3d6000fd5b505050506040513d601f19601f82011682018060405250810190611c6d919061232b565b15611c8a5760405162461bcd60e51b81526004016105e190612cd8565b600054604051633a66f90160e01b81526001600160a01b0390911690633a66f90190611cc29088908890889088908890600401612718565b602060405180830381600087803b158015611cdc57600080fd5b505af1158015611cf0573d6000803e3d6000fd5b505050506040513d601f19601f82011682018060405250810190611d149190612347565b505050505050565b604051806101a001604052806000815260200160006001600160a01b031681526020016000815260200160608152602001606081526020016060815260200160608152602001600081526020016000815260200160008152602001600081526020016000151581526020016000151581525090565b828054828255906000526020600020908101928215611de6579160200282015b82811115611de657825182546001600160a01b0319166001600160a01b03909116178255602090920191600190910190611db1565b50611df2929150611f0f565b5090565b828054828255906000526020600020908101928215611e31579160200282015b82811115611e31578251825591602001919060010190611e16565b50611df2929150611f2e565b828054828255906000526020600020908101928215611e8a579160200282015b82811115611e8a5782518051611e7a918491602090910190611f43565b5091602001919060010190611e5d565b50611df2929150611fb0565b828054828255906000526020600020908101928215611ee3579160200282015b82811115611ee35782518051611ed3918491602090910190611f43565b5091602001919060010190611eb6565b50611df2929150611fcd565b604080516060810182526000808252602082018190529181019190915290565b5b80821115611df25780546001600160a01b0319168155600101611f10565b5b80821115611df25760008155600101611f2f565b828054600181600116156101000203166002900490600052602060002090601f016020900481019282601f10611f8457805160ff1916838001178555611e31565b82800160010185558215611e315791820182811115611e31578251825591602001919060010190611e16565b80821115611df2576000611fc48282611fea565b50600101611fb0565b80821115611df2576000611fe18282611fea565b50600101611fcd565b50805460018160011615610100020316600290046000825580601f10612010575061202e565b601f01602090049060005260206000209081019061202e9190611f2e565b50565b80356001600160a01b03811681146117d157600080fd5b600082601f830112612058578081fd5b813561206b61206682613129565b613102565b81815291506020808301908481018184028601820187101561208c57600080fd5b60005b848110156120b3576120a18883612031565b8452928201929082019060010161208f565b505050505092915050565b600082601f8301126120ce578081fd5b81356120dc61206682613129565b818152915060208083019084810160005b848110156120b357612104888484358a01016121cc565b845292820192908201906001016120ed565b600082601f830112612126578081fd5b813561213461206682613129565b818152915060208083019084810160005b848110156120b35761215c888484358a01016121cc565b84529282019290820190600101612145565b600082601f83011261217e578081fd5b813561218c61206682613129565b8181529150602080830190848101818402860182018710156121ad57600080fd5b60005b848110156120b3578135845292820192908201906001016121b0565b600082601f8301126121dc578081fd5b81356121ea61206682613149565b915080825283602082850101111561220157600080fd5b8060208401602084013760009082016020015292915050565b60006020828403121561222b578081fd5b611b8a8383612031565b60008060408385031215612247578081fd5b6122518484612031565b946020939093013593505050565b600080600080600060a08688031215612276578081fd5b853567ffffffffffffffff8082111561228d578283fd5b61229989838a01612048565b965060208801359150808211156122ae578283fd5b6122ba89838a0161216e565b955060408801359150808211156122cf578283fd5b6122db89838a01612116565b945060608801359150808211156122f0578283fd5b6122fc89838a016120be565b93506080880135915080821115612311578283fd5b5061231e888289016121cc565b9150509295509295909350565b60006020828403121561233c578081fd5b8151611b8a816131a5565b600060208284031215612358578081fd5b5051919050565b600060208284031215612370578081fd5b815167ffffffffffffffff811115612386578182fd5b8201601f81018413612396578182fd5b80516123a461206682613149565b8181528560208385010111156123b8578384fd5b6123c9826020830160208601613179565b95945050505050565b6000602082840312156123e3578081fd5b5035919050565b600080604083850312156123fc578182fd5b8235915061240d8460208501612031565b90509250929050565b60008060408385031215612428578182fd5b82359150602083013561243a816131a5565b809150509250929050565b600080600080600060a0868803121561245c578283fd5b85359450602086013561246e816131a5565b9350604086013560ff81168114612483578384fd5b94979396509394606081013594506080013592915050565b6000602082840312156124ac578081fd5b81516001600160601b0381168114611b8a578182fd5b6000815180845260208085019450808401835b838110156124fa5781516001600160a01b0316875295820195908201906001016124d5565b509495945050505050565b6000815180845260208085019450848183028601828601855b85811015612548578383038952612536838351612584565b9885019892509084019060010161251e565b5090979650505050505050565b6000815180845260208085019450808401835b838110156124fa57815187529582019590820190600101612568565b6000815180845261259c816020860160208601613179565b601f01601f19169290920160200192915050565b600081546001808216600081146125ce57600181146125ec5761262a565b60028304607f16865260ff198316602087015260408601935061262a565b600283048087526125fc8661316d565b60005b828110156126205781546020828b01015284820191506020810190506125ff565b8801602001955050505b50505092915050565b61190160f01b81526002810192909252602282015260420190565b6001600160a01b0391909116815260200190565b6001600160a01b03929092168252602082015260400190565b600060018060a01b038616825284602083015260a06040830152601860a08301527f73657450656e64696e6741646d696e286164647265737329000000000000000060c083015260e060608301526126d660e0830185612584565b905082608083015295945050505050565b6001600160a01b039490941684526020840192909252151560408301526001600160601b0316606082015260800190565b600060018060a01b038716825285602083015260a0604083015261273f60a0830186612584565b82810360608401526127518186612584565b9150508260808301529695505050505050565b600060018060a01b038716825285602083015260a0604083015261278b60a08301866125b0565b828103606084015261275181866125b0565b6000608082526127b060808301876124c2565b82810360208401526127c28187612555565b905082810360408401526127d68186612505565b905082810360608401526127ea8185612505565b979650505050505050565b90815260200190565b938452602084019290925260408301526001600160a01b0316606082015260800190565b92835260208301919091521515604082015260600190565b93845260ff9290921660208401526040830152606082015260800190565b602081016008831061286657fe5b91905290565b600060208252611b8a6020830184612584565b60208082526039908201527f476f7665726e6f72416c7068613a3a5f5f61636365707441646d696e3a20736560408201527f6e646572206d75737420626520676f7620677561726469616e00000000000000606082015260800190565b60208082526044908201527f476f7665726e6f72416c7068613a3a71756575653a2070726f706f73616c206360408201527f616e206f6e6c79206265207175657565642069662069742069732073756363656060820152631959195960e21b608082015260a00190565b60208082526045908201527f476f7665726e6f72416c7068613a3a657865637574653a2070726f706f73616c60408201527f2063616e206f6e6c7920626520657865637574656420696620697420697320716060820152641d595d595960da1b608082015260a00190565b6020808252604c908201527f476f7665726e6f72416c7068613a3a5f5f6578656375746553657454696d656c60408201527f6f636b50656e64696e6741646d696e3a2073656e646572206d7573742062652060608201526b33b7bb1033bab0b93234b0b760a11b608082015260a00190565b60208082526029908201527f476f7665726e6f72416c7068613a3a73746174653a20696e76616c69642070726040820152681bdc1bdcd85b081a5960ba1b606082015260800190565b6020808252602d908201527f476f7665726e6f72416c7068613a3a5f63617374566f74653a20766f7465722060408201526c185b1c9958591e481d9bdd1959609a1b606082015260800190565b60208082526059908201527f476f7665726e6f72416c7068613a3a70726f706f73653a206f6e65206c69766560408201527f2070726f706f73616c207065722070726f706f7365722c20666f756e6420616e60608201527f20616c72656164792070656e64696e672070726f706f73616c00000000000000608082015260a00190565b6020808252604a908201527f476f7665726e6f72416c7068613a3a5f5f717565756553657454696d656c6f6360408201527f6b50656e64696e6741646d696e3a2073656e646572206d75737420626520676f6060820152693b1033bab0b93234b0b760b11b608082015260a00190565b60208082526028908201527f476f7665726e6f72416c7068613a3a70726f706f73653a20746f6f206d616e7960408201526720616374696f6e7360c01b606082015260800190565b6020808252601190820152706164646974696f6e206f766572666c6f7760781b604082015260600190565b60208082526044908201527f476f7665726e6f72416c7068613a3a70726f706f73653a2070726f706f73616c60408201527f2066756e6374696f6e20696e666f726d6174696f6e206172697479206d69736d6060820152630c2e8c6d60e31b608082015260a00190565b6020808252602f908201527f476f7665726e6f72416c7068613a3a63616e63656c3a2070726f706f7365722060408201526e18589bdd99481d1a1c995cda1bdb19608a1b606082015260800190565b60208082526044908201527f476f7665726e6f72416c7068613a3a5f71756575654f725265766572743a207060408201527f726f706f73616c20616374696f6e20616c7265616479207175657565642061746060820152632065746160e01b608082015260a00190565b6020808252602c908201527f476f7665726e6f72416c7068613a3a70726f706f73653a206d7573742070726f60408201526b7669646520616374696f6e7360a01b606082015260800190565b6020808252603f908201527f476f7665726e6f72416c7068613a3a70726f706f73653a2070726f706f73657260408201527f20766f7465732062656c6f772070726f706f73616c207468726573686f6c6400606082015260800190565b6020808252602f908201527f476f7665726e6f72416c7068613a3a63617374566f746542795369673a20696e60408201526e76616c6964207369676e617475726560881b606082015260800190565b60208082526058908201527f476f7665726e6f72416c7068613a3a70726f706f73653a206f6e65206c69766560408201527f2070726f706f73616c207065722070726f706f7365722c20666f756e6420616e60608201527f20616c7265616479206163746976652070726f706f73616c0000000000000000608082015260a00190565b60208082526036908201527f476f7665726e6f72416c7068613a3a63616e63656c3a2063616e6e6f742063616040820152751b98d95b08195e1958dd5d1959081c1c9bdc1bdcd85b60521b606082015260800190565b6020808252602a908201527f476f7665726e6f72416c7068613a3a5f63617374566f74653a20766f74696e67604082015269081a5cc818db1bdcd95960b21b606082015260800190565b6020808252601590820152747375627472616374696f6e20756e646572666c6f7760581b604082015260600190565b60208082526036908201527f476f7665726e6f72416c7068613a3a5f5f61626469636174653a2073656e6465604082015275391036bab9ba1031329033b7bb1033bab0b93234b0b760511b606082015260800190565b8151151581526020808301511515908201526040918201516001600160601b03169181019190915260600190565b8981526001600160a01b03891660208201526101206040820181905260009061303b8382018b6124c2565b9050828103606084015261304f818a612555565b905082810360808401526130638189612505565b905082810360a08401526130778188612505565b90508560c08401528460e08401528281036101008401526130988185612584565b9c9b505050505050505050505050565b9889526001600160a01b0397909716602089015260408801959095526060870193909352608086019190915260a085015260c0840152151560e083015215156101008201526101200190565b918252602082015260400190565b60405181810167ffffffffffffffff8111828210171561312157600080fd5b604052919050565b600067ffffffffffffffff82111561313f578081fd5b5060209081020190565b600067ffffffffffffffff82111561315f578081fd5b50601f01601f191660200190565b60009081526020902090565b60005b8381101561319457818101518382015260200161317c565b8381111561109f5750506000910152565b801515811461202e57600080fdfea26469706673582212204356243259d7e6222849315891bd6bd0c688e71f43499796d3d23d93746efcf664736f6c634300060c0033",
  "devdoc": {
    "kind": "dev",
    "methods": {},
    "version": 1
  },
  "userdoc": {
    "events": {
      "ProposalCanceled(uint256)": {
        "notice": "An event emitted when a proposal has been canceled"
      },
      "ProposalCreated(uint256,address,address[],uint256[],string[],bytes[],uint256,uint256,string)": {
        "notice": "An event emitted when a new proposal is created"
      },
      "ProposalExecuted(uint256)": {
        "notice": "An event emitted when a proposal has been executed in the Timelock"
      },
      "ProposalQueued(uint256,uint256)": {
        "notice": "An event emitted when a proposal has been queued in the Timelock"
      },
      "VoteCast(address,uint256,bool,uint256)": {
        "notice": "An event emitted when a vote has been cast on a proposal"
      }
    },
    "kind": "user",
    "methods": {
      "BALLOT_TYPEHASH()": {
        "notice": "The EIP-712 typehash for the ballot struct used by the contract"
      },
      "DOMAIN_TYPEHASH()": {
        "notice": "The EIP-712 typehash for the contract's domain"
      },
      "comp()": {
        "notice": "The address of the BLO governance token"
      },
      "guardian()": {
        "notice": "The address of the Governor Guardian"
      },
      "latestProposalIds(address)": {
        "notice": "The latest proposal for each proposer"
      },
      "name()": {
        "notice": "The name of this contract"
      },
      "proposalCount()": {
        "notice": "The total number of proposals"
      },
      "proposalMaxOperations()": {
        "notice": "The maximum number of actions that can be included in a proposal"
      },
      "proposalThreshold()": {
        "notice": "The number of votes required in order for a voter to become a proposer"
      },
      "proposals(uint256)": {
        "notice": "The official record of all proposals ever proposed"
      },
      "quorumVotes()": {
        "notice": "The number of votes in support of a proposal required in order for a quorum to be reached and for a vote to succeed"
      },
      "timelock()": {
        "notice": "The address of the Based Loans Protocol Timelock"
      },
      "votingDelay()": {
        "notice": "The delay before voting on a proposal may take place, once proposed"
      },
      "votingPeriod()": {
        "notice": "The duration of voting on a proposal, in blocks"
      }
    },
    "version": 1
  },
  "storageLayout": {
    "storage": [
      {
        "astId": 12870,
        "contract": "contracts/Governance/GovernorAlpha.sol:GovernorAlpha",
        "label": "timelock",
        "offset": 0,
        "slot": "0",
        "type": "t_contract(TimelockInterface)14091"
      },
      {
        "astId": 12873,
        "contract": "contracts/Governance/GovernorAlpha.sol:GovernorAlpha",
        "label": "comp",
        "offset": 0,
        "slot": "1",
        "type": "t_contract(CompInterface)14101"
      },
      {
        "astId": 12876,
        "contract": "contracts/Governance/GovernorAlpha.sol:GovernorAlpha",
        "label": "guardian",
        "offset": 0,
        "slot": "2",
        "type": "t_address"
      },
      {
        "astId": 12879,
        "contract": "contracts/Governance/GovernorAlpha.sol:GovernorAlpha",
        "label": "proposalCount",
        "offset": 0,
        "slot": "3",
        "type": "t_uint256"
      },
      {
        "astId": 12952,
        "contract": "contracts/Governance/GovernorAlpha.sol:GovernorAlpha",
        "label": "proposals",
        "offset": 0,
        "slot": "4",
        "type": "t_mapping(t_uint256,t_struct(Proposal)12928_storage)"
      },
      {
        "astId": 12957,
        "contract": "contracts/Governance/GovernorAlpha.sol:GovernorAlpha",
        "label": "latestProposalIds",
        "offset": 0,
        "slot": "5",
        "type": "t_mapping(t_address,t_uint256)"
      }
    ],
    "types": {
      "t_address": {
        "encoding": "inplace",
        "label": "address",
        "numberOfBytes": "20"
      },
      "t_array(t_address)dyn_storage": {
        "base": "t_address",
        "encoding": "dynamic_array",
        "label": "address[]",
        "numberOfBytes": "32"
      },
      "t_array(t_bytes_storage)dyn_storage": {
        "base": "t_bytes_storage",
        "encoding": "dynamic_array",
        "label": "bytes[]",
        "numberOfBytes": "32"
      },
      "t_array(t_string_storage)dyn_storage": {
        "base": "t_string_storage",
        "encoding": "dynamic_array",
        "label": "string[]",
        "numberOfBytes": "32"
      },
      "t_array(t_uint256)dyn_storage": {
        "base": "t_uint256",
        "encoding": "dynamic_array",
        "label": "uint256[]",
        "numberOfBytes": "32"
      },
      "t_bool": {
        "encoding": "inplace",
        "label": "bool",
        "numberOfBytes": "1"
      },
      "t_bytes_storage": {
        "encoding": "bytes",
        "label": "bytes",
        "numberOfBytes": "32"
      },
      "t_contract(CompInterface)14101": {
        "encoding": "inplace",
        "label": "contract CompInterface",
        "numberOfBytes": "20"
      },
      "t_contract(TimelockInterface)14091": {
        "encoding": "inplace",
        "label": "contract TimelockInterface",
        "numberOfBytes": "20"
      },
      "t_mapping(t_address,t_struct(Receipt)12938_storage)": {
        "encoding": "mapping",
        "key": "t_address",
        "label": "mapping(address => struct GovernorAlpha.Receipt)",
        "numberOfBytes": "32",
        "value": "t_struct(Receipt)12938_storage"
      },
      "t_mapping(t_address,t_uint256)": {
        "encoding": "mapping",
        "key": "t_address",
        "label": "mapping(address => uint256)",
        "numberOfBytes": "32",
        "value": "t_uint256"
      },
      "t_mapping(t_uint256,t_struct(Proposal)12928_storage)": {
        "encoding": "mapping",
        "key": "t_uint256",
        "label": "mapping(uint256 => struct GovernorAlpha.Proposal)",
        "numberOfBytes": "32",
        "value": "t_struct(Proposal)12928_storage"
      },
      "t_string_storage": {
        "encoding": "bytes",
        "label": "string",
        "numberOfBytes": "32"
      },
      "t_struct(Proposal)12928_storage": {
        "encoding": "inplace",
        "label": "struct GovernorAlpha.Proposal",
        "members": [
          {
            "astId": 12882,
            "contract": "contracts/Governance/GovernorAlpha.sol:GovernorAlpha",
            "label": "id",
            "offset": 0,
            "slot": "0",
            "type": "t_uint256"
          },
          {
            "astId": 12885,
            "contract": "contracts/Governance/GovernorAlpha.sol:GovernorAlpha",
            "label": "proposer",
            "offset": 0,
            "slot": "1",
            "type": "t_address"
          },
          {
            "astId": 12888,
            "contract": "contracts/Governance/GovernorAlpha.sol:GovernorAlpha",
            "label": "eta",
            "offset": 0,
            "slot": "2",
            "type": "t_uint256"
          },
          {
            "astId": 12892,
            "contract": "contracts/Governance/GovernorAlpha.sol:GovernorAlpha",
            "label": "targets",
            "offset": 0,
            "slot": "3",
            "type": "t_array(t_address)dyn_storage"
          },
          {
            "astId": 12896,
            "contract": "contracts/Governance/GovernorAlpha.sol:GovernorAlpha",
            "label": "values",
            "offset": 0,
            "slot": "4",
            "type": "t_array(t_uint256)dyn_storage"
          },
          {
            "astId": 12900,
            "contract": "contracts/Governance/GovernorAlpha.sol:GovernorAlpha",
            "label": "signatures",
            "offset": 0,
            "slot": "5",
            "type": "t_array(t_string_storage)dyn_storage"
          },
          {
            "astId": 12904,
            "contract": "contracts/Governance/GovernorAlpha.sol:GovernorAlpha",
            "label": "calldatas",
            "offset": 0,
            "slot": "6",
            "type": "t_array(t_bytes_storage)dyn_storage"
          },
          {
            "astId": 12907,
            "contract": "contracts/Governance/GovernorAlpha.sol:GovernorAlpha",
            "label": "startBlock",
            "offset": 0,
            "slot": "7",
            "type": "t_uint256"
          },
          {
            "astId": 12910,
            "contract": "contracts/Governance/GovernorAlpha.sol:GovernorAlpha",
            "label": "endBlock",
            "offset": 0,
            "slot": "8",
            "type": "t_uint256"
          },
          {
            "astId": 12913,
            "contract": "contracts/Governance/GovernorAlpha.sol:GovernorAlpha",
            "label": "forVotes",
            "offset": 0,
            "slot": "9",
            "type": "t_uint256"
          },
          {
            "astId": 12916,
            "contract": "contracts/Governance/GovernorAlpha.sol:GovernorAlpha",
            "label": "againstVotes",
            "offset": 0,
            "slot": "10",
            "type": "t_uint256"
          },
          {
            "astId": 12919,
            "contract": "contracts/Governance/GovernorAlpha.sol:GovernorAlpha",
            "label": "canceled",
            "offset": 0,
            "slot": "11",
            "type": "t_bool"
          },
          {
            "astId": 12922,
            "contract": "contracts/Governance/GovernorAlpha.sol:GovernorAlpha",
            "label": "executed",
            "offset": 1,
            "slot": "11",
            "type": "t_bool"
          },
          {
            "astId": 12927,
            "contract": "contracts/Governance/GovernorAlpha.sol:GovernorAlpha",
            "label": "receipts",
            "offset": 0,
            "slot": "12",
            "type": "t_mapping(t_address,t_struct(Receipt)12938_storage)"
          }
        ],
        "numberOfBytes": "416"
      },
      "t_struct(Receipt)12938_storage": {
        "encoding": "inplace",
        "label": "struct GovernorAlpha.Receipt",
        "members": [
          {
            "astId": 12931,
            "contract": "contracts/Governance/GovernorAlpha.sol:GovernorAlpha",
            "label": "hasVoted",
            "offset": 0,
            "slot": "0",
            "type": "t_bool"
          },
          {
            "astId": 12934,
            "contract": "contracts/Governance/GovernorAlpha.sol:GovernorAlpha",
            "label": "support",
            "offset": 1,
            "slot": "0",
            "type": "t_bool"
          },
          {
            "astId": 12937,
            "contract": "contracts/Governance/GovernorAlpha.sol:GovernorAlpha",
            "label": "votes",
            "offset": 2,
            "slot": "0",
            "type": "t_uint96"
          }
        ],
        "numberOfBytes": "32"
      },
      "t_uint256": {
        "encoding": "inplace",
        "label": "uint256",
        "numberOfBytes": "32"
      },
      "t_uint96": {
        "encoding": "inplace",
        "label": "uint96",
        "numberOfBytes": "12"
      }
    }
  }
}