{
  "address": "0xBC537138D3dFA0272A2209dc364C6849a202c44a",
  "abi": [
    {
      "inputs": [
        {
          "internalType": "address",
          "name": "_ceth",
          "type": "address"
        },
        {
          "internalType": "address",
          "name": "_weth",
          "type": "address"
        },
        {
          "internalType": "address",
          "name": "_router",
          "type": "address"
        },
        {
          "internalType": "address",
          "name": "_factory",
          "type": "address"
        },
        {
          "internalType": "address",
          "name": "_comptrollerAddress",
          "type": "address"
        }
      ],
      "stateMutability": "nonpayable",
      "type": "constructor"
    },
    {
      "anonymous": false,
      "inputs": [
        {
          "indexed": true,
          "internalType": "address",
          "name": "previousOwner",
          "type": "address"
        },
        {
          "indexed": true,
          "internalType": "address",
          "name": "newOwner",
          "type": "address"
        }
      ],
      "name": "OwnershipTransferred",
      "type": "event"
    },
    {
      "anonymous": false,
      "inputs": [
        {
          "indexed": false,
          "internalType": "address",
          "name": "owner",
          "type": "address"
        },
        {
          "indexed": false,
          "internalType": "address",
          "name": "token",
          "type": "address"
        },
        {
          "indexed": false,
          "internalType": "uint256",
          "name": "amount",
          "type": "uint256"
        }
      ],
      "name": "RevenueWithdrawn",
      "type": "event"
    },
    {
      "inputs": [],
      "name": "CETH",
      "outputs": [
        {
          "internalType": "address",
          "name": "",
          "type": "address"
        }
      ],
      "stateMutability": "view",
      "type": "function"
    },
    {
      "inputs": [],
      "name": "ETHER",
      "outputs": [
        {
          "internalType": "address",
          "name": "",
          "type": "address"
        }
      ],
      "stateMutability": "view",
      "type": "function"
    },
    {
      "inputs": [],
      "name": "FACTORY",
      "outputs": [
        {
          "internalType": "address",
          "name": "",
          "type": "address"
        }
      ],
      "stateMutability": "view",
      "type": "function"
    },
    {
      "inputs": [],
      "name": "ROUTER",
      "outputs": [
        {
          "internalType": "address",
          "name": "",
          "type": "address"
        }
      ],
      "stateMutability": "view",
      "type": "function"
    },
    {
      "inputs": [],
      "name": "WETH",
      "outputs": [
        {
          "internalType": "address",
          "name": "",
          "type": "address"
        }
      ],
      "stateMutability": "view",
      "type": "function"
    },
    {
      "inputs": [],
      "name": "comptroller",
      "outputs": [
        {
          "internalType": "contract IComptroller",
          "name": "",
          "type": "address"
        }
      ],
      "stateMutability": "view",
      "type": "function"
    },
    {
      "inputs": [
        {
          "internalType": "address",
          "name": "_borrower",
          "type": "address"
        },
        {
          "internalType": "address",
          "name": "_repayCToken",
          "type": "address"
        },
        {
          "internalType": "address",
          "name": "_seizeCToken",
          "type": "address"
        }
      ],
      "name": "liquidate",
      "outputs": [],
      "stateMutability": "nonpayable",
      "type": "function"
    },
    {
      "inputs": [],
      "name": "owner",
      "outputs": [
        {
          "internalType": "address",
          "name": "",
          "type": "address"
        }
      ],
      "stateMutability": "view",
      "type": "function"
    },
    {
      "inputs": [],
      "name": "priceOracle",
      "outputs": [
        {
          "internalType": "contract IPriceOracle",
          "name": "",
          "type": "address"
        }
      ],
      "stateMutability": "view",
      "type": "function"
    },
    {
      "inputs": [],
      "name": "renounceOwnership",
      "outputs": [],
      "stateMutability": "nonpayable",
      "type": "function"
    },
    {
      "inputs": [
        {
          "internalType": "address",
          "name": "_comptrollerAddress",
          "type": "address"
        }
      ],
      "name": "setComptroller",
      "outputs": [],
      "stateMutability": "nonpayable",
      "type": "function"
    },
    {
      "inputs": [
        {
          "internalType": "address",
          "name": "newOwner",
          "type": "address"
        }
      ],
      "name": "transferOwnership",
      "outputs": [],
      "stateMutability": "nonpayable",
      "type": "function"
    },
    {
      "inputs": [
        {
          "internalType": "address",
          "name": "sender",
          "type": "address"
        },
        {
          "internalType": "uint256",
          "name": "amount0",
          "type": "uint256"
        },
        {
          "internalType": "uint256",
          "name": "amount1",
          "type": "uint256"
        },
        {
          "internalType": "bytes",
          "name": "data",
          "type": "bytes"
        }
      ],
      "name": "uniswapV2Call",
      "outputs": [],
      "stateMutability": "nonpayable",
      "type": "function"
    },
    {
      "inputs": [
        {
          "internalType": "address",
          "name": "_token",
          "type": "address"
        }
      ],
      "name": "withdraw",
      "outputs": [],
      "stateMutability": "nonpayable",
      "type": "function"
    },
    {
      "stateMutability": "payable",
      "type": "receive"
    }
  ],
  "transactionHash": "0x44078631c798e0c3b2cefd5838b1c7864ba8673402ce7232d838e4a86d0fc613",
  "args": [
    "0xc7871BBb558569Cb74D86539DbF02EAbB7672256",
    "0xc778417E063141139Fce010982780140Aa0cD5Ab",
    "0x7a250d5630B4cF539739dF2C5dAcb4c659F2488D",
    "0x5C69bEe701ef814a2B6a3EDD4B1652CB9cc5aA6f",
    "0x5102dC251DB133C7C8Fae91b4375c85E584f5F3e"
  ],
  "solcInputHash": "b9b1ba72fffee14f61d439e0fa3fddd9",
  "bytecode": "0x610100604052621e84806005553480156200001957600080fd5b5060405162002f0338038062002f03833981810160405260a08110156200003f57600080fd5b5080516020820151604083015160608401516080909401519293919290919060006200006a620000f4565b600080546001600160a01b0319166001600160a01b0383169081178255604051929350917f8be0079c531659141344cd1fd0a4f28419497f9722a3daafe3b4186f6b6457e0908290a3506001600160601b0319606086811b821660805285811b821660a05284811b821660c05283901b1660e052620000e981620000f8565b505050505062000310565b3390565b62000102620000f4565b6001600160a01b03166200011562000301565b6001600160a01b03161462000171576040805162461bcd60e51b815260206004820181905260248201527f4f776e61626c653a2063616c6c6572206973206e6f7420746865206f776e6572604482015290519081900360640190fd5b600180546001600160a01b0319166001600160a01b038381169190911791829055604080516307dc0d1d60e41b815290519290911691637dc0d1d091600480820192602092909190829003018186803b158015620001ce57600080fd5b505afa158015620001e3573d6000803e3d6000fd5b505050506040513d6020811015620001fa57600080fd5b5051600280546001600160a01b0319166001600160a01b039283161790556001546040805163743aaa2360e11b81529051919092169163e8755446916004808301926020929190829003018186803b1580156200025657600080fd5b505afa1580156200026b573d6000803e3d6000fd5b505050506040513d60208110156200028257600080fd5b505160035560015460408051634ada90af60e01b815290516001600160a01b0390921691634ada90af91600480820192602092909190829003018186803b158015620002cd57600080fd5b505afa158015620002e2573d6000803e3d6000fd5b505050506040513d6020811015620002f957600080fd5b505160045550565b6000546001600160a01b031690565b60805160601c60a05160601c60c05160601c60e05160601c612b5c620003a76000398061046f52806114d1528061214f5280612335525080611174528061123752806113d452806114f55250806107b15280610cdd5280610de552806111e952806114355280611a61528061212c528061217e52806123005250806107555280610adc528061179952806120f25250612b5c6000f3fe6080604052600436106100e15760003560e01c8063610968201161007f5780638da5cb5b116100595780638da5cb5b1461029d578063ad5c4648146102b2578063ca5ce2ec146102c7578063f2fde38b1461030c576100e8565b80636109682014610240578063715018a6146102555780638bad38dd1461026a576100e8565b806332fe7b26116100bb57806332fe7b26146101ce57806342cb1fbc146101e357806351cff8d9146101f85780635fe3b5671461022b576100e8565b806310d1e85c146100ed5780632630c12f146101885780632dd31000146101b9576100e8565b366100e857005b600080fd5b3480156100f957600080fd5b506101866004803603608081101561011057600080fd5b6001600160a01b03823516916020810135916040820135919081019060808101606082013564010000000081111561014757600080fd5b82018360208201111561015957600080fd5b8035906020019184600183028401116401000000008311171561017b57600080fd5b50909250905061033f565b005b34801561019457600080fd5b5061019d6114c0565b604080516001600160a01b039092168252519081900360200190f35b3480156101c557600080fd5b5061019d6114cf565b3480156101da57600080fd5b5061019d6114f3565b3480156101ef57600080fd5b5061019d611517565b34801561020457600080fd5b506101866004803603602081101561021b57600080fd5b50356001600160a01b031661151c565b34801561023757600080fd5b5061019d611788565b34801561024c57600080fd5b5061019d611797565b34801561026157600080fd5b506101866117bb565b34801561027657600080fd5b506101866004803603602081101561028d57600080fd5b50356001600160a01b0316611867565b3480156102a957600080fd5b5061019d611a50565b3480156102be57600080fd5b5061019d611a5f565b3480156102d357600080fd5b50610186600480360360608110156102ea57600080fd5b506001600160a01b038135811691602081013582169160409091013516611a83565b34801561031857600080fd5b506101866004803603602081101561032f57600080fd5b50356001600160a01b0316611da5565b60008060008484606081101561035457600080fd5b5060408051630dfe168160e01b815281516001600160a01b0384358116975060208086013582169750939094013590931693506000923392630dfe16819260048082019391829003018186803b1580156103ad57600080fd5b505afa1580156103c1573d6000803e3d6000fd5b505050506040513d60208110156103d757600080fd5b50516040805163d21220a760e01b81529051919250600091339163d21220a7916004808301926020929190829003018186803b15801561041657600080fd5b505afa15801561042a573d6000803e3d6000fd5b505050506040513d602081101561044057600080fd5b50516040805163e6a4390560e01b81526001600160a01b038581166004830152808416602483015291519293507f00000000000000000000000000000000000000000000000000000000000000009091169163e6a4390591604480820192602092909190829003018186803b1580156104b857600080fd5b505afa1580156104cc573d6000803e3d6000fd5b505050506040513d60208110156104e257600080fd5b50516001600160a01b031633146104f857600080fd5b826001600160a01b0316846001600160a01b031614156107535760008961051f5788610521565b895b905060008a6105305782610532565b835b90506105486001600160a01b0382168784611ea7565b856001600160a01b031663f5e3c4628884886040518463ffffffff1660e01b815260040180846001600160a01b03168152602001838152602001826001600160a01b031681526020019350505050602060405180830381600087803b1580156105b057600080fd5b505af11580156105c4573d6000803e3d6000fd5b505050506040513d60208110156105da57600080fd5b5050604080516370a0823160e01b815230600482015290516001600160a01b0387169163db006a759183916370a08231916024808301926020929190829003018186803b15801561062a57600080fd5b505afa15801561063e573d6000803e3d6000fd5b505050506040513d602081101561065457600080fd5b5051604080516001600160e01b031960e085901b16815260048101929092525160248083019260209291908290030181600087803b15801561069557600080fd5b505af11580156106a9573d6000803e3d6000fd5b505050506040513d60208110156106bf57600080fd5b50506040805163a9059cbb60e01b815233600482015260016103e56103e886020401602482015290516001600160a01b0383169163a9059cbb9160448083019260209291908290030181600087803b15801561071a57600080fd5b505af115801561072e573d6000803e3d6000fd5b505050506040513d602081101561074457600080fd5b506114b9975050505050505050565b7f00000000000000000000000000000000000000000000000000000000000000006001600160a01b0316846001600160a01b03161415610ada5760008961079a578861079c565b895b905060008a6107ab57836107ad565b825b90507f00000000000000000000000000000000000000000000000000000000000000006001600160a01b0316632e1a7d4d836040518263ffffffff1660e01b815260040180828152602001915050600060405180830381600087803b15801561081557600080fd5b505af1158015610829573d6000803e3d6000fd5b50505050856001600160a01b031663aae40a2a8389886040518463ffffffff1660e01b815260040180836001600160a01b03168152602001826001600160a01b03168152602001925050506000604051808303818588803b15801561088d57600080fd5b505af11580156108a1573d6000803e3d6000fd5b5050505050846001600160a01b031663db006a75866001600160a01b03166370a08231306040518263ffffffff1660e01b815260040180826001600160a01b0316815260200191505060206040518083038186803b15801561090257600080fd5b505afa158015610916573d6000803e3d6000fd5b505050506040513d602081101561092c57600080fd5b5051604080516001600160e01b031960e085901b16815260048101929092525160248083019260209291908290030181600087803b15801561096d57600080fd5b505af1158015610981573d6000803e3d6000fd5b505050506040513d602081101561099757600080fd5b505060408051630240bc6b60e21b8152905160009182913391630902f1ac916004808301926060929190829003018186803b1580156109d557600080fd5b505afa1580156109e9573d6000803e3d6000fd5b505050506040513d60608110156109ff57600080fd5b5080516020909101516001600160701b0391821693501690506000806001600160a01b0388811690861614610a35578284610a38565b83835b91509150846001600160a01b031663a9059cbb33610a57898686611fbf565b6040518363ffffffff1660e01b815260040180836001600160a01b0316815260200182815260200192505050602060405180830381600087803b158015610a9d57600080fd5b505af1158015610ab1573d6000803e3d6000fd5b505050506040513d6020811015610ac757600080fd5b506114b99b505050505050505050505050565b7f00000000000000000000000000000000000000000000000000000000000000006001600160a01b0316836001600160a01b03161415610e1e57600089610b215788610b23565b895b905060008a610b325782610b34565b835b9050610b4a6001600160a01b0382168784611ea7565b856001600160a01b031663f5e3c4628884886040518463ffffffff1660e01b815260040180846001600160a01b03168152602001838152602001826001600160a01b031681526020019350505050602060405180830381600087803b158015610bb257600080fd5b505af1158015610bc6573d6000803e3d6000fd5b505050506040513d6020811015610bdc57600080fd5b5050604080516370a0823160e01b815230600482015290516001600160a01b0387169163db006a759183916370a08231916024808301926020929190829003018186803b158015610c2c57600080fd5b505afa158015610c40573d6000803e3d6000fd5b505050506040513d6020811015610c5657600080fd5b5051604080516001600160e01b031960e085901b16815260048101929092525160248083019260209291908290030181600087803b158015610c9757600080fd5b505af1158015610cab573d6000803e3d6000fd5b505050506040513d6020811015610cc157600080fd5b505060408051630d0e30db60e41b815290516001600160a01b037f0000000000000000000000000000000000000000000000000000000000000000169163d0e30db091479160048082019260009290919082900301818588803b158015610d2757600080fd5b505af1158015610d3b573d6000803e3d6000fd5b5050505050600080336001600160a01b0316630902f1ac6040518163ffffffff1660e01b815260040160606040518083038186803b158015610d7c57600080fd5b505afa158015610d90573d6000803e3d6000fd5b505050506040513d6060811015610da657600080fd5b5080516020909101516001600160701b0391821693501690506000806001600160a01b0388811690861614610ddc578383610ddf565b82845b915091507f00000000000000000000000000000000000000000000000000000000000000006001600160a01b031663a9059cbb33610a57898686611fbf565b6000808a15610e31575089905082610e37565b50889050815b610e4b6001600160a01b0382168784611ea7565b856001600160a01b031663f5e3c4628884886040518463ffffffff1660e01b815260040180846001600160a01b03168152602001838152602001826001600160a01b031681526020019350505050602060405180830381600087803b158015610eb357600080fd5b505af1158015610ec7573d6000803e3d6000fd5b505050506040513d6020811015610edd57600080fd5b505060408051633af9e66960e01b815230600482015290516000916001600160a01b03881691633af9e6699160248082019260209290919082900301818787803b158015610f2a57600080fd5b505af1158015610f3e573d6000803e3d6000fd5b505050506040513d6020811015610f5457600080fd5b5051604080516370a0823160e01b815230600482015290519192506001600160a01b0388169163db006a759183916370a0823191602480820192602092909190829003018186803b158015610fa857600080fd5b505afa158015610fbc573d6000803e3d6000fd5b505050506040513d6020811015610fd257600080fd5b5051604080516001600160e01b031960e085901b16815260048101929092525160248083019260209291908290030181600087803b15801561101357600080fd5b505af1158015611027573d6000803e3d6000fd5b505050506040513d602081101561103d57600080fd5b505060408051636f307dc360e01b815290516000916001600160a01b03891691636f307dc391600480820192602092909190829003018186803b15801561108357600080fd5b505afa158015611097573d6000803e3d6000fd5b505050506040513d60208110156110ad57600080fd5b505160408051630240bc6b60e21b8152905191925060009182913391630902f1ac91600480820192606092909190829003018186803b1580156110ef57600080fd5b505afa158015611103573d6000803e3d6000fd5b505050506040513d606081101561111957600080fd5b5080516020909101516001600160701b0391821693501690506000806001600160a01b038a81169088161461114f578383611152565b82845b915091506000611163898484611fbf565b90506111996001600160a01b0387167f000000000000000000000000000000000000000000000000000000000000000089611ea7565b604080516002808252606080830184529260208301908036833701905050905086816000815181106111c757fe5b60200260200101906001600160a01b031690816001600160a01b0316815250507f00000000000000000000000000000000000000000000000000000000000000008160018151811061121557fe5b60200260200101906001600160a01b031690816001600160a01b0316815250507f00000000000000000000000000000000000000000000000000000000000000006001600160a01b0316638803dbee838a843042603c016040518663ffffffff1660e01b81526004018086815260200185815260200180602001846001600160a01b03168152602001838152602001828103825285818151815260200191508051906020019060200280838360005b838110156112dc5781810151838201526020016112c4565b505050509050019650505050505050600060405180830381600087803b15801561130557600080fd5b505af1158015611319573d6000803e3d6000fd5b505050506040513d6000823e601f3d908101601f19168201604052602081101561134257600080fd5b810190808051604051939291908464010000000082111561136257600080fd5b90830190602082018581111561137757600080fd5b825186602082028301116401000000008211171561139457600080fd5b82525081516020918201928201910280838360005b838110156113c15781810151838201526020016113a9565b505050509050016040525050505061140e7f00000000000000000000000000000000000000000000000000000000000000006000896001600160a01b0316611ea79092919063ffffffff16565b6040805163a9059cbb60e01b81523360048201526024810184905290516001600160a01b037f0000000000000000000000000000000000000000000000000000000000000000169163a9059cbb9160448083019260209291908290030181600087803b15801561147d57600080fd5b505af1158015611491573d6000803e3d6000fd5b505050506040513d60208110156114a757600080fd5b50505050505050505050505050505050505b5050505050565b6002546001600160a01b031681565b7f000000000000000000000000000000000000000000000000000000000000000081565b7f000000000000000000000000000000000000000000000000000000000000000081565b600081565b611524612097565b6001600160a01b0316611535611a50565b6001600160a01b03161461157e576040805162461bcd60e51b81526020600482018190526024820152600080516020612aa7833981519152604482015290519081900360640190fd5b6000611588611a50565b6001600160a01b031614156115e4576040805162461bcd60e51b815260206004820152601b60248201527f63616e6e6f742073656e6420746f207a65726f20616464726573730000000000604482015290519081900360640190fd5b60006001600160a01b0382166116a25750308031906000611603611a50565b6040516001600160a01b0391909116908490600081818185875af1925050503d806000811461164e576040519150601f19603f3d011682016040523d82523d6000602084013e611653565b606091505b505090508061169b576040805162461bcd60e51b815260206004820152600f60248201526e1dda5d1a191c985dc819985a5b1959608a1b604482015290519081900360640190fd5b5050611732565b604080516370a0823160e01b815230600482015290516001600160a01b038416916370a08231916024808301926020929190829003018186803b1580156116e857600080fd5b505afa1580156116fc573d6000803e3d6000fd5b505050506040513d602081101561171257600080fd5b50519050611732611721611a50565b6001600160a01b038416908361209b565b7f6c198f0e3e4f68668dfd7b1a689ee110197d822dd8ec93a685138d4b8537ae0661175b611a50565b604080516001600160a01b0392831681529185166020830152818101849052519081900360600190a15050565b6001546001600160a01b031681565b7f000000000000000000000000000000000000000000000000000000000000000081565b6117c3612097565b6001600160a01b03166117d4611a50565b6001600160a01b03161461181d576040805162461bcd60e51b81526020600482018190526024820152600080516020612aa7833981519152604482015290519081900360640190fd5b600080546040516001600160a01b03909116907f8be0079c531659141344cd1fd0a4f28419497f9722a3daafe3b4186f6b6457e0908390a3600080546001600160a01b0319169055565b61186f612097565b6001600160a01b0316611880611a50565b6001600160a01b0316146118c9576040805162461bcd60e51b81526020600482018190526024820152600080516020612aa7833981519152604482015290519081900360640190fd5b600180546001600160a01b0319166001600160a01b038381169190911791829055604080516307dc0d1d60e41b815290519290911691637dc0d1d091600480820192602092909190829003018186803b15801561192557600080fd5b505afa158015611939573d6000803e3d6000fd5b505050506040513d602081101561194f57600080fd5b5051600280546001600160a01b0319166001600160a01b039283161790556001546040805163743aaa2360e11b81529051919092169163e8755446916004808301926020929190829003018186803b1580156119aa57600080fd5b505afa1580156119be573d6000803e3d6000fd5b505050506040513d60208110156119d457600080fd5b505160035560015460408051634ada90af60e01b815290516001600160a01b0390921691634ada90af91600480820192602092909190829003018186803b158015611a1e57600080fd5b505afa158015611a32573d6000803e3d6000fd5b505050506040513d6020811015611a4857600080fd5b505160045550565b6000546001600160a01b031690565b7f000000000000000000000000000000000000000000000000000000000000000081565b60015460408051635ec88c7960e01b81526001600160a01b03868116600483015291516000939290921691635ec88c799160248082019260609290919082900301818787803b158015611ad557600080fd5b505af1158015611ae9573d6000803e3d6000fd5b505050506040513d6060811015611aff57600080fd5b506020015190508015611b50576040805162461bcd60e51b81526020600482015260146024820152734e6f7468696e6720746f206c697175696461746560601b604482015290519081900360640190fd5b6000670de0b6b3a7640000600354856001600160a01b03166317bfdfbc886040518263ffffffff1660e01b815260040180826001600160a01b03168152602001915050602060405180830381600087803b158015611bad57600080fd5b505af1158015611bc1573d6000803e3d6000fd5b505050506040513d6020811015611bd757600080fd5b50510281611be157fe5b0490506000600454670de0b6b3a7640000856001600160a01b0316633af9e669896040518263ffffffff1660e01b815260040180826001600160a01b03168152602001915050602060405180830381600087803b158015611c4157600080fd5b505af1158015611c55573d6000803e3d6000fd5b505050506040513d6020811015611c6b57600080fd5b50510281611c7557fe5b6002546040805163fc57d4df60e01b81526001600160a01b038a81166004830152915194909304945060009391169163fc57d4df916024808301926020929190829003018186803b158015611cc957600080fd5b505afa158015611cdd573d6000803e3d6000fd5b505050506040513d6020811015611cf357600080fd5b50516002546040805163fc57d4df60e01b81526001600160a01b03898116600483015291519684029693945091169163fc57d4df91602480820192602092909190829003018186803b158015611d4857600080fd5b505afa158015611d5c573d6000803e3d6000fd5b505050506040513d6020811015611d7257600080fd5b50519190910290611d9c87878784868810611d8d5786611d8f565b875b81611d9657fe5b046120ed565b50505050505050565b611dad612097565b6001600160a01b0316611dbe611a50565b6001600160a01b031614611e07576040805162461bcd60e51b81526020600482018190526024820152600080516020612aa7833981519152604482015290519081900360640190fd5b6001600160a01b038116611e4c5760405162461bcd60e51b81526004018080602001828103825260268152602001806129e66026913960400191505060405180910390fd5b600080546040516001600160a01b03808516939216917f8be0079c531659141344cd1fd0a4f28419497f9722a3daafe3b4186f6b6457e091a3600080546001600160a01b0319166001600160a01b0392909216919091179055565b801580611f2d575060408051636eb1769f60e11b81523060048201526001600160a01b03848116602483015291519185169163dd62ed3e91604480820192602092909190829003018186803b158015611eff57600080fd5b505afa158015611f13573d6000803e3d6000fd5b505050506040513d6020811015611f2957600080fd5b5051155b611f685760405162461bcd60e51b8152600401808060200182810382526036815260200180612af16036913960400191505060405180910390fd5b604080516001600160a01b038416602482015260448082018490528251808303909101815260649091019091526020810180516001600160e01b031663095ea7b360e01b179052611fba9084906125fc565b505050565b6000808411611fff5760405162461bcd60e51b815260040180806020018281038252602c815260200180612a0c602c913960400191505060405180910390fd5b60008311801561200f5750600082115b61204a5760405162461bcd60e51b8152600401808060200182810382526028815260200180612a5e6028913960400191505060405180910390fd5b60006120626103e861205c86886126ad565b906126ad565b905060006120766103e561205c868961270f565b905061208d600182848161208657fe5b049061276c565b9695505050505050565b3390565b604080516001600160a01b038416602482015260448082018490528251808303909101815260649091019091526020810180516001600160e01b031663a9059cbb60e01b179052611fba9084906125fc565b6000807f00000000000000000000000000000000000000000000000000000000000000006001600160a01b0316856001600160a01b03161415612283577f000000000000000000000000000000000000000000000000000000000000000090507f00000000000000000000000000000000000000000000000000000000000000006001600160a01b031663e6a439057f0000000000000000000000000000000000000000000000000000000000000000866001600160a01b0316636f307dc36040518163ffffffff1660e01b815260040160206040518083038186803b1580156121d657600080fd5b505afa1580156121ea573d6000803e3d6000fd5b505050506040513d602081101561220057600080fd5b5051604080516001600160e01b031960e086901b1681526001600160a01b039384166004820152929091166024830152516044808301926020929190829003018186803b15801561225057600080fd5b505afa158015612264573d6000803e3d6000fd5b505050506040513d602081101561227a57600080fd5b505191506123ad565b846001600160a01b0316636f307dc36040518163ffffffff1660e01b815260040160206040518083038186803b1580156122bc57600080fd5b505afa1580156122d0573d6000803e3d6000fd5b505050506040513d60208110156122e657600080fd5b50516040805163e6a4390560e01b81526001600160a01b037f000000000000000000000000000000000000000000000000000000000000000081166004830152808416602483015291519293507f00000000000000000000000000000000000000000000000000000000000000009091169163e6a4390591604480820192602092909190829003018186803b15801561237e57600080fd5b505afa158015612392573d6000803e3d6000fd5b505050506040513d60208110156123a857600080fd5b505191505b606086868660405160200180846001600160a01b03168152602001836001600160a01b03168152602001826001600160a01b03168152602001935050505060405160208183030381529060405290506000826001600160a01b0316846001600160a01b0316630dfe16816040518163ffffffff1660e01b815260040160206040518083038186803b15801561244157600080fd5b505afa158015612455573d6000803e3d6000fd5b505050506040513d602081101561246b57600080fd5b50516001600160a01b031614612482576000612484565b845b90506000836001600160a01b0316856001600160a01b031663d21220a76040518163ffffffff1660e01b815260040160206040518083038186803b1580156124cb57600080fd5b505afa1580156124df573d6000803e3d6000fd5b505050506040513d60208110156124f557600080fd5b50516001600160a01b03161461250c57600061250e565b855b9050846001600160a01b031663022c0d9f838330876040518563ffffffff1660e01b815260040180858152602001848152602001836001600160a01b0316815260200180602001828103825283818151815260200191508051906020019080838360005b8381101561258a578181015183820152602001612572565b50505050905090810190601f1680156125b75780820380516001836020036101000a031916815260200191505b5095505050505050600060405180830381600087803b1580156125d957600080fd5b505af11580156125ed573d6000803e3d6000fd5b50505050505050505050505050565b6060612651826040518060400160405280602081526020017f5361666545524332303a206c6f772d6c6576656c2063616c6c206661696c6564815250856001600160a01b03166127c69092919063ffffffff16565b805190915015611fba5780806020019051602081101561267057600080fd5b5051611fba5760405162461bcd60e51b815260040180806020018281038252602a815260200180612ac7602a913960400191505060405180910390fd5b6000826126bc57506000612709565b828202828482816126c957fe5b04146127065760405162461bcd60e51b8152600401808060200182810382526021815260200180612a866021913960400191505060405180910390fd5b90505b92915050565b600082821115612766576040805162461bcd60e51b815260206004820152601e60248201527f536166654d6174683a207375627472616374696f6e206f766572666c6f770000604482015290519081900360640190fd5b50900390565b600082820183811015612706576040805162461bcd60e51b815260206004820152601b60248201527f536166654d6174683a206164646974696f6e206f766572666c6f770000000000604482015290519081900360640190fd5b60606127d584846000856127df565b90505b9392505050565b6060824710156128205760405162461bcd60e51b8152600401808060200182810382526026815260200180612a386026913960400191505060405180910390fd5b6128298561293b565b61287a576040805162461bcd60e51b815260206004820152601d60248201527f416464726573733a2063616c6c20746f206e6f6e2d636f6e7472616374000000604482015290519081900360640190fd5b60006060866001600160a01b031685876040518082805190602001908083835b602083106128b95780518252601f19909201916020918201910161289a565b6001836020036101000a03801982511681845116808217855250505050505090500191505060006040518083038185875af1925050503d806000811461291b576040519150601f19603f3d011682016040523d82523d6000602084013e612920565b606091505b5091509150612930828286612941565b979650505050505050565b3b151590565b606083156129505750816127d8565b8251156129605782518084602001fd5b8160405162461bcd60e51b81526004018080602001828103825283818151815260200191508051906020019080838360005b838110156129aa578181015183820152602001612992565b50505050905090810190601f1680156129d75780820380516001836020036101000a031916815260200191505b509250505060405180910390fdfe4f776e61626c653a206e6577206f776e657220697320746865207a65726f2061646472657373556e697377617056324c6962726172793a20494e53554646494349454e545f4f55545055545f414d4f554e54416464726573733a20696e73756666696369656e742062616c616e636520666f722063616c6c556e697377617056324c6962726172793a20494e53554646494349454e545f4c4951554944495459536166654d6174683a206d756c7469706c69636174696f6e206f766572666c6f774f776e61626c653a2063616c6c6572206973206e6f7420746865206f776e65725361666545524332303a204552433230206f7065726174696f6e20646964206e6f7420737563636565645361666545524332303a20617070726f76652066726f6d206e6f6e2d7a65726f20746f206e6f6e2d7a65726f20616c6c6f77616e6365a2646970667358221220bc62a5d498a331f94cf7d4c336b211b0d2ce57166dea96908ed021ce8edea99564736f6c634300060c0033",
  "devdoc": {
    "kind": "dev",
    "methods": {
      "owner()": {
        "details": "Returns the address of the current owner."
      },
      "renounceOwnership()": {
        "details": "Leaves the contract without owner. It will not be possible to call `onlyOwner` functions anymore. Can only be called by the current owner. NOTE: Renouncing ownership will leave the contract without an owner, thereby removing any functionality that is only available to the owner."
      },
      "transferOwnership(address)": {
        "details": "Transfers ownership of the contract to a new account (`newOwner`). Can only be called by the current owner."
      }
    },
    "version": 1
  },
  "userdoc": {
    "kind": "user",
    "methods": {},
    "version": 1
  },
  "storageLayout": {
    "storage": [
      {
        "astId": 7,
        "contract": "contracts/LiquidationBot/Liquidator.sol:Liquidator",
        "label": "_owner",
        "offset": 0,
        "slot": "0",
        "type": "t_address"
      },
      {
        "astId": 1111,
        "contract": "contracts/LiquidationBot/Liquidator.sol:Liquidator",
        "label": "comptroller",
        "offset": 0,
        "slot": "1",
        "type": "t_contract(IComptroller)2192"
      },
      {
        "astId": 1113,
        "contract": "contracts/LiquidationBot/Liquidator.sol:Liquidator",
        "label": "priceOracle",
        "offset": 0,
        "slot": "2",
        "type": "t_contract(IPriceOracle)2215"
      },
      {
        "astId": 1115,
        "contract": "contracts/LiquidationBot/Liquidator.sol:Liquidator",
        "label": "closeFact",
        "offset": 0,
        "slot": "3",
        "type": "t_uint256"
      },
      {
        "astId": 1117,
        "contract": "contracts/LiquidationBot/Liquidator.sol:Liquidator",
        "label": "liqIncent",
        "offset": 0,
        "slot": "4",
        "type": "t_uint256"
      },
      {
        "astId": 1120,
        "contract": "contracts/LiquidationBot/Liquidator.sol:Liquidator",
        "label": "gasThreshold",
        "offset": 0,
        "slot": "5",
        "type": "t_uint256"
      }
    ],
    "types": {
      "t_address": {
        "encoding": "inplace",
        "label": "address",
        "numberOfBytes": "20"
      },
      "t_contract(IComptroller)2192": {
        "encoding": "inplace",
        "label": "contract IComptroller",
        "numberOfBytes": "20"
      },
      "t_contract(IPriceOracle)2215": {
        "encoding": "inplace",
        "label": "contract IPriceOracle",
        "numberOfBytes": "20"
      },
      "t_uint256": {
        "encoding": "inplace",
        "label": "uint256",
        "numberOfBytes": "32"
      }
    }
  }
}