{
  "address": "0x58047824a368c5C29E82a4CD55b323E5CD65FbF6",
  "abi": [
    {
      "inputs": [
        {
          "internalType": "uint256",
          "name": "anchorPeriod_",
          "type": "uint256"
        },
        {
          "internalType": "string",
          "name": "nativeTokenSymbol_",
          "type": "string"
        }
      ],
      "stateMutability": "nonpayable",
      "type": "constructor"
    },
    {
      "anonymous": false,
      "inputs": [
        {
          "indexed": false,
          "internalType": "address",
          "name": "cToken",
          "type": "address"
        },
        {
          "indexed": false,
          "internalType": "uint256",
          "name": "anchorPrice",
          "type": "uint256"
        },
        {
          "indexed": false,
          "internalType": "uint256",
          "name": "oldTimestamp",
          "type": "uint256"
        },
        {
          "indexed": false,
          "internalType": "uint256",
          "name": "newTimestamp",
          "type": "uint256"
        }
      ],
      "name": "AnchorPriceUpdated",
      "type": "event"
    },
    {
      "anonymous": false,
      "inputs": [
        {
          "indexed": true,
          "internalType": "address",
          "name": "previousOwner",
          "type": "address"
        },
        {
          "indexed": true,
          "internalType": "address",
          "name": "newOwner",
          "type": "address"
        }
      ],
      "name": "OwnershipTransferred",
      "type": "event"
    },
    {
      "anonymous": false,
      "inputs": [
        {
          "indexed": true,
          "internalType": "bytes32",
          "name": "symbolHash",
          "type": "bytes32"
        },
        {
          "indexed": false,
          "internalType": "uint256",
          "name": "oldTimestamp",
          "type": "uint256"
        },
        {
          "indexed": false,
          "internalType": "uint256",
          "name": "newTimestamp",
          "type": "uint256"
        },
        {
          "indexed": false,
          "internalType": "uint256",
          "name": "oldPrice",
          "type": "uint256"
        },
        {
          "indexed": false,
          "internalType": "uint256",
          "name": "newPrice",
          "type": "uint256"
        }
      ],
      "name": "UniswapWindowUpdated",
      "type": "event"
    },
    {
      "inputs": [
        {
          "components": [
            {
              "internalType": "address",
              "name": "cToken",
              "type": "address"
            },
            {
              "internalType": "address",
              "name": "underlying",
              "type": "address"
            },
            {
              "internalType": "bytes32",
              "name": "symbolHash",
              "type": "bytes32"
            },
            {
              "internalType": "uint256",
              "name": "baseUnit",
              "type": "uint256"
            },
            {
              "internalType": "enum UniswapConfig.PriceSource",
              "name": "priceSource",
              "type": "uint8"
            },
            {
              "internalType": "uint256",
              "name": "fixedPrice",
              "type": "uint256"
            },
            {
              "internalType": "address",
              "name": "uniswapMarket",
              "type": "address"
            },
            {
              "internalType": "bool",
              "name": "isUniswapReversed",
              "type": "bool"
            }
          ],
          "internalType": "struct UniswapConfig.TokenConfig[]",
          "name": "configs",
          "type": "tuple[]"
        }
      ],
      "name": "addTokens",
      "outputs": [],
      "stateMutability": "nonpayable",
      "type": "function"
    },
    {
      "inputs": [],
      "name": "anchorPeriod",
      "outputs": [
        {
          "internalType": "uint256",
          "name": "",
          "type": "uint256"
        }
      ],
      "stateMutability": "view",
      "type": "function"
    },
    {
      "inputs": [
        {
          "internalType": "address",
          "name": "",
          "type": "address"
        }
      ],
      "name": "cTokenIndex",
      "outputs": [
        {
          "internalType": "uint256",
          "name": "",
          "type": "uint256"
        }
      ],
      "stateMutability": "view",
      "type": "function"
    },
    {
      "inputs": [],
      "name": "ethBaseUnit",
      "outputs": [
        {
          "internalType": "uint256",
          "name": "",
          "type": "uint256"
        }
      ],
      "stateMutability": "view",
      "type": "function"
    },
    {
      "inputs": [],
      "name": "expScale",
      "outputs": [
        {
          "internalType": "uint256",
          "name": "",
          "type": "uint256"
        }
      ],
      "stateMutability": "view",
      "type": "function"
    },
    {
      "inputs": [
        {
          "internalType": "uint256",
          "name": "i",
          "type": "uint256"
        }
      ],
      "name": "getTokenConfig",
      "outputs": [
        {
          "components": [
            {
              "internalType": "address",
              "name": "cToken",
              "type": "address"
            },
            {
              "internalType": "address",
              "name": "underlying",
              "type": "address"
            },
            {
              "internalType": "bytes32",
              "name": "symbolHash",
              "type": "bytes32"
            },
            {
              "internalType": "uint256",
              "name": "baseUnit",
              "type": "uint256"
            },
            {
              "internalType": "enum UniswapConfig.PriceSource",
              "name": "priceSource",
              "type": "uint8"
            },
            {
              "internalType": "uint256",
              "name": "fixedPrice",
              "type": "uint256"
            },
            {
              "internalType": "address",
              "name": "uniswapMarket",
              "type": "address"
            },
            {
              "internalType": "bool",
              "name": "isUniswapReversed",
              "type": "bool"
            }
          ],
          "internalType": "struct UniswapConfig.TokenConfig",
          "name": "",
          "type": "tuple"
        }
      ],
      "stateMutability": "view",
      "type": "function"
    },
    {
      "inputs": [
        {
          "internalType": "address",
          "name": "cToken",
          "type": "address"
        }
      ],
      "name": "getTokenConfigByCToken",
      "outputs": [
        {
          "components": [
            {
              "internalType": "address",
              "name": "cToken",
              "type": "address"
            },
            {
              "internalType": "address",
              "name": "underlying",
              "type": "address"
            },
            {
              "internalType": "bytes32",
              "name": "symbolHash",
              "type": "bytes32"
            },
            {
              "internalType": "uint256",
              "name": "baseUnit",
              "type": "uint256"
            },
            {
              "internalType": "enum UniswapConfig.PriceSource",
              "name": "priceSource",
              "type": "uint8"
            },
            {
              "internalType": "uint256",
              "name": "fixedPrice",
              "type": "uint256"
            },
            {
              "internalType": "address",
              "name": "uniswapMarket",
              "type": "address"
            },
            {
              "internalType": "bool",
              "name": "isUniswapReversed",
              "type": "bool"
            }
          ],
          "internalType": "struct UniswapConfig.TokenConfig",
          "name": "",
          "type": "tuple"
        }
      ],
      "stateMutability": "view",
      "type": "function"
    },
    {
      "inputs": [
        {
          "internalType": "string",
          "name": "symbol",
          "type": "string"
        }
      ],
      "name": "getTokenConfigBySymbol",
      "outputs": [
        {
          "components": [
            {
              "internalType": "address",
              "name": "cToken",
              "type": "address"
            },
            {
              "internalType": "address",
              "name": "underlying",
              "type": "address"
            },
            {
              "internalType": "bytes32",
              "name": "symbolHash",
              "type": "bytes32"
            },
            {
              "internalType": "uint256",
              "name": "baseUnit",
              "type": "uint256"
            },
            {
              "internalType": "enum UniswapConfig.PriceSource",
              "name": "priceSource",
              "type": "uint8"
            },
            {
              "internalType": "uint256",
              "name": "fixedPrice",
              "type": "uint256"
            },
            {
              "internalType": "address",
              "name": "uniswapMarket",
              "type": "address"
            },
            {
              "internalType": "bool",
              "name": "isUniswapReversed",
              "type": "bool"
            }
          ],
          "internalType": "struct UniswapConfig.TokenConfig",
          "name": "",
          "type": "tuple"
        }
      ],
      "stateMutability": "view",
      "type": "function"
    },
    {
      "inputs": [
        {
          "internalType": "bytes32",
          "name": "symbolHash",
          "type": "bytes32"
        }
      ],
      "name": "getTokenConfigBySymbolHash",
      "outputs": [
        {
          "components": [
            {
              "internalType": "address",
              "name": "cToken",
              "type": "address"
            },
            {
              "internalType": "address",
              "name": "underlying",
              "type": "address"
            },
            {
              "internalType": "bytes32",
              "name": "symbolHash",
              "type": "bytes32"
            },
            {
              "internalType": "uint256",
              "name": "baseUnit",
              "type": "uint256"
            },
            {
              "internalType": "enum UniswapConfig.PriceSource",
              "name": "priceSource",
              "type": "uint8"
            },
            {
              "internalType": "uint256",
              "name": "fixedPrice",
              "type": "uint256"
            },
            {
              "internalType": "address",
              "name": "uniswapMarket",
              "type": "address"
            },
            {
              "internalType": "bool",
              "name": "isUniswapReversed",
              "type": "bool"
            }
          ],
          "internalType": "struct UniswapConfig.TokenConfig",
          "name": "",
          "type": "tuple"
        }
      ],
      "stateMutability": "view",
      "type": "function"
    },
    {
      "inputs": [
        {
          "internalType": "address",
          "name": "underlying",
          "type": "address"
        }
      ],
      "name": "getTokenConfigByUnderlying",
      "outputs": [
        {
          "components": [
            {
              "internalType": "address",
              "name": "cToken",
              "type": "address"
            },
            {
              "internalType": "address",
              "name": "underlying",
              "type": "address"
            },
            {
              "internalType": "bytes32",
              "name": "symbolHash",
              "type": "bytes32"
            },
            {
              "internalType": "uint256",
              "name": "baseUnit",
              "type": "uint256"
            },
            {
              "internalType": "enum UniswapConfig.PriceSource",
              "name": "priceSource",
              "type": "uint8"
            },
            {
              "internalType": "uint256",
              "name": "fixedPrice",
              "type": "uint256"
            },
            {
              "internalType": "address",
              "name": "uniswapMarket",
              "type": "address"
            },
            {
              "internalType": "bool",
              "name": "isUniswapReversed",
              "type": "bool"
            }
          ],
          "internalType": "struct UniswapConfig.TokenConfig",
          "name": "",
          "type": "tuple"
        }
      ],
      "stateMutability": "view",
      "type": "function"
    },
    {
      "inputs": [
        {
          "internalType": "address",
          "name": "cToken",
          "type": "address"
        }
      ],
      "name": "getUnderlyingPrice",
      "outputs": [
        {
          "internalType": "uint256",
          "name": "",
          "type": "uint256"
        }
      ],
      "stateMutability": "nonpayable",
      "type": "function"
    },
    {
      "inputs": [
        {
          "internalType": "address",
          "name": "cToken",
          "type": "address"
        }
      ],
      "name": "getUnderlyingPriceView",
      "outputs": [
        {
          "internalType": "uint256",
          "name": "",
          "type": "uint256"
        }
      ],
      "stateMutability": "view",
      "type": "function"
    },
    {
      "inputs": [],
      "name": "nativeTokenHash",
      "outputs": [
        {
          "internalType": "bytes32",
          "name": "",
          "type": "bytes32"
        }
      ],
      "stateMutability": "view",
      "type": "function"
    },
    {
      "inputs": [
        {
          "internalType": "bytes32",
          "name": "",
          "type": "bytes32"
        }
      ],
      "name": "newObservations",
      "outputs": [
        {
          "internalType": "uint256",
          "name": "timestamp",
          "type": "uint256"
        },
        {
          "internalType": "uint256",
          "name": "acc",
          "type": "uint256"
        }
      ],
      "stateMutability": "view",
      "type": "function"
    },
    {
      "inputs": [],
      "name": "numTokens",
      "outputs": [
        {
          "internalType": "uint256",
          "name": "",
          "type": "uint256"
        }
      ],
      "stateMutability": "view",
      "type": "function"
    },
    {
      "inputs": [
        {
          "internalType": "bytes32",
          "name": "",
          "type": "bytes32"
        }
      ],
      "name": "oldObservations",
      "outputs": [
        {
          "internalType": "uint256",
          "name": "timestamp",
          "type": "uint256"
        },
        {
          "internalType": "uint256",
          "name": "acc",
          "type": "uint256"
        }
      ],
      "stateMutability": "view",
      "type": "function"
    },
    {
      "inputs": [],
      "name": "owner",
      "outputs": [
        {
          "internalType": "address",
          "name": "",
          "type": "address"
        }
      ],
      "stateMutability": "view",
      "type": "function"
    },
    {
      "inputs": [
        {
          "internalType": "string",
          "name": "symbol",
          "type": "string"
        }
      ],
      "name": "price",
      "outputs": [
        {
          "internalType": "uint256",
          "name": "",
          "type": "uint256"
        }
      ],
      "stateMutability": "view",
      "type": "function"
    },
    {
      "inputs": [
        {
          "internalType": "bytes32",
          "name": "",
          "type": "bytes32"
        }
      ],
      "name": "prices",
      "outputs": [
        {
          "internalType": "uint256",
          "name": "",
          "type": "uint256"
        }
      ],
      "stateMutability": "view",
      "type": "function"
    },
    {
      "inputs": [],
      "name": "renounceOwnership",
      "outputs": [],
      "stateMutability": "nonpayable",
      "type": "function"
    },
    {
      "inputs": [
        {
          "internalType": "bytes32",
          "name": "",
          "type": "bytes32"
        }
      ],
      "name": "symbolHashIndex",
      "outputs": [
        {
          "internalType": "uint256",
          "name": "",
          "type": "uint256"
        }
      ],
      "stateMutability": "view",
      "type": "function"
    },
    {
      "inputs": [
        {
          "internalType": "uint256",
          "name": "",
          "type": "uint256"
        }
      ],
      "name": "tokens",
      "outputs": [
        {
          "internalType": "address",
          "name": "cToken",
          "type": "address"
        },
        {
          "internalType": "address",
          "name": "underlying",
          "type": "address"
        },
        {
          "internalType": "bytes32",
          "name": "symbolHash",
          "type": "bytes32"
        },
        {
          "internalType": "uint256",
          "name": "baseUnit",
          "type": "uint256"
        },
        {
          "internalType": "enum UniswapConfig.PriceSource",
          "name": "priceSource",
          "type": "uint8"
        },
        {
          "internalType": "uint256",
          "name": "fixedPrice",
          "type": "uint256"
        },
        {
          "internalType": "address",
          "name": "uniswapMarket",
          "type": "address"
        },
        {
          "internalType": "bool",
          "name": "isUniswapReversed",
          "type": "bool"
        }
      ],
      "stateMutability": "view",
      "type": "function"
    },
    {
      "inputs": [
        {
          "internalType": "address",
          "name": "newOwner",
          "type": "address"
        }
      ],
      "name": "transferOwnership",
      "outputs": [],
      "stateMutability": "nonpayable",
      "type": "function"
    },
    {
      "inputs": [
        {
          "internalType": "address",
          "name": "",
          "type": "address"
        }
      ],
      "name": "underlyingIndex",
      "outputs": [
        {
          "internalType": "uint256",
          "name": "",
          "type": "uint256"
        }
      ],
      "stateMutability": "view",
      "type": "function"
    }
  ],
  "transactionHash": "0xd4f2f7f0f60c0f0ebcfc4a3d12302cb119c9d11f6de71275c9bf180280cf4ee6",
  "args": [
    900,
    "ETH"
  ],
  "solcInputHash": "52e310e6298a8f66ef102923c30d8d99",
  "bytecode": "0x60c06040523480156200001157600080fd5b5060405162001eda38038062001eda8339810160408190526200003491620000ca565b600062000040620000c6565b600080546001600160a01b0319166001600160a01b0383169081178255604051929350917f8be0079c531659141344cd1fd0a4f28419497f9722a3daafe3b4186f6b6457e0908290a3506080829052604051620000a290829060200162000179565b60408051601f19818403018152919052805160209091012060a05250620001ca9050565b3390565b60008060408385031215620000dd578182fd5b825160208401519092506001600160401b0380821115620000fc578283fd5b818501915085601f83011262000110578283fd5b8151818111156200011f578384fd5b604051601f8201601f19168101602001838111828210171562000140578586fd5b60405281815283820160200188101562000158578485fd5b6200016b82602083016020870162000197565b809450505050509250929050565b600082516200018d81846020870162000197565b9190910192915050565b60005b83811015620001b45781810151838201526020016200019a565b83811115620001c4576000848401525b50505050565b60805160a051611cc962000211600039806106be528061097e5280610b635280610f5f52806111b6528061129e5250806109a25280610ebe52806114215250611cc96000f3fe608060405234801561001057600080fd5b50600436106101585760003560e01c80638a003888116100c3578063d515bb031161007c578063d515bb03146102c8578063e9206d78146102d0578063eaa1c2ca146102d8578063f2fde38b146102eb578063fc57d4df146102fe578063fe2c61981461031157610158565b80638a003888146102725780638da5cb5b146102855780638e499bcf1461029a57806395acbb39146102a25780639f599631146102b5578063d1b353b41461024f57610158565b80634f64b2be116101155780634f64b2be146102025780635d5c06be1461022957806360846bc61461023c57806369aa3ac61461024f5780636f3aa01d14610257578063715018a61461026a57610158565b80630d66ba221461015d5780631a125204146101725780631f93ab791461019b578063276c2cba146101bb57806337c0e12d146101ce5780634da21942146101ef575b600080fd5b61017061016b366004611667565b610324565b005b610185610180366004611718565b6104f2565b6040516101929190611ba7565b60405180910390f35b6101ae6101a936600461162f565b61053b565b6040516101929190611900565b6101856101c9366004611730565b61054d565b6101e16101dc366004611718565b61058a565b604051610192929190611c19565b6101856101fd36600461162f565b6105a3565b610215610210366004611718565b6105b6565b604051610192989796959493929190611880565b6101ae61023736600461162f565b610612565b6101ae61024a366004611718565b610624565b6101ae610636565b6101ae61026536600461162f565b610642565b610170610753565b610185610280366004611718565b6107dc565b61028d6108b6565b604051610192919061186c565b6101ae6108c5565b6101ae6102b0366004611718565b6108cb565b6101856102c336600461162f565b6108dd565b6101ae61097c565b6101ae6109a0565b6101e16102e6366004611718565b6109c4565b6101706102f936600461162f565b6109dd565b6101ae61030c36600461162f565b610a9d565b6101ae61031f366004611730565b610ae0565b61032c610bdf565b6001600160a01b031661033d6108b6565b6001600160a01b03161461036c5760405162461bcd60e51b815260040161036390611aa9565b60405180910390fd5b60005b81518110156104e5576103806114f9565b82828151811061038c57fe5b6020026020010151905060008160400151905060008260600151116103c35760405162461bcd60e51b815260040161036390611986565b600081815260086020526040902054156103ef5760405162461bcd60e51b815260040161036390611909565b60c082015160028360800151600281111561040657fe5b14156104b3576001600160a01b0381166104325760405162461bcd60e51b8152600401610363906119c8565b600061043d84610be3565b600084815260076020908152604080832042808255600890935292819020828155600193840185905592909201839055905191925084917fe37d39315e3419c0937360f1ac88f2c52ecf67e3b22b367f82047ddb4591904a916104a591819086908190611c27565b60405180910390a2506104da565b6001600160a01b038116156104da5760405162461bcd60e51b815260040161036390611b61565b50505060010161036f565b506104ef81610c15565b50565b6104fa6114f9565b600061050583610de5565b9050801561051e57610516816107dc565b915050610536565b60405162461bcd60e51b815260040161036390611a42565b919050565b60036020526000908152604090205481565b6105556114f9565b610584826040516020016105699190611833565b604051602081830303815290604052805190602001206104f2565b92915050565b6007602052600090815260409020805460019091015482565b6105ab6114f9565b600061050583610df7565b600160208190526000918252604090912080549181015460028201546003830154600484015460058501546006909501546001600160a01b0396871696948516959394929360ff92831693909290821691600160a01b90041688565b60026020526000908152604090205481565b60066020526000908152604090205481565b670de0b6b3a764000081565b600061064c6114f9565b610655836108dd565b9050600060028260800151600281111561066b57fe5b141561068557506040808201516000908152600660205220545b60018260800151600281111561069757fe5b14156106a4575060a08101515b6000826080015160028111156106b657fe5b141561072c577f0000000000000000000000000000000000000000000000000000000000000000600090815260066020526040902054806107095760405162461bcd60e51b815260040161036390611ade565b670de0b6b3a7640000610720828560a00151610e12565b8161072757fe5b049150505b8160600151610743670de0b6b3a764000083610e12565b8161074a57fe5b04949350505050565b61075b610bdf565b6001600160a01b031661076c6108b6565b6001600160a01b0316146107925760405162461bcd60e51b815260040161036390611aa9565b600080546040516001600160a01b03909116907f8be0079c531659141344cd1fd0a4f28419497f9722a3daafe3b4186f6b6457e0908390a3600080546001600160a01b0319169055565b6107e46114f9565b6005548211156108065760405162461bcd60e51b815260040161036390611a42565b60008281526001602081815260409283902083516101008101855281546001600160a01b03908116825293820154909316918301919091526002808201549383019390935260038101546060830152600481015491929091608084019160ff9091169081111561087257fe5b600281111561087d57fe5b8152600582015460208201526006909101546001600160a01b0381166040830152600160a01b900460ff16151560609091015292915050565b6000546001600160a01b031690565b60055481565b60046020526000908152604090205481565b6108e56114f9565b60006108f083610e4c565b9050801561090157610516816107dc565b610975836001600160a01b0316636f307dc36040518163ffffffff1660e01b815260040160206040518083038186803b15801561093d57600080fd5b505afa158015610951573d6000803e3d6000fd5b505050506040513d601f19601f820116820180604052508101906101fd919061164b565b9392505050565b7f000000000000000000000000000000000000000000000000000000000000000081565b7f000000000000000000000000000000000000000000000000000000000000000081565b6008602052600090815260409020805460019091015482565b6109e5610bdf565b6001600160a01b03166109f66108b6565b6001600160a01b031614610a1c5760405162461bcd60e51b815260040161036390611aa9565b6001600160a01b038116610a425760405162461bcd60e51b815260040161036390611940565b600080546040516001600160a01b03808516939216917f8be0079c531659141344cd1fd0a4f28419497f9722a3daafe3b4186f6b6457e091a3600080546001600160a01b0319166001600160a01b0392909216919091179055565b6000610aa76114f9565b610ab0836108dd565b90508060600151610ad1670de0b6b3a7640000610acc84610e67565b610e12565b81610ad857fe5b049392505050565b6000610aea6114f9565b610af38361054d565b9050600281608001516002811115610b0757fe5b1415610b26576040908101516000908152600660205220549050610536565b600181608001516002811115610b3857fe5b1415610b495760a001519050610536565b600081608001516002811115610b5b57fe5b1415610bd6577f000000000000000000000000000000000000000000000000000000000000000060009081526006602052604090205480610bae5760405162461bcd60e51b815260040161036390611ade565b670de0b6b3a7640000610bc5828460a00151610e12565b81610bcc57fe5b0492505050610536565b50600092915050565b3390565b6000806000610bf58460c00151610fd1565b50915091508360e0015115610c0d5791506105369050565b509050610536565b60005b8151811015610dd857600060055482016001019050828281518110610c3957fe5b60209081029190910181015160008381526001808452604091829020835181546001600160a01b03199081166001600160a01b03928316178355958501518284018054909716911617909455908201516002808501919091556060830151600385015560808301516004850180549495949193909260ff19909216918490811115610cc057fe5b021790555060a0820151600582015560c08201516006909101805460e0909301511515600160a01b0260ff60a01b196001600160a01b039093166001600160a01b0319909416939093179190911691909117905582518190600290600090869086908110610d2a57fe5b6020026020010151600001516001600160a01b03166001600160a01b03168152602001908152602001600020819055508060036000858581518110610d6b57fe5b6020026020010151602001516001600160a01b03166001600160a01b03168152602001908152602001600020819055508060046000858581518110610dac57fe5b602002602001015160400151815260200190815260200160002081905550508080600101915050610c18565b5051600580549091019055565b60009081526004602052604090205490565b6001600160a01b031660009081526003602052604090205490565b600082610e2157506000610584565b82820282848281610e2e57fe5b04146109755760405162461bcd60e51b815260040161036390611a0b565b6001600160a01b031660009081526002602052604090205490565b6000600282608001516002811115610e7b57fe5b1415610f2257610e8961153e565b5060408083015160009081526008602090815290829020825180840190935280548084526001909101549183019190915242037f000000000000000000000000000000000000000000000000000000000000000081101580610efa5750604080850151600090815260066020522054155b15610f0857610f08846111a6565b505050604080820151600090815260066020522054610536565b600182608001516002811115610f3457fe5b1415610f45575060a0810151610536565b600082608001516002811115610f5757fe5b1415610536577f000000000000000000000000000000000000000000000000000000000000000060009081526006602052604090205480610faa5760405162461bcd60e51b815260040161036390611ade565b670de0b6b3a7640000610fc1828560a00151610e12565b81610fc857fe5b04915050610536565b6000806000610fde61120f565b9050836001600160a01b0316635909c0d56040518163ffffffff1660e01b815260040160206040518083038186803b15801561101957600080fd5b505afa15801561102d573d6000803e3d6000fd5b505050506040513d601f19601f82011682018060405250810190611051919061180d565b9250836001600160a01b0316635a3d54936040518163ffffffff1660e01b815260040160206040518083038186803b15801561108c57600080fd5b505afa1580156110a0573d6000803e3d6000fd5b505050506040513d601f19601f820116820180604052508101906110c4919061180d565b91506000806000866001600160a01b0316630902f1ac6040518163ffffffff1660e01b815260040160606040518083038186803b15801561110457600080fd5b505afa158015611118573d6000803e3d6000fd5b505050506040513d601f19601f8201168201806040525081019061113c91906117b9565b9250925092508363ffffffff168163ffffffff161461119c5780840363ffffffff81166111698486611219565b516001600160e01b031602969096019563ffffffff811661118a8585611219565b516001600160e01b0316029590950194505b5050509193909250565b60006111b0611294565b905060007f0000000000000000000000000000000000000000000000000000000000000000836040015114156111e75750806111f4565b6111f183836112da565b90505b60409283015160009081526006602052929092209190915550565b63ffffffff421690565b611221611558565b6000826001600160701b03161161124a5760405162461bcd60e51b815260040161036390611b2a565b6040805160208101909152806001600160701b0384166dffffffffffffffffffffffffffff60701b607087901b168161127f57fe5b046001600160e01b0316815250905092915050565b60006112d56112c27f00000000000000000000000000000000000000000000000000000000000000006104f2565b6c0c9f2c9cd04674edea400000006112da565b905090565b6000806000806112e9866113ce565b92509250925080421161130e5760405162461bcd60e51b815260040161036390611a72565b4281900361131a611558565b6040518060200160405280838688038161133057fe5b046001600160e01b03168152509050600061134a826114e1565b90506000611358828a610e12565b90506000670de0b6b3a76400006113758184048d60600151610e12565b8161137c57fe5b0490507f7d881580fb2bb7844e8ecf8df26510247c4bbea2735d40bf0d9ac33c0d9acd818b600001518288426040516113b894939291906118da565b60405180910390a19a9950505050505050505050565b6000806000808460400151905060006113e686610be3565b90506113f061153e565b50600082815260086020908152604091829020825180840190935280548084526001909101549183019190915242037f000000000000000000000000000000000000000000000000000000000000000081106114bc578151600085815260076020908152604080832093845581860180516001958601556008909252918290204280825593018690558a82015185519151925190937fe37d39315e3419c0937360f1ac88f2c52ecf67e3b22b367f82047ddb4591904a936114b393928990611c27565b60405180910390a25b5050600091825260076020526040909120600181015490549196909550909350915050565b516612725dd1d243ab6001600160e01b039091160490565b60408051610100810182526000808252602082018190529181018290526060810182905290608082019081526000602082018190526040820181905260609091015290565b604051806040016040528060008152602001600081525090565b60408051602081019091526000815290565b803561058481611c69565b8035801515811461058457600080fd5b80356003811061058457600080fd5b60006101008083850312156115a7578182fd5b6115b081611c42565b91505081356115be81611c69565b815260208201356115ce81611c69565b8060208301525060408201356040820152606082013560608201526115f68360808401611585565b608082015260a082013560a08201526116128360c0840161156a565b60c08201526116248360e08401611575565b60e082015292915050565b600060208284031215611640578081fd5b813561097581611c69565b60006020828403121561165c578081fd5b815161097581611c69565b60006020808385031215611679578182fd5b823567ffffffffffffffff80821115611690578384fd5b818501915085601f8301126116a3578384fd5b8135818111156116b1578485fd5b6116be8485830201611c42565b8181528481019250838501610100808402860187018a10156116de578788fd5b8795505b8386101561170a576116f48a83611594565b85526001959095019493860193908101906116e2565b509098975050505050505050565b600060208284031215611729578081fd5b5035919050565b60006020808385031215611742578182fd5b823567ffffffffffffffff80821115611759578384fd5b818501915085601f83011261176c578384fd5b81358181111561177a578485fd5b61178c601f8201601f19168501611c42565b915080825286848285010111156117a1578485fd5b80848401858401378101909201929092529392505050565b6000806000606084860312156117cd578182fd5b83516117d881611c7e565b60208501519093506117e981611c7e565b604085015190925063ffffffff81168114611802578182fd5b809150509250925092565b60006020828403121561181e578081fd5b5051919050565b6003811061182f57fe5b9052565b60008251815b818110156118535760208186018101518583015201611839565b818111156118615782828501525b509190910192915050565b6001600160a01b0391909116815260200190565b6001600160a01b038981168252888116602083015260408201889052606082018790526101008201906118b66080840188611825565b8560a084015280851660c08401525082151560e08301529998505050505050505050565b6001600160a01b0394909416845260208401929092526040830152606082015260800190565b90815260200190565b6020808252601b908201527f63616e6e6f74206368616e67652063757272656e7420746f6b656e0000000000604082015260600190565b60208082526026908201527f4f776e61626c653a206e6577206f776e657220697320746865207a65726f206160408201526564647265737360d01b606082015260800190565b60208082526022908201527f62617365556e6974206d7573742062652067726561746572207468616e207a65604082015261726f60f01b606082015260800190565b60208082526023908201527f7265706f7274656420707269636573206d757374206861766520616e20616e636040820152623437b960e91b606082015260800190565b60208082526017908201527f6d756c7469706c69636174696f6e206f766572666c6f77000000000000000000604082015260600190565b6020808252601690820152751d1bdad95b8818dbdb999a59c81b9bdd08199bdd5b9960521b604082015260600190565b6020808252601a908201527f6e6f77206d75737420636f6d65206166746572206265666f7265000000000000604082015260600190565b6020808252818101527f4f776e61626c653a2063616c6c6572206973206e6f7420746865206f776e6572604082015260600190565b6020808252602c908201527f455448207072696365206e6f74207365742c2063616e6e6f7420636f6e76657260408201526b7420746f20646f6c6c61727360a01b606082015260800190565b60208082526017908201527f4669786564506f696e743a204449565f42595f5a45524f000000000000000000604082015260600190565b60208082526026908201527f6f6e6c79207265706f7274656420707269636573207574696c697a6520616e2060408201526530b731b437b960d11b606082015260800190565b60006101008201905060018060a01b0380845116835280602085015116602084015260408401516040840152606084015160608401526080840151611bef6080850182611825565b5060a084015160a08401528060c08501511660c08401525060e0830151151560e083015292915050565b918252602082015260400190565b93845260208401929092526040830152606082015260800190565b60405181810167ffffffffffffffff81118282101715611c6157600080fd5b604052919050565b6001600160a01b03811681146104ef57600080fd5b6001600160701b03811681146104ef57600080fdfea264697066735822122093ceb61ff8633fe738423617752517c41d314e12b6a7fd1216608ea563a00b0a64736f6c634300060c0033",
  "devdoc": {
    "kind": "dev",
    "methods": {
      "constructor": {
        "details": "Note that to avoid immature TWAPs, the system must run for at least a single anchorPeriod before using.",
        "params": {
          "anchorPeriod_": "The minimum amount of time required for the old uniswap price accumulator to be replaced"
        }
      },
      "getTokenConfig(uint256)": {
        "params": {
          "i": "The index of the config to get"
        },
        "returns": {
          "_0": "The config object"
        }
      },
      "getTokenConfigByCToken(address)": {
        "details": "If a config for the cToken is not found, falls back to searching for the underlying.",
        "params": {
          "cToken": "The address of the cToken of the config to get"
        },
        "returns": {
          "_0": "The config object"
        }
      },
      "getTokenConfigBySymbol(string)": {
        "params": {
          "symbol": "The symbol of the config to get"
        },
        "returns": {
          "_0": "The config object"
        }
      },
      "getTokenConfigBySymbolHash(bytes32)": {
        "params": {
          "symbolHash": "The keccack256 of the symbol of the config to get"
        },
        "returns": {
          "_0": "The config object"
        }
      },
      "getTokenConfigByUnderlying(address)": {
        "params": {
          "underlying": "The address of the underlying asset of the config to get"
        },
        "returns": {
          "_0": "The config object"
        }
      },
      "getUnderlyingPrice(address)": {
        "details": "Implements the PriceOracle interface for Compound v2.",
        "params": {
          "cToken": "The cToken address for price retrieval"
        },
        "returns": {
          "_0": "Price denominated in USD, with 18 decimals, for the given cToken address"
        }
      },
      "getUnderlyingPriceView(address)": {
        "details": "Implements the PriceOracle interface for Compound v2.",
        "params": {
          "cToken": "The cToken address for price retrieval"
        },
        "returns": {
          "_0": "Price denominated in USD, with 18 decimals, for the given cToken address"
        }
      },
      "owner()": {
        "details": "Returns the address of the current owner."
      },
      "price(string)": {
        "params": {
          "symbol": "The symbol to fetch the price of"
        },
        "returns": {
          "_0": "Price denominated in USD, with 6 decimals"
        }
      },
      "renounceOwnership()": {
        "details": "Leaves the contract without owner. It will not be possible to call `onlyOwner` functions anymore. Can only be called by the current owner. NOTE: Renouncing ownership will leave the contract without an owner, thereby removing any functionality that is only available to the owner."
      },
      "transferOwnership(address)": {
        "details": "Transfers ownership of the contract to a new account (`newOwner`). Can only be called by the current owner."
      }
    },
    "version": 1
  },
  "userdoc": {
    "events": {
      "AnchorPriceUpdated(address,uint256,uint256,uint256)": {
        "notice": "The event emitted when anchor price is updated"
      },
      "UniswapWindowUpdated(bytes32,uint256,uint256,uint256,uint256)": {
        "notice": "The event emitted when the uniswap window changes"
      }
    },
    "kind": "user",
    "methods": {
      "anchorPeriod()": {
        "notice": "The minimum amount of time in seconds required for the old uniswap price accumulator to be replaced"
      },
      "constructor": "Construct a uniswap anchored view for a set of token configurations",
      "ethBaseUnit()": {
        "notice": "The number of wei in 1 ETH"
      },
      "expScale()": {
        "notice": "A common scaling factor to maintain precision"
      },
      "getTokenConfig(uint256)": {
        "notice": "Get the i-th config, according to the order they were passed in originally"
      },
      "getTokenConfigByCToken(address)": {
        "notice": "Get the config for the cToken"
      },
      "getTokenConfigBySymbol(string)": {
        "notice": "Get the config for symbol"
      },
      "getTokenConfigBySymbolHash(bytes32)": {
        "notice": "Get the config for the symbolHash"
      },
      "getTokenConfigByUnderlying(address)": {
        "notice": "Get the config for an underlying asset"
      },
      "getUnderlyingPrice(address)": {
        "notice": "Get the underlying price of a cToken"
      },
      "getUnderlyingPriceView(address)": {
        "notice": "Get the underlying price of a cToken"
      },
      "newObservations(bytes32)": {
        "notice": "The new observation for each symbolHash"
      },
      "numTokens()": {
        "notice": "The number of tokens this contract actually supports"
      },
      "oldObservations(bytes32)": {
        "notice": "The old observation for each symbolHash"
      },
      "price(string)": {
        "notice": "Get the official price for a symbol"
      },
      "prices(bytes32)": {
        "notice": "Official prices by symbol hash"
      }
    },
    "version": 1
  },
  "storageLayout": {
    "storage": [
      {
        "astId": 2243,
        "contract": "contracts/UniswapOracle/UniswapAnchoredView.sol:UniswapAnchoredView",
        "label": "_owner",
        "offset": 0,
        "slot": "0",
        "type": "t_address"
      },
      {
        "astId": 1813,
        "contract": "contracts/UniswapOracle/UniswapAnchoredView.sol:UniswapAnchoredView",
        "label": "tokens",
        "offset": 0,
        "slot": "1",
        "type": "t_mapping(t_uint256,t_struct(TokenConfig)1809_storage)"
      },
      {
        "astId": 1817,
        "contract": "contracts/UniswapOracle/UniswapAnchoredView.sol:UniswapAnchoredView",
        "label": "cTokenIndex",
        "offset": 0,
        "slot": "2",
        "type": "t_mapping(t_address,t_uint256)"
      },
      {
        "astId": 1821,
        "contract": "contracts/UniswapOracle/UniswapAnchoredView.sol:UniswapAnchoredView",
        "label": "underlyingIndex",
        "offset": 0,
        "slot": "3",
        "type": "t_mapping(t_address,t_uint256)"
      },
      {
        "astId": 1825,
        "contract": "contracts/UniswapOracle/UniswapAnchoredView.sol:UniswapAnchoredView",
        "label": "symbolHashIndex",
        "offset": 0,
        "slot": "4",
        "type": "t_mapping(t_bytes32,t_uint256)"
      },
      {
        "astId": 1828,
        "contract": "contracts/UniswapOracle/UniswapAnchoredView.sol:UniswapAnchoredView",
        "label": "numTokens",
        "offset": 0,
        "slot": "5",
        "type": "t_uint256"
      },
      {
        "astId": 1010,
        "contract": "contracts/UniswapOracle/UniswapAnchoredView.sol:UniswapAnchoredView",
        "label": "prices",
        "offset": 0,
        "slot": "6",
        "type": "t_mapping(t_bytes32,t_uint256)"
      },
      {
        "astId": 1015,
        "contract": "contracts/UniswapOracle/UniswapAnchoredView.sol:UniswapAnchoredView",
        "label": "oldObservations",
        "offset": 0,
        "slot": "7",
        "type": "t_mapping(t_bytes32,t_struct(Observation)990_storage)"
      },
      {
        "astId": 1020,
        "contract": "contracts/UniswapOracle/UniswapAnchoredView.sol:UniswapAnchoredView",
        "label": "newObservations",
        "offset": 0,
        "slot": "8",
        "type": "t_mapping(t_bytes32,t_struct(Observation)990_storage)"
      }
    ],
    "types": {
      "t_address": {
        "encoding": "inplace",
        "label": "address",
        "numberOfBytes": "20"
      },
      "t_bool": {
        "encoding": "inplace",
        "label": "bool",
        "numberOfBytes": "1"
      },
      "t_bytes32": {
        "encoding": "inplace",
        "label": "bytes32",
        "numberOfBytes": "32"
      },
      "t_enum(PriceSource)1792": {
        "encoding": "inplace",
        "label": "enum UniswapConfig.PriceSource",
        "numberOfBytes": "1"
      },
      "t_mapping(t_address,t_uint256)": {
        "encoding": "mapping",
        "key": "t_address",
        "label": "mapping(address => uint256)",
        "numberOfBytes": "32",
        "value": "t_uint256"
      },
      "t_mapping(t_bytes32,t_struct(Observation)990_storage)": {
        "encoding": "mapping",
        "key": "t_bytes32",
        "label": "mapping(bytes32 => struct Observation)",
        "numberOfBytes": "32",
        "value": "t_struct(Observation)990_storage"
      },
      "t_mapping(t_bytes32,t_uint256)": {
        "encoding": "mapping",
        "key": "t_bytes32",
        "label": "mapping(bytes32 => uint256)",
        "numberOfBytes": "32",
        "value": "t_uint256"
      },
      "t_mapping(t_uint256,t_struct(TokenConfig)1809_storage)": {
        "encoding": "mapping",
        "key": "t_uint256",
        "label": "mapping(uint256 => struct UniswapConfig.TokenConfig)",
        "numberOfBytes": "32",
        "value": "t_struct(TokenConfig)1809_storage"
      },
      "t_struct(Observation)990_storage": {
        "encoding": "inplace",
        "label": "struct Observation",
        "members": [
          {
            "astId": 987,
            "contract": "contracts/UniswapOracle/UniswapAnchoredView.sol:UniswapAnchoredView",
            "label": "timestamp",
            "offset": 0,
            "slot": "0",
            "type": "t_uint256"
          },
          {
            "astId": 989,
            "contract": "contracts/UniswapOracle/UniswapAnchoredView.sol:UniswapAnchoredView",
            "label": "acc",
            "offset": 0,
            "slot": "1",
            "type": "t_uint256"
          }
        ],
        "numberOfBytes": "64"
      },
      "t_struct(TokenConfig)1809_storage": {
        "encoding": "inplace",
        "label": "struct UniswapConfig.TokenConfig",
        "members": [
          {
            "astId": 1794,
            "contract": "contracts/UniswapOracle/UniswapAnchoredView.sol:UniswapAnchoredView",
            "label": "cToken",
            "offset": 0,
            "slot": "0",
            "type": "t_address"
          },
          {
            "astId": 1796,
            "contract": "contracts/UniswapOracle/UniswapAnchoredView.sol:UniswapAnchoredView",
            "label": "underlying",
            "offset": 0,
            "slot": "1",
            "type": "t_address"
          },
          {
            "astId": 1798,
            "contract": "contracts/UniswapOracle/UniswapAnchoredView.sol:UniswapAnchoredView",
            "label": "symbolHash",
            "offset": 0,
            "slot": "2",
            "type": "t_bytes32"
          },
          {
            "astId": 1800,
            "contract": "contracts/UniswapOracle/UniswapAnchoredView.sol:UniswapAnchoredView",
            "label": "baseUnit",
            "offset": 0,
            "slot": "3",
            "type": "t_uint256"
          },
          {
            "astId": 1802,
            "contract": "contracts/UniswapOracle/UniswapAnchoredView.sol:UniswapAnchoredView",
            "label": "priceSource",
            "offset": 0,
            "slot": "4",
            "type": "t_enum(PriceSource)1792"
          },
          {
            "astId": 1804,
            "contract": "contracts/UniswapOracle/UniswapAnchoredView.sol:UniswapAnchoredView",
            "label": "fixedPrice",
            "offset": 0,
            "slot": "5",
            "type": "t_uint256"
          },
          {
            "astId": 1806,
            "contract": "contracts/UniswapOracle/UniswapAnchoredView.sol:UniswapAnchoredView",
            "label": "uniswapMarket",
            "offset": 0,
            "slot": "6",
            "type": "t_address"
          },
          {
            "astId": 1808,
            "contract": "contracts/UniswapOracle/UniswapAnchoredView.sol:UniswapAnchoredView",
            "label": "isUniswapReversed",
            "offset": 20,
            "slot": "6",
            "type": "t_bool"
          }
        ],
        "numberOfBytes": "224"
      },
      "t_uint256": {
        "encoding": "inplace",
        "label": "uint256",
        "numberOfBytes": "32"
      }
    }
  }
}