{
  "address": "0x85751f0bf04E09369dfeaD41A7C64eeCE93571fE",
  "abi": [
    {
      "inputs": [
        {
          "internalType": "uint256",
          "name": "anchorPeriod_",
          "type": "uint256"
        },
        {
          "components": [
            {
              "internalType": "address",
              "name": "cToken",
              "type": "address"
            },
            {
              "internalType": "address",
              "name": "underlying",
              "type": "address"
            },
            {
              "internalType": "bytes32",
              "name": "symbolHash",
              "type": "bytes32"
            },
            {
              "internalType": "uint256",
              "name": "baseUnit",
              "type": "uint256"
            },
            {
              "internalType": "enum UniswapConfig.PriceSource",
              "name": "priceSource",
              "type": "uint8"
            },
            {
              "internalType": "uint256",
              "name": "fixedPrice",
              "type": "uint256"
            },
            {
              "internalType": "address",
              "name": "uniswapMarket",
              "type": "address"
            },
            {
              "internalType": "bool",
              "name": "isUniswapReversed",
              "type": "bool"
            }
          ],
          "internalType": "struct UniswapConfig.TokenConfig[]",
          "name": "configs",
          "type": "tuple[]"
        }
      ],
      "stateMutability": "nonpayable",
      "type": "constructor"
    },
    {
      "anonymous": false,
      "inputs": [
        {
          "indexed": false,
          "internalType": "address",
          "name": "cToken",
          "type": "address"
        },
        {
          "indexed": false,
          "internalType": "uint256",
          "name": "anchorPrice",
          "type": "uint256"
        },
        {
          "indexed": false,
          "internalType": "uint256",
          "name": "oldTimestamp",
          "type": "uint256"
        },
        {
          "indexed": false,
          "internalType": "uint256",
          "name": "newTimestamp",
          "type": "uint256"
        }
      ],
      "name": "AnchorPriceUpdated",
      "type": "event"
    },
    {
      "anonymous": false,
      "inputs": [
        {
          "indexed": true,
          "internalType": "address",
          "name": "previousOwner",
          "type": "address"
        },
        {
          "indexed": true,
          "internalType": "address",
          "name": "newOwner",
          "type": "address"
        }
      ],
      "name": "OwnershipTransferred",
      "type": "event"
    },
    {
      "anonymous": false,
      "inputs": [
        {
          "indexed": false,
          "internalType": "string",
          "name": "symbol",
          "type": "string"
        },
        {
          "indexed": false,
          "internalType": "uint256",
          "name": "price",
          "type": "uint256"
        }
      ],
      "name": "PriceUpdated",
      "type": "event"
    },
    {
      "anonymous": false,
      "inputs": [
        {
          "indexed": true,
          "internalType": "bytes32",
          "name": "symbolHash",
          "type": "bytes32"
        },
        {
          "indexed": false,
          "internalType": "uint256",
          "name": "oldTimestamp",
          "type": "uint256"
        },
        {
          "indexed": false,
          "internalType": "uint256",
          "name": "newTimestamp",
          "type": "uint256"
        },
        {
          "indexed": false,
          "internalType": "uint256",
          "name": "oldPrice",
          "type": "uint256"
        },
        {
          "indexed": false,
          "internalType": "uint256",
          "name": "newPrice",
          "type": "uint256"
        }
      ],
      "name": "UniswapWindowUpdated",
      "type": "event"
    },
    {
      "inputs": [
        {
          "components": [
            {
              "internalType": "address",
              "name": "cToken",
              "type": "address"
            },
            {
              "internalType": "address",
              "name": "underlying",
              "type": "address"
            },
            {
              "internalType": "bytes32",
              "name": "symbolHash",
              "type": "bytes32"
            },
            {
              "internalType": "uint256",
              "name": "baseUnit",
              "type": "uint256"
            },
            {
              "internalType": "enum UniswapConfig.PriceSource",
              "name": "priceSource",
              "type": "uint8"
            },
            {
              "internalType": "uint256",
              "name": "fixedPrice",
              "type": "uint256"
            },
            {
              "internalType": "address",
              "name": "uniswapMarket",
              "type": "address"
            },
            {
              "internalType": "bool",
              "name": "isUniswapReversed",
              "type": "bool"
            }
          ],
          "internalType": "struct UniswapConfig.TokenConfig[]",
          "name": "configs",
          "type": "tuple[]"
        }
      ],
      "name": "addTokens",
      "outputs": [],
      "stateMutability": "nonpayable",
      "type": "function"
    },
    {
      "inputs": [],
      "name": "anchorPeriod",
      "outputs": [
        {
          "internalType": "uint256",
          "name": "",
          "type": "uint256"
        }
      ],
      "stateMutability": "view",
      "type": "function"
    },
    {
      "inputs": [
        {
          "internalType": "address",
          "name": "",
          "type": "address"
        }
      ],
      "name": "cTokenIndex",
      "outputs": [
        {
          "internalType": "uint256",
          "name": "",
          "type": "uint256"
        }
      ],
      "stateMutability": "view",
      "type": "function"
    },
    {
      "inputs": [],
      "name": "ethBaseUnit",
      "outputs": [
        {
          "internalType": "uint256",
          "name": "",
          "type": "uint256"
        }
      ],
      "stateMutability": "view",
      "type": "function"
    },
    {
      "inputs": [],
      "name": "expScale",
      "outputs": [
        {
          "internalType": "uint256",
          "name": "",
          "type": "uint256"
        }
      ],
      "stateMutability": "view",
      "type": "function"
    },
    {
      "inputs": [
        {
          "internalType": "uint256",
          "name": "i",
          "type": "uint256"
        }
      ],
      "name": "getTokenConfig",
      "outputs": [
        {
          "components": [
            {
              "internalType": "address",
              "name": "cToken",
              "type": "address"
            },
            {
              "internalType": "address",
              "name": "underlying",
              "type": "address"
            },
            {
              "internalType": "bytes32",
              "name": "symbolHash",
              "type": "bytes32"
            },
            {
              "internalType": "uint256",
              "name": "baseUnit",
              "type": "uint256"
            },
            {
              "internalType": "enum UniswapConfig.PriceSource",
              "name": "priceSource",
              "type": "uint8"
            },
            {
              "internalType": "uint256",
              "name": "fixedPrice",
              "type": "uint256"
            },
            {
              "internalType": "address",
              "name": "uniswapMarket",
              "type": "address"
            },
            {
              "internalType": "bool",
              "name": "isUniswapReversed",
              "type": "bool"
            }
          ],
          "internalType": "struct UniswapConfig.TokenConfig",
          "name": "",
          "type": "tuple"
        }
      ],
      "stateMutability": "view",
      "type": "function"
    },
    {
      "inputs": [
        {
          "internalType": "address",
          "name": "cToken",
          "type": "address"
        }
      ],
      "name": "getTokenConfigByCToken",
      "outputs": [
        {
          "components": [
            {
              "internalType": "address",
              "name": "cToken",
              "type": "address"
            },
            {
              "internalType": "address",
              "name": "underlying",
              "type": "address"
            },
            {
              "internalType": "bytes32",
              "name": "symbolHash",
              "type": "bytes32"
            },
            {
              "internalType": "uint256",
              "name": "baseUnit",
              "type": "uint256"
            },
            {
              "internalType": "enum UniswapConfig.PriceSource",
              "name": "priceSource",
              "type": "uint8"
            },
            {
              "internalType": "uint256",
              "name": "fixedPrice",
              "type": "uint256"
            },
            {
              "internalType": "address",
              "name": "uniswapMarket",
              "type": "address"
            },
            {
              "internalType": "bool",
              "name": "isUniswapReversed",
              "type": "bool"
            }
          ],
          "internalType": "struct UniswapConfig.TokenConfig",
          "name": "",
          "type": "tuple"
        }
      ],
      "stateMutability": "view",
      "type": "function"
    },
    {
      "inputs": [
        {
          "internalType": "string",
          "name": "symbol",
          "type": "string"
        }
      ],
      "name": "getTokenConfigBySymbol",
      "outputs": [
        {
          "components": [
            {
              "internalType": "address",
              "name": "cToken",
              "type": "address"
            },
            {
              "internalType": "address",
              "name": "underlying",
              "type": "address"
            },
            {
              "internalType": "bytes32",
              "name": "symbolHash",
              "type": "bytes32"
            },
            {
              "internalType": "uint256",
              "name": "baseUnit",
              "type": "uint256"
            },
            {
              "internalType": "enum UniswapConfig.PriceSource",
              "name": "priceSource",
              "type": "uint8"
            },
            {
              "internalType": "uint256",
              "name": "fixedPrice",
              "type": "uint256"
            },
            {
              "internalType": "address",
              "name": "uniswapMarket",
              "type": "address"
            },
            {
              "internalType": "bool",
              "name": "isUniswapReversed",
              "type": "bool"
            }
          ],
          "internalType": "struct UniswapConfig.TokenConfig",
          "name": "",
          "type": "tuple"
        }
      ],
      "stateMutability": "view",
      "type": "function"
    },
    {
      "inputs": [
        {
          "internalType": "bytes32",
          "name": "symbolHash",
          "type": "bytes32"
        }
      ],
      "name": "getTokenConfigBySymbolHash",
      "outputs": [
        {
          "components": [
            {
              "internalType": "address",
              "name": "cToken",
              "type": "address"
            },
            {
              "internalType": "address",
              "name": "underlying",
              "type": "address"
            },
            {
              "internalType": "bytes32",
              "name": "symbolHash",
              "type": "bytes32"
            },
            {
              "internalType": "uint256",
              "name": "baseUnit",
              "type": "uint256"
            },
            {
              "internalType": "enum UniswapConfig.PriceSource",
              "name": "priceSource",
              "type": "uint8"
            },
            {
              "internalType": "uint256",
              "name": "fixedPrice",
              "type": "uint256"
            },
            {
              "internalType": "address",
              "name": "uniswapMarket",
              "type": "address"
            },
            {
              "internalType": "bool",
              "name": "isUniswapReversed",
              "type": "bool"
            }
          ],
          "internalType": "struct UniswapConfig.TokenConfig",
          "name": "",
          "type": "tuple"
        }
      ],
      "stateMutability": "view",
      "type": "function"
    },
    {
      "inputs": [
        {
          "internalType": "address",
          "name": "underlying",
          "type": "address"
        }
      ],
      "name": "getTokenConfigByUnderlying",
      "outputs": [
        {
          "components": [
            {
              "internalType": "address",
              "name": "cToken",
              "type": "address"
            },
            {
              "internalType": "address",
              "name": "underlying",
              "type": "address"
            },
            {
              "internalType": "bytes32",
              "name": "symbolHash",
              "type": "bytes32"
            },
            {
              "internalType": "uint256",
              "name": "baseUnit",
              "type": "uint256"
            },
            {
              "internalType": "enum UniswapConfig.PriceSource",
              "name": "priceSource",
              "type": "uint8"
            },
            {
              "internalType": "uint256",
              "name": "fixedPrice",
              "type": "uint256"
            },
            {
              "internalType": "address",
              "name": "uniswapMarket",
              "type": "address"
            },
            {
              "internalType": "bool",
              "name": "isUniswapReversed",
              "type": "bool"
            }
          ],
          "internalType": "struct UniswapConfig.TokenConfig",
          "name": "",
          "type": "tuple"
        }
      ],
      "stateMutability": "view",
      "type": "function"
    },
    {
      "inputs": [
        {
          "internalType": "address",
          "name": "cToken",
          "type": "address"
        }
      ],
      "name": "getUnderlyingPrice",
      "outputs": [
        {
          "internalType": "uint256",
          "name": "",
          "type": "uint256"
        }
      ],
      "stateMutability": "nonpayable",
      "type": "function"
    },
    {
      "inputs": [
        {
          "internalType": "bytes32",
          "name": "",
          "type": "bytes32"
        }
      ],
      "name": "newObservations",
      "outputs": [
        {
          "internalType": "uint256",
          "name": "timestamp",
          "type": "uint256"
        },
        {
          "internalType": "uint256",
          "name": "acc",
          "type": "uint256"
        }
      ],
      "stateMutability": "view",
      "type": "function"
    },
    {
      "inputs": [],
      "name": "numTokens",
      "outputs": [
        {
          "internalType": "uint256",
          "name": "",
          "type": "uint256"
        }
      ],
      "stateMutability": "view",
      "type": "function"
    },
    {
      "inputs": [
        {
          "internalType": "bytes32",
          "name": "",
          "type": "bytes32"
        }
      ],
      "name": "oldObservations",
      "outputs": [
        {
          "internalType": "uint256",
          "name": "timestamp",
          "type": "uint256"
        },
        {
          "internalType": "uint256",
          "name": "acc",
          "type": "uint256"
        }
      ],
      "stateMutability": "view",
      "type": "function"
    },
    {
      "inputs": [],
      "name": "owner",
      "outputs": [
        {
          "internalType": "address",
          "name": "",
          "type": "address"
        }
      ],
      "stateMutability": "view",
      "type": "function"
    },
    {
      "inputs": [
        {
          "internalType": "string",
          "name": "symbol",
          "type": "string"
        }
      ],
      "name": "price",
      "outputs": [
        {
          "internalType": "uint256",
          "name": "",
          "type": "uint256"
        }
      ],
      "stateMutability": "view",
      "type": "function"
    },
    {
      "inputs": [
        {
          "internalType": "bytes32",
          "name": "",
          "type": "bytes32"
        }
      ],
      "name": "prices",
      "outputs": [
        {
          "internalType": "uint256",
          "name": "",
          "type": "uint256"
        }
      ],
      "stateMutability": "view",
      "type": "function"
    },
    {
      "inputs": [],
      "name": "renounceOwnership",
      "outputs": [],
      "stateMutability": "nonpayable",
      "type": "function"
    },
    {
      "inputs": [
        {
          "internalType": "bytes32",
          "name": "",
          "type": "bytes32"
        }
      ],
      "name": "symbolHashIndex",
      "outputs": [
        {
          "internalType": "uint256",
          "name": "",
          "type": "uint256"
        }
      ],
      "stateMutability": "view",
      "type": "function"
    },
    {
      "inputs": [
        {
          "internalType": "uint256",
          "name": "",
          "type": "uint256"
        }
      ],
      "name": "tokens",
      "outputs": [
        {
          "internalType": "address",
          "name": "cToken",
          "type": "address"
        },
        {
          "internalType": "address",
          "name": "underlying",
          "type": "address"
        },
        {
          "internalType": "bytes32",
          "name": "symbolHash",
          "type": "bytes32"
        },
        {
          "internalType": "uint256",
          "name": "baseUnit",
          "type": "uint256"
        },
        {
          "internalType": "enum UniswapConfig.PriceSource",
          "name": "priceSource",
          "type": "uint8"
        },
        {
          "internalType": "uint256",
          "name": "fixedPrice",
          "type": "uint256"
        },
        {
          "internalType": "address",
          "name": "uniswapMarket",
          "type": "address"
        },
        {
          "internalType": "bool",
          "name": "isUniswapReversed",
          "type": "bool"
        }
      ],
      "stateMutability": "view",
      "type": "function"
    },
    {
      "inputs": [
        {
          "internalType": "address",
          "name": "newOwner",
          "type": "address"
        }
      ],
      "name": "transferOwnership",
      "outputs": [],
      "stateMutability": "nonpayable",
      "type": "function"
    },
    {
      "inputs": [
        {
          "internalType": "address",
          "name": "",
          "type": "address"
        }
      ],
      "name": "underlyingIndex",
      "outputs": [
        {
          "internalType": "uint256",
          "name": "",
          "type": "uint256"
        }
      ],
      "stateMutability": "view",
      "type": "function"
    }
  ],
  "transactionHash": "0x30befbbc9bba8fd4f012cb911f6e416d84aca548ff0e27a0ca98b4b35984fcc1",
  "args": [
    1800,
    [
      {
        "cToken": "0x2fae68686a181f2CF62520268b6F118f357C0Ccf",
        "underlying": "0x0000000000000000000000000000000000000000",
        "symbolHash": "0xaaaebeba3810b1e6b70781f14b2d72c1cb89c0b2b320c43bb67ff79f562f5ff4",
        "baseUnit": "1000000000000000000",
        "priceSource": 2,
        "fixedPrice": 0,
        "uniswapMarket": "0xB1bC33810F9e6E8D417925236991Fcc5012AaaE8",
        "isUniswapReversed": false
      },
      {
        "cToken": "0x4293d932256Ee96f232fC62327Ca986C5BacE7b9",
        "underlying": "0xeb8f08a975Ab53E34D8a0330E0D34de942C95926",
        "symbolHash": "0xd6aca1be9729c13d677335161321649cccae6a591554772516700f986f942eaa",
        "baseUnit": 1000000,
        "priceSource": 1,
        "fixedPrice": 1000000,
        "uniswapMarket": "0x0000000000000000000000000000000000000000",
        "isUniswapReversed": false
      },
      {
        "cToken": "0xa34b751006c58762a5A45F6d65345b949Ff4AfB9",
        "underlying": "0xb480C498F33a664DD43Ffab82D9c49B073Db8b2c",
        "symbolHash": "0x98da2c5e4c6b1db946694570273b859a6e4083ccc8faa155edfc4c54eb3cfd73",
        "baseUnit": 100000000,
        "priceSource": 2,
        "fixedPrice": 0,
        "uniswapMarket": "0x12bfA2C92F0bf1A67802E13BbC57DE89DE96b893",
        "isUniswapReversed": false
      }
    ]
  ],
  "solcInputHash": "cc88744c814e030744b4f7bb428f1af4",
  "bytecode": "0x60a06040523480156200001157600080fd5b506040516200239938038062002399833981016040819052620000349162000840565b806000620000416200020c565b600080546001600160a01b0319166001600160a01b0383169081178255604051929350917f8be0079c531659141344cd1fd0a4f28419497f9722a3daafe3b4186f6b6457e0908290a350620000968162000210565b50608082905260005b81518110156200020357620000b3620006a5565b828281518110620000c057fe5b602002602001015190506000816060015111620000fa5760405162461bcd60e51b8152600401620000f19062000907565b60405180910390fd5b60c08101516002826080015160028111156200011257fe5b1415620001ce576001600160a01b038116620001425760405162461bcd60e51b8152600401620000f19062000949565b604082015160006200015484620003db565b600083815260076020908152604080832042808255600890935292819020828155600193840185905592909201839055905191925083917fe37d39315e3419c0937360f1ac88f2c52ecf67e3b22b367f82047ddb4591904a91620001be9181908690819062000a09565b60405180910390a25050620001f8565b6001600160a01b03811615620001f85760405162461bcd60e51b8152600401620000f190620009c3565b50506001016200009f565b50505062000a64565b3390565b6005545b8151811015620003ce578181815181106200022b57fe5b60209081029190910181015160008381526001808452604091829020835181546001600160a01b03199081166001600160a01b03928316178355958501518284018054909716911617909455908201516002808501919091556060830151600385015560808301516004850180549495949193909260ff19909216918490811115620002b357fe5b021790555060a0820151600582015560c08201516006909101805460e0909301511515600160a01b0260ff60a01b196001600160a01b039093166001600160a01b03199094169390931791909116919091179055815181906002906000908590849081106200031e57fe5b6020026020010151600001516001600160a01b03166001600160a01b031681526020019081526020016000208190555080600360008484815181106200036057fe5b6020026020010151602001516001600160a01b03166001600160a01b03168152602001908152602001600020819055508060046000848481518110620003a257fe5b602002602001015160400151815260200190815260200160002081905550808060010191505062000214565b5051600580549091019055565b6000806000620003fa8460c001516200041d60201b620009271760201c565b50915091508360e001511562000414579150620004189050565b5090505b919050565b600080806200042b62000620565b9050836001600160a01b0316635909c0d56040518163ffffffff1660e01b815260040160206040518083038186803b1580156200046757600080fd5b505afa1580156200047c573d6000803e3d6000fd5b505050506040513d601f19601f82011682018060405250810190620004a2919062000827565b9250836001600160a01b0316635a3d54936040518163ffffffff1660e01b815260040160206040518083038186803b158015620004de57600080fd5b505afa158015620004f3573d6000803e3d6000fd5b505050506040513d601f19601f8201168201806040525081019062000519919062000827565b91506000806000866001600160a01b0316630902f1ac6040518163ffffffff1660e01b815260040160606040518083038186803b1580156200055a57600080fd5b505afa1580156200056f573d6000803e3d6000fd5b505050506040513d601f19601f82011682018060405250810190620005959190620007cd565b9250925092508363ffffffff168163ffffffff16146200061657600081850390508063ffffffff16620005d484866200062a60201b62000afc1760201c565b600001516001600160e01b031602870196508063ffffffff166200060485856200062a60201b62000afc1760201c565b516001600160e01b0316029590950194505b5050509193909250565b63ffffffff421690565b62000634620006ea565b6000826001600160701b031611620006605760405162461bcd60e51b8152600401620000f1906200098c565b6040805160208101909152806001600160701b038416600160701b600160e01b03607087901b16816200068f57fe5b046001600160e01b031681525090505b92915050565b60408051610100810182526000808252602082018190529181018290526060810182905290608082019081526000602082018190526040820181905260609091015290565b60408051602081019091526000815290565b80516001600160a01b03811681146200069f57600080fd5b805180151581146200069f57600080fd5b600061010080838503121562000739578182fd5b620007448162000a24565b915050620007538383620006fc565b8152620007648360208401620006fc565b602082015260408201516040820152606082015160608201526080820151600381106200079057600080fd5b608082015260a08281015190820152620007ae8360c08401620006fc565b60c0820152620007c28360e0840162000714565b60e082015292915050565b600080600060608486031215620007e2578283fd5b8351620007ef8162000a4b565b6020850151909350620008028162000a4b565b604085015190925063ffffffff811681146200081c578182fd5b809150509250925092565b60006020828403121562000839578081fd5b5051919050565b6000806040838503121562000853578182fd5b8251602080850151919350906001600160401b038082111562000874578384fd5b818601915086601f83011262000888578384fd5b81518181111562000897578485fd5b620008a6848583020162000a24565b8181528481019250838501610100808402860187018b1015620008c7578788fd5b8795505b83861015620008f757620008e08b8362000725565b8552600195909501949386019390810190620008cb565b5096999098509650505050505050565b60208082526022908201527f62617365556e6974206d7573742062652067726561746572207468616e207a65604082015261726f60f01b606082015260800190565b60208082526023908201527f7265706f7274656420707269636573206d757374206861766520616e20616e636040820152623437b960e91b606082015260800190565b60208082526017908201527f4669786564506f696e743a204449565f42595f5a45524f000000000000000000604082015260600190565b60208082526026908201527f6f6e6c79207265706f7274656420707269636573207574696c697a6520616e2060408201526530b731b437b960d11b606082015260800190565b93845260208401929092526040830152606082015260800190565b6040518181016001600160401b038111828210171562000a4357600080fd5b604052919050565b6001600160701b038116811462000a6157600080fd5b50565b60805161191062000a89600039806106c75280610dde528061112952506119106000f3fe608060405234801561001057600080fd5b50600436106101425760003560e01c80638a003888116100b8578063d1b353b41161007c578063d1b353b414610239578063e9206d781461029f578063eaa1c2ca146102a7578063f2fde38b146102ba578063fc57d4df146102cd578063fe2c6198146102e057610142565b80638a003888146102495780638da5cb5b1461025c5780638e499bcf1461027157806395acbb39146102795780639f5996311461028c57610142565b80634da219421161010a5780634da21942146101d95780634f64b2be146101ec5780635d5c06be1461021357806360846bc61461022657806369aa3ac614610239578063715018a61461024157610142565b80630d66ba22146101475780631a1252041461015c5780631f93ab7914610185578063276c2cba146101a557806337c0e12d146101b8575b600080fd5b61015a6101553660046113a1565b6102f3565b005b61016f61016a366004611452565b610347565b60405161017c91906117e5565b60405180910390f35b610198610193366004611369565b610393565b60405161017c9190611857565b61016f6101b336600461146a565b6103a5565b6101cb6101c6366004611452565b6103e2565b60405161017c929190611860565b61016f6101e7366004611369565b6103fb565b6101ff6101fa366004611452565b61040e565b60405161017c9897969594939291906115c9565b610198610221366004611369565b61046a565b610198610234366004611452565b61047c565b61019861048e565b61015a61049a565b61016f610257366004611452565b610523565b6102646105fc565b60405161017c91906115b5565b61019861060b565b610198610287366004611452565b610611565b61016f61029a366004611369565b610623565b6101986106c5565b6101cb6102b5366004611452565b6106e9565b61015a6102c8366004611369565b610702565b6101986102db366004611369565b6107c2565b6101986102ee36600461146a565b61080a565b6102fb610b77565b6001600160a01b031661030c6105fc565b6001600160a01b03161461033b5760405162461bcd60e51b81526004016103329061172d565b60405180910390fd5b61034481610b7b565b50565b61034f611233565b600061035a83610d3f565b905060001981146103765761036e81610523565b91505061038e565b60405162461bcd60e51b8152600401610332906116c6565b919050565b60036020526000908152604090205481565b6103ad611233565b6103dc826040516020016103c1919061156d565b60405160208183030381529060405280519060200120610347565b92915050565b6007602052600090815260409020805460019091015482565b610403611233565b600061035a83610d51565b600160208190526000918252604090912080549181015460028201546003830154600484015460058501546006909501546001600160a01b0396871696948516959394929360ff92831693909290821691600160a01b90041688565b60026020526000908152604090205481565b60066020526000908152604090205481565b670de0b6b3a764000081565b6104a2610b77565b6001600160a01b03166104b36105fc565b6001600160a01b0316146104d95760405162461bcd60e51b81526004016103329061172d565b600080546040516001600160a01b03909116907f8be0079c531659141344cd1fd0a4f28419497f9722a3daafe3b4186f6b6457e0908390a3600080546001600160a01b0319169055565b61052b611233565b600554821061054c5760405162461bcd60e51b8152600401610332906116c6565b60008281526001602081815260409283902083516101008101855281546001600160a01b03908116825293820154909316918301919091526002808201549383019390935260038101546060830152600481015491929091608084019160ff909116908111156105b857fe5b60028111156105c357fe5b8152600582015460208201526006909101546001600160a01b0381166040830152600160a01b900460ff16151560609091015292915050565b6000546001600160a01b031690565b60055481565b60046020526000908152604090205481565b61062b611233565b600061063683610d6c565b9050600019811461064a5761036e81610523565b6106be836001600160a01b0316636f307dc36040518163ffffffff1660e01b815260040160206040518083038186803b15801561068657600080fd5b505afa15801561069a573d6000803e3d6000fd5b505050506040513d601f19601f820116820180604052508101906101e79190611385565b9392505050565b7f000000000000000000000000000000000000000000000000000000000000000081565b6008602052600090815260409020805460019091015482565b61070a610b77565b6001600160a01b031661071b6105fc565b6001600160a01b0316146107415760405162461bcd60e51b81526004016103329061172d565b6001600160a01b0381166107675760405162461bcd60e51b815260040161033290611649565b600080546040516001600160a01b03808516939216917f8be0079c531659141344cd1fd0a4f28419497f9722a3daafe3b4186f6b6457e091a3600080546001600160a01b0319166001600160a01b0392909216919091179055565b60006107cc611233565b6107d583610623565b905080606001516107fb6c0c9f2c9cd04674edea400000006107f684610d87565b610f00565b8161080257fe5b049392505050565b6000610814611233565b61081d836103a5565b905060028160800151600281111561083157fe5b141561085057604090810151600090815260066020522054905061038e565b60018160800151600281111561086257fe5b14156108735760a00151905061038e565b60008160800151600281111561088557fe5b141561090f576000600660006040516020016108a0906115a6565b604051602081830303815290604052805190602001208152602001908152602001600020549050600081116108e75760405162461bcd60e51b815260040161033290611762565b670de0b6b3a76400006108fe828460a00151610f00565b8161090557fe5b049250505061038e565b60409081015160009081526006602052205492915050565b6000806000610934610f3a565b9050836001600160a01b0316635909c0d56040518163ffffffff1660e01b815260040160206040518083038186803b15801561096f57600080fd5b505afa158015610983573d6000803e3d6000fd5b505050506040513d601f19601f820116820180604052508101906109a79190611547565b9250836001600160a01b0316635a3d54936040518163ffffffff1660e01b815260040160206040518083038186803b1580156109e257600080fd5b505afa1580156109f6573d6000803e3d6000fd5b505050506040513d601f19601f82011682018060405250810190610a1a9190611547565b91506000806000866001600160a01b0316630902f1ac6040518163ffffffff1660e01b815260040160606040518083038186803b158015610a5a57600080fd5b505afa158015610a6e573d6000803e3d6000fd5b505050506040513d601f19601f82011682018060405250810190610a9291906114f3565b9250925092508363ffffffff168163ffffffff1614610af25780840363ffffffff8116610abf8486610afc565b516001600160e01b031602969096019563ffffffff8116610ae08585610afc565b516001600160e01b0316029590950194505b5050509193909250565b610b04611278565b6000826001600160701b031611610b2d5760405162461bcd60e51b8152600401610332906117ae565b6040805160208101909152806001600160701b0384166dffffffffffffffffffffffffffff60701b607087901b1681610b6257fe5b046001600160e01b0316815250905092915050565b3390565b6005545b8151811015610d3257818181518110610b9457fe5b60209081029190910181015160008381526001808452604091829020835181546001600160a01b03199081166001600160a01b03928316178355958501518284018054909716911617909455908201516002808501919091556060830151600385015560808301516004850180549495949193909260ff19909216918490811115610c1b57fe5b021790555060a0820151600582015560c08201516006909101805460e0909301511515600160a01b0260ff60a01b196001600160a01b039093166001600160a01b0319909416939093179190911691909117905581518190600290600090859084908110610c8557fe5b6020026020010151600001516001600160a01b03166001600160a01b03168152602001908152602001600020819055508060036000848481518110610cc657fe5b6020026020010151602001516001600160a01b03166001600160a01b03168152602001908152602001600020819055508060046000848481518110610d0757fe5b6020026020010151604001518152602001908152602001600020819055508080600101915050610b7f565b5051600580549091019055565b60009081526004602052604090205490565b6001600160a01b031660009081526003602052604090205490565b6001600160a01b031660009081526002602052604090205490565b6000600282608001516002811115610d9b57fe5b1415610e4257610da961128a565b5060408083015160009081526008602090815290829020825180840190935280548084526001909101549183019190915242037f000000000000000000000000000000000000000000000000000000000000000081101580610e1a5750604080850151600090815260066020522054155b15610e2857610e2884610f44565b50505060408082015160009081526006602052205461038e565b600182608001516002811115610e5457fe5b1415610e65575060a081015161038e565b600082608001516002811115610e7757fe5b141561038e57600060066000604051602001610e92906115a6565b60405160208183030381529060405280519060200120815260200190815260200160002054905060008111610ed95760405162461bcd60e51b815260040161033290611762565b670de0b6b3a7640000610ef0828560a00151610f00565b81610ef757fe5b0491505061038e565b600082610f0f575060006103dc565b82820282848281610f1c57fe5b04146106be5760405162461bcd60e51b81526004016103329061168f565b63ffffffff421690565b6000610f4e610fb1565b90506000604051602001610f61906115a6565b6040516020818303038152906040528051906020012083604001511415610f89575080610f96565b610f938383610fdb565b90505b60409283015160009081526006602052929092209190915550565b6000610fd6610fc86040516020016103c1906115a6565b670de0b6b3a7640000610fdb565b905090565b600080600080610fea866110d6565b92509250925080421161100f5760405162461bcd60e51b8152600401610332906116f6565b4281900361101b611278565b6040518060200160405280838688038161103157fe5b046001600160e01b03168152509050600061104b826111e9565b90506000611059828a610f00565b90506000670de0b6b3a764000080611075848e60600151610f00565b8161107c57fe5b048161108457fe5b0490507f7d881580fb2bb7844e8ecf8df26510247c4bbea2735d40bf0d9ac33c0d9acd818b600001518288426040516110c09493929190611623565b60405180910390a19a9950505050505050505050565b6000806000808460400151905060006110ee86611201565b90506110f861128a565b50600082815260086020908152604091829020825180840190935280548084526001909101549183019190915242037f000000000000000000000000000000000000000000000000000000000000000081106111c4578151600085815260076020908152604080832093845581860180516001958601556008909252918290204280825593018690558a82015185519151925190937fe37d39315e3419c0937360f1ac88f2c52ecf67e3b22b367f82047ddb4591904a936111bb9392899061186e565b60405180910390a25b5050600091825260076020526040909120600181015490549196909550909350915050565b516612725dd1d243ab6001600160e01b039091160490565b60008060006112138460c00151610927565b50915091508360e001511561122b57915061038e9050565b50905061038e565b60408051610100810182526000808252602082018190529181018290526060810182905290608082019081526000602082018190526040820181905260609091015290565b60408051602081019091526000815290565b604051806040016040528060008152602001600081525090565b80356103dc816118b0565b803580151581146103dc57600080fd5b8035600381106103dc57600080fd5b60006101008083850312156112e1578182fd5b6112ea81611889565b91505081356112f8816118b0565b81526020820135611308816118b0565b80602083015250604082013560408201526060820135606082015261133083608084016112bf565b608082015260a082013560a082015261134c8360c084016112a4565b60c082015261135e8360e084016112af565b60e082015292915050565b60006020828403121561137a578081fd5b81356106be816118b0565b600060208284031215611396578081fd5b81516106be816118b0565b600060208083850312156113b3578182fd5b823567ffffffffffffffff808211156113ca578384fd5b818501915085601f8301126113dd578384fd5b8135818111156113eb578485fd5b6113f88485830201611889565b8181528481019250838501610100808402860187018a1015611418578788fd5b8795505b838610156114445761142e8a836112ce565b855260019590950194938601939081019061141c565b509098975050505050505050565b600060208284031215611463578081fd5b5035919050565b6000602080838503121561147c578182fd5b823567ffffffffffffffff80821115611493578384fd5b818501915085601f8301126114a6578384fd5b8135818111156114b4578485fd5b6114c6601f8201601f19168501611889565b915080825286848285010111156114db578485fd5b80848401858401378101909201929092529392505050565b600080600060608486031215611507578182fd5b8351611512816118c5565b6020850151909350611523816118c5565b604085015190925063ffffffff8116811461153c578182fd5b809150509250925092565b600060208284031215611558578081fd5b5051919050565b6003811061156957fe5b9052565b60008251815b8181101561158d5760208186018101518583015201611573565b8181111561159b5782828501525b509190910192915050565b6208aa8960eb1b815260030190565b6001600160a01b0391909116815260200190565b6001600160a01b038981168252888116602083015260408201889052606082018790526101008201906115ff608084018861155f565b8560a084015280851660c08401525082151560e08301529998505050505050505050565b6001600160a01b0394909416845260208401929092526040830152606082015260800190565b60208082526026908201527f4f776e61626c653a206e6577206f776e657220697320746865207a65726f206160408201526564647265737360d01b606082015260800190565b60208082526017908201527f6d756c7469706c69636174696f6e206f766572666c6f77000000000000000000604082015260600190565b6020808252601690820152751d1bdad95b8818dbdb999a59c81b9bdd08199bdd5b9960521b604082015260600190565b6020808252601a908201527f6e6f77206d75737420636f6d65206166746572206265666f7265000000000000604082015260600190565b6020808252818101527f4f776e61626c653a2063616c6c6572206973206e6f7420746865206f776e6572604082015260600190565b6020808252602c908201527f455448207072696365206e6f74207365742c2063616e6e6f7420636f6e76657260408201526b7420746f20646f6c6c61727360a01b606082015260800190565b60208082526017908201527f4669786564506f696e743a204449565f42595f5a45524f000000000000000000604082015260600190565b60006101008201905060018060a01b038084511683528060208501511660208401526040840151604084015260608401516060840152608084015161182d608085018261155f565b5060a084015160a08401528060c08501511660c08401525060e0830151151560e083015292915050565b90815260200190565b918252602082015260400190565b93845260208401929092526040830152606082015260800190565b60405181810167ffffffffffffffff811182821017156118a857600080fd5b604052919050565b6001600160a01b038116811461034457600080fd5b6001600160701b038116811461034457600080fdfea26469706673582212209e331ac774e6d43c7d6a023da11fc4881cdf21c8416002a3cff7d2f5c60f037564736f6c634300060c0033",
  "devdoc": {
    "kind": "dev",
    "methods": {
      "constructor": {
        "details": "Note that to avoid immature TWAPs, the system must run for at least a single anchorPeriod before using.",
        "params": {
          "anchorPeriod_": "The minimum amount of time required for the old uniswap price accumulator to be replaced",
          "configs": "The static token configurations which define what prices are supported and how"
        }
      },
      "getTokenConfig(uint256)": {
        "params": {
          "i": "The index of the config to get"
        },
        "returns": {
          "_0": "The config object"
        }
      },
      "getTokenConfigByCToken(address)": {
        "details": "If a config for the cToken is not found, falls back to searching for the underlying.",
        "params": {
          "cToken": "The address of the cToken of the config to get"
        },
        "returns": {
          "_0": "The config object"
        }
      },
      "getTokenConfigBySymbol(string)": {
        "params": {
          "symbol": "The symbol of the config to get"
        },
        "returns": {
          "_0": "The config object"
        }
      },
      "getTokenConfigBySymbolHash(bytes32)": {
        "params": {
          "symbolHash": "The keccack256 of the symbol of the config to get"
        },
        "returns": {
          "_0": "The config object"
        }
      },
      "getTokenConfigByUnderlying(address)": {
        "params": {
          "underlying": "The address of the underlying asset of the config to get"
        },
        "returns": {
          "_0": "The config object"
        }
      },
      "getUnderlyingPrice(address)": {
        "details": "Implements the PriceOracle interface for Compound v2.",
        "params": {
          "cToken": "The cToken address for price retrieval"
        },
        "returns": {
          "_0": "Price denominated in USD, with 18 decimals, for the given cToken address"
        }
      },
      "owner()": {
        "details": "Returns the address of the current owner."
      },
      "price(string)": {
        "params": {
          "symbol": "The symbol to fetch the price of"
        },
        "returns": {
          "_0": "Price denominated in USD, with 6 decimals"
        }
      },
      "renounceOwnership()": {
        "details": "Leaves the contract without owner. It will not be possible to call `onlyOwner` functions anymore. Can only be called by the current owner. NOTE: Renouncing ownership will leave the contract without an owner, thereby removing any functionality that is only available to the owner."
      },
      "transferOwnership(address)": {
        "details": "Transfers ownership of the contract to a new account (`newOwner`). Can only be called by the current owner."
      }
    },
    "version": 1
  },
  "userdoc": {
    "events": {
      "AnchorPriceUpdated(address,uint256,uint256,uint256)": {
        "notice": "The event emitted when anchor price is updated"
      },
      "PriceUpdated(string,uint256)": {
        "notice": "The event emitted when the stored price is updated"
      },
      "UniswapWindowUpdated(bytes32,uint256,uint256,uint256,uint256)": {
        "notice": "The event emitted when the uniswap window changes"
      }
    },
    "kind": "user",
    "methods": {
      "anchorPeriod()": {
        "notice": "The minimum amount of time in seconds required for the old uniswap price accumulator to be replaced"
      },
      "constructor": "Construct a uniswap anchored view for a set of token configurations",
      "ethBaseUnit()": {
        "notice": "The number of wei in 1 ETH"
      },
      "expScale()": {
        "notice": "A common scaling factor to maintain precision"
      },
      "getTokenConfig(uint256)": {
        "notice": "Get the i-th config, according to the order they were passed in originally"
      },
      "getTokenConfigByCToken(address)": {
        "notice": "Get the config for the cToken"
      },
      "getTokenConfigBySymbol(string)": {
        "notice": "Get the config for symbol"
      },
      "getTokenConfigBySymbolHash(bytes32)": {
        "notice": "Get the config for the symbolHash"
      },
      "getTokenConfigByUnderlying(address)": {
        "notice": "Get the config for an underlying asset"
      },
      "getUnderlyingPrice(address)": {
        "notice": "Get the underlying price of a cToken"
      },
      "newObservations(bytes32)": {
        "notice": "The new observation for each symbolHash"
      },
      "numTokens()": {
        "notice": "The number of tokens this contract actually supports"
      },
      "oldObservations(bytes32)": {
        "notice": "The old observation for each symbolHash"
      },
      "price(string)": {
        "notice": "Get the official price for a symbol"
      },
      "prices(bytes32)": {
        "notice": "Official prices by symbol hash"
      }
    },
    "version": 1
  },
  "storageLayout": {
    "storage": [
      {
        "astId": 1196,
        "contract": "contracts/UniswapOracle/UniswapAnchoredView.sol:UniswapAnchoredView",
        "label": "_owner",
        "offset": 0,
        "slot": "0",
        "type": "t_address"
      },
      {
        "astId": 737,
        "contract": "contracts/UniswapOracle/UniswapAnchoredView.sol:UniswapAnchoredView",
        "label": "tokens",
        "offset": 0,
        "slot": "1",
        "type": "t_mapping(t_uint256,t_struct(TokenConfig)733_storage)"
      },
      {
        "astId": 741,
        "contract": "contracts/UniswapOracle/UniswapAnchoredView.sol:UniswapAnchoredView",
        "label": "cTokenIndex",
        "offset": 0,
        "slot": "2",
        "type": "t_mapping(t_address,t_uint256)"
      },
      {
        "astId": 745,
        "contract": "contracts/UniswapOracle/UniswapAnchoredView.sol:UniswapAnchoredView",
        "label": "underlyingIndex",
        "offset": 0,
        "slot": "3",
        "type": "t_mapping(t_address,t_uint256)"
      },
      {
        "astId": 749,
        "contract": "contracts/UniswapOracle/UniswapAnchoredView.sol:UniswapAnchoredView",
        "label": "symbolHashIndex",
        "offset": 0,
        "slot": "4",
        "type": "t_mapping(t_bytes32,t_uint256)"
      },
      {
        "astId": 752,
        "contract": "contracts/UniswapOracle/UniswapAnchoredView.sol:UniswapAnchoredView",
        "label": "numTokens",
        "offset": 0,
        "slot": "5",
        "type": "t_uint256"
      },
      {
        "astId": 29,
        "contract": "contracts/UniswapOracle/UniswapAnchoredView.sol:UniswapAnchoredView",
        "label": "prices",
        "offset": 0,
        "slot": "6",
        "type": "t_mapping(t_bytes32,t_uint256)"
      },
      {
        "astId": 34,
        "contract": "contracts/UniswapOracle/UniswapAnchoredView.sol:UniswapAnchoredView",
        "label": "oldObservations",
        "offset": 0,
        "slot": "7",
        "type": "t_mapping(t_bytes32,t_struct(Observation)9_storage)"
      },
      {
        "astId": 39,
        "contract": "contracts/UniswapOracle/UniswapAnchoredView.sol:UniswapAnchoredView",
        "label": "newObservations",
        "offset": 0,
        "slot": "8",
        "type": "t_mapping(t_bytes32,t_struct(Observation)9_storage)"
      }
    ],
    "types": {
      "t_address": {
        "encoding": "inplace",
        "label": "address",
        "numberOfBytes": "20"
      },
      "t_bool": {
        "encoding": "inplace",
        "label": "bool",
        "numberOfBytes": "1"
      },
      "t_bytes32": {
        "encoding": "inplace",
        "label": "bytes32",
        "numberOfBytes": "32"
      },
      "t_enum(PriceSource)716": {
        "encoding": "inplace",
        "label": "enum UniswapConfig.PriceSource",
        "numberOfBytes": "1"
      },
      "t_mapping(t_address,t_uint256)": {
        "encoding": "mapping",
        "key": "t_address",
        "label": "mapping(address => uint256)",
        "numberOfBytes": "32",
        "value": "t_uint256"
      },
      "t_mapping(t_bytes32,t_struct(Observation)9_storage)": {
        "encoding": "mapping",
        "key": "t_bytes32",
        "label": "mapping(bytes32 => struct Observation)",
        "numberOfBytes": "32",
        "value": "t_struct(Observation)9_storage"
      },
      "t_mapping(t_bytes32,t_uint256)": {
        "encoding": "mapping",
        "key": "t_bytes32",
        "label": "mapping(bytes32 => uint256)",
        "numberOfBytes": "32",
        "value": "t_uint256"
      },
      "t_mapping(t_uint256,t_struct(TokenConfig)733_storage)": {
        "encoding": "mapping",
        "key": "t_uint256",
        "label": "mapping(uint256 => struct UniswapConfig.TokenConfig)",
        "numberOfBytes": "32",
        "value": "t_struct(TokenConfig)733_storage"
      },
      "t_struct(Observation)9_storage": {
        "encoding": "inplace",
        "label": "struct Observation",
        "members": [
          {
            "astId": 6,
            "contract": "contracts/UniswapOracle/UniswapAnchoredView.sol:UniswapAnchoredView",
            "label": "timestamp",
            "offset": 0,
            "slot": "0",
            "type": "t_uint256"
          },
          {
            "astId": 8,
            "contract": "contracts/UniswapOracle/UniswapAnchoredView.sol:UniswapAnchoredView",
            "label": "acc",
            "offset": 0,
            "slot": "1",
            "type": "t_uint256"
          }
        ],
        "numberOfBytes": "64"
      },
      "t_struct(TokenConfig)733_storage": {
        "encoding": "inplace",
        "label": "struct UniswapConfig.TokenConfig",
        "members": [
          {
            "astId": 718,
            "contract": "contracts/UniswapOracle/UniswapAnchoredView.sol:UniswapAnchoredView",
            "label": "cToken",
            "offset": 0,
            "slot": "0",
            "type": "t_address"
          },
          {
            "astId": 720,
            "contract": "contracts/UniswapOracle/UniswapAnchoredView.sol:UniswapAnchoredView",
            "label": "underlying",
            "offset": 0,
            "slot": "1",
            "type": "t_address"
          },
          {
            "astId": 722,
            "contract": "contracts/UniswapOracle/UniswapAnchoredView.sol:UniswapAnchoredView",
            "label": "symbolHash",
            "offset": 0,
            "slot": "2",
            "type": "t_bytes32"
          },
          {
            "astId": 724,
            "contract": "contracts/UniswapOracle/UniswapAnchoredView.sol:UniswapAnchoredView",
            "label": "baseUnit",
            "offset": 0,
            "slot": "3",
            "type": "t_uint256"
          },
          {
            "astId": 726,
            "contract": "contracts/UniswapOracle/UniswapAnchoredView.sol:UniswapAnchoredView",
            "label": "priceSource",
            "offset": 0,
            "slot": "4",
            "type": "t_enum(PriceSource)716"
          },
          {
            "astId": 728,
            "contract": "contracts/UniswapOracle/UniswapAnchoredView.sol:UniswapAnchoredView",
            "label": "fixedPrice",
            "offset": 0,
            "slot": "5",
            "type": "t_uint256"
          },
          {
            "astId": 730,
            "contract": "contracts/UniswapOracle/UniswapAnchoredView.sol:UniswapAnchoredView",
            "label": "uniswapMarket",
            "offset": 0,
            "slot": "6",
            "type": "t_address"
          },
          {
            "astId": 732,
            "contract": "contracts/UniswapOracle/UniswapAnchoredView.sol:UniswapAnchoredView",
            "label": "isUniswapReversed",
            "offset": 20,
            "slot": "6",
            "type": "t_bool"
          }
        ],
        "numberOfBytes": "224"
      },
      "t_uint256": {
        "encoding": "inplace",
        "label": "uint256",
        "numberOfBytes": "32"
      }
    }
  }
}