{
  "address": "0x7341756bD49776F84874E5403b86CB58e6C2fdF4",
  "abi": [
    {
      "inputs": [
        {
          "internalType": "uint256",
          "name": "anchorPeriod_",
          "type": "uint256"
        },
        {
          "components": [
            {
              "internalType": "address",
              "name": "cToken",
              "type": "address"
            },
            {
              "internalType": "address",
              "name": "underlying",
              "type": "address"
            },
            {
              "internalType": "bytes32",
              "name": "symbolHash",
              "type": "bytes32"
            },
            {
              "internalType": "uint256",
              "name": "baseUnit",
              "type": "uint256"
            },
            {
              "internalType": "enum UniswapConfig.PriceSource",
              "name": "priceSource",
              "type": "uint8"
            },
            {
              "internalType": "uint256",
              "name": "fixedPrice",
              "type": "uint256"
            },
            {
              "internalType": "address",
              "name": "uniswapMarket",
              "type": "address"
            },
            {
              "internalType": "bool",
              "name": "isUniswapReversed",
              "type": "bool"
            }
          ],
          "internalType": "struct UniswapConfig.TokenConfig[]",
          "name": "configs",
          "type": "tuple[]"
        }
      ],
      "stateMutability": "nonpayable",
      "type": "constructor"
    },
    {
      "anonymous": false,
      "inputs": [
        {
          "indexed": false,
          "internalType": "address",
          "name": "cToken",
          "type": "address"
        },
        {
          "indexed": false,
          "internalType": "uint256",
          "name": "anchorPrice",
          "type": "uint256"
        },
        {
          "indexed": false,
          "internalType": "uint256",
          "name": "oldTimestamp",
          "type": "uint256"
        },
        {
          "indexed": false,
          "internalType": "uint256",
          "name": "newTimestamp",
          "type": "uint256"
        }
      ],
      "name": "AnchorPriceUpdated",
      "type": "event"
    },
    {
      "anonymous": false,
      "inputs": [
        {
          "indexed": true,
          "internalType": "address",
          "name": "previousOwner",
          "type": "address"
        },
        {
          "indexed": true,
          "internalType": "address",
          "name": "newOwner",
          "type": "address"
        }
      ],
      "name": "OwnershipTransferred",
      "type": "event"
    },
    {
      "anonymous": false,
      "inputs": [
        {
          "indexed": false,
          "internalType": "string",
          "name": "symbol",
          "type": "string"
        },
        {
          "indexed": false,
          "internalType": "uint256",
          "name": "price",
          "type": "uint256"
        }
      ],
      "name": "PriceUpdated",
      "type": "event"
    },
    {
      "anonymous": false,
      "inputs": [
        {
          "indexed": true,
          "internalType": "bytes32",
          "name": "symbolHash",
          "type": "bytes32"
        },
        {
          "indexed": false,
          "internalType": "uint256",
          "name": "oldTimestamp",
          "type": "uint256"
        },
        {
          "indexed": false,
          "internalType": "uint256",
          "name": "newTimestamp",
          "type": "uint256"
        },
        {
          "indexed": false,
          "internalType": "uint256",
          "name": "oldPrice",
          "type": "uint256"
        },
        {
          "indexed": false,
          "internalType": "uint256",
          "name": "newPrice",
          "type": "uint256"
        }
      ],
      "name": "UniswapWindowUpdated",
      "type": "event"
    },
    {
      "inputs": [
        {
          "components": [
            {
              "internalType": "address",
              "name": "cToken",
              "type": "address"
            },
            {
              "internalType": "address",
              "name": "underlying",
              "type": "address"
            },
            {
              "internalType": "bytes32",
              "name": "symbolHash",
              "type": "bytes32"
            },
            {
              "internalType": "uint256",
              "name": "baseUnit",
              "type": "uint256"
            },
            {
              "internalType": "enum UniswapConfig.PriceSource",
              "name": "priceSource",
              "type": "uint8"
            },
            {
              "internalType": "uint256",
              "name": "fixedPrice",
              "type": "uint256"
            },
            {
              "internalType": "address",
              "name": "uniswapMarket",
              "type": "address"
            },
            {
              "internalType": "bool",
              "name": "isUniswapReversed",
              "type": "bool"
            }
          ],
          "internalType": "struct UniswapConfig.TokenConfig[]",
          "name": "configs",
          "type": "tuple[]"
        }
      ],
      "name": "addTokens",
      "outputs": [],
      "stateMutability": "nonpayable",
      "type": "function"
    },
    {
      "inputs": [],
      "name": "anchorPeriod",
      "outputs": [
        {
          "internalType": "uint256",
          "name": "",
          "type": "uint256"
        }
      ],
      "stateMutability": "view",
      "type": "function"
    },
    {
      "inputs": [
        {
          "internalType": "address",
          "name": "",
          "type": "address"
        }
      ],
      "name": "cTokenIndex",
      "outputs": [
        {
          "internalType": "uint256",
          "name": "",
          "type": "uint256"
        }
      ],
      "stateMutability": "view",
      "type": "function"
    },
    {
      "inputs": [],
      "name": "ethBaseUnit",
      "outputs": [
        {
          "internalType": "uint256",
          "name": "",
          "type": "uint256"
        }
      ],
      "stateMutability": "view",
      "type": "function"
    },
    {
      "inputs": [],
      "name": "expScale",
      "outputs": [
        {
          "internalType": "uint256",
          "name": "",
          "type": "uint256"
        }
      ],
      "stateMutability": "view",
      "type": "function"
    },
    {
      "inputs": [
        {
          "internalType": "uint256",
          "name": "i",
          "type": "uint256"
        }
      ],
      "name": "getTokenConfig",
      "outputs": [
        {
          "components": [
            {
              "internalType": "address",
              "name": "cToken",
              "type": "address"
            },
            {
              "internalType": "address",
              "name": "underlying",
              "type": "address"
            },
            {
              "internalType": "bytes32",
              "name": "symbolHash",
              "type": "bytes32"
            },
            {
              "internalType": "uint256",
              "name": "baseUnit",
              "type": "uint256"
            },
            {
              "internalType": "enum UniswapConfig.PriceSource",
              "name": "priceSource",
              "type": "uint8"
            },
            {
              "internalType": "uint256",
              "name": "fixedPrice",
              "type": "uint256"
            },
            {
              "internalType": "address",
              "name": "uniswapMarket",
              "type": "address"
            },
            {
              "internalType": "bool",
              "name": "isUniswapReversed",
              "type": "bool"
            }
          ],
          "internalType": "struct UniswapConfig.TokenConfig",
          "name": "",
          "type": "tuple"
        }
      ],
      "stateMutability": "view",
      "type": "function"
    },
    {
      "inputs": [
        {
          "internalType": "address",
          "name": "cToken",
          "type": "address"
        }
      ],
      "name": "getTokenConfigByCToken",
      "outputs": [
        {
          "components": [
            {
              "internalType": "address",
              "name": "cToken",
              "type": "address"
            },
            {
              "internalType": "address",
              "name": "underlying",
              "type": "address"
            },
            {
              "internalType": "bytes32",
              "name": "symbolHash",
              "type": "bytes32"
            },
            {
              "internalType": "uint256",
              "name": "baseUnit",
              "type": "uint256"
            },
            {
              "internalType": "enum UniswapConfig.PriceSource",
              "name": "priceSource",
              "type": "uint8"
            },
            {
              "internalType": "uint256",
              "name": "fixedPrice",
              "type": "uint256"
            },
            {
              "internalType": "address",
              "name": "uniswapMarket",
              "type": "address"
            },
            {
              "internalType": "bool",
              "name": "isUniswapReversed",
              "type": "bool"
            }
          ],
          "internalType": "struct UniswapConfig.TokenConfig",
          "name": "",
          "type": "tuple"
        }
      ],
      "stateMutability": "view",
      "type": "function"
    },
    {
      "inputs": [
        {
          "internalType": "string",
          "name": "symbol",
          "type": "string"
        }
      ],
      "name": "getTokenConfigBySymbol",
      "outputs": [
        {
          "components": [
            {
              "internalType": "address",
              "name": "cToken",
              "type": "address"
            },
            {
              "internalType": "address",
              "name": "underlying",
              "type": "address"
            },
            {
              "internalType": "bytes32",
              "name": "symbolHash",
              "type": "bytes32"
            },
            {
              "internalType": "uint256",
              "name": "baseUnit",
              "type": "uint256"
            },
            {
              "internalType": "enum UniswapConfig.PriceSource",
              "name": "priceSource",
              "type": "uint8"
            },
            {
              "internalType": "uint256",
              "name": "fixedPrice",
              "type": "uint256"
            },
            {
              "internalType": "address",
              "name": "uniswapMarket",
              "type": "address"
            },
            {
              "internalType": "bool",
              "name": "isUniswapReversed",
              "type": "bool"
            }
          ],
          "internalType": "struct UniswapConfig.TokenConfig",
          "name": "",
          "type": "tuple"
        }
      ],
      "stateMutability": "view",
      "type": "function"
    },
    {
      "inputs": [
        {
          "internalType": "bytes32",
          "name": "symbolHash",
          "type": "bytes32"
        }
      ],
      "name": "getTokenConfigBySymbolHash",
      "outputs": [
        {
          "components": [
            {
              "internalType": "address",
              "name": "cToken",
              "type": "address"
            },
            {
              "internalType": "address",
              "name": "underlying",
              "type": "address"
            },
            {
              "internalType": "bytes32",
              "name": "symbolHash",
              "type": "bytes32"
            },
            {
              "internalType": "uint256",
              "name": "baseUnit",
              "type": "uint256"
            },
            {
              "internalType": "enum UniswapConfig.PriceSource",
              "name": "priceSource",
              "type": "uint8"
            },
            {
              "internalType": "uint256",
              "name": "fixedPrice",
              "type": "uint256"
            },
            {
              "internalType": "address",
              "name": "uniswapMarket",
              "type": "address"
            },
            {
              "internalType": "bool",
              "name": "isUniswapReversed",
              "type": "bool"
            }
          ],
          "internalType": "struct UniswapConfig.TokenConfig",
          "name": "",
          "type": "tuple"
        }
      ],
      "stateMutability": "view",
      "type": "function"
    },
    {
      "inputs": [
        {
          "internalType": "address",
          "name": "underlying",
          "type": "address"
        }
      ],
      "name": "getTokenConfigByUnderlying",
      "outputs": [
        {
          "components": [
            {
              "internalType": "address",
              "name": "cToken",
              "type": "address"
            },
            {
              "internalType": "address",
              "name": "underlying",
              "type": "address"
            },
            {
              "internalType": "bytes32",
              "name": "symbolHash",
              "type": "bytes32"
            },
            {
              "internalType": "uint256",
              "name": "baseUnit",
              "type": "uint256"
            },
            {
              "internalType": "enum UniswapConfig.PriceSource",
              "name": "priceSource",
              "type": "uint8"
            },
            {
              "internalType": "uint256",
              "name": "fixedPrice",
              "type": "uint256"
            },
            {
              "internalType": "address",
              "name": "uniswapMarket",
              "type": "address"
            },
            {
              "internalType": "bool",
              "name": "isUniswapReversed",
              "type": "bool"
            }
          ],
          "internalType": "struct UniswapConfig.TokenConfig",
          "name": "",
          "type": "tuple"
        }
      ],
      "stateMutability": "view",
      "type": "function"
    },
    {
      "inputs": [
        {
          "internalType": "address",
          "name": "cToken",
          "type": "address"
        }
      ],
      "name": "getUnderlyingPrice",
      "outputs": [
        {
          "internalType": "uint256",
          "name": "",
          "type": "uint256"
        }
      ],
      "stateMutability": "nonpayable",
      "type": "function"
    },
    {
      "inputs": [
        {
          "internalType": "address",
          "name": "cToken",
          "type": "address"
        }
      ],
      "name": "getUnderlyingPriceView",
      "outputs": [
        {
          "internalType": "uint256",
          "name": "",
          "type": "uint256"
        }
      ],
      "stateMutability": "view",
      "type": "function"
    },
    {
      "inputs": [
        {
          "internalType": "bytes32",
          "name": "",
          "type": "bytes32"
        }
      ],
      "name": "newObservations",
      "outputs": [
        {
          "internalType": "uint256",
          "name": "timestamp",
          "type": "uint256"
        },
        {
          "internalType": "uint256",
          "name": "acc",
          "type": "uint256"
        }
      ],
      "stateMutability": "view",
      "type": "function"
    },
    {
      "inputs": [],
      "name": "numTokens",
      "outputs": [
        {
          "internalType": "uint256",
          "name": "",
          "type": "uint256"
        }
      ],
      "stateMutability": "view",
      "type": "function"
    },
    {
      "inputs": [
        {
          "internalType": "bytes32",
          "name": "",
          "type": "bytes32"
        }
      ],
      "name": "oldObservations",
      "outputs": [
        {
          "internalType": "uint256",
          "name": "timestamp",
          "type": "uint256"
        },
        {
          "internalType": "uint256",
          "name": "acc",
          "type": "uint256"
        }
      ],
      "stateMutability": "view",
      "type": "function"
    },
    {
      "inputs": [],
      "name": "owner",
      "outputs": [
        {
          "internalType": "address",
          "name": "",
          "type": "address"
        }
      ],
      "stateMutability": "view",
      "type": "function"
    },
    {
      "inputs": [
        {
          "internalType": "string",
          "name": "symbol",
          "type": "string"
        }
      ],
      "name": "price",
      "outputs": [
        {
          "internalType": "uint256",
          "name": "",
          "type": "uint256"
        }
      ],
      "stateMutability": "view",
      "type": "function"
    },
    {
      "inputs": [
        {
          "internalType": "bytes32",
          "name": "",
          "type": "bytes32"
        }
      ],
      "name": "prices",
      "outputs": [
        {
          "internalType": "uint256",
          "name": "",
          "type": "uint256"
        }
      ],
      "stateMutability": "view",
      "type": "function"
    },
    {
      "inputs": [],
      "name": "renounceOwnership",
      "outputs": [],
      "stateMutability": "nonpayable",
      "type": "function"
    },
    {
      "inputs": [
        {
          "internalType": "bytes32",
          "name": "",
          "type": "bytes32"
        }
      ],
      "name": "symbolHashIndex",
      "outputs": [
        {
          "internalType": "uint256",
          "name": "",
          "type": "uint256"
        }
      ],
      "stateMutability": "view",
      "type": "function"
    },
    {
      "inputs": [
        {
          "internalType": "uint256",
          "name": "",
          "type": "uint256"
        }
      ],
      "name": "tokens",
      "outputs": [
        {
          "internalType": "address",
          "name": "cToken",
          "type": "address"
        },
        {
          "internalType": "address",
          "name": "underlying",
          "type": "address"
        },
        {
          "internalType": "bytes32",
          "name": "symbolHash",
          "type": "bytes32"
        },
        {
          "internalType": "uint256",
          "name": "baseUnit",
          "type": "uint256"
        },
        {
          "internalType": "enum UniswapConfig.PriceSource",
          "name": "priceSource",
          "type": "uint8"
        },
        {
          "internalType": "uint256",
          "name": "fixedPrice",
          "type": "uint256"
        },
        {
          "internalType": "address",
          "name": "uniswapMarket",
          "type": "address"
        },
        {
          "internalType": "bool",
          "name": "isUniswapReversed",
          "type": "bool"
        }
      ],
      "stateMutability": "view",
      "type": "function"
    },
    {
      "inputs": [
        {
          "internalType": "address",
          "name": "newOwner",
          "type": "address"
        }
      ],
      "name": "transferOwnership",
      "outputs": [],
      "stateMutability": "nonpayable",
      "type": "function"
    },
    {
      "inputs": [
        {
          "internalType": "address",
          "name": "",
          "type": "address"
        }
      ],
      "name": "underlyingIndex",
      "outputs": [
        {
          "internalType": "uint256",
          "name": "",
          "type": "uint256"
        }
      ],
      "stateMutability": "view",
      "type": "function"
    }
  ],
  "transactionHash": "0x4e32876223a90f46519e71226c2c3ffc68e1015979894e9cfdfe844502574177",
  "args": [
    1800,
    [
      {
        "cToken": "0x55C0A3Fdc4B1B1FD00A88b86e279F5Ac6C3fbC45",
        "underlying": "0x0000000000000000000000000000000000000000",
        "symbolHash": "0xaaaebeba3810b1e6b70781f14b2d72c1cb89c0b2b320c43bb67ff79f562f5ff4",
        "baseUnit": "1000000000000000000",
        "priceSource": 2,
        "fixedPrice": 0,
        "uniswapMarket": "0xB1bC33810F9e6E8D417925236991Fcc5012AaaE8",
        "isUniswapReversed": false
      },
      {
        "cToken": "0xCd2A45DD2ad6772af618baA8030145D5be792443",
        "underlying": "0xeb8f08a975Ab53E34D8a0330E0D34de942C95926",
        "symbolHash": "0xd6aca1be9729c13d677335161321649cccae6a591554772516700f986f942eaa",
        "baseUnit": 1000000,
        "priceSource": 1,
        "fixedPrice": 1000000,
        "uniswapMarket": "0x0000000000000000000000000000000000000000",
        "isUniswapReversed": false
      },
      {
        "cToken": "0xE284E683a4CbCf4bd06bcB8Ba05d8a3b0c168D17",
        "underlying": "0xb480C498F33a664DD43Ffab82D9c49B073Db8b2c",
        "symbolHash": "0x98da2c5e4c6b1db946694570273b859a6e4083ccc8faa155edfc4c54eb3cfd73",
        "baseUnit": 100000000,
        "priceSource": 2,
        "fixedPrice": 0,
        "uniswapMarket": "0x12bfA2C92F0bf1A67802E13BbC57DE89DE96b893",
        "isUniswapReversed": false
      }
    ]
  ],
  "solcInputHash": "804858eae182966e2a6daff51a28640a",
  "bytecode": "0x60a06040523480156200001157600080fd5b50604051620025123803806200251283398101604081905262000034916200085a565b806000620000416200020c565b600080546001600160a01b0319166001600160a01b0383169081178255604051929350917f8be0079c531659141344cd1fd0a4f28419497f9722a3daafe3b4186f6b6457e0908290a350620000968162000210565b50608082905260005b81518110156200020357620000b3620006a5565b828281518110620000c057fe5b602002602001015190506000816060015111620000fa5760405162461bcd60e51b8152600401620000f19062000921565b60405180910390fd5b60c08101516002826080015160028111156200011257fe5b1415620001ce576001600160a01b038116620001425760405162461bcd60e51b8152600401620000f19062000963565b604082015160006200015484620003db565b600083815260076020908152604080832042808255600890935292819020828155600193840185905592909201839055905191925083917fe37d39315e3419c0937360f1ac88f2c52ecf67e3b22b367f82047ddb4591904a91620001be9181908690819062000a23565b60405180910390a25050620001f8565b6001600160a01b03811615620001f85760405162461bcd60e51b8152600401620000f190620009dd565b50506001016200009f565b50505062000a7e565b3390565b6005545b8151811015620003ce578181815181106200022b57fe5b60209081029190910181015160008381526001808452604091829020835181546001600160a01b03199081166001600160a01b03928316178355958501518284018054909716911617909455908201516002808501919091556060830151600385015560808301516004850180549495949193909260ff19909216918490811115620002b357fe5b021790555060a0820151600582015560c08201516006909101805460e0909301511515600160a01b0260ff60a01b196001600160a01b039093166001600160a01b03199094169390931791909116919091179055815181906002906000908590849081106200031e57fe5b6020026020010151600001516001600160a01b03166001600160a01b031681526020019081526020016000208190555080600360008484815181106200036057fe5b6020026020010151602001516001600160a01b03166001600160a01b03168152602001908152602001600020819055508060046000848481518110620003a257fe5b602002602001015160400151815260200190815260200160002081905550808060010191505062000214565b5051600580549091019055565b6000806000620003fa8460c001516200041d60201b62000a5b1760201c565b50915091508360e001511562000414579150620004189050565b5090505b919050565b600080806200042b62000620565b9050836001600160a01b0316635909c0d56040518163ffffffff1660e01b815260040160206040518083038186803b1580156200046757600080fd5b505afa1580156200047c573d6000803e3d6000fd5b505050506040513d601f19601f82011682018060405250810190620004a2919062000841565b9250836001600160a01b0316635a3d54936040518163ffffffff1660e01b815260040160206040518083038186803b158015620004de57600080fd5b505afa158015620004f3573d6000803e3d6000fd5b505050506040513d601f19601f8201168201806040525081019062000519919062000841565b91506000806000866001600160a01b0316630902f1ac6040518163ffffffff1660e01b815260040160606040518083038186803b1580156200055a57600080fd5b505afa1580156200056f573d6000803e3d6000fd5b505050506040513d601f19601f82011682018060405250810190620005959190620007e7565b9250925092508363ffffffff168163ffffffff16146200061657600081850390508063ffffffff16620005d484866200062a60201b62000c301760201c565b600001516001600160e01b031602870196508063ffffffff166200060485856200062a60201b62000c301760201c565b516001600160e01b0316029590950194505b5050509193909250565b63ffffffff421690565b62000634620006ea565b6000826001600160701b031611620006605760405162461bcd60e51b8152600401620000f190620009a6565b6040805160208101909152806001600160701b038416600160701b600160e01b03607087901b16816200068f57fe5b046001600160e01b031681525090505b92915050565b60408051610100810182526000808252602082018190529181018290526060810182905290608082019081526000602082018190526040820181905260609091015290565b60408051602081019091526000815290565b80516001600160a01b03811681146200069f57600080fd5b805180151581146200069f57600080fd5b8051600381106200069f57600080fd5b600061010080838503121562000749578182fd5b620007548162000a3e565b835190925090506001600160a01b03811681146200077157600080fd5b8152620007828360208401620006fc565b60208201526040820151604082015260608201516060820152620007aa836080840162000725565b608082015260a082015160a0820152620007c88360c08401620006fc565b60c0820152620007dc8360e0840162000714565b60e082015292915050565b600080600060608486031215620007fc578283fd5b8351620008098162000a65565b60208501519093506200081c8162000a65565b604085015190925063ffffffff8116811462000836578182fd5b809150509250925092565b60006020828403121562000853578081fd5b5051919050565b600080604083850312156200086d578182fd5b8251602080850151919350906001600160401b03808211156200088e578384fd5b818601915086601f830112620008a2578384fd5b815181811115620008b1578485fd5b620008c0848583020162000a3e565b8181528481019250838501610100808402860187018b1015620008e1578788fd5b8795505b838610156200091157620008fa8b8362000735565b8552600195909501949386019390810190620008e5565b5096999098509650505050505050565b60208082526022908201527f62617365556e6974206d7573742062652067726561746572207468616e207a65604082015261726f60f01b606082015260800190565b60208082526023908201527f7265706f7274656420707269636573206d757374206861766520616e20616e636040820152623437b960e91b606082015260800190565b60208082526017908201527f4669786564506f696e743a204449565f42595f5a45524f000000000000000000604082015260600190565b60208082526026908201527f6f6e6c79207265706f7274656420707269636573207574696c697a6520616e2060408201526530b731b437b960d11b606082015260800190565b93845260208401929092526040830152606082015260800190565b6040518181016001600160401b038111828210171562000a5d57600080fd5b604052919050565b6001600160701b038116811462000a7b57600080fd5b50565b608051611a6f62000aa36000398061080a5280610f4c528061125d5250611a6f6000f3fe608060405234801561001057600080fd5b506004361061014d5760003560e01c8063715018a6116100c3578063d1b353b41161007c578063d1b353b414610244578063e9206d78146102bd578063eaa1c2ca146102c5578063f2fde38b146102d8578063fc57d4df146102eb578063fe2c6198146102fe5761014d565b8063715018a61461025f5780638a003888146102675780638da5cb5b1461027a5780638e499bcf1461028f57806395acbb39146102975780639f599631146102aa5761014d565b80634da21942116101155780634da21942146101e45780634f64b2be146101f75780635d5c06be1461021e57806360846bc61461023157806369aa3ac6146102445780636f3aa01d1461024c5761014d565b80630d66ba22146101525780631a125204146101675780631f93ab7914610190578063276c2cba146101b057806337c0e12d146101c3575b600080fd5b6101656101603660046114d5565b610311565b005b61017a610175366004611579565b610365565b6040516101879190611914565b60405180910390f35b6101a361019e36600461149d565b6103b1565b6040516101879190611996565b61017a6101be366004611591565b6103c3565b6101d66101d1366004611579565b610400565b60405161018792919061199f565b61017a6101f236600461149d565b610419565b61020a610205366004611579565b61042c565b6040516101879897969594939291906116f5565b6101a361022c36600461149d565b610488565b6101a361023f366004611579565b61049a565b6101a36104ac565b6101a361025a36600461149d565b6104b8565b6101656105dd565b61017a610275366004611579565b610666565b61028261073f565b60405161018791906116e1565b6101a361074e565b6101a36102a5366004611579565b610754565b61017a6102b836600461149d565b610766565b6101a3610808565b6101d66102d3366004611579565b61082c565b6101656102e636600461149d565b610845565b6101a36102f936600461149d565b610905565b6101a361030c366004611591565b61094d565b610319610cab565b6001600160a01b031661032a61073f565b6001600160a01b0316146103595760405162461bcd60e51b81526004016103509061185c565b60405180910390fd5b61036281610caf565b50565b61036d611367565b600061037883610e73565b905060001981146103945761038c81610666565b9150506103ac565b60405162461bcd60e51b8152600401610350906117f5565b919050565b60036020526000908152604090205481565b6103cb611367565b6103fa826040516020016103df9190611699565b60405160208183030381529060405280519060200120610365565b92915050565b6007602052600090815260409020805460019091015482565b610421611367565b600061037883610e85565b600160208190526000918252604090912080549181015460028201546003830154600484015460058501546006909501546001600160a01b0396871696948516959394929360ff92831693909290821691600160a01b90041688565b60026020526000908152604090205481565b60066020526000908152604090205481565b670de0b6b3a764000081565b60006104c2611367565b6104cb83610766565b905060006002826080015160028111156104e157fe5b14156104fb57506040808201516000908152600660205220545b60018260800151600281111561050d57fe5b141561051a575060a08101515b60008260800151600281111561052c57fe5b14156105b157600060066000604051602001610547906116d2565b6040516020818303038152906040528051906020012081526020019081526020016000205490506000811161058e5760405162461bcd60e51b815260040161035090611891565b670de0b6b3a76400006105a5828560a00151610ea0565b816105ac57fe5b049150505b81606001516105cd6c0c9f2c9cd04674edea4000000083610ea0565b816105d457fe5b04949350505050565b6105e5610cab565b6001600160a01b03166105f661073f565b6001600160a01b03161461061c5760405162461bcd60e51b81526004016103509061185c565b600080546040516001600160a01b03909116907f8be0079c531659141344cd1fd0a4f28419497f9722a3daafe3b4186f6b6457e0908390a3600080546001600160a01b0319169055565b61066e611367565b600554821061068f5760405162461bcd60e51b8152600401610350906117f5565b60008281526001602081815260409283902083516101008101855281546001600160a01b03908116825293820154909316918301919091526002808201549383019390935260038101546060830152600481015491929091608084019160ff909116908111156106fb57fe5b600281111561070657fe5b8152600582015460208201526006909101546001600160a01b0381166040830152600160a01b900460ff16151560609091015292915050565b6000546001600160a01b031690565b60055481565b60046020526000908152604090205481565b61076e611367565b600061077983610eda565b9050600019811461078d5761038c81610666565b610801836001600160a01b0316636f307dc36040518163ffffffff1660e01b815260040160206040518083038186803b1580156107c957600080fd5b505afa1580156107dd573d6000803e3d6000fd5b505050506040513d601f19601f820116820180604052508101906101f291906114b9565b9392505050565b7f000000000000000000000000000000000000000000000000000000000000000081565b6008602052600090815260409020805460019091015482565b61084d610cab565b6001600160a01b031661085e61073f565b6001600160a01b0316146108845760405162461bcd60e51b81526004016103509061185c565b6001600160a01b0381166108aa5760405162461bcd60e51b815260040161035090611778565b600080546040516001600160a01b03808516939216917f8be0079c531659141344cd1fd0a4f28419497f9722a3daafe3b4186f6b6457e091a3600080546001600160a01b0319166001600160a01b0392909216919091179055565b600061090f611367565b61091883610766565b9050806060015161093e6c0c9f2c9cd04674edea4000000061093984610ef5565b610ea0565b8161094557fe5b049392505050565b6000610957611367565b610960836103c3565b905060028160800151600281111561097457fe5b14156109935760409081015160009081526006602052205490506103ac565b6001816080015160028111156109a557fe5b14156109b65760a0015190506103ac565b6000816080015160028111156109c857fe5b1415610a52576000600660006040516020016109e3906116d2565b60405160208183030381529060405280519060200120815260200190815260200160002054905060008111610a2a5760405162461bcd60e51b815260040161035090611891565b670de0b6b3a7640000610a41828460a00151610ea0565b81610a4857fe5b04925050506103ac565b50600092915050565b6000806000610a6861106e565b9050836001600160a01b0316635909c0d56040518163ffffffff1660e01b815260040160206040518083038186803b158015610aa357600080fd5b505afa158015610ab7573d6000803e3d6000fd5b505050506040513d601f19601f82011682018060405250810190610adb919061166e565b9250836001600160a01b0316635a3d54936040518163ffffffff1660e01b815260040160206040518083038186803b158015610b1657600080fd5b505afa158015610b2a573d6000803e3d6000fd5b505050506040513d601f19601f82011682018060405250810190610b4e919061166e565b91506000806000866001600160a01b0316630902f1ac6040518163ffffffff1660e01b815260040160606040518083038186803b158015610b8e57600080fd5b505afa158015610ba2573d6000803e3d6000fd5b505050506040513d601f19601f82011682018060405250810190610bc6919061161a565b9250925092508363ffffffff168163ffffffff1614610c265780840363ffffffff8116610bf38486610c30565b516001600160e01b031602969096019563ffffffff8116610c148585610c30565b516001600160e01b0316029590950194505b5050509193909250565b610c386113ac565b6000826001600160701b031611610c615760405162461bcd60e51b8152600401610350906118dd565b6040805160208101909152806001600160701b0384166dffffffffffffffffffffffffffff60701b607087901b1681610c9657fe5b046001600160e01b0316815250905092915050565b3390565b6005545b8151811015610e6657818181518110610cc857fe5b60209081029190910181015160008381526001808452604091829020835181546001600160a01b03199081166001600160a01b03928316178355958501518284018054909716911617909455908201516002808501919091556060830151600385015560808301516004850180549495949193909260ff19909216918490811115610d4f57fe5b021790555060a0820151600582015560c08201516006909101805460e0909301511515600160a01b0260ff60a01b196001600160a01b039093166001600160a01b0319909416939093179190911691909117905581518190600290600090859084908110610db957fe5b6020026020010151600001516001600160a01b03166001600160a01b03168152602001908152602001600020819055508060036000848481518110610dfa57fe5b6020026020010151602001516001600160a01b03166001600160a01b03168152602001908152602001600020819055508060046000848481518110610e3b57fe5b6020026020010151604001518152602001908152602001600020819055508080600101915050610cb3565b5051600580549091019055565b60009081526004602052604090205490565b6001600160a01b031660009081526003602052604090205490565b600082610eaf575060006103fa565b82820282848281610ebc57fe5b04146108015760405162461bcd60e51b8152600401610350906117be565b6001600160a01b031660009081526002602052604090205490565b6000600282608001516002811115610f0957fe5b1415610fb057610f176113be565b5060408083015160009081526008602090815290829020825180840190935280548084526001909101549183019190915242037f000000000000000000000000000000000000000000000000000000000000000081101580610f885750604080850151600090815260066020522054155b15610f9657610f9684611078565b5050506040808201516000908152600660205220546103ac565b600182608001516002811115610fc257fe5b1415610fd3575060a08101516103ac565b600082608001516002811115610fe557fe5b14156103ac57600060066000604051602001611000906116d2565b604051602081830303815290604052805190602001208152602001908152602001600020549050600081116110475760405162461bcd60e51b815260040161035090611891565b670de0b6b3a764000061105e828560a00151610ea0565b8161106557fe5b049150506103ac565b63ffffffff421690565b60006110826110e5565b90506000604051602001611095906116d2565b60405160208183030381529060405280519060200120836040015114156110bd5750806110ca565b6110c7838361110f565b90505b60409283015160009081526006602052929092209190915550565b600061110a6110fc6040516020016103df906116d2565b670de0b6b3a764000061110f565b905090565b60008060008061111e8661120a565b9250925092508042116111435760405162461bcd60e51b815260040161035090611825565b4281900361114f6113ac565b6040518060200160405280838688038161116557fe5b046001600160e01b03168152509050600061117f8261131d565b9050600061118d828a610ea0565b90506000670de0b6b3a7640000806111a9848e60600151610ea0565b816111b057fe5b04816111b857fe5b0490507f7d881580fb2bb7844e8ecf8df26510247c4bbea2735d40bf0d9ac33c0d9acd818b600001518288426040516111f49493929190611752565b60405180910390a19a9950505050505050505050565b60008060008084604001519050600061122286611335565b905061122c6113be565b50600082815260086020908152604091829020825180840190935280548084526001909101549183019190915242037f000000000000000000000000000000000000000000000000000000000000000081106112f8578151600085815260076020908152604080832093845581860180516001958601556008909252918290204280825593018690558a82015185519151925190937fe37d39315e3419c0937360f1ac88f2c52ecf67e3b22b367f82047ddb4591904a936112ef939289906119ad565b60405180910390a25b5050600091825260076020526040909120600181015490549196909550909350915050565b516612725dd1d243ab6001600160e01b039091160490565b60008060006113478460c00151610a5b565b50915091508360e001511561135f5791506103ac9050565b5090506103ac565b60408051610100810182526000808252602082018190529181018290526060810182905290608082019081526000602082018190526040820181905260609091015290565b60408051602081019091526000815290565b604051806040016040528060008152602001600081525090565b80356103fa81611a0f565b803580151581146103fa57600080fd5b8035600381106103fa57600080fd5b6000610100808385031215611415578182fd5b61141e816119c8565b915050813561142c81611a0f565b8152602082013561143c81611a0f565b80602083015250604082013560408201526060820135606082015261146483608084016113f3565b608082015260a082013560a08201526114808360c084016113d8565b60c08201526114928360e084016113e3565b60e082015292915050565b6000602082840312156114ae578081fd5b813561080181611a0f565b6000602082840312156114ca578081fd5b815161080181611a0f565b600060208083850312156114e7578182fd5b823567ffffffffffffffff8111156114fd578283fd5b8301601f8101851361150d578283fd5b803561152061151b826119ef565b6119c8565b81815283810190838501610100808502860187018a101561153f578788fd5b8795505b8486101561156b576115558a83611402565b8452600195909501949286019290810190611543565b509098975050505050505050565b60006020828403121561158a578081fd5b5035919050565b600060208083850312156115a3578182fd5b823567ffffffffffffffff808211156115ba578384fd5b818501915085601f8301126115cd578384fd5b8135818111156115db578485fd5b6115ed601f8201601f191685016119c8565b91508082528684828501011115611602578485fd5b80848401858401378101909201929092529392505050565b60008060006060848603121561162e578182fd5b835161163981611a24565b602085015190935061164a81611a24565b604085015190925063ffffffff81168114611663578182fd5b809150509250925092565b60006020828403121561167f578081fd5b5051919050565b6001600160a01b03169052565b15159052565b60008251815b818110156116b9576020818601810151858301520161169f565b818111156116c75782828501525b509190910192915050565b6208aa8960eb1b815260030190565b6001600160a01b0391909116815260200190565b6001600160a01b038981168252888116602083015260408201889052606082018790526101008201906003871061172857fe5b8660808401528560a084015280851660c08401525082151560e08301529998505050505050505050565b6001600160a01b0394909416845260208401929092526040830152606082015260800190565b60208082526026908201527f4f776e61626c653a206e6577206f776e657220697320746865207a65726f206160408201526564647265737360d01b606082015260800190565b60208082526017908201527f6d756c7469706c69636174696f6e206f766572666c6f77000000000000000000604082015260600190565b6020808252601690820152751d1bdad95b8818dbdb999a59c81b9bdd08199bdd5b9960521b604082015260600190565b6020808252601a908201527f6e6f77206d75737420636f6d65206166746572206265666f7265000000000000604082015260600190565b6020808252818101527f4f776e61626c653a2063616c6c6572206973206e6f7420746865206f776e6572604082015260600190565b6020808252602c908201527f455448207072696365206e6f74207365742c2063616e6e6f7420636f6e76657260408201526b7420746f20646f6c6c61727360a01b606082015260800190565b60208082526017908201527f4669786564506f696e743a204449565f42595f5a45524f000000000000000000604082015260600190565b81516001600160a01b03908116825260208084015190911690820152604080830151908201526060808301519082015260808201516101008201906003811061195957fe5b8060808401525060a083015160a083015260c083015161197c60c0840182611686565b5060e083015161198f60e0840182611693565b5092915050565b90815260200190565b918252602082015260400190565b93845260208401929092526040830152606082015260800190565b60405181810167ffffffffffffffff811182821017156119e757600080fd5b604052919050565b600067ffffffffffffffff821115611a05578081fd5b5060209081020190565b6001600160a01b038116811461036257600080fd5b6001600160701b038116811461036257600080fdfea26469706673582212208b551d39420b15a7e072fcb82463967a9886c22d154c9256bdf431616c6a594664736f6c634300060c0033",
  "devdoc": {
    "kind": "dev",
    "methods": {
      "constructor": {
        "details": "Note that to avoid immature TWAPs, the system must run for at least a single anchorPeriod before using.",
        "params": {
          "anchorPeriod_": "The minimum amount of time required for the old uniswap price accumulator to be replaced",
          "configs": "The static token configurations which define what prices are supported and how"
        }
      },
      "getTokenConfig(uint256)": {
        "params": {
          "i": "The index of the config to get"
        },
        "returns": {
          "_0": "The config object"
        }
      },
      "getTokenConfigByCToken(address)": {
        "details": "If a config for the cToken is not found, falls back to searching for the underlying.",
        "params": {
          "cToken": "The address of the cToken of the config to get"
        },
        "returns": {
          "_0": "The config object"
        }
      },
      "getTokenConfigBySymbol(string)": {
        "params": {
          "symbol": "The symbol of the config to get"
        },
        "returns": {
          "_0": "The config object"
        }
      },
      "getTokenConfigBySymbolHash(bytes32)": {
        "params": {
          "symbolHash": "The keccack256 of the symbol of the config to get"
        },
        "returns": {
          "_0": "The config object"
        }
      },
      "getTokenConfigByUnderlying(address)": {
        "params": {
          "underlying": "The address of the underlying asset of the config to get"
        },
        "returns": {
          "_0": "The config object"
        }
      },
      "getUnderlyingPrice(address)": {
        "details": "Implements the PriceOracle interface for Compound v2.",
        "params": {
          "cToken": "The cToken address for price retrieval"
        },
        "returns": {
          "_0": "Price denominated in USD, with 18 decimals, for the given cToken address"
        }
      },
      "getUnderlyingPriceView(address)": {
        "details": "Implements the PriceOracle interface for Compound v2.",
        "params": {
          "cToken": "The cToken address for price retrieval"
        },
        "returns": {
          "_0": "Price denominated in USD, with 18 decimals, for the given cToken address"
        }
      },
      "owner()": {
        "details": "Returns the address of the current owner."
      },
      "price(string)": {
        "params": {
          "symbol": "The symbol to fetch the price of"
        },
        "returns": {
          "_0": "Price denominated in USD, with 6 decimals"
        }
      },
      "renounceOwnership()": {
        "details": "Leaves the contract without owner. It will not be possible to call `onlyOwner` functions anymore. Can only be called by the current owner. NOTE: Renouncing ownership will leave the contract without an owner, thereby removing any functionality that is only available to the owner."
      },
      "transferOwnership(address)": {
        "details": "Transfers ownership of the contract to a new account (`newOwner`). Can only be called by the current owner."
      }
    },
    "version": 1
  },
  "userdoc": {
    "events": {
      "AnchorPriceUpdated(address,uint256,uint256,uint256)": {
        "notice": "The event emitted when anchor price is updated"
      },
      "PriceUpdated(string,uint256)": {
        "notice": "The event emitted when the stored price is updated"
      },
      "UniswapWindowUpdated(bytes32,uint256,uint256,uint256,uint256)": {
        "notice": "The event emitted when the uniswap window changes"
      }
    },
    "kind": "user",
    "methods": {
      "anchorPeriod()": {
        "notice": "The minimum amount of time in seconds required for the old uniswap price accumulator to be replaced"
      },
      "constructor": "Construct a uniswap anchored view for a set of token configurations",
      "ethBaseUnit()": {
        "notice": "The number of wei in 1 ETH"
      },
      "expScale()": {
        "notice": "A common scaling factor to maintain precision"
      },
      "getTokenConfig(uint256)": {
        "notice": "Get the i-th config, according to the order they were passed in originally"
      },
      "getTokenConfigByCToken(address)": {
        "notice": "Get the config for the cToken"
      },
      "getTokenConfigBySymbol(string)": {
        "notice": "Get the config for symbol"
      },
      "getTokenConfigBySymbolHash(bytes32)": {
        "notice": "Get the config for the symbolHash"
      },
      "getTokenConfigByUnderlying(address)": {
        "notice": "Get the config for an underlying asset"
      },
      "getUnderlyingPrice(address)": {
        "notice": "Get the underlying price of a cToken"
      },
      "getUnderlyingPriceView(address)": {
        "notice": "Get the underlying price of a cToken"
      },
      "newObservations(bytes32)": {
        "notice": "The new observation for each symbolHash"
      },
      "numTokens()": {
        "notice": "The number of tokens this contract actually supports"
      },
      "oldObservations(bytes32)": {
        "notice": "The old observation for each symbolHash"
      },
      "price(string)": {
        "notice": "Get the official price for a symbol"
      },
      "prices(bytes32)": {
        "notice": "Official prices by symbol hash"
      }
    },
    "version": 1
  },
  "storageLayout": {
    "storage": [
      {
        "astId": 1273,
        "contract": "contracts/UniswapOracle/UniswapAnchoredView.sol:UniswapAnchoredView",
        "label": "_owner",
        "offset": 0,
        "slot": "0",
        "type": "t_address"
      },
      {
        "astId": 814,
        "contract": "contracts/UniswapOracle/UniswapAnchoredView.sol:UniswapAnchoredView",
        "label": "tokens",
        "offset": 0,
        "slot": "1",
        "type": "t_mapping(t_uint256,t_struct(TokenConfig)810_storage)"
      },
      {
        "astId": 818,
        "contract": "contracts/UniswapOracle/UniswapAnchoredView.sol:UniswapAnchoredView",
        "label": "cTokenIndex",
        "offset": 0,
        "slot": "2",
        "type": "t_mapping(t_address,t_uint256)"
      },
      {
        "astId": 822,
        "contract": "contracts/UniswapOracle/UniswapAnchoredView.sol:UniswapAnchoredView",
        "label": "underlyingIndex",
        "offset": 0,
        "slot": "3",
        "type": "t_mapping(t_address,t_uint256)"
      },
      {
        "astId": 826,
        "contract": "contracts/UniswapOracle/UniswapAnchoredView.sol:UniswapAnchoredView",
        "label": "symbolHashIndex",
        "offset": 0,
        "slot": "4",
        "type": "t_mapping(t_bytes32,t_uint256)"
      },
      {
        "astId": 829,
        "contract": "contracts/UniswapOracle/UniswapAnchoredView.sol:UniswapAnchoredView",
        "label": "numTokens",
        "offset": 0,
        "slot": "5",
        "type": "t_uint256"
      },
      {
        "astId": 29,
        "contract": "contracts/UniswapOracle/UniswapAnchoredView.sol:UniswapAnchoredView",
        "label": "prices",
        "offset": 0,
        "slot": "6",
        "type": "t_mapping(t_bytes32,t_uint256)"
      },
      {
        "astId": 34,
        "contract": "contracts/UniswapOracle/UniswapAnchoredView.sol:UniswapAnchoredView",
        "label": "oldObservations",
        "offset": 0,
        "slot": "7",
        "type": "t_mapping(t_bytes32,t_struct(Observation)9_storage)"
      },
      {
        "astId": 39,
        "contract": "contracts/UniswapOracle/UniswapAnchoredView.sol:UniswapAnchoredView",
        "label": "newObservations",
        "offset": 0,
        "slot": "8",
        "type": "t_mapping(t_bytes32,t_struct(Observation)9_storage)"
      }
    ],
    "types": {
      "t_address": {
        "encoding": "inplace",
        "label": "address",
        "numberOfBytes": "20"
      },
      "t_bool": {
        "encoding": "inplace",
        "label": "bool",
        "numberOfBytes": "1"
      },
      "t_bytes32": {
        "encoding": "inplace",
        "label": "bytes32",
        "numberOfBytes": "32"
      },
      "t_enum(PriceSource)793": {
        "encoding": "inplace",
        "label": "enum UniswapConfig.PriceSource",
        "numberOfBytes": "1"
      },
      "t_mapping(t_address,t_uint256)": {
        "encoding": "mapping",
        "key": "t_address",
        "label": "mapping(address => uint256)",
        "numberOfBytes": "32",
        "value": "t_uint256"
      },
      "t_mapping(t_bytes32,t_struct(Observation)9_storage)": {
        "encoding": "mapping",
        "key": "t_bytes32",
        "label": "mapping(bytes32 => struct Observation)",
        "numberOfBytes": "32",
        "value": "t_struct(Observation)9_storage"
      },
      "t_mapping(t_bytes32,t_uint256)": {
        "encoding": "mapping",
        "key": "t_bytes32",
        "label": "mapping(bytes32 => uint256)",
        "numberOfBytes": "32",
        "value": "t_uint256"
      },
      "t_mapping(t_uint256,t_struct(TokenConfig)810_storage)": {
        "encoding": "mapping",
        "key": "t_uint256",
        "label": "mapping(uint256 => struct UniswapConfig.TokenConfig)",
        "numberOfBytes": "32",
        "value": "t_struct(TokenConfig)810_storage"
      },
      "t_struct(Observation)9_storage": {
        "encoding": "inplace",
        "label": "struct Observation",
        "members": [
          {
            "astId": 6,
            "contract": "contracts/UniswapOracle/UniswapAnchoredView.sol:UniswapAnchoredView",
            "label": "timestamp",
            "offset": 0,
            "slot": "0",
            "type": "t_uint256"
          },
          {
            "astId": 8,
            "contract": "contracts/UniswapOracle/UniswapAnchoredView.sol:UniswapAnchoredView",
            "label": "acc",
            "offset": 0,
            "slot": "1",
            "type": "t_uint256"
          }
        ],
        "numberOfBytes": "64"
      },
      "t_struct(TokenConfig)810_storage": {
        "encoding": "inplace",
        "label": "struct UniswapConfig.TokenConfig",
        "members": [
          {
            "astId": 795,
            "contract": "contracts/UniswapOracle/UniswapAnchoredView.sol:UniswapAnchoredView",
            "label": "cToken",
            "offset": 0,
            "slot": "0",
            "type": "t_address"
          },
          {
            "astId": 797,
            "contract": "contracts/UniswapOracle/UniswapAnchoredView.sol:UniswapAnchoredView",
            "label": "underlying",
            "offset": 0,
            "slot": "1",
            "type": "t_address"
          },
          {
            "astId": 799,
            "contract": "contracts/UniswapOracle/UniswapAnchoredView.sol:UniswapAnchoredView",
            "label": "symbolHash",
            "offset": 0,
            "slot": "2",
            "type": "t_bytes32"
          },
          {
            "astId": 801,
            "contract": "contracts/UniswapOracle/UniswapAnchoredView.sol:UniswapAnchoredView",
            "label": "baseUnit",
            "offset": 0,
            "slot": "3",
            "type": "t_uint256"
          },
          {
            "astId": 803,
            "contract": "contracts/UniswapOracle/UniswapAnchoredView.sol:UniswapAnchoredView",
            "label": "priceSource",
            "offset": 0,
            "slot": "4",
            "type": "t_enum(PriceSource)793"
          },
          {
            "astId": 805,
            "contract": "contracts/UniswapOracle/UniswapAnchoredView.sol:UniswapAnchoredView",
            "label": "fixedPrice",
            "offset": 0,
            "slot": "5",
            "type": "t_uint256"
          },
          {
            "astId": 807,
            "contract": "contracts/UniswapOracle/UniswapAnchoredView.sol:UniswapAnchoredView",
            "label": "uniswapMarket",
            "offset": 0,
            "slot": "6",
            "type": "t_address"
          },
          {
            "astId": 809,
            "contract": "contracts/UniswapOracle/UniswapAnchoredView.sol:UniswapAnchoredView",
            "label": "isUniswapReversed",
            "offset": 20,
            "slot": "6",
            "type": "t_bool"
          }
        ],
        "numberOfBytes": "224"
      },
      "t_uint256": {
        "encoding": "inplace",
        "label": "uint256",
        "numberOfBytes": "32"
      }
    }
  }
}